{
    "contractName": "Booster",
    "abi": [
        {
            "inputs": [
                {
                    "internalType": "string",
                    "name": "name",
                    "type": "string"
                },
                {
                    "internalType": "string",
                    "name": "symbol",
                    "type": "string"
                },
                {
                    "internalType": "address",
                    "name": "collectionAddress",
                    "type": "address"
                },
                {
                    "internalType": "address",
                    "name": "ownerAddress",
                    "type": "address"
                }
            ],
            "stateMutability": "nonpayable",
            "type": "constructor"
        },
        {
            "inputs": [
                {
                    "internalType": "address",
                    "name": "spender",
                    "type": "address"
                },
                {
                    "internalType": "uint256",
                    "name": "allowance",
                    "type": "uint256"
                },
                {
                    "internalType": "uint256",
                    "name": "needed",
                    "type": "uint256"
                }
            ],
            "name": "ERC20InsufficientAllowance",
            "type": "error"
        },
        {
            "inputs": [
                {
                    "internalType": "address",
                    "name": "sender",
                    "type": "address"
                },
                {
                    "internalType": "uint256",
                    "name": "balance",
                    "type": "uint256"
                },
                {
                    "internalType": "uint256",
                    "name": "needed",
                    "type": "uint256"
                }
            ],
            "name": "ERC20InsufficientBalance",
            "type": "error"
        },
        {
            "inputs": [
                {
                    "internalType": "address",
                    "name": "approver",
                    "type": "address"
                }
            ],
            "name": "ERC20InvalidApprover",
            "type": "error"
        },
        {
            "inputs": [
                {
                    "internalType": "address",
                    "name": "receiver",
                    "type": "address"
                }
            ],
            "name": "ERC20InvalidReceiver",
            "type": "error"
        },
        {
            "inputs": [
                {
                    "internalType": "address",
                    "name": "sender",
                    "type": "address"
                }
            ],
            "name": "ERC20InvalidSender",
            "type": "error"
        },
        {
            "inputs": [
                {
                    "internalType": "address",
                    "name": "spender",
                    "type": "address"
                }
            ],
            "name": "ERC20InvalidSpender",
            "type": "error"
        },
        {
            "inputs": [
                {
                    "internalType": "address",
                    "name": "owner",
                    "type": "address"
                }
            ],
            "name": "OwnableInvalidOwner",
            "type": "error"
        },
        {
            "inputs": [
                {
                    "internalType": "address",
                    "name": "account",
                    "type": "address"
                }
            ],
            "name": "OwnableUnauthorizedAccount",
            "type": "error"
        },
        {
            "anonymous": false,
            "inputs": [
                {
                    "indexed": true,
                    "internalType": "address",
                    "name": "owner",
                    "type": "address"
                },
                {
                    "indexed": true,
                    "internalType": "address",
                    "name": "spender",
                    "type": "address"
                },
                {
                    "indexed": false,
                    "internalType": "uint256",
                    "name": "value",
                    "type": "uint256"
                }
            ],
            "name": "Approval",
            "type": "event"
        },
        {
            "anonymous": false,
            "inputs": [
                {
                    "indexed": true,
                    "internalType": "address",
                    "name": "user",
                    "type": "address"
                },
                {
                    "indexed": false,
                    "internalType": "string[]",
                    "name": "cards",
                    "type": "string[]"
                }
            ],
            "name": "BoosterOpened",
            "type": "event"
        },
        {
            "anonymous": false,
            "inputs": [
                {
                    "indexed": true,
                    "internalType": "address",
                    "name": "previousOwner",
                    "type": "address"
                },
                {
                    "indexed": true,
                    "internalType": "address",
                    "name": "newOwner",
                    "type": "address"
                }
            ],
            "name": "OwnershipTransferred",
            "type": "event"
        },
        {
            "anonymous": false,
            "inputs": [
                {
                    "indexed": true,
                    "internalType": "address",
                    "name": "from",
                    "type": "address"
                },
                {
                    "indexed": true,
                    "internalType": "address",
                    "name": "to",
                    "type": "address"
                },
                {
                    "indexed": false,
                    "internalType": "uint256",
                    "name": "value",
                    "type": "uint256"
                }
            ],
            "name": "Transfer",
            "type": "event"
        },
        {
            "inputs": [],
            "name": "CARDS_PER_BOOSTER",
            "outputs": [
                {
                    "internalType": "uint8",
                    "name": "",
                    "type": "uint8"
                }
            ],
            "stateMutability": "view",
            "type": "function"
        },
        {
            "inputs": [
                {
                    "internalType": "address",
                    "name": "owner",
                    "type": "address"
                },
                {
                    "internalType": "address",
                    "name": "spender",
                    "type": "address"
                }
            ],
            "name": "allowance",
            "outputs": [
                {
                    "internalType": "uint256",
                    "name": "",
                    "type": "uint256"
                }
            ],
            "stateMutability": "view",
            "type": "function"
        },
        {
            "inputs": [
                {
                    "internalType": "address",
                    "name": "spender",
                    "type": "address"
                },
                {
                    "internalType": "uint256",
                    "name": "value",
                    "type": "uint256"
                }
            ],
            "name": "approve",
            "outputs": [
                {
                    "internalType": "bool",
                    "name": "",
                    "type": "bool"
                }
            ],
            "stateMutability": "nonpayable",
            "type": "function"
        },
        {
            "inputs": [
                {
                    "internalType": "address",
                    "name": "account",
                    "type": "address"
                }
            ],
            "name": "balanceOf",
            "outputs": [
                {
                    "internalType": "uint256",
                    "name": "",
                    "type": "uint256"
                }
            ],
            "stateMutability": "view",
            "type": "function"
        },
        {
            "inputs": [
                {
                    "internalType": "address",
                    "name": "to",
                    "type": "address"
                },
                {
                    "internalType": "uint256",
                    "name": "amount",
                    "type": "uint256"
                }
            ],
            "name": "buyBooster",
            "outputs": [],
            "stateMutability": "nonpayable",
            "type": "function"
        },
        {
            "inputs": [],
            "name": "collection",
            "outputs": [
                {
                    "internalType": "contract Collection",
                    "name": "",
                    "type": "address"
                }
            ],
            "stateMutability": "view",
            "type": "function"
        },
        {
            "inputs": [],
            "name": "decimals",
            "outputs": [
                {
                    "internalType": "uint8",
                    "name": "",
                    "type": "uint8"
                }
            ],
            "stateMutability": "view",
            "type": "function"
        },
        {
            "inputs": [],
            "name": "name",
            "outputs": [
                {
                    "internalType": "string",
                    "name": "",
                    "type": "string"
                }
            ],
            "stateMutability": "view",
            "type": "function"
        },
        {
            "inputs": [],
            "name": "openBooster",
            "outputs": [],
            "stateMutability": "nonpayable",
            "type": "function"
        },
        {
            "inputs": [],
            "name": "owner",
            "outputs": [
                {
                    "internalType": "address",
                    "name": "",
                    "type": "address"
                }
            ],
            "stateMutability": "view",
            "type": "function"
        },
        {
            "inputs": [],
            "name": "renounceOwnership",
            "outputs": [],
            "stateMutability": "nonpayable",
            "type": "function"
        },
        {
            "inputs": [],
            "name": "symbol",
            "outputs": [
                {
                    "internalType": "string",
                    "name": "",
                    "type": "string"
                }
            ],
            "stateMutability": "view",
            "type": "function"
        },
        {
            "inputs": [],
            "name": "totalSupply",
            "outputs": [
                {
                    "internalType": "uint256",
                    "name": "",
                    "type": "uint256"
                }
            ],
            "stateMutability": "view",
            "type": "function"
        },
        {
            "inputs": [
                {
                    "internalType": "address",
                    "name": "to",
                    "type": "address"
                },
                {
                    "internalType": "uint256",
                    "name": "value",
                    "type": "uint256"
                }
            ],
            "name": "transfer",
            "outputs": [
                {
                    "internalType": "bool",
                    "name": "",
                    "type": "bool"
                }
            ],
            "stateMutability": "nonpayable",
            "type": "function"
        },
        {
            "inputs": [
                {
                    "internalType": "address",
                    "name": "from",
                    "type": "address"
                },
                {
                    "internalType": "address",
                    "name": "to",
                    "type": "address"
                },
                {
                    "internalType": "uint256",
                    "name": "value",
                    "type": "uint256"
                }
            ],
            "name": "transferFrom",
            "outputs": [
                {
                    "internalType": "bool",
                    "name": "",
                    "type": "bool"
                }
            ],
            "stateMutability": "nonpayable",
            "type": "function"
        },
        {
            "inputs": [
                {
                    "internalType": "address",
                    "name": "newOwner",
                    "type": "address"
                }
            ],
            "name": "transferOwnership",
            "outputs": [],
            "stateMutability": "nonpayable",
            "type": "function"
        }
    ],
    "bytecode": "6080604052346103b65761100480380380610019816103ba565b9283398101906080818303126103b65780516001600160401b0381116103b657826100459183016103df565b602082015190926001600160401b0382116103b6576100659183016103df565b9061007e606061007760408401610430565b9201610430565b83516001600160401b0381116102c757600354600181811c911680156103ac575b60208210146102a957601f8111610349575b50602094601f82116001146102e6579481929394955f926102db575b50508160011b915f199060031b1c1916176003555b82516001600160401b0381116102c757600454600181811c911680156102bd575b60208210146102a957601f8111610246575b506020601f82116001146101e357819293945f926101d8575b50508160011b915f199060031b1c1916176004555b6001600160a01b03169081156101c557600580546001600160a01b03198116841790915560405192906001600160a01b03167f8be0079c531659141344cd1fd0a4f28419497f9722a3daafe3b4186f6b6457e05f80a3600680546001600160a01b0319166001600160a01b0392909216919091179055610bbf90816104458239f35b631e4fbdf760e01b5f525f60045260245ffd5b015190505f8061012e565b601f1982169060045f52805f20915f5b81811061022e57509583600195969710610216575b505050811b01600455610143565b01515f1960f88460031b161c191690555f8080610208565b9192602060018192868b0151815501940192016101f3565b60045f527f8a35acfbc15ff81a39ae7d344fd709f28e8600b4aa8c65c6b64bfe7fe36bd19b601f830160051c8101916020841061029f575b601f0160051c01905b8181106102945750610115565b5f8155600101610287565b909150819061027e565b634e487b7160e01b5f52602260045260245ffd5b90607f1690610103565b634e487b7160e01b5f52604160045260245ffd5b015190505f806100cd565b601f1982169560035f52805f20915f5b88811061033157508360019596979810610319575b505050811b016003556100e2565b01515f1960f88460031b161c191690555f808061030b565b919260206001819286850151815501940192016102f6565b60035f527fc2575a0e9e593c00f959f8c92f12db2869c3395a3b0502d05e2516446f71f85b601f830160051c810191602084106103a2575b601f0160051c01905b81811061039757506100b1565b5f815560010161038a565b9091508190610381565b90607f169061009f565b5f80fd5b6040519190601f01601f191682016001600160401b038111838210176102c757604052565b81601f820112156103b6578051906001600160401b0382116102c75761040e601f8301601f19166020016103ba565b92828452602083830101116103b657815f9260208093018386015e8301015290565b51906001600160a01b03821682036103b65756fe6080806040526004361015610012575f80fd5b5f3560e01c90816306fdde031461097957508063095ea7b3146108f757806318160ddd146108da57806323b872dd146107fa578063313ce567146107df578063392d6faa1461073357806370a08231146106fc578063715018a6146106a157806372930dbf1461034e5780637de1e536146103265780638da5cb5b146102fe57806395d89b41146101f2578063a9059cbb146101c1578063af215f98146101a6578063dd62ed3e146101565763f2fde38b146100cc575f80fd5b34610152576020366003190112610152576100e5610a55565b6100ed610b62565b6001600160a01b0316801561013f57600580546001600160a01b0319811683179091556001600160a01b03167f8be0079c531659141344cd1fd0a4f28419497f9722a3daafe3b4186f6b6457e05f80a3005b631e4fbdf760e01b5f525f60045260245ffd5b5f80fd5b346101525760403660031901126101525761016f610a55565b610177610a6b565b6001600160a01b039182165f908152600160209081526040808320949093168252928352819020549051908152f35b34610152575f36600319011261015257602060405160058152f35b34610152576040366003190112610152576101e76101dd610a55565b6024359033610acb565b602060405160018152f35b34610152575f366003190112610152576040515f6004548060011c906001811680156102f4575b6020831081146102e0578285529081156102bc575060011461025e575b61025a8361024681850382610a81565b604051918291602083526020830190610a31565b0390f35b91905060045f527f8a35acfbc15ff81a39ae7d344fd709f28e8600b4aa8c65c6b64bfe7fe36bd19b915f905b8082106102a257509091508101602001610246610236565b91926001816020925483858801015201910190929161028a565b60ff191660208086019190915291151560051b840190910191506102469050610236565b634e487b7160e01b5f52602260045260245ffd5b91607f1691610219565b34610152575f366003190112610152576005546040516001600160a01b039091168152602090f35b34610152575f366003190112610152576006546040516001600160a01b039091168152602090f35b34610152575f36600319011261015257335f525f602052600160405f20541061065d57331561064a57335f525f60205260405f20546001811061062f57335f525f6020525f190160405f20555f19600254016002555f604051600181527fddf252ad1be2c89b69c2b068fc378daa952ba7f163c4a11628f55a4df523b3ef60203392a360065460405163d3a61cf560e01b8152906001600160a01b0316602082600481845afa9182156105cb575f926105fb575b506040519161041260c084610a81565b600583525f5b60a081106105ea57503360601b905f5b600581106104b25784604051602081016020825282518091526040820190602060408260051b8501019401915f905b82821061048757337fc030b24dd3a8725aa99a83244056d67b80f4e3a1569ddd3e18c7a685fcbb887d86880387a2005b909192946020806104a4600193603f198982030186528951610a31565b970192019201909291610457565b6040516020810190428252846040820152826054820152605481526104d8607482610a81565b5190209082156105d65760405163e431921960e01b81529183900660048301525f82602481885afa80156105cb575f9061052d575b6001925061051b8288610aa3565b526105268187610aa3565b5001610428565b503d805f843e61053d8184610a81565b8201916020818403126101525780519067ffffffffffffffff821161015257019180601f8401121561015257825167ffffffffffffffff81116105b75760405191610592601f8301601f191660200184610a81565b81835260208286010111610152576020815f9282600197018386015e8301015261050d565b634e487b7160e01b5f52604160045260245ffd5b6040513d5f823e3d90fd5b634e487b7160e01b5f52601260045260245ffd5b806060602080938701015201610418565b9091506020813d602011610627575b8161061760209383610a81565b8101031261015257519082610402565b3d915061060a565b63391434e360e21b5f5233600452602452600160445260645ffd5b634b637e8f60e11b5f525f60045260245ffd5b606460405162461bcd60e51b815260206004820152602060248201527f596f7520646f6e27742068617665206120626f6f7374657220746f206f70656e6044820152fd5b34610152575f366003190112610152576106b9610b62565b600580546001600160a01b031981169091555f906001600160a01b03167f8be0079c531659141344cd1fd0a4f28419497f9722a3daafe3b4186f6b6457e08280a3005b34610152576020366003190112610152576001600160a01b0361071d610a55565b165f525f602052602060405f2054604051908152f35b346101525760403660031901126101525761074c610a55565b60243590610758610b62565b6001600160a01b03169081156107cc57600254908082018092116107b85760207fddf252ad1be2c89b69c2b068fc378daa952ba7f163c4a11628f55a4df523b3ef915f9360025584845283825260408420818154019055604051908152a3005b634e487b7160e01b5f52601160045260245ffd5b63ec442f0560e01b5f525f60045260245ffd5b34610152575f36600319011261015257602060405160128152f35b3461015257606036600319011261015257610813610a55565b61081b610a6b565b6001600160a01b0382165f81815260016020818152604080842033855290915290912054919360443593929091810161085a575b506101e79350610acb565b8381106108bf5784156108ac573315610899576101e7945f52600160205260405f2060018060a01b0333165f526020528360405f20910390558461084f565b634a1406b160e11b5f525f60045260245ffd5b63e602df0560e01b5f525f60045260245ffd5b8390637dc7a0d960e11b5f523360045260245260445260645ffd5b34610152575f366003190112610152576020600254604051908152f35b3461015257604036600319011261015257610910610a55565b6024359033156108ac576001600160a01b031690811561089957335f52600160205260405f20825f526020528060405f20556040519081527f8c5be1e5ebec7d5bd14f71427d1e84f3dd0314c0f7b2291e5b200ac8c7c3b92560203392a3602060405160018152f35b34610152575f366003190112610152575f6003548060011c90600181168015610a27575b6020831081146102e0578285529081156102bc57506001146109c95761025a8361024681850382610a81565b91905060035f527fc2575a0e9e593c00f959f8c92f12db2869c3395a3b0502d05e2516446f71f85b915f905b808210610a0d57509091508101602001610246610236565b9192600181602092548385880101520191019092916109f5565b91607f169161099d565b805180835260209291819084018484015e5f828201840152601f01601f1916010190565b600435906001600160a01b038216820361015257565b602435906001600160a01b038216820361015257565b90601f8019910116810190811067ffffffffffffffff8211176105b757604052565b8051821015610ab75760209160051b010190565b634e487b7160e01b5f52603260045260245ffd5b6001600160a01b031690811561064a576001600160a01b03169182156107cc57815f525f60205260405f2054818110610b4957817fddf252ad1be2c89b69c2b068fc378daa952ba7f163c4a11628f55a4df523b3ef92602092855f525f84520360405f2055845f525f825260405f20818154019055604051908152a3565b8263391434e360e21b5f5260045260245260445260645ffd5b6005546001600160a01b03163303610b7657565b63118cdaa760e01b5f523360045260245ffdfea2646970667358221220dd4d4f77e855ee35803a4b62397b5d32c2fd0f9163c8ccffbad71834c7bfd4ba64736f6c634300081c0033",
    "sourcePath": "/home/lyeslai/Documents/collectible-card-game-daar/contracts/src/Booster.sol",
    "compiler": {
        "name": "solc",
        "version": "0.8.28+commit.7893614a"
    },
    "functionHashes": {
        "CARDS_PER_BOOSTER()": "af215f98",
        "allowance(address,address)": "dd62ed3e",
        "approve(address,uint256)": "095ea7b3",
        "balanceOf(address)": "70a08231",
        "buyBooster(address,uint256)": "392d6faa",
        "collection()": "7de1e536",
        "decimals()": "313ce567",
        "name()": "06fdde03",
        "openBooster()": "72930dbf",
        "owner()": "8da5cb5b",
        "renounceOwnership()": "715018a6",
        "symbol()": "95d89b41",
        "totalSupply()": "18160ddd",
        "transfer(address,uint256)": "a9059cbb",
        "transferFrom(address,address,uint256)": "23b872dd",
        "transferOwnership(address)": "f2fde38b"
    },
    "gasEstimates": {
        "creation": {
            "codeDepositCost": "601400",
            "executionCost": "infinite",
            "totalCost": "infinite"
        },
        "external": {
            "CARDS_PER_BOOSTER()": "439",
            "allowance(address,address)": "2881",
            "approve(address,uint256)": "24325",
            "balanceOf(address)": "2537",
            "buyBooster(address,uint256)": "52834",
            "collection()": "2478",
            "decimals()": "241",
            "name()": "infinite",
            "openBooster()": "infinite",
            "owner()": "2500",
            "renounceOwnership()": "28214",
            "symbol()": "infinite",
            "totalSupply()": "2300",
            "transfer(address,uint256)": "51018",
            "transferFrom(address,address,uint256)": "75527",
            "transferOwnership(address)": "28498"
        }
    }
}