{
    "contractName": "Collection",
    "abi": [
        {
            "inputs": [
                {
                    "internalType": "string",
                    "name": "_collectionName",
                    "type": "string"
                },
                {
                    "internalType": "int256",
                    "name": "_cardCount",
                    "type": "int256"
                },
                {
                    "internalType": "string",
                    "name": "_baseTokenURI",
                    "type": "string"
                }
            ],
            "stateMutability": "nonpayable",
            "type": "constructor"
        },
        {
            "inputs": [
                {
                    "internalType": "address",
                    "name": "sender",
                    "type": "address"
                },
                {
                    "internalType": "uint256",
                    "name": "tokenId",
                    "type": "uint256"
                },
                {
                    "internalType": "address",
                    "name": "owner",
                    "type": "address"
                }
            ],
            "name": "ERC721IncorrectOwner",
            "type": "error"
        },
        {
            "inputs": [
                {
                    "internalType": "address",
                    "name": "operator",
                    "type": "address"
                },
                {
                    "internalType": "uint256",
                    "name": "tokenId",
                    "type": "uint256"
                }
            ],
            "name": "ERC721InsufficientApproval",
            "type": "error"
        },
        {
            "inputs": [
                {
                    "internalType": "address",
                    "name": "approver",
                    "type": "address"
                }
            ],
            "name": "ERC721InvalidApprover",
            "type": "error"
        },
        {
            "inputs": [
                {
                    "internalType": "address",
                    "name": "operator",
                    "type": "address"
                }
            ],
            "name": "ERC721InvalidOperator",
            "type": "error"
        },
        {
            "inputs": [
                {
                    "internalType": "address",
                    "name": "owner",
                    "type": "address"
                }
            ],
            "name": "ERC721InvalidOwner",
            "type": "error"
        },
        {
            "inputs": [
                {
                    "internalType": "address",
                    "name": "receiver",
                    "type": "address"
                }
            ],
            "name": "ERC721InvalidReceiver",
            "type": "error"
        },
        {
            "inputs": [
                {
                    "internalType": "address",
                    "name": "sender",
                    "type": "address"
                }
            ],
            "name": "ERC721InvalidSender",
            "type": "error"
        },
        {
            "inputs": [
                {
                    "internalType": "uint256",
                    "name": "tokenId",
                    "type": "uint256"
                }
            ],
            "name": "ERC721NonexistentToken",
            "type": "error"
        },
        {
            "inputs": [
                {
                    "internalType": "address",
                    "name": "owner",
                    "type": "address"
                }
            ],
            "name": "OwnableInvalidOwner",
            "type": "error"
        },
        {
            "inputs": [
                {
                    "internalType": "address",
                    "name": "account",
                    "type": "address"
                }
            ],
            "name": "OwnableUnauthorizedAccount",
            "type": "error"
        },
        {
            "anonymous": false,
            "inputs": [
                {
                    "indexed": true,
                    "internalType": "address",
                    "name": "owner",
                    "type": "address"
                },
                {
                    "indexed": true,
                    "internalType": "address",
                    "name": "approved",
                    "type": "address"
                },
                {
                    "indexed": true,
                    "internalType": "uint256",
                    "name": "tokenId",
                    "type": "uint256"
                }
            ],
            "name": "Approval",
            "type": "event"
        },
        {
            "anonymous": false,
            "inputs": [
                {
                    "indexed": true,
                    "internalType": "address",
                    "name": "owner",
                    "type": "address"
                },
                {
                    "indexed": true,
                    "internalType": "address",
                    "name": "operator",
                    "type": "address"
                },
                {
                    "indexed": false,
                    "internalType": "bool",
                    "name": "approved",
                    "type": "bool"
                }
            ],
            "name": "ApprovalForAll",
            "type": "event"
        },
        {
            "anonymous": false,
            "inputs": [
                {
                    "indexed": true,
                    "internalType": "address",
                    "name": "previousOwner",
                    "type": "address"
                },
                {
                    "indexed": true,
                    "internalType": "address",
                    "name": "newOwner",
                    "type": "address"
                }
            ],
            "name": "OwnershipTransferred",
            "type": "event"
        },
        {
            "anonymous": false,
            "inputs": [
                {
                    "indexed": true,
                    "internalType": "address",
                    "name": "from",
                    "type": "address"
                },
                {
                    "indexed": true,
                    "internalType": "address",
                    "name": "to",
                    "type": "address"
                },
                {
                    "indexed": true,
                    "internalType": "uint256",
                    "name": "tokenId",
                    "type": "uint256"
                }
            ],
            "name": "Transfer",
            "type": "event"
        },
        {
            "inputs": [
                {
                    "internalType": "address",
                    "name": "to",
                    "type": "address"
                },
                {
                    "internalType": "uint256",
                    "name": "tokenId",
                    "type": "uint256"
                }
            ],
            "name": "approve",
            "outputs": [],
            "stateMutability": "nonpayable",
            "type": "function"
        },
        {
            "inputs": [
                {
                    "internalType": "address",
                    "name": "owner",
                    "type": "address"
                }
            ],
            "name": "balanceOf",
            "outputs": [
                {
                    "internalType": "uint256",
                    "name": "",
                    "type": "uint256"
                }
            ],
            "stateMutability": "view",
            "type": "function"
        },
        {
            "inputs": [],
            "name": "baseTokenURI",
            "outputs": [
                {
                    "internalType": "string",
                    "name": "",
                    "type": "string"
                }
            ],
            "stateMutability": "view",
            "type": "function"
        },
        {
            "inputs": [],
            "name": "cardCount",
            "outputs": [
                {
                    "internalType": "int256",
                    "name": "",
                    "type": "int256"
                }
            ],
            "stateMutability": "view",
            "type": "function"
        },
        {
            "inputs": [
                {
                    "internalType": "uint256",
                    "name": "tokenId",
                    "type": "uint256"
                }
            ],
            "name": "getApproved",
            "outputs": [
                {
                    "internalType": "address",
                    "name": "",
                    "type": "address"
                }
            ],
            "stateMutability": "view",
            "type": "function"
        },
        {
            "inputs": [
                {
                    "internalType": "address",
                    "name": "owner",
                    "type": "address"
                },
                {
                    "internalType": "address",
                    "name": "operator",
                    "type": "address"
                }
            ],
            "name": "isApprovedForAll",
            "outputs": [
                {
                    "internalType": "bool",
                    "name": "",
                    "type": "bool"
                }
            ],
            "stateMutability": "view",
            "type": "function"
        },
        {
            "inputs": [
                {
                    "internalType": "address",
                    "name": "to",
                    "type": "address"
                }
            ],
            "name": "mint",
            "outputs": [],
            "stateMutability": "nonpayable",
            "type": "function"
        },
        {
            "inputs": [],
            "name": "name",
            "outputs": [
                {
                    "internalType": "string",
                    "name": "",
                    "type": "string"
                }
            ],
            "stateMutability": "view",
            "type": "function"
        },
        {
            "inputs": [],
            "name": "nextTokenId",
            "outputs": [
                {
                    "internalType": "uint256",
                    "name": "",
                    "type": "uint256"
                }
            ],
            "stateMutability": "view",
            "type": "function"
        },
        {
            "inputs": [],
            "name": "owner",
            "outputs": [
                {
                    "internalType": "address",
                    "name": "",
                    "type": "address"
                }
            ],
            "stateMutability": "view",
            "type": "function"
        },
        {
            "inputs": [
                {
                    "internalType": "uint256",
                    "name": "tokenId",
                    "type": "uint256"
                }
            ],
            "name": "ownerOf",
            "outputs": [
                {
                    "internalType": "address",
                    "name": "",
                    "type": "address"
                }
            ],
            "stateMutability": "view",
            "type": "function"
        },
        {
            "inputs": [],
            "name": "renounceOwnership",
            "outputs": [],
            "stateMutability": "nonpayable",
            "type": "function"
        },
        {
            "inputs": [
                {
                    "internalType": "address",
                    "name": "from",
                    "type": "address"
                },
                {
                    "internalType": "address",
                    "name": "to",
                    "type": "address"
                },
                {
                    "internalType": "uint256",
                    "name": "tokenId",
                    "type": "uint256"
                }
            ],
            "name": "safeTransferFrom",
            "outputs": [],
            "stateMutability": "nonpayable",
            "type": "function"
        },
        {
            "inputs": [
                {
                    "internalType": "address",
                    "name": "from",
                    "type": "address"
                },
                {
                    "internalType": "address",
                    "name": "to",
                    "type": "address"
                },
                {
                    "internalType": "uint256",
                    "name": "tokenId",
                    "type": "uint256"
                },
                {
                    "internalType": "bytes",
                    "name": "data",
                    "type": "bytes"
                }
            ],
            "name": "safeTransferFrom",
            "outputs": [],
            "stateMutability": "nonpayable",
            "type": "function"
        },
        {
            "inputs": [
                {
                    "internalType": "address",
                    "name": "operator",
                    "type": "address"
                },
                {
                    "internalType": "bool",
                    "name": "approved",
                    "type": "bool"
                }
            ],
            "name": "setApprovalForAll",
            "outputs": [],
            "stateMutability": "nonpayable",
            "type": "function"
        },
        {
            "inputs": [
                {
                    "internalType": "bytes4",
                    "name": "interfaceId",
                    "type": "bytes4"
                }
            ],
            "name": "supportsInterface",
            "outputs": [
                {
                    "internalType": "bool",
                    "name": "",
                    "type": "bool"
                }
            ],
            "stateMutability": "view",
            "type": "function"
        },
        {
            "inputs": [],
            "name": "symbol",
            "outputs": [
                {
                    "internalType": "string",
                    "name": "",
                    "type": "string"
                }
            ],
            "stateMutability": "view",
            "type": "function"
        },
        {
            "inputs": [
                {
                    "internalType": "uint256",
                    "name": "tokenId",
                    "type": "uint256"
                }
            ],
            "name": "tokenURI",
            "outputs": [
                {
                    "internalType": "string",
                    "name": "",
                    "type": "string"
                }
            ],
            "stateMutability": "view",
            "type": "function"
        },
        {
            "inputs": [
                {
                    "internalType": "address",
                    "name": "from",
                    "type": "address"
                },
                {
                    "internalType": "address",
                    "name": "to",
                    "type": "address"
                },
                {
                    "internalType": "uint256",
                    "name": "tokenId",
                    "type": "uint256"
                }
            ],
            "name": "transferFrom",
            "outputs": [],
            "stateMutability": "nonpayable",
            "type": "function"
        },
        {
            "inputs": [
                {
                    "internalType": "address",
                    "name": "newOwner",
                    "type": "address"
                }
            ],
            "name": "transferOwnership",
            "outputs": [],
            "stateMutability": "nonpayable",
            "type": "function"
        }
    ],
    "bytecode": "6080604052346104ce576116d580380380610019816104d2565b92833981016060828203126104ce5781516001600160401b0381116104ce57816100449184016104f7565b91602081015191604082015160018060401b0381116104ce5761006792016104f7565b61007160406104d2565b60048152634e46544360e01b602082015283519092906001600160401b0381116102f4575f54600181811c911680156104c4575b60208210146102d657601f8111610462575b50602094601f8211600114610401579481929394955f926103f6575b50508160011b915f199060031b1c1916175f555b82516001600160401b0381116102f457600154600181811c911680156103ec575b60208210146102d657601f8111610389575b506020601f821160011461032657819293945f9261031b575b50508160011b915f199060031b1c1916176001555b33156103085760068054336001600160a01b0319821681179092556001600160a01b03167f8be0079c531659141344cd1fd0a4f28419497f9722a3daafe3b4186f6b6457e05f80a360075580516001600160401b0381116102f457600954600181811c911680156102ea575b60208210146102d657601f8111610273575b50602091601f8211600114610213579181925f92610208575b50508160011b915f199060031b1c1916176009555b600160085560405161118c90816105498239f35b015190505f806101df565b601f1982169260095f52805f20915f5b85811061025b57508360019510610243575b505050811b016009556101f4565b01515f1960f88460031b161c191690555f8080610235565b91926020600181928685015181550194019201610223565b60095f527f6e1540171b6c0c960b71a7020d9f60077f6af931a8bbf590da0223dacf75c7af601f830160051c810191602084106102cc575b601f0160051c01905b8181106102c157506101c6565b5f81556001016102b4565b90915081906102ab565b634e487b7160e01b5f52602260045260245ffd5b90607f16906101b4565b634e487b7160e01b5f52604160045260245ffd5b631e4fbdf760e01b5f525f60045260245ffd5b015190505f80610133565b601f1982169060015f52805f20915f5b81811061037157509583600195969710610359575b505050811b01600155610148565b01515f1960f88460031b161c191690555f808061034b565b9192602060018192868b015181550194019201610336565b60015f527fb10e2d527612073b26eecdfd717e6a320cf44b4afac2b0732d9fcbe2b7fa0cf6601f830160051c810191602084106103e2575b601f0160051c01905b8181106103d7575061011a565b5f81556001016103ca565b90915081906103c1565b90607f1690610108565b015190505f806100d3565b601f198216955f8052805f20915f5b88811061044a57508360019596979810610432575b505050811b015f556100e7565b01515f1960f88460031b161c191690555f8080610425565b91926020600181928685015181550194019201610410565b5f80527f290decd9548b62a8d60345a988386fc84ba6bc95484008f6362f93160ef3e563601f830160051c810191602084106104ba575b601f0160051c01905b8181106104af57506100b7565b5f81556001016104a2565b9091508190610499565b90607f16906100a5565b5f80fd5b6040519190601f01601f191682016001600160401b038111838210176102f457604052565b81601f820112156104ce578051906001600160401b0382116102f457610526601f8301601f19166020016104d2565b92828452602083830101116104ce57815f9260208093018386015e830101529056fe6080806040526004361015610012575f80fd5b5f3560e01c90816301ffc9a714610ccc5750806306fdde0314610c2a578063081812fc14610bee578063095ea7b314610b045780631b6cde1014610ae757806323b872dd14610ad057806342842e0e14610aa15780636352211e14610a715780636a627842146107c457806370a0823114610773578063715018a61461071857806375794a3c146106fb5780638da5cb5b146106d357806395d89b411461062e578063a22cb46514610593578063b88d4fde146104fe578063c87b56dd146102bb578063d547cfb7146101d9578063e985e9c5146101825763f2fde38b146100f8575f80fd5b3461017e57602036600319011261017e57610111610d5b565b61011961100c565b6001600160a01b0316801561016b57600680546001600160a01b0319811683179091556001600160a01b03167f8be0079c531659141344cd1fd0a4f28419497f9722a3daafe3b4186f6b6457e05f80a3005b631e4fbdf760e01b5f525f60045260245ffd5b5f80fd5b3461017e57604036600319011261017e5761019b610d5b565b6101a3610d71565b9060018060a01b03165f52600560205260405f209060018060a01b03165f52602052602060ff60405f2054166040519015158152f35b3461017e575f36600319011261017e576040515f6009546101f981610e13565b80845290600181169081156102975750600114610239575b6102358361022181850382610dc1565b604051918291602083526020830190610d37565b0390f35b60095f9081527f6e1540171b6c0c960b71a7020d9f60077f6af931a8bbf590da0223dacf75c7af939250905b80821061027d57509091508101602001610221610211565b919260018160209254838588010152019101909291610265565b60ff191660208086019190915291151560051b840190910191506102219050610211565b3461017e57602036600319011261017e575f6004358072184f03e93ff9f4daa797ed6e38ed64bf6a1f0160401b8110156104db575b806d04ee2d6d415b85acef8100000000600a9210156104c0575b662386f26fc100008110156104ac575b6305f5e10081101561049b575b61271081101561048c575b606481101561047e575b1015610474575b6001820190600a602161036e61035885610df7565b946103666040519687610dc1565b808652610df7565b602085019590601f19013687378401015b5f1901916f181899199a1a9b1b9c1cb0b131b232b360811b8282061a83530480156103ad57600a909161037f565b5050604051905f906009546103c181610e13565b906001811690811561045057506001146103f8575b5061023593610221928492518092825e015f815203601f198101835282610dc1565b90915060095f527f6e1540171b6c0c960b71a7020d9f60077f6af931a8bbf590da0223dacf75c7af5f905b82821061043a5750508201602001906102356103d6565b6001816020925483858901015201910190610423565b60ff19166020808701919091528215159092028501909101925061023590506103d6565b9060010190610343565b60646002910493019261033c565b61271060049104930192610332565b6305f5e10060089104930192610327565b662386f26fc100006010910493019261031a565b6d04ee2d6d415b85acef81000000006020910493019261030a565b506040915072184f03e93ff9f4daa797ed6e38ed64bf6a1f0160401b81046102f0565b3461017e57608036600319011261017e57610517610d5b565b61051f610d71565b906044356064359267ffffffffffffffff841161017e573660238501121561017e5783600401359261055084610df7565b9361055e6040519586610dc1565b808552366024828801011161017e576020815f9260246105919901838901378601015261058c838383610e4b565b611033565b005b3461017e57604036600319011261017e576105ac610d5b565b6024359081151580920361017e576001600160a01b031690811561061b57335f52600560205260405f20825f5260205260405f2060ff1981541660ff83161790556040519081527f17307eab39ab6107e8899845ad3d59bd9653f200f220920489ca2b5937696c3160203392a3005b50630b61174360e31b5f5260045260245ffd5b3461017e575f36600319011261017e576040515f60015461064e81610e13565b80845290600181169081156102975750600114610675576102358361022181850382610dc1565b60015f9081527fb10e2d527612073b26eecdfd717e6a320cf44b4afac2b0732d9fcbe2b7fa0cf6939250905b8082106106b957509091508101602001610221610211565b9192600181602092548385880101520191019092916106a1565b3461017e575f36600319011261017e576006546040516001600160a01b039091168152602090f35b3461017e575f36600319011261017e576020600854604051908152f35b3461017e575f36600319011261017e5761073061100c565b600680546001600160a01b031981169091555f906001600160a01b03167f8be0079c531659141344cd1fd0a4f28419497f9722a3daafe3b4186f6b6457e08280a3005b3461017e57602036600319011261017e576001600160a01b03610794610d5b565b1680156107b1575f526003602052602060405f2054604051908152f35b6322718ad960e21b5f525f60045260245ffd5b3461017e57602036600319011261017e576107dd610d5b565b6107e561100c565b6008546007548111610a2c576040516020916108018383610dc1565b5f82526001600160a01b038416938415610a19575f8281526002855260409020546001600160a01b031680151590816109e8575b865f526003865260405f2060018154019055835f526002865260405f20876bffffffffffffffffffffffff60a01b8254161790558387827fddf252ad1be2c89b69c2b068fc378daa952ba7f163c4a11628f55a4df523b3ef5f80a4506109d5573b6108c6575b505050506008545f1981146108b257600101600855005b634e487b7160e01b5f52601160045260245ffd5b6109009183916040519384928392630a85bd0160e11b84523360048501525f60248501526044840152608060648401526084830190610d37565b03815f875af15f9181610995575b5061096057503d15610959573d61092481610df7565b906109326040519283610dc1565b81523d5f8383013e5b805191826109565783633250574960e11b5f5260045260245ffd5b01fd5b606061093b565b6001600160e01b03191663757a42ff60e11b01905061098357508080808061089b565b633250574960e11b5f5260045260245ffd5b9091508281813d83116109ce575b6109ad8183610dc1565b8101031261017e57516001600160e01b03198116810361017e57908461090e565b503d6109a3565b6339e3563760e11b5f525f60045260245ffd5b5f8481526004602052604080822080546001600160a01b031916905582825260038852902080545f19019055610835565b633250574960e11b5f525f60045260245ffd5b60405162461bcd60e51b815260206004820152601b60248201527f416c6c2063617264732068617665206265656e206d696e7465642e00000000006044820152606490fd5b3461017e57602036600319011261017e576020610a8f600435610fd8565b6040516001600160a01b039091168152f35b3461017e57610591610ab236610d87565b9060405192610ac2602085610dc1565b5f845261058c838383610e4b565b3461017e57610591610ae136610d87565b91610e4b565b3461017e575f36600319011261017e576020600754604051908152f35b3461017e57604036600319011261017e57610b1d610d5b565b602435610b2981610fd8565b33151580610bdb575b80610bae575b610b9b5781906001600160a01b0384811691167f8c5be1e5ebec7d5bd14f71427d1e84f3dd0314c0f7b2291e5b200ac8c7c3b9255f80a45f90815260046020526040902080546001600160a01b0319166001600160a01b03909216919091179055005b63a9fbf51f60e01b5f523360045260245ffd5b506001600160a01b0381165f90815260056020908152604080832033845290915290205460ff1615610b38565b506001600160a01b038116331415610b32565b3461017e57602036600319011261017e57600435610c0b81610fd8565b505f526004602052602060018060a01b0360405f205416604051908152f35b3461017e575f36600319011261017e576040515f5f54610c4981610e13565b80845290600181169081156102975750600114610c70576102358361022181850382610dc1565b5f8080527f290decd9548b62a8d60345a988386fc84ba6bc95484008f6362f93160ef3e563939250905b808210610cb257509091508101602001610221610211565b919260018160209254838588010152019101909291610c9a565b3461017e57602036600319011261017e576004359063ffffffff60e01b821680920361017e576020916380ac58cd60e01b8114908115610d26575b8115610d15575b5015158152f35b6301ffc9a760e01b14905083610d0e565b635b5e139f60e01b81149150610d07565b805180835260209291819084018484015e5f828201840152601f01601f1916010190565b600435906001600160a01b038216820361017e57565b602435906001600160a01b038216820361017e57565b606090600319011261017e576004356001600160a01b038116810361017e57906024356001600160a01b038116810361017e579060443590565b90601f8019910116810190811067ffffffffffffffff821117610de357604052565b634e487b7160e01b5f52604160045260245ffd5b67ffffffffffffffff8111610de357601f01601f191660200190565b90600182811c92168015610e41575b6020831014610e2d57565b634e487b7160e01b5f52602260045260245ffd5b91607f1691610e22565b6001600160a01b0390911691908215610a19575f828152600260205260409020546001600160a01b031692829033151580610f43575b5084610f10575b805f52600360205260405f2060018154019055815f52600260205260405f20816bffffffffffffffffffffffff60a01b825416179055847fddf252ad1be2c89b69c2b068fc378daa952ba7f163c4a11628f55a4df523b3ef5f80a46001600160a01b0316808303610ef857505050565b6364283d7b60e01b5f5260045260245260445260645ffd5b5f82815260046020526040902080546001600160a01b0319169055845f52600360205260405f205f198154019055610e88565b90915080610f87575b15610f595782905f610e81565b8284610f7157637e27328960e01b5f5260045260245ffd5b63177e802f60e01b5f523360045260245260445ffd5b503384148015610fb6575b80610f4c57505f838152600460205260409020546001600160a01b03163314610f4c565b505f84815260056020908152604080832033845290915290205460ff16610f92565b5f818152600260205260409020546001600160a01b0316908115610ffa575090565b637e27328960e01b5f5260045260245ffd5b6006546001600160a01b0316330361102057565b63118cdaa760e01b5f523360045260245ffd5b9291813b611042575b50505050565b604051630a85bd0160e11b81523360048201526001600160a01b039485166024820152604481019190915260806064820152921691906020908290819061108d906084830190610d37565b03815f865af15f9181611111575b506110f057503d156110e9573d6110b181610df7565b906110bf6040519283610dc1565b81523d5f602083013e5b805190816110e45782633250574960e11b5f5260045260245ffd5b602001fd5b60606110c9565b6001600160e01b03191663757a42ff60e11b0161098357505f80808061103c565b9091506020813d60201161114e575b8161112d60209383610dc1565b8101031261017e57516001600160e01b03198116810361017e57905f61109b565b3d915061112056fea264697066735822122091003886f43980887bb6acdf89c1449a2df907d386fec0e6521347982df7d0f564736f6c634300081c0033",
    "sourcePath": "/home/lyeslai/Documents/collectible-card-game-daar/contracts/src/Collection.sol",
    "compiler": {
        "name": "solc",
        "version": "0.8.28+commit.7893614a"
    },
    "functionHashes": {
        "approve(address,uint256)": "095ea7b3",
        "balanceOf(address)": "70a08231",
        "baseTokenURI()": "d547cfb7",
        "cardCount()": "1b6cde10",
        "getApproved(uint256)": "081812fc",
        "isApprovedForAll(address,address)": "e985e9c5",
        "mint(address)": "6a627842",
        "name()": "06fdde03",
        "nextTokenId()": "75794a3c",
        "owner()": "8da5cb5b",
        "ownerOf(uint256)": "6352211e",
        "renounceOwnership()": "715018a6",
        "safeTransferFrom(address,address,uint256)": "42842e0e",
        "safeTransferFrom(address,address,uint256,bytes)": "b88d4fde",
        "setApprovalForAll(address,bool)": "a22cb465",
        "supportsInterface(bytes4)": "01ffc9a7",
        "symbol()": "95d89b41",
        "tokenURI(uint256)": "c87b56dd",
        "transferFrom(address,address,uint256)": "23b872dd",
        "transferOwnership(address)": "f2fde38b"
    },
    "gasEstimates": {
        "creation": {
            "codeDepositCost": "898400",
            "executionCost": "infinite",
            "totalCost": "infinite"
        },
        "external": {
            "approve(address,uint256)": "31146",
            "balanceOf(address)": "2623",
            "baseTokenURI()": "infinite",
            "cardCount()": "2344",
            "getApproved(uint256)": "4625",
            "isApprovedForAll(address,address)": "2969",
            "mint(address)": "infinite",
            "name()": "infinite",
            "nextTokenId()": "2498",
            "owner()": "2544",
            "ownerOf(uint256)": "2572",
            "renounceOwnership()": "28280",
            "safeTransferFrom(address,address,uint256)": "infinite",
            "safeTransferFrom(address,address,uint256,bytes)": "infinite",
            "setApprovalForAll(address,bool)": "26730",
            "supportsInterface(bytes4)": "322",
            "symbol()": "infinite",
            "tokenURI(uint256)": "infinite",
            "transferFrom(address,address,uint256)": "106367",
            "transferOwnership(address)": "28586"
        }
    }
}