{
    "contractName": "Collection",
    "abi": [
        {
            "inputs": [
                {
                    "internalType": "string",
                    "name": "name",
                    "type": "string"
                },
                {
                    "internalType": "string",
                    "name": "symbol",
                    "type": "string"
                },
                {
                    "internalType": "string[]",
                    "name": "uniqCards",
                    "type": "string[]"
                },
                {
                    "internalType": "address",
                    "name": "marketAddress",
                    "type": "address"
                }
            ],
            "stateMutability": "nonpayable",
            "type": "constructor"
        },
        {
            "inputs": [
                {
                    "internalType": "address",
                    "name": "sender",
                    "type": "address"
                },
                {
                    "internalType": "uint256",
                    "name": "tokenId",
                    "type": "uint256"
                },
                {
                    "internalType": "address",
                    "name": "owner",
                    "type": "address"
                }
            ],
            "name": "ERC721IncorrectOwner",
            "type": "error"
        },
        {
            "inputs": [
                {
                    "internalType": "address",
                    "name": "operator",
                    "type": "address"
                },
                {
                    "internalType": "uint256",
                    "name": "tokenId",
                    "type": "uint256"
                }
            ],
            "name": "ERC721InsufficientApproval",
            "type": "error"
        },
        {
            "inputs": [
                {
                    "internalType": "address",
                    "name": "approver",
                    "type": "address"
                }
            ],
            "name": "ERC721InvalidApprover",
            "type": "error"
        },
        {
            "inputs": [
                {
                    "internalType": "address",
                    "name": "operator",
                    "type": "address"
                }
            ],
            "name": "ERC721InvalidOperator",
            "type": "error"
        },
        {
            "inputs": [
                {
                    "internalType": "address",
                    "name": "owner",
                    "type": "address"
                }
            ],
            "name": "ERC721InvalidOwner",
            "type": "error"
        },
        {
            "inputs": [
                {
                    "internalType": "address",
                    "name": "receiver",
                    "type": "address"
                }
            ],
            "name": "ERC721InvalidReceiver",
            "type": "error"
        },
        {
            "inputs": [
                {
                    "internalType": "address",
                    "name": "sender",
                    "type": "address"
                }
            ],
            "name": "ERC721InvalidSender",
            "type": "error"
        },
        {
            "inputs": [
                {
                    "internalType": "uint256",
                    "name": "tokenId",
                    "type": "uint256"
                }
            ],
            "name": "ERC721NonexistentToken",
            "type": "error"
        },
        {
            "inputs": [
                {
                    "internalType": "address",
                    "name": "owner",
                    "type": "address"
                }
            ],
            "name": "OwnableInvalidOwner",
            "type": "error"
        },
        {
            "inputs": [
                {
                    "internalType": "address",
                    "name": "account",
                    "type": "address"
                }
            ],
            "name": "OwnableUnauthorizedAccount",
            "type": "error"
        },
        {
            "anonymous": false,
            "inputs": [
                {
                    "indexed": true,
                    "internalType": "address",
                    "name": "owner",
                    "type": "address"
                },
                {
                    "indexed": true,
                    "internalType": "address",
                    "name": "approved",
                    "type": "address"
                },
                {
                    "indexed": true,
                    "internalType": "uint256",
                    "name": "tokenId",
                    "type": "uint256"
                }
            ],
            "name": "Approval",
            "type": "event"
        },
        {
            "anonymous": false,
            "inputs": [
                {
                    "indexed": true,
                    "internalType": "address",
                    "name": "owner",
                    "type": "address"
                },
                {
                    "indexed": true,
                    "internalType": "address",
                    "name": "operator",
                    "type": "address"
                },
                {
                    "indexed": false,
                    "internalType": "bool",
                    "name": "approved",
                    "type": "bool"
                }
            ],
            "name": "ApprovalForAll",
            "type": "event"
        },
        {
            "anonymous": false,
            "inputs": [
                {
                    "indexed": false,
                    "internalType": "uint256",
                    "name": "_fromTokenId",
                    "type": "uint256"
                },
                {
                    "indexed": false,
                    "internalType": "uint256",
                    "name": "_toTokenId",
                    "type": "uint256"
                }
            ],
            "name": "BatchMetadataUpdate",
            "type": "event"
        },
        {
            "anonymous": false,
            "inputs": [
                {
                    "indexed": true,
                    "internalType": "address",
                    "name": "buyer",
                    "type": "address"
                },
                {
                    "indexed": false,
                    "internalType": "uint256",
                    "name": "tokenId",
                    "type": "uint256"
                },
                {
                    "indexed": false,
                    "internalType": "string",
                    "name": "cardURI",
                    "type": "string"
                }
            ],
            "name": "CardPurchased",
            "type": "event"
        },
        {
            "anonymous": false,
            "inputs": [
                {
                    "indexed": false,
                    "internalType": "uint256",
                    "name": "_tokenId",
                    "type": "uint256"
                }
            ],
            "name": "MetadataUpdate",
            "type": "event"
        },
        {
            "anonymous": false,
            "inputs": [
                {
                    "indexed": true,
                    "internalType": "address",
                    "name": "previousOwner",
                    "type": "address"
                },
                {
                    "indexed": true,
                    "internalType": "address",
                    "name": "newOwner",
                    "type": "address"
                }
            ],
            "name": "OwnershipTransferred",
            "type": "event"
        },
        {
            "anonymous": false,
            "inputs": [
                {
                    "indexed": true,
                    "internalType": "address",
                    "name": "from",
                    "type": "address"
                },
                {
                    "indexed": true,
                    "internalType": "address",
                    "name": "to",
                    "type": "address"
                },
                {
                    "indexed": true,
                    "internalType": "uint256",
                    "name": "tokenId",
                    "type": "uint256"
                }
            ],
            "name": "Transfer",
            "type": "event"
        },
        {
            "inputs": [],
            "name": "MAX_TOKENS",
            "outputs": [
                {
                    "internalType": "uint256",
                    "name": "",
                    "type": "uint256"
                }
            ],
            "stateMutability": "view",
            "type": "function"
        },
        {
            "inputs": [
                {
                    "internalType": "uint256",
                    "name": "",
                    "type": "uint256"
                }
            ],
            "name": "UNIQ_CARDS",
            "outputs": [
                {
                    "internalType": "string",
                    "name": "",
                    "type": "string"
                }
            ],
            "stateMutability": "view",
            "type": "function"
        },
        {
            "inputs": [
                {
                    "internalType": "address",
                    "name": "to",
                    "type": "address"
                },
                {
                    "internalType": "uint256",
                    "name": "tokenId",
                    "type": "uint256"
                }
            ],
            "name": "approve",
            "outputs": [],
            "stateMutability": "nonpayable",
            "type": "function"
        },
        {
            "inputs": [
                {
                    "internalType": "address",
                    "name": "owner",
                    "type": "address"
                }
            ],
            "name": "balanceOf",
            "outputs": [
                {
                    "internalType": "uint256",
                    "name": "",
                    "type": "uint256"
                }
            ],
            "stateMutability": "view",
            "type": "function"
        },
        {
            "inputs": [
                {
                    "internalType": "uint256",
                    "name": "cardId",
                    "type": "uint256"
                }
            ],
            "name": "buyCard",
            "outputs": [],
            "stateMutability": "payable",
            "type": "function"
        },
        {
            "inputs": [],
            "name": "cardPrice",
            "outputs": [
                {
                    "internalType": "uint256",
                    "name": "",
                    "type": "uint256"
                }
            ],
            "stateMutability": "view",
            "type": "function"
        },
        {
            "inputs": [
                {
                    "internalType": "uint256",
                    "name": "tokenId",
                    "type": "uint256"
                }
            ],
            "name": "getApproved",
            "outputs": [
                {
                    "internalType": "address",
                    "name": "",
                    "type": "address"
                }
            ],
            "stateMutability": "view",
            "type": "function"
        },
        {
            "inputs": [
                {
                    "internalType": "address",
                    "name": "owner",
                    "type": "address"
                },
                {
                    "internalType": "address",
                    "name": "operator",
                    "type": "address"
                }
            ],
            "name": "isApprovedForAll",
            "outputs": [
                {
                    "internalType": "bool",
                    "name": "",
                    "type": "bool"
                }
            ],
            "stateMutability": "view",
            "type": "function"
        },
        {
            "inputs": [
                {
                    "internalType": "uint256",
                    "name": "tokenId",
                    "type": "uint256"
                },
                {
                    "internalType": "uint256",
                    "name": "price",
                    "type": "uint256"
                }
            ],
            "name": "listCardForSale",
            "outputs": [],
            "stateMutability": "nonpayable",
            "type": "function"
        },
        {
            "inputs": [],
            "name": "market",
            "outputs": [
                {
                    "internalType": "contract Market",
                    "name": "",
                    "type": "address"
                }
            ],
            "stateMutability": "view",
            "type": "function"
        },
        {
            "inputs": [],
            "name": "name",
            "outputs": [
                {
                    "internalType": "string",
                    "name": "",
                    "type": "string"
                }
            ],
            "stateMutability": "view",
            "type": "function"
        },
        {
            "inputs": [],
            "name": "owner",
            "outputs": [
                {
                    "internalType": "address",
                    "name": "",
                    "type": "address"
                }
            ],
            "stateMutability": "view",
            "type": "function"
        },
        {
            "inputs": [
                {
                    "internalType": "uint256",
                    "name": "tokenId",
                    "type": "uint256"
                }
            ],
            "name": "ownerOf",
            "outputs": [
                {
                    "internalType": "address",
                    "name": "",
                    "type": "address"
                }
            ],
            "stateMutability": "view",
            "type": "function"
        },
        {
            "inputs": [],
            "name": "renounceOwnership",
            "outputs": [],
            "stateMutability": "nonpayable",
            "type": "function"
        },
        {
            "inputs": [
                {
                    "internalType": "address",
                    "name": "to",
                    "type": "address"
                },
                {
                    "internalType": "string",
                    "name": "uri",
                    "type": "string"
                }
            ],
            "name": "safeMint",
            "outputs": [],
            "stateMutability": "nonpayable",
            "type": "function"
        },
        {
            "inputs": [
                {
                    "internalType": "address",
                    "name": "from",
                    "type": "address"
                },
                {
                    "internalType": "address",
                    "name": "to",
                    "type": "address"
                },
                {
                    "internalType": "uint256",
                    "name": "tokenId",
                    "type": "uint256"
                }
            ],
            "name": "safeTransferFrom",
            "outputs": [],
            "stateMutability": "nonpayable",
            "type": "function"
        },
        {
            "inputs": [
                {
                    "internalType": "address",
                    "name": "from",
                    "type": "address"
                },
                {
                    "internalType": "address",
                    "name": "to",
                    "type": "address"
                },
                {
                    "internalType": "uint256",
                    "name": "tokenId",
                    "type": "uint256"
                },
                {
                    "internalType": "bytes",
                    "name": "data",
                    "type": "bytes"
                }
            ],
            "name": "safeTransferFrom",
            "outputs": [],
            "stateMutability": "nonpayable",
            "type": "function"
        },
        {
            "inputs": [
                {
                    "internalType": "address",
                    "name": "operator",
                    "type": "address"
                },
                {
                    "internalType": "bool",
                    "name": "approved",
                    "type": "bool"
                }
            ],
            "name": "setApprovalForAll",
            "outputs": [],
            "stateMutability": "nonpayable",
            "type": "function"
        },
        {
            "inputs": [
                {
                    "internalType": "bytes4",
                    "name": "interfaceId",
                    "type": "bytes4"
                }
            ],
            "name": "supportsInterface",
            "outputs": [
                {
                    "internalType": "bool",
                    "name": "",
                    "type": "bool"
                }
            ],
            "stateMutability": "view",
            "type": "function"
        },
        {
            "inputs": [],
            "name": "symbol",
            "outputs": [
                {
                    "internalType": "string",
                    "name": "",
                    "type": "string"
                }
            ],
            "stateMutability": "view",
            "type": "function"
        },
        {
            "inputs": [
                {
                    "internalType": "uint256",
                    "name": "tokenId",
                    "type": "uint256"
                }
            ],
            "name": "tokenURI",
            "outputs": [
                {
                    "internalType": "string",
                    "name": "",
                    "type": "string"
                }
            ],
            "stateMutability": "view",
            "type": "function"
        },
        {
            "inputs": [
                {
                    "internalType": "address",
                    "name": "from",
                    "type": "address"
                },
                {
                    "internalType": "address",
                    "name": "to",
                    "type": "address"
                },
                {
                    "internalType": "uint256",
                    "name": "tokenId",
                    "type": "uint256"
                }
            ],
            "name": "transferFrom",
            "outputs": [],
            "stateMutability": "nonpayable",
            "type": "function"
        },
        {
            "inputs": [
                {
                    "internalType": "address",
                    "name": "newOwner",
                    "type": "address"
                }
            ],
            "name": "transferOwnership",
            "outputs": [],
            "stateMutability": "nonpayable",
            "type": "function"
        }
    ],
    "bytecode": "60806040523461057357611b1880380380610019816105a4565b9283398101906080818303126105735780516001600160401b03811161057357826100459183016105c9565b60208201519091906001600160401b03811161057357836100679183016105c9565b60408201519093906001600160401b0381116105735782019181601f84011215610573578251916001600160401b038311610369578260051b9360206100ae8187016105a4565b948552840194810160200190858383116105735760208201905b838210610577575050505050606001519260018060a01b038416809403610573578051906001600160401b038211610369576101045f5461061a565b601f8111610526575b50602090601f83116001146104c35761013d92915f91836102ba575b50508160011b915f199060031b1c19161790565b5f555b83516001600160401b0381116103695761015b60015461061a565b601f8111610475575b50602094601f8211600114610412576101969293949582915f926102ba5750508160011b915f199060031b1c19161790565b6001555b33156103ff5760078054336001600160a01b0319821681179092556001600160a01b03167f8be0079c531659141344cd1fd0a4f28419497f9722a3daafe3b4186f6b6457e05f80a3662386f26fc10000600a555190680100000000000000008211610369576009548260095580831061037d575b5060095f9081525f516020611af85f395f51905f5292915b82821061024e57600b80546001600160a01b0319168617905560405161148f90816106698239f35b80518051906001600160401b0382116103695761026b865461061a565b601f811161032e575b50602090601f83116001146102c557926102ab836001959460209487965f926102ba5750508160011b915f199060031b1c19161790565b87555b01940191019092610226565b015190505f80610129565b90601f19831691875f52815f20925f5b81811061031657509360209360019693879693838895106102fe575b505050811b0187556102ae565b01515f1960f88460031b161c191690555f80806102f1565b929360206001819287860151815501950193016102d5565b61035990875f5260205f20601f850160051c8101916020861061035f575b601f0160051c0190610652565b5f610274565b909150819061034c565b634e487b7160e01b5f52604160045260245ffd5b60095f525f516020611af85f395f51905f529081019083015b8181106103a3575061020e565b806103b06001925461061a565b806103bd575b5001610396565b601f811183146103d257505f81555b5f6103b6565b6103ee90825f5283601f60205f20920160051c82019101610652565b805f525f60208120818355556103cc565b631e4fbdf760e01b5f525f60045260245ffd5b601f1982169560015f52805f20915f5b88811061045d57508360019596979810610445575b505050811b0160015561019a565b01515f1960f88460031b161c191690555f8080610437565b91926020600181928685015181550194019201610422565b60015f526104bd907fb10e2d527612073b26eecdfd717e6a320cf44b4afac2b0732d9fcbe2b7fa0cf6601f840160051c8101916020851061035f57601f0160051c0190610652565b5f610164565b90601f198316915f8052815f20925f5b81811061050e57509084600195949392106104f6575b505050811b015f55610140565b01515f1960f88460031b161c191690555f80806104e9565b929360206001819287860151815501950193016104d3565b5f805261056d907f290decd9548b62a8d60345a988386fc84ba6bc95484008f6362f93160ef3e563601f850160051c8101916020861061035f57601f0160051c0190610652565b5f61010d565b5f80fd5b81516001600160401b03811161057357602091610599878480948801016105c9565b8152019101906100c8565b6040519190601f01601f191682016001600160401b0381118382101761036957604052565b81601f82011215610573578051906001600160401b038211610369576105f8601f8301601f19166020016105a4565b928284526020838301011161057357815f9260208093018386015e8301015290565b90600182811c92168015610648575b602083101461063457565b634e487b7160e01b5f52602260045260245ffd5b91607f1691610629565b81811061065d575050565b5f815560010161065256fe6080806040526004361015610012575f80fd5b5f905f3560e01c90816301ffc9a714610a175750806306fdde0314610950578063081812fc14610914578063095ea7b3146108ed57806323b872dd146108d657806342842e0e146108a75780636352211e1461087757806370a082311461082657806370b7af381461072d578063715018a6146106d057806380f55605146106a75780638da5cb5b1461067e57806395d89b41146105af578063a22cb46514610511578063b88d4fde146104a1578063c70f5eaa14610383578063c87b56dd14610363578063d204c45e146102a4578063de34bacd14610286578063e43192191461021b578063e985e9c5146101c3578063f2fde38b1461013a5763f47c84c51461011b575f80fd5b3461013757806003193601126101375760206040516127108152f35b80fd5b503461013757602036600319011261013757610154610ac0565b61015c610ea3565b6001600160a01b031680156101af57600780546001600160a01b0319811683179091556001600160a01b03167f8be0079c531659141344cd1fd0a4f28419497f9722a3daafe3b4186f6b6457e08380a380f35b631e4fbdf760e01b82526004829052602482fd5b50346101375760403660031901126101375760406101df610ac0565b916101e8610ad6565b9260018060a01b031681526005602052209060018060a01b03165f52602052602060ff60405f2054166040519015158152f35b5034610137576020366003190112610137576004356009548110156102825761024390610bae565b91909161026e5761026a61025683610c12565b604051918291602083526020830190610a9c565b0390f35b634e487b7160e01b81526004819052602490fd5b5080fd5b50346101375780600319360112610137576020600a54604051908152f35b5034610137576040366003190112610137576102be610ac0565b60243567ffffffffffffffff811161035f573660238201121561035f576102ef903690602481600401359101610b78565b6102f7610ea3565b6008546127108110156103255761031d816103229461031582610e4d565b600855610fff565b6111f2565b80f35b60405162461bcd60e51b815260206004820152601260248201527113585e081d1bdad95b9cc81c995858da195960721b6044820152606490fd5b8280fd5b50346101375760203660031901126101375761026a610256600435611359565b50602036600319011261013757600435600a54340361045c57600954811015610421576103b26103b891610bae565b50610c12565b7fda86b4ea65a3f8e18bfcfeff39efd828bbd7f70268fe1cf30a5f99089a742da36008546103e68133610fff565b6103f083826111f2565b604051908152604060208201528061040d33946040830190610a9c565b0390a261041b600854610e4d565b60085580f35b60405162461bcd60e51b815260206004820152601360248201527210d85c9908191bd95cc81b9bdd08195e1a5cdd606a1b6044820152606490fd5b60405162461bcd60e51b815260206004820152601a60248201527f496e636f72726563742045746865722076616c75652073656e740000000000006044820152606490fd5b5034610137576080366003190112610137576104bb610ac0565b6104c3610ad6565b906044356064359267ffffffffffffffff841161050d573660238501121561050d576104fc610322943690602481600401359101610b78565b92610508838383610cb2565b610eca565b8480fd5b50346101375760403660031901126101375761052b610ac0565b6024359081151580920361035f576001600160a01b031690811561059b57338352600560205260408320825f5260205260405f2060ff1981541660ff83161790556040519081527f17307eab39ab6107e8899845ad3d59bd9653f200f220920489ca2b5937696c3160203392a380f35b630b61174360e31b83526004829052602483fd5b50346101375780600319360112610137576040519080600154906105d282610bda565b808552916001811690811561065757506001146105fa575b61026a8461025681860382610b26565b600181527fb10e2d527612073b26eecdfd717e6a320cf44b4afac2b0732d9fcbe2b7fa0cf6939250905b80821061063d57509091508101602001610256826105ea565b919260018160209254838588010152019101909291610624565b60ff191660208087019190915292151560051b8501909201925061025691508390506105ea565b50346101375780600319360112610137576007546040516001600160a01b039091168152602090f35b5034610137578060031936011261013757600b546040516001600160a01b039091168152602090f35b50346101375780600319360112610137576106e9610ea3565b600780546001600160a01b0319811690915581906001600160a01b03167f8be0079c531659141344cd1fd0a4f28419497f9722a3daafe3b4186f6b6457e08280a380f35b50346107dd5760403660031901126107dd5760043561074b81610e6f565b336001600160a01b03909116036107e157600b5461077590339083906001600160a01b0316611389565b600b546001600160a01b031690813b156107dd575f91606483926040519485938492636ab3a92560e01b8452600484015260243560248401523360448401525af180156107d2576107c4575080f35b6107d091505f90610b26565b005b6040513d5f823e3d90fd5b5f80fd5b60405162461bcd60e51b815260206004820152601860248201527f596f7520646f206e6f74206f776e2074686973206361726400000000000000006044820152606490fd5b346107dd5760203660031901126107dd576001600160a01b03610847610ac0565b168015610864575f526003602052602060405f2054604051908152f35b6322718ad960e21b5f525f60045260245ffd5b346107dd5760203660031901126107dd576020610895600435610e6f565b6040516001600160a01b039091168152f35b346107dd576107d06108b836610aec565b90604051926108c8602085610b26565b5f8452610508838383610cb2565b346107dd576107d06108e736610aec565b91610cb2565b346107dd5760403660031901126107dd576107d0610909610ac0565b339060243590611389565b346107dd5760203660031901126107dd5760043561093181610e6f565b505f526004602052602060018060a01b0360405f205416604051908152f35b346107dd575f3660031901126107dd576040515f5f5461096f81610bda565b80845290600181169081156109f35750600114610997575b61026a8361025681850382610b26565b5f8080527f290decd9548b62a8d60345a988386fc84ba6bc95484008f6362f93160ef3e563939250905b8082106109d957509091508101602001610256610987565b9192600181602092548385880101520191019092916109c1565b60ff191660208086019190915291151560051b840190910191506102569050610987565b346107dd5760203660031901126107dd576004359063ffffffff60e01b82168092036107dd57602091632483248360e11b8114908115610a59575b5015158152f35b6380ac58cd60e01b811491508115610a8b575b8115610a7a575b5083610a52565b6301ffc9a760e01b14905083610a73565b635b5e139f60e01b81149150610a6c565b805180835260209291819084018484015e5f828201840152601f01601f1916010190565b600435906001600160a01b03821682036107dd57565b602435906001600160a01b03821682036107dd57565b60609060031901126107dd576004356001600160a01b03811681036107dd57906024356001600160a01b03811681036107dd579060443590565b90601f8019910116810190811067ffffffffffffffff821117610b4857604052565b634e487b7160e01b5f52604160045260245ffd5b67ffffffffffffffff8111610b4857601f01601f191660200190565b929192610b8482610b5c565b91610b926040519384610b26565b8294818452818301116107dd578281602093845f960137010152565b600954811015610bc65760095f5260205f2001905f90565b634e487b7160e01b5f52603260045260245ffd5b90600182811c92168015610c08575b6020831014610bf457565b634e487b7160e01b5f52602260045260245ffd5b91607f1691610be9565b9060405191825f825492610c2584610bda565b8084529360018116908115610c905750600114610c4c575b50610c4a92500383610b26565b565b90505f9291925260205f20905f915b818310610c74575050906020610c4a928201015f610c3d565b6020919350806001915483858901015201910190918492610c5b565b905060209250610c4a94915060ff191682840152151560051b8201015f610c3d565b6001600160a01b0390911691908215610e3a575f828152600260205260409020546001600160a01b031692829033151580610da5575b5084610d72575b805f52600360205260405f2060018154019055815f52600260205260405f20816001600160601b0360a01b825416179055847fddf252ad1be2c89b69c2b068fc378daa952ba7f163c4a11628f55a4df523b3ef5f80a46001600160a01b0316808303610d5a57505050565b6364283d7b60e01b5f5260045260245260445260645ffd5b5f82815260046020526040902080546001600160a01b0319169055845f52600360205260405f205f198154019055610cef565b90915080610de9575b15610dbb5782905f610ce8565b8284610dd357637e27328960e01b5f5260045260245ffd5b63177e802f60e01b5f523360045260245260445ffd5b503384148015610e18575b80610dae57505f838152600460205260409020546001600160a01b03163314610dae565b505f84815260056020908152604080832033845290915290205460ff16610df4565b633250574960e11b5f525f60045260245ffd5b5f198114610e5b5760010190565b634e487b7160e01b5f52601160045260245ffd5b5f818152600260205260409020546001600160a01b0316908115610e91575090565b637e27328960e01b5f5260045260245ffd5b6007546001600160a01b03163303610eb757565b63118cdaa760e01b5f523360045260245ffd5b9291813b610ed9575b50505050565b604051630a85bd0160e11b81523360048201526001600160a01b0394851660248201526044810191909152608060648201529216919060209082908190610f24906084830190610a9c565b03815f865af15f9181610fba575b50610f8757503d15610f80573d610f4881610b5c565b90610f566040519283610b26565b81523d5f602083013e5b80519081610f7b5782633250574960e11b5f5260045260245ffd5b602001fd5b6060610f60565b6001600160e01b03191663757a42ff60e11b01610fa857505f808080610ed3565b633250574960e11b5f5260045260245ffd5b9091506020813d602011610ff7575b81610fd660209383610b26565b810103126107dd57516001600160e01b0319811681036107dd57905f610f32565b3d9150610fc9565b90602090604051906110118383610b26565b5f82526001600160a01b038416938415610e3a575f8281526002855260409020546001600160a01b031680151590816111c1575b865f526003865260405f2060018154019055835f526002865260405f20876001600160601b0360a01b8254161790558387827fddf252ad1be2c89b69c2b068fc378daa952ba7f163c4a11628f55a4df523b3ef5f80a4506111ae573b6110ab5750505050565b916110e891819495936040519384928392630a85bd0160e11b84523360048501525f60248501526044840152608060648401526084830190610a9c565b03815f885af15f918161116e575b506111495750503d15611142573d61110d81610b5c565b9061111b6040519283610b26565b81523d5f8383013e5b8051918261113f5783633250574960e11b5f5260045260245ffd5b01fd5b6060611124565b909291506001600160e01b03191663757a42ff60e11b01610fa857505f808080610ed3565b9091508381813d83116111a7575b6111868183610b26565b810103126107dd57516001600160e01b0319811681036107dd57905f6110f6565b503d61117c565b6339e3563760e11b5f525f60045260245ffd5b5f8481526004602052604080822080546001600160a01b031916905582825260038852902080545f19019055611045565b919091805f52600660205260405f20835167ffffffffffffffff8111610b485761121c8254610bda565b601f8111611314575b506020601f821160011461128c57908060209493927ff8e1a15aba9398e019f0b49df1a4fde98ee17ae345cb5f6b5e2c27f5033e8ce796975f92611281575b50508160011b915f199060031b1c19161790555b604051908152a1565b015190505f80611264565b601f19821695835f52815f20965f5b8181106112fc575096600192849260209796957ff8e1a15aba9398e019f0b49df1a4fde98ee17ae345cb5f6b5e2c27f5033e8ce7999a106112e4575b505050811b019055611278565b01515f1960f88460031b161c191690555f80806112d7565b8383015189556001909801976020938401930161129b565b825f5260205f20601f830160051c8101916020841061134f575b601f0160051c01905b8181106113445750611225565b5f8155600101611337565b909150819061132e565b61136281610e6f565b505f52600660205261137660405f20610c12565b5f604051611385602082610b26565b5290565b9161139382610e6f565b906001600160a01b031680151580611446575b8061141d575b61140b575081906001600160a01b0384811691167f8c5be1e5ebec7d5bd14f71427d1e84f3dd0314c0f7b2291e5b200ac8c7c3b9255f80a45f52600460205260405f209060018060a01b03166001600160601b0360a01b825416179055565b63a9fbf51f60e01b5f5260045260245ffd5b5060018060a01b0382165f52600560205260405f20815f5260205260ff60405f205416156113ac565b506001600160a01b0382168114156113a656fea2646970667358221220aa7fc08b21892f044111d9e3cea56e5f2fadba4554d6d71b3927743a5338536164736f6c634300081c00336e1540171b6c0c960b71a7020d9f60077f6af931a8bbf590da0223dacf75c7af",
    "sourcePath": "/home/lyeslai/Documents/collectible-card-game-daar/contracts/src/Collection.sol",
    "compiler": {
        "name": "solc",
        "version": "0.8.28+commit.7893614a"
    },
    "functionHashes": {
        "MAX_TOKENS()": "f47c84c5",
        "UNIQ_CARDS(uint256)": "e4319219",
        "approve(address,uint256)": "095ea7b3",
        "balanceOf(address)": "70a08231",
        "buyCard(uint256)": "c70f5eaa",
        "cardPrice()": "de34bacd",
        "getApproved(uint256)": "081812fc",
        "isApprovedForAll(address,address)": "e985e9c5",
        "listCardForSale(uint256,uint256)": "70b7af38",
        "market()": "80f55605",
        "name()": "06fdde03",
        "owner()": "8da5cb5b",
        "ownerOf(uint256)": "6352211e",
        "renounceOwnership()": "715018a6",
        "safeMint(address,string)": "d204c45e",
        "safeTransferFrom(address,address,uint256)": "42842e0e",
        "safeTransferFrom(address,address,uint256,bytes)": "b88d4fde",
        "setApprovalForAll(address,bool)": "a22cb465",
        "supportsInterface(bytes4)": "01ffc9a7",
        "symbol()": "95d89b41",
        "tokenURI(uint256)": "c87b56dd",
        "transferFrom(address,address,uint256)": "23b872dd",
        "transferOwnership(address)": "f2fde38b"
    },
    "gasEstimates": {
        "creation": {
            "codeDepositCost": "1052600",
            "executionCost": "infinite",
            "totalCost": "infinite"
        },
        "external": {
            "MAX_TOKENS()": "640",
            "UNIQ_CARDS(uint256)": "infinite",
            "approve(address,uint256)": "31178",
            "balanceOf(address)": "2584",
            "buyCard(uint256)": "infinite",
            "cardPrice()": "2660",
            "getApproved(uint256)": "4630",
            "isApprovedForAll(address,address)": "3022",
            "listCardForSale(uint256,uint256)": "infinite",
            "market()": "2508",
            "name()": "infinite",
            "owner()": "2530",
            "ownerOf(uint256)": "2555",
            "renounceOwnership()": "28270",
            "safeMint(address,string)": "infinite",
            "safeTransferFrom(address,address,uint256)": "infinite",
            "safeTransferFrom(address,address,uint256,bytes)": "infinite",
            "setApprovalForAll(address,bool)": "26720",
            "supportsInterface(bytes4)": "384",
            "symbol()": "infinite",
            "tokenURI(uint256)": "infinite",
            "transferFrom(address,address,uint256)": "106362",
            "transferOwnership(address)": "28644"
        }
    }
}