{
    "contractName": "Main",
    "abi": [
        {
            "inputs": [
                {
                    "internalType": "string",
                    "name": "collectionName",
                    "type": "string"
                },
                {
                    "internalType": "string",
                    "name": "collectionSymbol",
                    "type": "string"
                },
                {
                    "internalType": "string[]",
                    "name": "uniqCards",
                    "type": "string[]"
                },
                {
                    "internalType": "address",
                    "name": "ownerAddress",
                    "type": "address"
                }
            ],
            "stateMutability": "nonpayable",
            "type": "constructor"
        },
        {
            "inputs": [
                {
                    "internalType": "address",
                    "name": "owner",
                    "type": "address"
                }
            ],
            "name": "OwnableInvalidOwner",
            "type": "error"
        },
        {
            "inputs": [
                {
                    "internalType": "address",
                    "name": "account",
                    "type": "address"
                }
            ],
            "name": "OwnableUnauthorizedAccount",
            "type": "error"
        },
        {
            "anonymous": false,
            "inputs": [
                {
                    "indexed": true,
                    "internalType": "address",
                    "name": "boosterAddress",
                    "type": "address"
                }
            ],
            "name": "BoosterCreated",
            "type": "event"
        },
        {
            "anonymous": false,
            "inputs": [
                {
                    "indexed": true,
                    "internalType": "address",
                    "name": "collectionAddress",
                    "type": "address"
                }
            ],
            "name": "CollectionCreated",
            "type": "event"
        },
        {
            "anonymous": false,
            "inputs": [
                {
                    "indexed": true,
                    "internalType": "address",
                    "name": "marketAddress",
                    "type": "address"
                }
            ],
            "name": "MarketCreated",
            "type": "event"
        },
        {
            "anonymous": false,
            "inputs": [
                {
                    "indexed": true,
                    "internalType": "address",
                    "name": "previousOwner",
                    "type": "address"
                },
                {
                    "indexed": true,
                    "internalType": "address",
                    "name": "newOwner",
                    "type": "address"
                }
            ],
            "name": "OwnershipTransferred",
            "type": "event"
        },
        {
            "inputs": [],
            "name": "booster",
            "outputs": [
                {
                    "internalType": "contract Booster",
                    "name": "",
                    "type": "address"
                }
            ],
            "stateMutability": "view",
            "type": "function"
        },
        {
            "inputs": [
                {
                    "internalType": "uint256",
                    "name": "amount",
                    "type": "uint256"
                }
            ],
            "name": "buyBooster",
            "outputs": [],
            "stateMutability": "nonpayable",
            "type": "function"
        },
        {
            "inputs": [
                {
                    "internalType": "uint256",
                    "name": "cardId",
                    "type": "uint256"
                }
            ],
            "name": "buyCardFromCollection",
            "outputs": [],
            "stateMutability": "payable",
            "type": "function"
        },
        {
            "inputs": [],
            "name": "collection",
            "outputs": [
                {
                    "internalType": "contract Collection",
                    "name": "",
                    "type": "address"
                }
            ],
            "stateMutability": "view",
            "type": "function"
        },
        {
            "inputs": [],
            "name": "getBooster",
            "outputs": [
                {
                    "internalType": "contract Booster",
                    "name": "",
                    "type": "address"
                }
            ],
            "stateMutability": "view",
            "type": "function"
        },
        {
            "inputs": [],
            "name": "getCollection",
            "outputs": [
                {
                    "internalType": "contract Collection",
                    "name": "",
                    "type": "address"
                }
            ],
            "stateMutability": "view",
            "type": "function"
        },
        {
            "inputs": [],
            "name": "getMarket",
            "outputs": [
                {
                    "internalType": "contract Market",
                    "name": "",
                    "type": "address"
                }
            ],
            "stateMutability": "view",
            "type": "function"
        },
        {
            "inputs": [
                {
                    "internalType": "uint256",
                    "name": "tokenId",
                    "type": "uint256"
                },
                {
                    "internalType": "uint256",
                    "name": "price",
                    "type": "uint256"
                }
            ],
            "name": "listCardOnMarket",
            "outputs": [],
            "stateMutability": "nonpayable",
            "type": "function"
        },
        {
            "inputs": [],
            "name": "market",
            "outputs": [
                {
                    "internalType": "contract Market",
                    "name": "",
                    "type": "address"
                }
            ],
            "stateMutability": "view",
            "type": "function"
        },
        {
            "inputs": [],
            "name": "openBooster",
            "outputs": [],
            "stateMutability": "nonpayable",
            "type": "function"
        },
        {
            "inputs": [],
            "name": "owner",
            "outputs": [
                {
                    "internalType": "address",
                    "name": "",
                    "type": "address"
                }
            ],
            "stateMutability": "view",
            "type": "function"
        },
        {
            "inputs": [],
            "name": "renounceOwnership",
            "outputs": [],
            "stateMutability": "nonpayable",
            "type": "function"
        },
        {
            "inputs": [
                {
                    "internalType": "address",
                    "name": "newOwner",
                    "type": "address"
                }
            ],
            "name": "transferOwnership",
            "outputs": [],
            "stateMutability": "nonpayable",
            "type": "function"
        },
        {
            "inputs": [],
            "name": "withdrawFunds",
            "outputs": [],
            "stateMutability": "nonpayable",
            "type": "function"
        }
    ],
    "bytecode": "6080604052346103b357613bd080380380610019816103e4565b9283398101906080818303126103b35780516001600160401b0381116103b35782610045918301610409565b60208201519091906001600160401b0381116103b35783610067918301610409565b60408201519093906001600160401b0381116103b35782019181601f840112156103b3578251916001600160401b03831161035f578260051b9360206100ae8187016103e4565b948552840194810160200190858383116103b35760208201905b8382106103b75750505050506060015160018060a01b0381168091036103b35780156103a0575f80546001600160a01b0319811683178255604051929182916001600160a01b0316907f8be0079c531659141344cd1fd0a4f28419497f9722a3daafe3b4186f6b6457e09080a36107498281016001600160401b0381118482101761035f576040928492610948843930825260208201520301905ff0801561035457600380546001600160a01b0319166001600160a01b03929092169182179055604051611b4180820196919592939291906001600160401b0388118789101761035f576101d5926101c791611091893960808952608089019061045a565b90878203602089015261045a565b90858203604087015251808252602082019160208260051b82010194925f915b838310610373578780888860608d015203905ff0801561035457600180546001600160a01b0319166001600160a01b039283169081179091555f5460405192610ffe9182850191166001600160401b0382118583101761035f57610100938593612bd2853960808352600b60808401526a426f6f737465725061636b60a81b60a084015260c06020840152600460c0840152632129aa2960e11b60e0840152604083015260608201520301905ff0801561035457600280546001600160a01b0319166001600160a01b0392831690811790915560015460405192167f75432e2e509efcaf947efcc7a5a6b6b3562425b29e9725c7a4a5c652291ac35d5f80a27fa240057977a091932963174ef31a2f370d5513e30ce5519373a744681e8ea5fc5f80a26003546001600160a01b03167fb27af04ab132a0b6bba5de2a84bbbadcc31c20c33932936a992ae6ff951259c35f80a26104c9908161047f8239f35b6040513d5f823e3d90fd5b634e487b7160e01b5f52604160045260245ffd5b9091929395602080610391600193601f198682030187528a5161045a565b980193019301919392906101f5565b631e4fbdf760e01b5f525f60045260245ffd5b5f80fd5b81516001600160401b0381116103b3576020916103d987848094880101610409565b8152019101906100c8565b6040519190601f01601f191682016001600160401b0381118382101761035f57604052565b81601f820112156103b3578051906001600160401b03821161035f57610438601f8301601f19166020016103e4565b92828452602083830101116103b357815f9260208093018386015e8301015290565b805180835260209291819084018484015e5f828201840152601f01601f191601019056fe60806040526004361015610011575f80fd5b5f5f3560e01c806324600fc3146103f25780634251921e146103ca578063700d6ddc14610352578063715018a6146102f857806372930dbf146102ad5780637de1e536146102845780637eb8ef73146101e457806380f55605146101425780638da5cb5b1461025d578063a4b778bc1461020d578063c6def076146101e4578063d223926f1461016b578063f1be1679146101425763f2fde38b146100b4575f80fd5b3461013f57602036600319011261013f576004356001600160a01b0381169081900361013d576100e261046d565b80156101295781546001600160a01b03198116821783556001600160a01b03167f8be0079c531659141344cd1fd0a4f28419497f9722a3daafe3b4186f6b6457e08380a380f35b631e4fbdf760e01b82526004829052602482fd5b505b80fd5b503461013f578060031936011261013f576003546040516001600160a01b039091168152602090f35b503461013f57602036600319011261013f5760025481906001600160a01b0316803b156101e157818091604460405180948193631c96b7d560e11b835233600484015260043560248401525af180156101d6576101c55750f35b816101cf91610437565b61013f5780f35b6040513d84823e3d90fd5b50fd5b503461013f578060031936011261013f576002546040516001600160a01b039091168152602090f35b50602036600319011261013f5760015481906001600160a01b0316803b156101e1578160249160405192838092636387af5560e11b8252600435600483015234905af180156101d6576101c55750f35b503461013f578060031936011261013f57546040516001600160a01b039091168152602090f35b503461013f578060031936011261013f576001546040516001600160a01b039091168152602090f35b503461013f578060031936011261013f5760025481906001600160a01b0316803b156101e1578180916004604051809481936372930dbf60e01b83525af180156101d6576101c55750f35b503461013f578060031936011261013f5761031161046d565b80546001600160a01b03198116825581906001600160a01b03167f8be0079c531659141344cd1fd0a4f28419497f9722a3daafe3b4186f6b6457e08280a380f35b50346103c65760403660031901126103c6576001546001600160a01b0316803b156103c6575f8091604460405180948193630e16f5e760e31b8352600435600484015260243560248401525af180156103bb576103ad575080f35b6103b991505f90610437565b005b6040513d5f823e3d90fd5b5f80fd5b346103c6575f3660031901126103c6576001546040516001600160a01b039091168152602090f35b346103c6575f3660031901126103c65761040a61046d565b5f805481908190819047906001600160a01b031682821561042e575bf1156103bb57005b506108fc610426565b90601f8019910116810190811067ffffffffffffffff82111761045957604052565b634e487b7160e01b5f52604160045260245ffd5b5f546001600160a01b0316330361048057565b63118cdaa760e01b5f523360045260245ffdfea2646970667358221220d67e293ce74c25d3dd8bd6fb6862fed157f30fdba08be422b38d4ed4934358c364736f6c634300081c00336080346100ea57601f61074938819003918201601f19168301916001600160401b038311848410176100ee5780849260409485528339810103126100ea5761004681610102565b906001600160a01b039061005c90602001610102565b169081156100d7575f80546001600160a01b031981168417825560405193916001600160a01b03909116907f8be0079c531659141344cd1fd0a4f28419497f9722a3daafe3b4186f6b6457e09080a3600280546001600160a01b0319166001600160a01b039290921691909117905561063290816101178239f35b631e4fbdf760e01b5f525f60045260245ffd5b5f80fd5b634e487b7160e01b5f52604160045260245ffd5b51906001600160a01b03821682036100ea5756fe6080806040526004361015610012575f80fd5b5f905f3560e01c908163305a67a8146104bc575080636588103b146104945780636ab3a925146103ca578063715018a6146103735780638da5cb5b1461034c578063c70f5eaa14610150578063de74e57b146101045763f2fde38b14610076575f80fd5b34610101576020366003190112610101576004356001600160a01b038116908190036100ff576100a46105d6565b80156100eb5781546001600160a01b03198116821783556001600160a01b03167f8be0079c531659141344cd1fd0a4f28419497f9722a3daafe3b4186f6b6457e08380a380f35b631e4fbdf760e01b82526004829052602482fd5b505b80fd5b5034610101576020366003190112610101576040606091600435815260016020522060ff6001825492015460405192835260018060a01b038116602084015260a01c1615156040820152f35b5060203660031901126102d257600435805f52600160205260405f2060016040519161017b836105ba565b8054835201549160ff602083019360018060a01b038116855260a01c16158015604084015261031357815134036102d65760025483516001600160a01b039182169116813b156102d2575f916064839260405194859384926323b872dd60e01b845260048401523360248401528760448401525af180156102c757610296575b508380808060018060a01b038751168190341561028c575b3491f115610281577ff89a4d89b38e4d5da47f471ac5dadb4bc2799df816d7164b1d16cd8b35c72e7d9260809282865260016020526001604087200160ff60a01b198154169055519060018060a01b039051169060405192835260208301523360408301526060820152a180f35b6040513d85823e3d90fd5b6108fc9150610213565b90935067ffffffffffffffff81116102b3576040525f925f6101fb565b634e487b7160e01b5f52604160045260245ffd5b6040513d5f823e3d90fd5b5f80fd5b60405162461bcd60e51b815260206004820152601560248201527426b0babb30b4b9b2902b30b632bab91022aa2422a960591b6044820152606490fd5b60405162461bcd60e51b8152602060048201526011602482015270436172746520496e6578697374616e746560781b6044820152606490fd5b346102d2575f3660031901126102d2575f546040516001600160a01b039091168152602090f35b346102d2575f3660031901126102d25761038b6105d6565b5f80546001600160a01b0319811682556001600160a01b03167f8be0079c531659141344cd1fd0a4f28419497f9722a3daafe3b4186f6b6457e08280a3005b346102d25760603660031901126102d2576044356001600160a01b0381169060243590600435908390036102d2577feec9fb041fa14d227fc0e64a3e630e1a685941c91dfb622450481abf5fc5a0e592606092604051610429816105ba565b8181526020808201848152600160408085018281525f898152838652829020955186559251949091018054925160ff60a01b90151560a01b166001600160a01b039095166001600160a81b0319909316929092179390931790558151948552840191909152820152a1005b346102d2575f3660031901126102d2576002546040516001600160a01b039091168152602090f35b346102d25760203660031901126102d25760043590815f526001602052600160405f206104e8836105ba565b8054835201549060ff604060018060a01b03841692836020820152019260a01c1615158252330361057c575115610537575f90815260016020819052604090912001805460ff60a01b19169055005b60405162461bcd60e51b815260206004820152601860248201527f4c697374696e6720616c726561647920696e61637469766500000000000000006044820152606490fd5b60405162461bcd60e51b81526020600482015260166024820152752cb7ba9030b932903737ba103a34329039b2b63632b960511b6044820152606490fd5b6060810190811067ffffffffffffffff8211176102b357604052565b5f546001600160a01b031633036105e957565b63118cdaa760e01b5f523360045260245ffdfea2646970667358221220e3e274744ac9a38c0774a2151441677a0bf84c3086a4273dea1e29cf645fa96364736f6c634300081c003360806040523461057357611b4180380380610019816105a4565b9283398101906080818303126105735780516001600160401b03811161057357826100459183016105c9565b60208201519091906001600160401b03811161057357836100679183016105c9565b60408201519093906001600160401b0381116105735782019181601f84011215610573578251916001600160401b038311610369578260051b9360206100ae8187016105a4565b948552840194810160200190858383116105735760208201905b838210610577575050505050606001519260018060a01b038416809403610573578051906001600160401b038211610369576101045f5461061a565b601f8111610526575b50602090601f83116001146104c35761013d92915f91836102ba575b50508160011b915f199060031b1c19161790565b5f555b83516001600160401b0381116103695761015b60015461061a565b601f8111610475575b50602094601f8211600114610412576101969293949582915f926102ba5750508160011b915f199060031b1c19161790565b6001555b33156103ff5760078054336001600160a01b0319821681179092556001600160a01b03167f8be0079c531659141344cd1fd0a4f28419497f9722a3daafe3b4186f6b6457e05f80a3662386f26fc10000600a555190680100000000000000008211610369576009548260095580831061037d575b5060095f9081525f516020611b215f395f51905f5292915b82821061024e57600b80546001600160a01b031916861790556040516114b890816106698239f35b80518051906001600160401b0382116103695761026b865461061a565b601f811161032e575b50602090601f83116001146102c557926102ab836001959460209487965f926102ba5750508160011b915f199060031b1c19161790565b87555b01940191019092610226565b015190505f80610129565b90601f19831691875f52815f20925f5b81811061031657509360209360019693879693838895106102fe575b505050811b0187556102ae565b01515f1960f88460031b161c191690555f80806102f1565b929360206001819287860151815501950193016102d5565b61035990875f5260205f20601f850160051c8101916020861061035f575b601f0160051c0190610652565b5f610274565b909150819061034c565b634e487b7160e01b5f52604160045260245ffd5b60095f525f516020611b215f395f51905f529081019083015b8181106103a3575061020e565b806103b06001925461061a565b806103bd575b5001610396565b601f811183146103d257505f81555b5f6103b6565b6103ee90825f5283601f60205f20920160051c82019101610652565b805f525f60208120818355556103cc565b631e4fbdf760e01b5f525f60045260245ffd5b601f1982169560015f52805f20915f5b88811061045d57508360019596979810610445575b505050811b0160015561019a565b01515f1960f88460031b161c191690555f8080610437565b91926020600181928685015181550194019201610422565b60015f526104bd907fb10e2d527612073b26eecdfd717e6a320cf44b4afac2b0732d9fcbe2b7fa0cf6601f840160051c8101916020851061035f57601f0160051c0190610652565b5f610164565b90601f198316915f8052815f20925f5b81811061050e57509084600195949392106104f6575b505050811b015f55610140565b01515f1960f88460031b161c191690555f80806104e9565b929360206001819287860151815501950193016104d3565b5f805261056d907f290decd9548b62a8d60345a988386fc84ba6bc95484008f6362f93160ef3e563601f850160051c8101916020861061035f57601f0160051c0190610652565b5f61010d565b5f80fd5b81516001600160401b03811161057357602091610599878480948801016105c9565b8152019101906100c8565b6040519190601f01601f191682016001600160401b0381118382101761036957604052565b81601f82011215610573578051906001600160401b038211610369576105f8601f8301601f19166020016105a4565b928284526020838301011161057357815f9260208093018386015e8301015290565b90600182811c92168015610648575b602083101461063457565b634e487b7160e01b5f52602260045260245ffd5b91607f1691610629565b81811061065d575050565b5f815560010161065256fe6080806040526004361015610012575f80fd5b5f905f3560e01c90816301ffc9a714610a405750806306fdde0314610979578063081812fc1461093d578063095ea7b31461091657806323b872dd146108ff57806342842e0e146108d05780636352211e146108a057806370a082311461084f57806370b7af3814610756578063715018a6146106f957806380f55605146106d05780638da5cb5b146106a757806395d89b41146105d8578063a22cb4651461053a578063b88d4fde146104ca578063c70f5eaa146103ac578063c87b56dd1461038c578063d204c45e146102cd578063d3a61cf5146102af578063de34bacd14610291578063e431921914610226578063e985e9c5146101ce578063f2fde38b146101455763f47c84c514610126575f80fd5b3461014257806003193601126101425760206040516127108152f35b80fd5b50346101425760203660031901126101425761015f610ae9565b610167610ecc565b6001600160a01b031680156101ba57600780546001600160a01b0319811683179091556001600160a01b03167f8be0079c531659141344cd1fd0a4f28419497f9722a3daafe3b4186f6b6457e08380a380f35b631e4fbdf760e01b82526004829052602482fd5b50346101425760403660031901126101425760406101ea610ae9565b916101f3610aff565b9260018060a01b031681526005602052209060018060a01b03165f52602052602060ff60405f2054166040519015158152f35b50346101425760203660031901126101425760043560095481101561028d5761024e90610bd7565b9190916102795761027561026183610c3b565b604051918291602083526020830190610ac5565b0390f35b634e487b7160e01b81526004819052602490fd5b5080fd5b50346101425780600319360112610142576020600a54604051908152f35b50346101425780600319360112610142576020600954604051908152f35b5034610142576040366003190112610142576102e7610ae9565b60243567ffffffffffffffff8111610388573660238201121561038857610318903690602481600401359101610ba1565b610320610ecc565b60085461271081101561034e576103468161034b9461033e82610e76565b600855611028565b61121b565b80f35b60405162461bcd60e51b815260206004820152601260248201527113585e081d1bdad95b9cc81c995858da195960721b6044820152606490fd5b8280fd5b503461014257602036600319011261014257610275610261600435611382565b50602036600319011261014257600435600a5434036104855760095481101561044a576103db6103e191610bd7565b50610c3b565b7fda86b4ea65a3f8e18bfcfeff39efd828bbd7f70268fe1cf30a5f99089a742da360085461040f8133611028565b610419838261121b565b604051908152604060208201528061043633946040830190610ac5565b0390a2610444600854610e76565b60085580f35b60405162461bcd60e51b815260206004820152601360248201527210d85c9908191bd95cc81b9bdd08195e1a5cdd606a1b6044820152606490fd5b60405162461bcd60e51b815260206004820152601a60248201527f496e636f72726563742045746865722076616c75652073656e740000000000006044820152606490fd5b5034610142576080366003190112610142576104e4610ae9565b6104ec610aff565b906044356064359267ffffffffffffffff841161053657366023850112156105365761052561034b943690602481600401359101610ba1565b92610531838383610cdb565b610ef3565b8480fd5b503461014257604036600319011261014257610554610ae9565b60243590811515809203610388576001600160a01b03169081156105c457338352600560205260408320825f5260205260405f2060ff1981541660ff83161790556040519081527f17307eab39ab6107e8899845ad3d59bd9653f200f220920489ca2b5937696c3160203392a380f35b630b61174360e31b83526004829052602483fd5b50346101425780600319360112610142576040519080600154906105fb82610c03565b80855291600181169081156106805750600114610623575b6102758461026181860382610b4f565b600181527fb10e2d527612073b26eecdfd717e6a320cf44b4afac2b0732d9fcbe2b7fa0cf6939250905b8082106106665750909150810160200161026182610613565b91926001816020925483858801015201910190929161064d565b60ff191660208087019190915292151560051b850190920192506102619150839050610613565b50346101425780600319360112610142576007546040516001600160a01b039091168152602090f35b5034610142578060031936011261014257600b546040516001600160a01b039091168152602090f35b5034610142578060031936011261014257610712610ecc565b600780546001600160a01b0319811690915581906001600160a01b03167f8be0079c531659141344cd1fd0a4f28419497f9722a3daafe3b4186f6b6457e08280a380f35b50346108065760403660031901126108065760043561077481610e98565b336001600160a01b039091160361080a57600b5461079e90339083906001600160a01b03166113b2565b600b546001600160a01b031690813b15610806575f91606483926040519485938492636ab3a92560e01b8452600484015260243560248401523360448401525af180156107fb576107ed575080f35b6107f991505f90610b4f565b005b6040513d5f823e3d90fd5b5f80fd5b60405162461bcd60e51b815260206004820152601860248201527f596f7520646f206e6f74206f776e2074686973206361726400000000000000006044820152606490fd5b34610806576020366003190112610806576001600160a01b03610870610ae9565b16801561088d575f526003602052602060405f2054604051908152f35b6322718ad960e21b5f525f60045260245ffd5b346108065760203660031901126108065760206108be600435610e98565b6040516001600160a01b039091168152f35b34610806576107f96108e136610b15565b90604051926108f1602085610b4f565b5f8452610531838383610cdb565b34610806576107f961091036610b15565b91610cdb565b34610806576040366003190112610806576107f9610932610ae9565b3390602435906113b2565b346108065760203660031901126108065760043561095a81610e98565b505f526004602052602060018060a01b0360405f205416604051908152f35b34610806575f366003190112610806576040515f5f5461099881610c03565b8084529060018116908115610a1c57506001146109c0575b6102758361026181850382610b4f565b5f8080527f290decd9548b62a8d60345a988386fc84ba6bc95484008f6362f93160ef3e563939250905b808210610a02575090915081016020016102616109b0565b9192600181602092548385880101520191019092916109ea565b60ff191660208086019190915291151560051b8401909101915061026190506109b0565b34610806576020366003190112610806576004359063ffffffff60e01b821680920361080657602091632483248360e11b8114908115610a82575b5015158152f35b6380ac58cd60e01b811491508115610ab4575b8115610aa3575b5083610a7b565b6301ffc9a760e01b14905083610a9c565b635b5e139f60e01b81149150610a95565b805180835260209291819084018484015e5f828201840152601f01601f1916010190565b600435906001600160a01b038216820361080657565b602435906001600160a01b038216820361080657565b6060906003190112610806576004356001600160a01b038116810361080657906024356001600160a01b0381168103610806579060443590565b90601f8019910116810190811067ffffffffffffffff821117610b7157604052565b634e487b7160e01b5f52604160045260245ffd5b67ffffffffffffffff8111610b7157601f01601f191660200190565b929192610bad82610b85565b91610bbb6040519384610b4f565b829481845281830111610806578281602093845f960137010152565b600954811015610bef5760095f5260205f2001905f90565b634e487b7160e01b5f52603260045260245ffd5b90600182811c92168015610c31575b6020831014610c1d57565b634e487b7160e01b5f52602260045260245ffd5b91607f1691610c12565b9060405191825f825492610c4e84610c03565b8084529360018116908115610cb95750600114610c75575b50610c7392500383610b4f565b565b90505f9291925260205f20905f915b818310610c9d575050906020610c73928201015f610c66565b6020919350806001915483858901015201910190918492610c84565b905060209250610c7394915060ff191682840152151560051b8201015f610c66565b6001600160a01b0390911691908215610e63575f828152600260205260409020546001600160a01b031692829033151580610dce575b5084610d9b575b805f52600360205260405f2060018154019055815f52600260205260405f20816001600160601b0360a01b825416179055847fddf252ad1be2c89b69c2b068fc378daa952ba7f163c4a11628f55a4df523b3ef5f80a46001600160a01b0316808303610d8357505050565b6364283d7b60e01b5f5260045260245260445260645ffd5b5f82815260046020526040902080546001600160a01b0319169055845f52600360205260405f205f198154019055610d18565b90915080610e12575b15610de45782905f610d11565b8284610dfc57637e27328960e01b5f5260045260245ffd5b63177e802f60e01b5f523360045260245260445ffd5b503384148015610e41575b80610dd757505f838152600460205260409020546001600160a01b03163314610dd7565b505f84815260056020908152604080832033845290915290205460ff16610e1d565b633250574960e11b5f525f60045260245ffd5b5f198114610e845760010190565b634e487b7160e01b5f52601160045260245ffd5b5f818152600260205260409020546001600160a01b0316908115610eba575090565b637e27328960e01b5f5260045260245ffd5b6007546001600160a01b03163303610ee057565b63118cdaa760e01b5f523360045260245ffd5b9291813b610f02575b50505050565b604051630a85bd0160e11b81523360048201526001600160a01b0394851660248201526044810191909152608060648201529216919060209082908190610f4d906084830190610ac5565b03815f865af15f9181610fe3575b50610fb057503d15610fa9573d610f7181610b85565b90610f7f6040519283610b4f565b81523d5f602083013e5b80519081610fa45782633250574960e11b5f5260045260245ffd5b602001fd5b6060610f89565b6001600160e01b03191663757a42ff60e11b01610fd157505f808080610efc565b633250574960e11b5f5260045260245ffd5b9091506020813d602011611020575b81610fff60209383610b4f565b8101031261080657516001600160e01b03198116810361080657905f610f5b565b3d9150610ff2565b906020906040519061103a8383610b4f565b5f82526001600160a01b038416938415610e63575f8281526002855260409020546001600160a01b031680151590816111ea575b865f526003865260405f2060018154019055835f526002865260405f20876001600160601b0360a01b8254161790558387827fddf252ad1be2c89b69c2b068fc378daa952ba7f163c4a11628f55a4df523b3ef5f80a4506111d7573b6110d45750505050565b9161111191819495936040519384928392630a85bd0160e11b84523360048501525f60248501526044840152608060648401526084830190610ac5565b03815f885af15f9181611197575b506111725750503d1561116b573d61113681610b85565b906111446040519283610b4f565b81523d5f8383013e5b805191826111685783633250574960e11b5f5260045260245ffd5b01fd5b606061114d565b909291506001600160e01b03191663757a42ff60e11b01610fd157505f808080610efc565b9091508381813d83116111d0575b6111af8183610b4f565b8101031261080657516001600160e01b03198116810361080657905f61111f565b503d6111a5565b6339e3563760e11b5f525f60045260245ffd5b5f8481526004602052604080822080546001600160a01b031916905582825260038852902080545f1901905561106e565b919091805f52600660205260405f20835167ffffffffffffffff8111610b71576112458254610c03565b601f811161133d575b506020601f82116001146112b557908060209493927ff8e1a15aba9398e019f0b49df1a4fde98ee17ae345cb5f6b5e2c27f5033e8ce796975f926112aa575b50508160011b915f199060031b1c19161790555b604051908152a1565b015190505f8061128d565b601f19821695835f52815f20965f5b818110611325575096600192849260209796957ff8e1a15aba9398e019f0b49df1a4fde98ee17ae345cb5f6b5e2c27f5033e8ce7999a1061130d575b505050811b0190556112a1565b01515f1960f88460031b161c191690555f8080611300565b838301518955600190980197602093840193016112c4565b825f5260205f20601f830160051c81019160208410611378575b601f0160051c01905b81811061136d575061124e565b5f8155600101611360565b9091508190611357565b61138b81610e98565b505f52600660205261139f60405f20610c3b565b5f6040516113ae602082610b4f565b5290565b916113bc82610e98565b906001600160a01b03168015158061146f575b80611446575b611434575081906001600160a01b0384811691167f8c5be1e5ebec7d5bd14f71427d1e84f3dd0314c0f7b2291e5b200ac8c7c3b9255f80a45f52600460205260405f209060018060a01b03166001600160601b0360a01b825416179055565b63a9fbf51f60e01b5f5260045260245ffd5b5060018060a01b0382165f52600560205260405f20815f5260205260ff60405f205416156113d5565b506001600160a01b0382168114156113cf56fea26469706673582212202c45608b9fe286c8b9b491ee4dbe9be26a04f8f69f6a40f58c727d1b64c3825764736f6c634300081c00336e1540171b6c0c960b71a7020d9f60077f6af931a8bbf590da0223dacf75c7af6080604052346103b657610ffe80380380610019816103ba565b9283398101906080818303126103b65780516001600160401b0381116103b657826100459183016103df565b602082015190926001600160401b0382116103b6576100659183016103df565b9061007e606061007760408401610430565b9201610430565b83516001600160401b0381116102c757600354600181811c911680156103ac575b60208210146102a957601f8111610349575b50602094601f82116001146102e6579481929394955f926102db575b50508160011b915f199060031b1c1916176003555b82516001600160401b0381116102c757600454600181811c911680156102bd575b60208210146102a957601f8111610246575b506020601f82116001146101e357819293945f926101d8575b50508160011b915f199060031b1c1916176004555b6001600160a01b03169081156101c557600580546001600160a01b03198116841790915560405192906001600160a01b03167f8be0079c531659141344cd1fd0a4f28419497f9722a3daafe3b4186f6b6457e05f80a3600680546001600160a01b0319166001600160a01b0392909216919091179055610bb990816104458239f35b631e4fbdf760e01b5f525f60045260245ffd5b015190505f8061012e565b601f1982169060045f52805f20915f5b81811061022e57509583600195969710610216575b505050811b01600455610143565b01515f1960f88460031b161c191690555f8080610208565b9192602060018192868b0151815501940192016101f3565b60045f527f8a35acfbc15ff81a39ae7d344fd709f28e8600b4aa8c65c6b64bfe7fe36bd19b601f830160051c8101916020841061029f575b601f0160051c01905b8181106102945750610115565b5f8155600101610287565b909150819061027e565b634e487b7160e01b5f52602260045260245ffd5b90607f1690610103565b634e487b7160e01b5f52604160045260245ffd5b015190505f806100cd565b601f1982169560035f52805f20915f5b88811061033157508360019596979810610319575b505050811b016003556100e2565b01515f1960f88460031b161c191690555f808061030b565b919260206001819286850151815501940192016102f6565b60035f527fc2575a0e9e593c00f959f8c92f12db2869c3395a3b0502d05e2516446f71f85b601f830160051c810191602084106103a2575b601f0160051c01905b81811061039757506100b1565b5f815560010161038a565b9091508190610381565b90607f169061009f565b5f80fd5b6040519190601f01601f191682016001600160401b038111838210176102c757604052565b81601f820112156103b6578051906001600160401b0382116102c75761040e601f8301601f19166020016103ba565b92828452602083830101116103b657815f9260208093018386015e8301015290565b51906001600160a01b03821682036103b65756fe6080806040526004361015610012575f80fd5b5f3560e01c90816306fdde031461097357508063095ea7b3146108f157806318160ddd146108d457806323b872dd146107f4578063313ce567146107d9578063392d6faa1461072d57806370a08231146106f6578063715018a61461069b57806372930dbf1461034e5780637de1e536146103265780638da5cb5b146102fe57806395d89b41146101f2578063a9059cbb146101c1578063af215f98146101a6578063dd62ed3e146101565763f2fde38b146100cc575f80fd5b34610152576020366003190112610152576100e5610a4f565b6100ed610b5c565b6001600160a01b0316801561013f57600580546001600160a01b0319811683179091556001600160a01b03167f8be0079c531659141344cd1fd0a4f28419497f9722a3daafe3b4186f6b6457e05f80a3005b631e4fbdf760e01b5f525f60045260245ffd5b5f80fd5b346101525760403660031901126101525761016f610a4f565b610177610a65565b6001600160a01b039182165f908152600160209081526040808320949093168252928352819020549051908152f35b34610152575f36600319011261015257602060405160058152f35b34610152576040366003190112610152576101e76101dd610a4f565b6024359033610ac5565b602060405160018152f35b34610152575f366003190112610152576040515f6004548060011c906001811680156102f4575b6020831081146102e0578285529081156102bc575060011461025e575b61025a8361024681850382610a7b565b604051918291602083526020830190610a2b565b0390f35b91905060045f527f8a35acfbc15ff81a39ae7d344fd709f28e8600b4aa8c65c6b64bfe7fe36bd19b915f905b8082106102a257509091508101602001610246610236565b91926001816020925483858801015201910190929161028a565b60ff191660208086019190915291151560051b840190910191506102469050610236565b634e487b7160e01b5f52602260045260245ffd5b91607f1691610219565b34610152575f366003190112610152576005546040516001600160a01b039091168152602090f35b34610152575f366003190112610152576006546040516001600160a01b039091168152602090f35b34610152575f36600319011261015257335f525f602052600160405f20541061065d57331561064a57335f525f60205260405f20546001811061062f57335f525f6020525f190160405f20555f19600254016002555f604051600181527fddf252ad1be2c89b69c2b068fc378daa952ba7f163c4a11628f55a4df523b3ef60203392a360065460405163d3a61cf560e01b8152906001600160a01b0316602082600481845afa9182156105cb575f926105fb575b506040519161041260c084610a7b565b600583525f5b60a081106105ea57503360601b905f5b600581106104b25784604051602081016020825282518091526040820190602060408260051b8501019401915f905b82821061048757337fc030b24dd3a8725aa99a83244056d67b80f4e3a1569ddd3e18c7a685fcbb887d86880387a2005b909192946020806104a4600193603f198982030186528951610a2b565b970192019201909291610457565b6040516020810190428252846040820152826054820152605481526104d8607482610a7b565b5190209082156105d65760405163e431921960e01b81529183900660048301525f82602481885afa80156105cb575f9061052d575b6001925061051b8288610a9d565b526105268187610a9d565b5001610428565b503d805f843e61053d8184610a7b565b8201916020818403126101525780519067ffffffffffffffff821161015257019180601f8401121561015257825167ffffffffffffffff81116105b75760405191610592601f8301601f191660200184610a7b565b81835260208286010111610152576020815f9282600197018386015e8301015261050d565b634e487b7160e01b5f52604160045260245ffd5b6040513d5f823e3d90fd5b634e487b7160e01b5f52601260045260245ffd5b806060602080938701015201610418565b9091506020813d602011610627575b8161061760209383610a7b565b8101031261015257519082610402565b3d915061060a565b63391434e360e21b5f5233600452602452600160445260645ffd5b634b637e8f60e11b5f525f60045260245ffd5b60405162461bcd60e51b8152602060048201526016602482015275426f6f73746572206e6f6e20446973706f6e69626c6560501b6044820152606490fd5b34610152575f366003190112610152576106b3610b5c565b600580546001600160a01b031981169091555f906001600160a01b03167f8be0079c531659141344cd1fd0a4f28419497f9722a3daafe3b4186f6b6457e08280a3005b34610152576020366003190112610152576001600160a01b03610717610a4f565b165f525f602052602060405f2054604051908152f35b3461015257604036600319011261015257610746610a4f565b60243590610752610b5c565b6001600160a01b03169081156107c657600254908082018092116107b25760207fddf252ad1be2c89b69c2b068fc378daa952ba7f163c4a11628f55a4df523b3ef915f9360025584845283825260408420818154019055604051908152a3005b634e487b7160e01b5f52601160045260245ffd5b63ec442f0560e01b5f525f60045260245ffd5b34610152575f36600319011261015257602060405160128152f35b346101525760603660031901126101525761080d610a4f565b610815610a65565b6001600160a01b0382165f818152600160208181526040808420338552909152909120549193604435939290918101610854575b506101e79350610ac5565b8381106108b95784156108a6573315610893576101e7945f52600160205260405f2060018060a01b0333165f526020528360405f209103905584610849565b634a1406b160e11b5f525f60045260245ffd5b63e602df0560e01b5f525f60045260245ffd5b8390637dc7a0d960e11b5f523360045260245260445260645ffd5b34610152575f366003190112610152576020600254604051908152f35b346101525760403660031901126101525761090a610a4f565b6024359033156108a6576001600160a01b031690811561089357335f52600160205260405f20825f526020528060405f20556040519081527f8c5be1e5ebec7d5bd14f71427d1e84f3dd0314c0f7b2291e5b200ac8c7c3b92560203392a3602060405160018152f35b34610152575f366003190112610152575f6003548060011c90600181168015610a21575b6020831081146102e0578285529081156102bc57506001146109c35761025a8361024681850382610a7b565b91905060035f527fc2575a0e9e593c00f959f8c92f12db2869c3395a3b0502d05e2516446f71f85b915f905b808210610a0757509091508101602001610246610236565b9192600181602092548385880101520191019092916109ef565b91607f1691610997565b805180835260209291819084018484015e5f828201840152601f01601f1916010190565b600435906001600160a01b038216820361015257565b602435906001600160a01b038216820361015257565b90601f8019910116810190811067ffffffffffffffff8211176105b757604052565b8051821015610ab15760209160051b010190565b634e487b7160e01b5f52603260045260245ffd5b6001600160a01b031690811561064a576001600160a01b03169182156107c657815f525f60205260405f2054818110610b4357817fddf252ad1be2c89b69c2b068fc378daa952ba7f163c4a11628f55a4df523b3ef92602092855f525f84520360405f2055845f525f825260405f20818154019055604051908152a3565b8263391434e360e21b5f5260045260245260445260645ffd5b6005546001600160a01b03163303610b7057565b63118cdaa760e01b5f523360045260245ffdfea2646970667358221220052014a14c4e99468b045b945155d0e300012c054ace4d1ebfa11e079e7a132564736f6c634300081c0033",
    "sourcePath": "/home/lyeslai/Documents/collectible-card-game-daar/contracts/src/Main.sol",
    "compiler": {
        "name": "solc",
        "version": "0.8.28+commit.7893614a"
    },
    "functionHashes": {
        "booster()": "c6def076",
        "buyBooster(uint256)": "d223926f",
        "buyCardFromCollection(uint256)": "a4b778bc",
        "collection()": "7de1e536",
        "getBooster()": "7eb8ef73",
        "getCollection()": "4251921e",
        "getMarket()": "f1be1679",
        "listCardOnMarket(uint256,uint256)": "700d6ddc",
        "market()": "80f55605",
        "openBooster()": "72930dbf",
        "owner()": "8da5cb5b",
        "renounceOwnership()": "715018a6",
        "transferOwnership(address)": "f2fde38b",
        "withdrawFunds()": "24600fc3"
    },
    "gasEstimates": {
        "creation": {
            "codeDepositCost": "245000",
            "executionCost": "infinite",
            "totalCost": "infinite"
        },
        "external": {
            "booster()": "2497",
            "buyBooster(uint256)": "infinite",
            "buyCardFromCollection(uint256)": "infinite",
            "collection()": "2387",
            "getBooster()": "2409",
            "getCollection()": "2296",
            "getMarket()": "2541",
            "listCardOnMarket(uint256,uint256)": "infinite",
            "market()": "2431",
            "openBooster()": "infinite",
            "owner()": "2450",
            "renounceOwnership()": "28120",
            "transferOwnership(address)": "28406",
            "withdrawFunds()": "infinite"
        }
    }
}