{
    "contractName": "Main",
    "abi": [
        {
            "inputs": [],
            "stateMutability": "nonpayable",
            "type": "constructor"
        },
        {
            "anonymous": false,
            "inputs": [
                {
                    "indexed": false,
                    "internalType": "string",
                    "name": "name",
                    "type": "string"
                },
                {
                    "indexed": false,
                    "internalType": "uint256",
                    "name": "cardCount",
                    "type": "uint256"
                }
            ],
            "name": "CollectionCreated",
            "type": "event"
        },
        {
            "anonymous": false,
            "inputs": [
                {
                    "indexed": true,
                    "internalType": "address",
                    "name": "to",
                    "type": "address"
                },
                {
                    "indexed": false,
                    "internalType": "uint256",
                    "name": "tokenId",
                    "type": "uint256"
                },
                {
                    "indexed": false,
                    "internalType": "uint256",
                    "name": "collectionId",
                    "type": "uint256"
                }
            ],
            "name": "NFTMinted",
            "type": "event"
        },
        {
            "stateMutability": "payable",
            "type": "fallback"
        },
        {
            "inputs": [],
            "name": "collectionCount",
            "outputs": [
                {
                    "internalType": "uint256",
                    "name": "",
                    "type": "uint256"
                }
            ],
            "stateMutability": "view",
            "type": "function"
        },
        {
            "inputs": [
                {
                    "internalType": "uint256",
                    "name": "",
                    "type": "uint256"
                }
            ],
            "name": "collections",
            "outputs": [
                {
                    "internalType": "contract Collection",
                    "name": "",
                    "type": "address"
                }
            ],
            "stateMutability": "view",
            "type": "function"
        },
        {
            "inputs": [
                {
                    "internalType": "string",
                    "name": "name",
                    "type": "string"
                },
                {
                    "internalType": "uint256",
                    "name": "cardCount",
                    "type": "uint256"
                },
                {
                    "internalType": "string",
                    "name": "baseTokenURI",
                    "type": "string"
                }
            ],
            "name": "createCollection",
            "outputs": [],
            "stateMutability": "nonpayable",
            "type": "function"
        },
        {
            "inputs": [
                {
                    "internalType": "uint256",
                    "name": "collectionId",
                    "type": "uint256"
                },
                {
                    "internalType": "address",
                    "name": "to",
                    "type": "address"
                }
            ],
            "name": "mint",
            "outputs": [],
            "stateMutability": "nonpayable",
            "type": "function"
        },
        {
            "inputs": [],
            "name": "owner",
            "outputs": [
                {
                    "internalType": "address",
                    "name": "",
                    "type": "address"
                }
            ],
            "stateMutability": "view",
            "type": "function"
        },
        {
            "stateMutability": "payable",
            "type": "receive"
        }
    ],
    "bytecode": "608080604052346026575f80546001600160a01b03191633179055611a90908161002b8239f35b5f80fdfe6080604052600436101561005b575b36156100595760405162461bcd60e51b815260206004820152601760248201527f46756e6374696f6e206e6f74207265636f676e697a65640000000000000000006044820152606490fd5b005b5f5f3560e01c806387a815b5146102855780638da5cb5b1461025e57806394bf804d146100f0578063d57f966b146100d25763fdbda0ec1461009d575061000e565b346100cf5760203660031901126100cf57602090600435815260028252604060018060a01b0391205416604051908152f35b80fd5b50346100cf57806003193601126100cf576020600154604051908152f35b503461025a57604036600319011261025a576024356001600160a01b038116906004359082900361025a5761012f60018060a01b035f54163314610423565b5f818152600260205260409020546001600160a01b0316803b1561025a576040516335313c2160e11b8152600481018490525f8160248183865af1801561024f57610233575b5090602060049260405193848092631d5e528f60e21b82525afa9182156102285784926101f0575b505f1982019182116101dc577f3a8a89b59a31c39a36febecb987e0657ab7b7c73b60ebacb44dcb9886c2d5c8a9160409182519182526020820152a280f35b634e487b7160e01b84526011600452602484fd5b9091506020813d602011610220575b8161020c60209383610488565b8101031261021c5751905f61019d565b8380fd5b3d91506101ff565b6040513d86823e3d90fd5b6004929194505f61024391610488565b60205f94919250610175565b6040513d5f823e3d90fd5b5f80fd5b3461025a575f36600319011261025a575f546040516001600160a01b039091168152602090f35b3461025a57606036600319011261025a5760043567ffffffffffffffff811161025a576102b69036906004016103f5565b906024359160443567ffffffffffffffff811161025a576102db9036906004016103f5565b906102f060018060a01b035f54163314610423565b604051916115b0908184019084821067ffffffffffffffff8311176103e1578493610340936104ab86396060835261032c60608401888a610468565b928960208201526040818503910152610468565b03905ff0801561024f576001545f52600260205260405f209060018060a01b03166bffffffffffffffffffffffff60a01b825416179055600154925f1984146103cd5760017f7b5a520c0e4b578a26c9d30d55a79e2b2aec43c74bca7a5e2719980ec06d54e094016001556103c2604051938493604085526040850191610468565b9060208301520390a1005b634e487b7160e01b5f52601160045260245ffd5b634e487b7160e01b5f52604160045260245ffd5b9181601f8401121561025a5782359167ffffffffffffffff831161025a576020838186019501011161025a57565b1561042a57565b60405162461bcd60e51b81526020600482015260166024820152752737ba103a34329031b7b73a3930b1ba1037bbb732b960511b6044820152606490fd5b908060209392818452848401375f828201840152601f01601f1916010190565b90601f8019910116810190811067ffffffffffffffff8211176103e15760405256fe6080604052346104ce576115b080380380610019816104d2565b92833981016060828203126104ce5781516001600160401b0381116104ce57816100449184016104f7565b91602081015191604082015160018060401b0381116104ce5761006792016104f7565b61007160406104d2565b60048152634e46544360e01b602082015283519092906001600160401b0381116102f4575f54600181811c911680156104c4575b60208210146102d657601f8111610462575b50602094601f8211600114610401579481929394955f926103f6575b50508160011b915f199060031b1c1916175f555b82516001600160401b0381116102f457600154600181811c911680156103ec575b60208210146102d657601f8111610389575b506020601f821160011461032657819293945f9261031b575b50508160011b915f199060031b1c1916176001555b33156103085760068054336001600160a01b0319821681179092556001600160a01b03167f8be0079c531659141344cd1fd0a4f28419497f9722a3daafe3b4186f6b6457e05f80a360075580516001600160401b0381116102f457600954600181811c911680156102ea575b60208210146102d657601f8111610273575b50602091601f8211600114610213579181925f92610208575b50508160011b915f199060031b1c1916176009555b600160085560405161106790816105498239f35b015190505f806101df565b601f1982169260095f52805f20915f5b85811061025b57508360019510610243575b505050811b016009556101f4565b01515f1960f88460031b161c191690555f8080610235565b91926020600181928685015181550194019201610223565b60095f527f6e1540171b6c0c960b71a7020d9f60077f6af931a8bbf590da0223dacf75c7af601f830160051c810191602084106102cc575b601f0160051c01905b8181106102c157506101c6565b5f81556001016102b4565b90915081906102ab565b634e487b7160e01b5f52602260045260245ffd5b90607f16906101b4565b634e487b7160e01b5f52604160045260245ffd5b631e4fbdf760e01b5f525f60045260245ffd5b015190505f80610133565b601f1982169060015f52805f20915f5b81811061037157509583600195969710610359575b505050811b01600155610148565b01515f1960f88460031b161c191690555f808061034b565b9192602060018192868b015181550194019201610336565b60015f527fb10e2d527612073b26eecdfd717e6a320cf44b4afac2b0732d9fcbe2b7fa0cf6601f830160051c810191602084106103e2575b601f0160051c01905b8181106103d7575061011a565b5f81556001016103ca565b90915081906103c1565b90607f1690610108565b015190505f806100d3565b601f198216955f8052805f20915f5b88811061044a57508360019596979810610432575b505050811b015f556100e7565b01515f1960f88460031b161c191690555f8080610425565b91926020600181928685015181550194019201610410565b5f80527f290decd9548b62a8d60345a988386fc84ba6bc95484008f6362f93160ef3e563601f830160051c810191602084106104ba575b601f0160051c01905b8181106104af57506100b7565b5f81556001016104a2565b9091508190610499565b90607f16906100a5565b5f80fd5b6040519190601f01601f191682016001600160401b038111838210176102f457604052565b81601f820112156104ce578051906001600160401b0382116102f457610526601f8301601f19166020016104d2565b92828452602083830101116104ce57815f9260208093018386015e830101529056fe6080806040526004361015610012575f80fd5b5f3560e01c90816301ffc9a714610b775750806306fdde0314610ad5578063081812fc14610a99578063095ea7b3146109af5780631b6cde101461099257806323b872dd1461097b57806342842e0e146109525780636352211e146109225780636a627842146107b957806370a0823114610768578063715018a61461070d57806375794a3c146106f05780638da5cb5b146106c857806395d89b4114610623578063a22cb46514610588578063b88d4fde146104fe578063c87b56dd146102bb578063d547cfb7146101d9578063e985e9c5146101825763f2fde38b146100f8575f80fd5b3461017e57602036600319011261017e57610111610c06565b61011961100a565b6001600160a01b0316801561016b57600680546001600160a01b0319811683179091556001600160a01b03167f8be0079c531659141344cd1fd0a4f28419497f9722a3daafe3b4186f6b6457e05f80a3005b631e4fbdf760e01b5f525f60045260245ffd5b5f80fd5b3461017e57604036600319011261017e5761019b610c06565b6101a3610c1c565b9060018060a01b03165f52600560205260405f209060018060a01b03165f52602052602060ff60405f2054166040519015158152f35b3461017e575f36600319011261017e576040515f6009546101f981610cbe565b80845290600181169081156102975750600114610239575b6102358361022181850382610c6c565b604051918291602083526020830190610be2565b0390f35b60095f9081527f6e1540171b6c0c960b71a7020d9f60077f6af931a8bbf590da0223dacf75c7af939250905b80821061027d57509091508101602001610221610211565b919260018160209254838588010152019101909291610265565b60ff191660208086019190915291151560051b840190910191506102219050610211565b3461017e57602036600319011261017e575f6004358072184f03e93ff9f4daa797ed6e38ed64bf6a1f0160401b8110156104db575b806d04ee2d6d415b85acef8100000000600a9210156104c0575b662386f26fc100008110156104ac575b6305f5e10081101561049b575b61271081101561048c575b606481101561047e575b1015610474575b6001820190600a602161036e61035885610ca2565b946103666040519687610c6c565b808652610ca2565b602085019590601f19013687378401015b5f1901916f181899199a1a9b1b9c1cb0b131b232b360811b8282061a83530480156103ad57600a909161037f565b5050604051905f906009546103c181610cbe565b906001811690811561045057506001146103f8575b5061023593610221928492518092825e015f815203601f198101835282610c6c565b90915060095f527f6e1540171b6c0c960b71a7020d9f60077f6af931a8bbf590da0223dacf75c7af5f905b82821061043a5750508201602001906102356103d6565b6001816020925483858901015201910190610423565b60ff19166020808701919091528215159092028501909101925061023590506103d6565b9060010190610343565b60646002910493019261033c565b61271060049104930192610332565b6305f5e10060089104930192610327565b662386f26fc100006010910493019261031a565b6d04ee2d6d415b85acef81000000006020910493019261030a565b506040915072184f03e93ff9f4daa797ed6e38ed64bf6a1f0160401b81046102f0565b3461017e57608036600319011261017e57610517610c06565b61051f610c1c565b6064359167ffffffffffffffff831161017e573660238401121561017e5782600401359161054c83610ca2565b9261055a6040519485610c6c565b808452366024828701011161017e576020815f9260246105869801838801378501015260443591610e96565b005b3461017e57604036600319011261017e576105a1610c06565b6024359081151580920361017e576001600160a01b031690811561061057335f52600560205260405f20825f5260205260405f2060ff1981541660ff83161790556040519081527f17307eab39ab6107e8899845ad3d59bd9653f200f220920489ca2b5937696c3160203392a3005b50630b61174360e31b5f5260045260245ffd5b3461017e575f36600319011261017e576040515f60015461064381610cbe565b8084529060018116908115610297575060011461066a576102358361022181850382610c6c565b60015f9081527fb10e2d527612073b26eecdfd717e6a320cf44b4afac2b0732d9fcbe2b7fa0cf6939250905b8082106106ae57509091508101602001610221610211565b919260018160209254838588010152019101909291610696565b3461017e575f36600319011261017e576006546040516001600160a01b039091168152602090f35b3461017e575f36600319011261017e576020600854604051908152f35b3461017e575f36600319011261017e5761072561100a565b600680546001600160a01b031981169091555f906001600160a01b03167f8be0079c531659141344cd1fd0a4f28419497f9722a3daafe3b4186f6b6457e08280a3005b3461017e57602036600319011261017e576001600160a01b03610789610c06565b1680156107a6575f526003602052602060405f2054604051908152f35b6322718ad960e21b5f525f60045260245ffd5b3461017e57602036600319011261017e576001600160a01b036107da610c06565b1680156108de576008545f1981146108ca57600181016008555f818152600260205260409020546001600160a01b03168015159290919083610897575b8061087f575b815f52600260205260405f20816bffffffffffffffffffffffff60a01b825416179055827fddf252ad1be2c89b69c2b068fc378daa952ba7f163c4a11628f55a4df523b3ef5f80a45061086c57005b6339e3563760e11b5f525f60045260245ffd5b805f52600360205260405f206001815401905561081d565b5f82815260046020526040902080546001600160a01b0319169055825f52600360205260405f205f198154019055610817565b634e487b7160e01b5f52601160045260245ffd5b606460405162461bcd60e51b815260206004820152602060248201527f4552433732313a206d696e7420746f20746865207a65726f20616464726573736044820152fd5b3461017e57602036600319011261017e576020610940600435610fd6565b6040516001600160a01b039091168152f35b3461017e5761058661096336610c32565b9060405192610973602085610c6c565b5f8452610e96565b3461017e5761058661098c36610c32565b91610cf6565b3461017e575f36600319011261017e576020600754604051908152f35b3461017e57604036600319011261017e576109c8610c06565b6024356109d481610fd6565b33151580610a86575b80610a59575b610a465781906001600160a01b0384811691167f8c5be1e5ebec7d5bd14f71427d1e84f3dd0314c0f7b2291e5b200ac8c7c3b9255f80a45f90815260046020526040902080546001600160a01b0319166001600160a01b03909216919091179055005b63a9fbf51f60e01b5f523360045260245ffd5b506001600160a01b0381165f90815260056020908152604080832033845290915290205460ff16156109e3565b506001600160a01b0381163314156109dd565b3461017e57602036600319011261017e57600435610ab681610fd6565b505f526004602052602060018060a01b0360405f205416604051908152f35b3461017e575f36600319011261017e576040515f5f54610af481610cbe565b80845290600181169081156102975750600114610b1b576102358361022181850382610c6c565b5f8080527f290decd9548b62a8d60345a988386fc84ba6bc95484008f6362f93160ef3e563939250905b808210610b5d57509091508101602001610221610211565b919260018160209254838588010152019101909291610b45565b3461017e57602036600319011261017e576004359063ffffffff60e01b821680920361017e576020916380ac58cd60e01b8114908115610bd1575b8115610bc0575b5015158152f35b6301ffc9a760e01b14905083610bb9565b635b5e139f60e01b81149150610bb2565b805180835260209291819084018484015e5f828201840152601f01601f1916010190565b600435906001600160a01b038216820361017e57565b602435906001600160a01b038216820361017e57565b606090600319011261017e576004356001600160a01b038116810361017e57906024356001600160a01b038116810361017e579060443590565b90601f8019910116810190811067ffffffffffffffff821117610c8e57604052565b634e487b7160e01b5f52604160045260245ffd5b67ffffffffffffffff8111610c8e57601f01601f191660200190565b90600182811c92168015610cec575b6020831014610cd857565b634e487b7160e01b5f52602260045260245ffd5b91607f1691610ccd565b6001600160a01b0390911691908215610e83575f828152600260205260409020546001600160a01b031692829033151580610dee575b5084610dbb575b805f52600360205260405f2060018154019055815f52600260205260405f20816bffffffffffffffffffffffff60a01b825416179055847fddf252ad1be2c89b69c2b068fc378daa952ba7f163c4a11628f55a4df523b3ef5f80a46001600160a01b0316808303610da357505050565b6364283d7b60e01b5f5260045260245260445260645ffd5b5f82815260046020526040902080546001600160a01b0319169055845f52600360205260405f205f198154019055610d33565b90915080610e32575b15610e045782905f610d2c565b8284610e1c57637e27328960e01b5f5260045260245ffd5b63177e802f60e01b5f523360045260245260445ffd5b503384148015610e61575b80610df757505f838152600460205260409020546001600160a01b03163314610df7565b505f84815260056020908152604080832033845290915290205460ff16610e3d565b633250574960e11b5f525f60045260245ffd5b9291610ea3818386610cf6565b813b610eb0575b50505050565b604051630a85bd0160e11b81523360048201526001600160a01b0394851660248201526044810191909152608060648201529216919060209082908190610efb906084830190610be2565b03815f865af15f9181610f91575b50610f5e57503d15610f57573d610f1f81610ca2565b90610f2d6040519283610c6c565b81523d5f602083013e5b80519081610f525782633250574960e11b5f5260045260245ffd5b602001fd5b6060610f37565b6001600160e01b03191663757a42ff60e11b01610f7f57505f808080610eaa565b633250574960e11b5f5260045260245ffd5b9091506020813d602011610fce575b81610fad60209383610c6c565b8101031261017e57516001600160e01b03198116810361017e57905f610f09565b3d9150610fa0565b5f818152600260205260409020546001600160a01b0316908115610ff8575090565b637e27328960e01b5f5260045260245ffd5b6006546001600160a01b0316330361101e57565b63118cdaa760e01b5f523360045260245ffdfea2646970667358221220175f3e433ead68f52c8bb4e3a7f45641615127caab23b8c38fa210eac2beb6db64736f6c634300081c0033a26469706673582212206aaa8c1353804ab8a50351c0476bba34f897e4437489d72ac6bdf1ca244bb74c64736f6c634300081c0033",
    "sourcePath": "/home/lyeslai/Documents/collectible-card-game-daar/contracts/src/Main.sol",
    "compiler": {
        "name": "solc",
        "version": "0.8.28+commit.7893614a"
    },
    "functionHashes": {
        "collectionCount()": "d57f966b",
        "collections(uint256)": "fdbda0ec",
        "createCollection(string,uint256,string)": "87a815b5",
        "mint(uint256,address)": "94bf804d",
        "owner()": "8da5cb5b"
    },
    "gasEstimates": {
        "creation": {
            "codeDepositCost": "1360000",
            "executionCost": "25660",
            "totalCost": "1385660"
        },
        "external": {
            "": "282",
            "collectionCount()": "2319",
            "collections(uint256)": "2423",
            "createCollection(string,uint256,string)": "infinite",
            "mint(uint256,address)": "infinite",
            "owner()": "2295"
        }
    }
}