{
    "contractName": "Market",
    "abi": [
        {
            "inputs": [
                {
                    "internalType": "address",
                    "name": "_nftCollection",
                    "type": "address"
                },
                {
                    "internalType": "address",
                    "name": "_owner",
                    "type": "address"
                }
            ],
            "stateMutability": "nonpayable",
            "type": "constructor"
        },
        {
            "inputs": [
                {
                    "internalType": "address",
                    "name": "owner",
                    "type": "address"
                }
            ],
            "name": "OwnableInvalidOwner",
            "type": "error"
        },
        {
            "inputs": [
                {
                    "internalType": "address",
                    "name": "account",
                    "type": "address"
                }
            ],
            "name": "OwnableUnauthorizedAccount",
            "type": "error"
        },
        {
            "anonymous": false,
            "inputs": [
                {
                    "indexed": false,
                    "internalType": "uint256",
                    "name": "tokenId",
                    "type": "uint256"
                },
                {
                    "indexed": false,
                    "internalType": "uint256",
                    "name": "price",
                    "type": "uint256"
                },
                {
                    "indexed": false,
                    "internalType": "address",
                    "name": "seller",
                    "type": "address"
                }
            ],
            "name": "CardListed",
            "type": "event"
        },
        {
            "anonymous": false,
            "inputs": [
                {
                    "indexed": false,
                    "internalType": "uint256",
                    "name": "tokenId",
                    "type": "uint256"
                },
                {
                    "indexed": false,
                    "internalType": "uint256",
                    "name": "price",
                    "type": "uint256"
                },
                {
                    "indexed": false,
                    "internalType": "address",
                    "name": "buyer",
                    "type": "address"
                },
                {
                    "indexed": false,
                    "internalType": "address",
                    "name": "seller",
                    "type": "address"
                }
            ],
            "name": "CardSold",
            "type": "event"
        },
        {
            "anonymous": false,
            "inputs": [
                {
                    "indexed": true,
                    "internalType": "address",
                    "name": "previousOwner",
                    "type": "address"
                },
                {
                    "indexed": true,
                    "internalType": "address",
                    "name": "newOwner",
                    "type": "address"
                }
            ],
            "name": "OwnershipTransferred",
            "type": "event"
        },
        {
            "inputs": [
                {
                    "internalType": "uint256",
                    "name": "tokenId",
                    "type": "uint256"
                }
            ],
            "name": "buyCard",
            "outputs": [],
            "stateMutability": "payable",
            "type": "function"
        },
        {
            "inputs": [
                {
                    "internalType": "uint256",
                    "name": "tokenId",
                    "type": "uint256"
                }
            ],
            "name": "cancelListing",
            "outputs": [],
            "stateMutability": "nonpayable",
            "type": "function"
        },
        {
            "inputs": [
                {
                    "internalType": "uint256",
                    "name": "tokenId",
                    "type": "uint256"
                },
                {
                    "internalType": "uint256",
                    "name": "price",
                    "type": "uint256"
                },
                {
                    "internalType": "address",
                    "name": "seller",
                    "type": "address"
                }
            ],
            "name": "listCardForSale",
            "outputs": [],
            "stateMutability": "nonpayable",
            "type": "function"
        },
        {
            "inputs": [
                {
                    "internalType": "uint256",
                    "name": "",
                    "type": "uint256"
                }
            ],
            "name": "listings",
            "outputs": [
                {
                    "internalType": "uint256",
                    "name": "price",
                    "type": "uint256"
                },
                {
                    "internalType": "address",
                    "name": "seller",
                    "type": "address"
                },
                {
                    "internalType": "bool",
                    "name": "active",
                    "type": "bool"
                }
            ],
            "stateMutability": "view",
            "type": "function"
        },
        {
            "inputs": [],
            "name": "nftCollection",
            "outputs": [
                {
                    "internalType": "contract IERC721",
                    "name": "",
                    "type": "address"
                }
            ],
            "stateMutability": "view",
            "type": "function"
        },
        {
            "inputs": [],
            "name": "owner",
            "outputs": [
                {
                    "internalType": "address",
                    "name": "",
                    "type": "address"
                }
            ],
            "stateMutability": "view",
            "type": "function"
        },
        {
            "inputs": [],
            "name": "renounceOwnership",
            "outputs": [],
            "stateMutability": "nonpayable",
            "type": "function"
        },
        {
            "inputs": [
                {
                    "internalType": "address",
                    "name": "newOwner",
                    "type": "address"
                }
            ],
            "name": "transferOwnership",
            "outputs": [],
            "stateMutability": "nonpayable",
            "type": "function"
        }
    ],
    "bytecode": "6080346100ea57601f61075138819003918201601f19168301916001600160401b038311848410176100ee5780849260409485528339810103126100ea5761004681610102565b906001600160a01b039061005c90602001610102565b169081156100d7575f80546001600160a01b031981168417825560405193916001600160a01b03909116907f8be0079c531659141344cd1fd0a4f28419497f9722a3daafe3b4186f6b6457e09080a3600280546001600160a01b0319166001600160a01b039290921691909117905561063a90816101178239f35b631e4fbdf760e01b5f525f60045260245ffd5b5f80fd5b634e487b7160e01b5f52604160045260245ffd5b51906001600160a01b03821682036100ea5756fe6080806040526004361015610012575f80fd5b5f905f3560e01c908163305a67a8146104c4575080636588103b1461049c5780636ab3a925146103d2578063715018a61461037b5780638da5cb5b14610354578063c70f5eaa14610150578063de74e57b146101045763f2fde38b14610076575f80fd5b34610101576020366003190112610101576004356001600160a01b038116908190036100ff576100a46105de565b80156100eb5781546001600160a01b03198116821783556001600160a01b03167f8be0079c531659141344cd1fd0a4f28419497f9722a3daafe3b4186f6b6457e08380a380f35b631e4fbdf760e01b82526004829052602482fd5b505b80fd5b5034610101576020366003190112610101576040606091600435815260016020522060ff6001825492015460405192835260018060a01b038116602084015260a01c1615156040820152f35b5060203660031901126102d257600435805f52600160205260405f2060016040519161017b836105c2565b8054835201549160ff602083019360018060a01b038116855260a01c16158015604084015261031b57815134036102d65760025483516001600160a01b039182169116813b156102d2575f916064839260405194859384926323b872dd60e01b845260048401523360248401528760448401525af180156102c757610296575b508380808060018060a01b038751168190341561028c575b3491f115610281577ff89a4d89b38e4d5da47f471ac5dadb4bc2799df816d7164b1d16cd8b35c72e7d9260809282865260016020526001604087200160ff60a01b198154169055519060018060a01b039051169060405192835260208301523360408301526060820152a180f35b6040513d85823e3d90fd5b6108fc9150610213565b90935067ffffffffffffffff81116102b3576040525f925f6101fb565b634e487b7160e01b5f52604160045260245ffd5b6040513d5f823e3d90fd5b5f80fd5b60405162461bcd60e51b815260206004820152601a60248201527f496e636f72726563742045746865722076616c75652073656e740000000000006044820152606490fd5b60405162461bcd60e51b815260206004820152601160248201527043617264206e6f7420666f722073616c6560781b6044820152606490fd5b346102d2575f3660031901126102d2575f546040516001600160a01b039091168152602090f35b346102d2575f3660031901126102d2576103936105de565b5f80546001600160a01b0319811682556001600160a01b03167f8be0079c531659141344cd1fd0a4f28419497f9722a3daafe3b4186f6b6457e08280a3005b346102d25760603660031901126102d2576044356001600160a01b0381169060243590600435908390036102d2577feec9fb041fa14d227fc0e64a3e630e1a685941c91dfb622450481abf5fc5a0e592606092604051610431816105c2565b8181526020808201848152600160408085018281525f898152838652829020955186559251949091018054925160ff60a01b90151560a01b166001600160a01b039095166001600160a81b0319909316929092179390931790558151948552840191909152820152a1005b346102d2575f3660031901126102d2576002546040516001600160a01b039091168152602090f35b346102d25760203660031901126102d25760043590815f526001602052600160405f206104f0836105c2565b8054835201549060ff604060018060a01b03841692836020820152019260a01c1615158252330361058457511561053f575f90815260016020819052604090912001805460ff60a01b19169055005b60405162461bcd60e51b815260206004820152601860248201527f4c697374696e6720616c726561647920696e61637469766500000000000000006044820152606490fd5b60405162461bcd60e51b81526020600482015260166024820152752cb7ba9030b932903737ba103a34329039b2b63632b960511b6044820152606490fd5b6060810190811067ffffffffffffffff8211176102b357604052565b5f546001600160a01b031633036105f157565b63118cdaa760e01b5f523360045260245ffdfea2646970667358221220c2253a0c33785adb12300afdb196478f907f8824de622a94673361b89830f8fa64736f6c634300081c0033",
    "sourcePath": "/home/lyeslai/Documents/collectible-card-game-daar/contracts/src/Market.sol",
    "compiler": {
        "name": "solc",
        "version": "0.8.28+commit.7893614a"
    },
    "functionHashes": {
        "buyCard(uint256)": "c70f5eaa",
        "cancelListing(uint256)": "305a67a8",
        "listCardForSale(uint256,uint256,address)": "6ab3a925",
        "listings(uint256)": "de74e57b",
        "nftCollection()": "6588103b",
        "owner()": "8da5cb5b",
        "renounceOwnership()": "715018a6",
        "transferOwnership(address)": "f2fde38b"
    },
    "gasEstimates": {
        "creation": {
            "codeDepositCost": "318800",
            "executionCost": "infinite",
            "totalCost": "infinite"
        },
        "external": {
            "buyCard(uint256)": "infinite",
            "cancelListing(uint256)": "28922",
            "listCardForSale(uint256,uint256,address)": "48487",
            "listings(uint256)": "4643",
            "nftCollection()": "2307",
            "owner()": "2372",
            "renounceOwnership()": "28121",
            "transferOwnership(address)": "28285"
        }
    }
}