{
  "_format": "hh-sol-artifact-1",
  "contractName": "Booster",
  "sourceName": "src/Booster.sol",
  "abi": [
    {
      "inputs": [
        {
          "internalType": "string",
          "name": "name",
          "type": "string"
        },
        {
          "internalType": "string",
          "name": "symbol",
          "type": "string"
        },
        {
          "internalType": "contract Collection",
          "name": "collection",
          "type": "address"
        }
      ],
      "stateMutability": "nonpayable",
      "type": "constructor"
    },
    {
      "inputs": [
        {
          "internalType": "address",
          "name": "spender",
          "type": "address"
        },
        {
          "internalType": "uint256",
          "name": "allowance",
          "type": "uint256"
        },
        {
          "internalType": "uint256",
          "name": "needed",
          "type": "uint256"
        }
      ],
      "name": "ERC20InsufficientAllowance",
      "type": "error"
    },
    {
      "inputs": [
        {
          "internalType": "address",
          "name": "sender",
          "type": "address"
        },
        {
          "internalType": "uint256",
          "name": "balance",
          "type": "uint256"
        },
        {
          "internalType": "uint256",
          "name": "needed",
          "type": "uint256"
        }
      ],
      "name": "ERC20InsufficientBalance",
      "type": "error"
    },
    {
      "inputs": [
        {
          "internalType": "address",
          "name": "approver",
          "type": "address"
        }
      ],
      "name": "ERC20InvalidApprover",
      "type": "error"
    },
    {
      "inputs": [
        {
          "internalType": "address",
          "name": "receiver",
          "type": "address"
        }
      ],
      "name": "ERC20InvalidReceiver",
      "type": "error"
    },
    {
      "inputs": [
        {
          "internalType": "address",
          "name": "sender",
          "type": "address"
        }
      ],
      "name": "ERC20InvalidSender",
      "type": "error"
    },
    {
      "inputs": [
        {
          "internalType": "address",
          "name": "spender",
          "type": "address"
        }
      ],
      "name": "ERC20InvalidSpender",
      "type": "error"
    },
    {
      "anonymous": false,
      "inputs": [
        {
          "indexed": true,
          "internalType": "address",
          "name": "owner",
          "type": "address"
        },
        {
          "indexed": true,
          "internalType": "address",
          "name": "spender",
          "type": "address"
        },
        {
          "indexed": false,
          "internalType": "uint256",
          "name": "value",
          "type": "uint256"
        }
      ],
      "name": "Approval",
      "type": "event"
    },
    {
      "anonymous": false,
      "inputs": [
        {
          "indexed": false,
          "internalType": "address",
          "name": "",
          "type": "address"
        },
        {
          "indexed": false,
          "internalType": "string[]",
          "name": "",
          "type": "string[]"
        }
      ],
      "name": "BoosterResult",
      "type": "event"
    },
    {
      "anonymous": false,
      "inputs": [
        {
          "indexed": true,
          "internalType": "address",
          "name": "from",
          "type": "address"
        },
        {
          "indexed": true,
          "internalType": "address",
          "name": "to",
          "type": "address"
        },
        {
          "indexed": false,
          "internalType": "uint256",
          "name": "value",
          "type": "uint256"
        }
      ],
      "name": "Transfer",
      "type": "event"
    },
    {
      "inputs": [],
      "name": "CARD_PER_BOOSTER",
      "outputs": [
        {
          "internalType": "uint8",
          "name": "",
          "type": "uint8"
        }
      ],
      "stateMutability": "view",
      "type": "function"
    },
    {
      "inputs": [
        {
          "internalType": "address",
          "name": "owner",
          "type": "address"
        },
        {
          "internalType": "address",
          "name": "spender",
          "type": "address"
        }
      ],
      "name": "allowance",
      "outputs": [
        {
          "internalType": "uint256",
          "name": "",
          "type": "uint256"
        }
      ],
      "stateMutability": "view",
      "type": "function"
    },
    {
      "inputs": [
        {
          "internalType": "address",
          "name": "spender",
          "type": "address"
        },
        {
          "internalType": "uint256",
          "name": "value",
          "type": "uint256"
        }
      ],
      "name": "approve",
      "outputs": [
        {
          "internalType": "bool",
          "name": "",
          "type": "bool"
        }
      ],
      "stateMutability": "nonpayable",
      "type": "function"
    },
    {
      "inputs": [
        {
          "internalType": "address",
          "name": "account",
          "type": "address"
        }
      ],
      "name": "balanceOf",
      "outputs": [
        {
          "internalType": "uint256",
          "name": "",
          "type": "uint256"
        }
      ],
      "stateMutability": "view",
      "type": "function"
    },
    {
      "inputs": [
        {
          "internalType": "uint256",
          "name": "value",
          "type": "uint256"
        }
      ],
      "name": "burn",
      "outputs": [],
      "stateMutability": "nonpayable",
      "type": "function"
    },
    {
      "inputs": [
        {
          "internalType": "address",
          "name": "account",
          "type": "address"
        },
        {
          "internalType": "uint256",
          "name": "value",
          "type": "uint256"
        }
      ],
      "name": "burnFrom",
      "outputs": [],
      "stateMutability": "nonpayable",
      "type": "function"
    },
    {
      "inputs": [],
      "name": "decimals",
      "outputs": [
        {
          "internalType": "uint8",
          "name": "",
          "type": "uint8"
        }
      ],
      "stateMutability": "view",
      "type": "function"
    },
    {
      "inputs": [
        {
          "internalType": "address",
          "name": "owner",
          "type": "address"
        }
      ],
      "name": "getLastBooster",
      "outputs": [
        {
          "internalType": "string[]",
          "name": "",
          "type": "string[]"
        }
      ],
      "stateMutability": "view",
      "type": "function"
    },
    {
      "inputs": [
        {
          "internalType": "address",
          "name": "",
          "type": "address"
        },
        {
          "internalType": "uint256",
          "name": "",
          "type": "uint256"
        }
      ],
      "name": "lastBooster",
      "outputs": [
        {
          "internalType": "string",
          "name": "",
          "type": "string"
        }
      ],
      "stateMutability": "view",
      "type": "function"
    },
    {
      "inputs": [
        {
          "internalType": "address",
          "name": "to",
          "type": "address"
        },
        {
          "internalType": "uint256",
          "name": "amount",
          "type": "uint256"
        }
      ],
      "name": "mint",
      "outputs": [],
      "stateMutability": "nonpayable",
      "type": "function"
    },
    {
      "inputs": [],
      "name": "name",
      "outputs": [
        {
          "internalType": "string",
          "name": "",
          "type": "string"
        }
      ],
      "stateMutability": "view",
      "type": "function"
    },
    {
      "inputs": [
        {
          "internalType": "address",
          "name": "owner",
          "type": "address"
        }
      ],
      "name": "openBooster",
      "outputs": [],
      "stateMutability": "nonpayable",
      "type": "function"
    },
    {
      "inputs": [],
      "name": "referenceCollection",
      "outputs": [
        {
          "internalType": "contract Collection",
          "name": "",
          "type": "address"
        }
      ],
      "stateMutability": "view",
      "type": "function"
    },
    {
      "inputs": [],
      "name": "rng",
      "outputs": [
        {
          "internalType": "contract MersenneTwister",
          "name": "",
          "type": "address"
        }
      ],
      "stateMutability": "view",
      "type": "function"
    },
    {
      "inputs": [],
      "name": "symbol",
      "outputs": [
        {
          "internalType": "string",
          "name": "",
          "type": "string"
        }
      ],
      "stateMutability": "view",
      "type": "function"
    },
    {
      "inputs": [],
      "name": "totalSupply",
      "outputs": [
        {
          "internalType": "uint256",
          "name": "",
          "type": "uint256"
        }
      ],
      "stateMutability": "view",
      "type": "function"
    },
    {
      "inputs": [
        {
          "internalType": "address",
          "name": "to",
          "type": "address"
        },
        {
          "internalType": "uint256",
          "name": "value",
          "type": "uint256"
        }
      ],
      "name": "transfer",
      "outputs": [
        {
          "internalType": "bool",
          "name": "",
          "type": "bool"
        }
      ],
      "stateMutability": "nonpayable",
      "type": "function"
    },
    {
      "inputs": [
        {
          "internalType": "address",
          "name": "from",
          "type": "address"
        },
        {
          "internalType": "address",
          "name": "to",
          "type": "address"
        },
        {
          "internalType": "uint256",
          "name": "value",
          "type": "uint256"
        }
      ],
      "name": "transferFrom",
      "outputs": [
        {
          "internalType": "bool",
          "name": "",
          "type": "bool"
        }
      ],
      "stateMutability": "nonpayable",
      "type": "function"
    }
  ],
  "bytecode": "0x60806040526040516200001290620000cc565b604051809103906000f0801580156200002f573d6000803e3d6000fd5b50600680546001600160a01b0319166001600160a01b03929092169190911790553480156200005d57600080fd5b5060405162001c1b38038062001c1b83398101604081905262000080916200019f565b82826003620000908382620002bb565b5060046200009f8282620002bb565b5050600580546001600160a01b0319166001600160a01b0393909316929092179091555062000387915050565b61070d806200150e83390190565b634e487b7160e01b600052604160045260246000fd5b600082601f8301126200010257600080fd5b81516001600160401b03808211156200011f576200011f620000da565b604051601f8301601f19908116603f011681019082821181831017156200014a576200014a620000da565b816040528381526020925086838588010111156200016757600080fd5b600091505b838210156200018b57858201830151818301840152908201906200016c565b600093810190920192909252949350505050565b600080600060608486031215620001b557600080fd5b83516001600160401b0380821115620001cd57600080fd5b620001db87838801620000f0565b94506020860151915080821115620001f257600080fd5b506200020186828701620000f0565b604086015190935090506001600160a01b03811681146200022157600080fd5b809150509250925092565b600181811c908216806200024157607f821691505b6020821081036200026257634e487b7160e01b600052602260045260246000fd5b50919050565b601f821115620002b657600081815260208120601f850160051c81016020861015620002915750805b601f850160051c820191505b81811015620002b2578281556001016200029d565b5050505b505050565b81516001600160401b03811115620002d757620002d7620000da565b620002ef81620002e884546200022c565b8462000268565b602080601f8311600181146200032757600084156200030e5750858301515b600019600386901b1c1916600185901b178555620002b2565b600085815260208120601f198616915b82811015620003585788860151825594840194600190910190840162000337565b5085821015620003775787850151600019600388901b60f8161c191681555b5050505050600190811b01905550565b61117780620003976000396000f3fe608060405234801561001057600080fd5b50600436106101165760003560e01c80634c549fc8116100a25780637e2a6351116100715780637e2a63511461026057806395d89b4114610273578063a9059cbb1461027b578063d605787b1461028e578063dd62ed3e146102a157600080fd5b80634c549fc814610209578063706fb88f1461021c57806370a082311461022457806379cc67901461024d57600080fd5b806323b872dd116100e957806323b872dd14610199578063313ce567146101ac5780633ec78a13146101c157806340c10f19146101e157806342966c68146101f657600080fd5b806306fdde031461011b578063095ea7b3146101395780630c8138c51461015c57806318160ddd14610187575b600080fd5b6101236102da565b6040516101309190610c6d565b60405180910390f35b61014c610147366004610ca3565b61036c565b6040519015158152602001610130565b60055461016f906001600160a01b031681565b6040516001600160a01b039091168152602001610130565b6002545b604051908152602001610130565b61014c6101a7366004610ccd565b610386565b60125b60405160ff9091168152602001610130565b6101d46101cf366004610d09565b6103aa565b6040516101309190610d7c565b6101f46101ef366004610ca3565b610499565b005b6101f4610204366004610d8f565b6104a7565b610123610217366004610ca3565b6104b4565b6101af600a81565b61018b610232366004610d09565b6001600160a01b031660009081526020819052604090205490565b6101f461025b366004610ca3565b61056d565b6101f461026e366004610d09565b610582565b6101236107e4565b61014c610289366004610ca3565b6107f3565b60065461016f906001600160a01b031681565b61018b6102af366004610da8565b6001600160a01b03918216600090815260016020908152604080832093909416825291909152205490565b6060600380546102e990610ddb565b80601f016020809104026020016040519081016040528092919081815260200182805461031590610ddb565b80156103625780601f1061033757610100808354040283529160200191610362565b820191906000526020600020905b81548152906001019060200180831161034557829003601f168201915b5050505050905090565b60003361037a818585610801565b60019150505b92915050565b600033610394858285610813565b61039f858585610896565b506001949350505050565b6001600160a01b0381166000908152600760209081526040808320805482518185028101850190935280835260609492939192909184015b8282101561048e57838290600052602060002001805461040190610ddb565b80601f016020809104026020016040519081016040528092919081815260200182805461042d90610ddb565b801561047a5780601f1061044f5761010080835404028352916020019161047a565b820191906000526020600020905b81548152906001019060200180831161045d57829003601f168201915b5050505050815260200190600101906103e2565b505050509050919050565b6104a382826108f5565b5050565b6104b1338261092b565b50565b600760205281600052604060002081815481106104d057600080fd5b906000526020600020016000915091505080546104ec90610ddb565b80601f016020809104026020016040519081016040528092919081815260200182805461051890610ddb565b80156105655780601f1061053a57610100808354040283529160200191610565565b820191906000526020600020905b81548152906001019060200180831161054857829003601f168201915b505050505081565b610578823383610813565b6104a3828261092b565b61058d81600161092b565b6006546005546040805163abcd52d360e01b815290516000936001600160a01b039081169363670a5c6693600a93919092169163abcd52d39160048083019260209291908290030181865afa1580156105ea573d6000803e3d6000fd5b505050506040513d601f19601f8201168201806040525081019061060e9190610e15565b6040516001600160e01b031960e085901b16815260ff90921660048301526024820152604401600060405180830381865afa158015610651573d6000803e3d6000fd5b505050506040513d6000823e601f3d908101601f191682016040526106799190810190610e75565b60408051600a808252610160820190925291925060009190816020015b606081526020019060019003908161069657905050905060005b600a81101561077b5760008382815181106106cd576106cd610f1b565b602090810291909101015160055460405163e431921960e01b8152600481018390529192506001600160a01b03169063e431921990602401600060405180830381865afa158015610722573d6000803e3d6000fd5b505050506040513d6000823e601f3d908101601f1916820160405261074a9190810190610f31565b83838151811061075c5761075c610f1b565b602002602001018190525050808061077390610fdb565b9150506106b0565b506001600160a01b038316600090815260076020908152604090912082516107a592840190610b60565b507f249d605acaef50a9eaad1e823a6136bc721966cbe27226c30e23f290ff4a8ce883826040516107d7929190610ff4565b60405180910390a1505050565b6060600480546102e990610ddb565b60003361037a818585610896565b61080e8383836001610961565b505050565b6001600160a01b038381166000908152600160209081526040808320938616835292905220546000198114610890578181101561088157604051637dc7a0d960e11b81526001600160a01b038416600482015260248101829052604481018390526064015b60405180910390fd5b61089084848484036000610961565b50505050565b6001600160a01b0383166108c057604051634b637e8f60e11b815260006004820152602401610878565b6001600160a01b0382166108ea5760405163ec442f0560e01b815260006004820152602401610878565b61080e838383610a36565b6001600160a01b03821661091f5760405163ec442f0560e01b815260006004820152602401610878565b6104a360008383610a36565b6001600160a01b03821661095557604051634b637e8f60e11b815260006004820152602401610878565b6104a382600083610a36565b6001600160a01b03841661098b5760405163e602df0560e01b815260006004820152602401610878565b6001600160a01b0383166109b557604051634a1406b160e11b815260006004820152602401610878565b6001600160a01b038085166000908152600160209081526040808320938716835292905220829055801561089057826001600160a01b0316846001600160a01b03167f8c5be1e5ebec7d5bd14f71427d1e84f3dd0314c0f7b2291e5b200ac8c7c3b92584604051610a2891815260200190565b60405180910390a350505050565b6001600160a01b038316610a61578060026000828254610a569190611020565b90915550610ad39050565b6001600160a01b03831660009081526020819052604090205481811015610ab45760405163391434e360e21b81526001600160a01b03851660048201526024810182905260448101839052606401610878565b6001600160a01b03841660009081526020819052604090209082900390555b6001600160a01b038216610aef57600280548290039055610b0e565b6001600160a01b03821660009081526020819052604090208054820190555b816001600160a01b0316836001600160a01b03167fddf252ad1be2c89b69c2b068fc378daa952ba7f163c4a11628f55a4df523b3ef83604051610b5391815260200190565b60405180910390a3505050565b828054828255906000526020600020908101928215610ba6579160200282015b82811115610ba65782518290610b969082611081565b5091602001919060010190610b80565b50610bb2929150610bb6565b5090565b80821115610bb2576000610bca8282610bd3565b50600101610bb6565b508054610bdf90610ddb565b6000825580601f10610bef575050565b601f0160209004906000526020600020908101906104b191905b80821115610bb25760008155600101610c09565b60005b83811015610c38578181015183820152602001610c20565b50506000910152565b60008151808452610c59816020860160208601610c1d565b601f01601f19169290920160200192915050565b602081526000610c806020830184610c41565b9392505050565b80356001600160a01b0381168114610c9e57600080fd5b919050565b60008060408385031215610cb657600080fd5b610cbf83610c87565b946020939093013593505050565b600080600060608486031215610ce257600080fd5b610ceb84610c87565b9250610cf960208501610c87565b9150604084013590509250925092565b600060208284031215610d1b57600080fd5b610c8082610c87565b600082825180855260208086019550808260051b84010181860160005b84811015610d6f57601f19868403018952610d5d838351610c41565b98840198925090830190600101610d41565b5090979650505050505050565b602081526000610c806020830184610d24565b600060208284031215610da157600080fd5b5035919050565b60008060408385031215610dbb57600080fd5b610dc483610c87565b9150610dd260208401610c87565b90509250929050565b600181811c90821680610def57607f821691505b602082108103610e0f57634e487b7160e01b600052602260045260246000fd5b50919050565b600060208284031215610e2757600080fd5b5051919050565b634e487b7160e01b600052604160045260246000fd5b604051601f8201601f1916810167ffffffffffffffff81118282101715610e6d57610e6d610e2e565b604052919050565b60006020808385031215610e8857600080fd5b825167ffffffffffffffff80821115610ea057600080fd5b818501915085601f830112610eb457600080fd5b815181811115610ec657610ec6610e2e565b8060051b9150610ed7848301610e44565b8181529183018401918481019088841115610ef157600080fd5b938501935b83851015610f0f57845182529385019390850190610ef6565b98975050505050505050565b634e487b7160e01b600052603260045260246000fd5b600060208284031215610f4357600080fd5b815167ffffffffffffffff80821115610f5b57600080fd5b818401915084601f830112610f6f57600080fd5b815181811115610f8157610f81610e2e565b610f94601f8201601f1916602001610e44565b9150808252856020828501011115610fab57600080fd5b610fbc816020840160208601610c1d565b50949350505050565b634e487b7160e01b600052601160045260246000fd5b600060018201610fed57610fed610fc5565b5060010190565b6001600160a01b038316815260406020820181905260009061101890830184610d24565b949350505050565b8082018082111561038057610380610fc5565b601f82111561080e57600081815260208120601f850160051c8101602086101561105a5750805b601f850160051c820191505b8181101561107957828155600101611066565b505050505050565b815167ffffffffffffffff81111561109b5761109b610e2e565b6110af816110a98454610ddb565b84611033565b602080601f8311600181146110e457600084156110cc5750858301515b600019600386901b1c1916600185901b178555611079565b600085815260208120601f198616915b82811015611113578886015182559484019460019091019084016110f4565b50858210156111315787850151600019600388901b60f8161c191681555b5050505050600190811b0190555056fea2646970667358221220cba81bdcf25c027cd9fd48be56825217ad5d2f7e28fbc0a4821374ef4cec316c64736f6c63430008140033608060405234801561001057600080fd5b506106ed806100206000396000f3fe608060405234801561001057600080fd5b50600436106100415760003560e01c8063670a5c6614610046578063e61a237e1461006f578063e988e9511461008f575b600080fd5b61005961005436600461046c565b6100b1565b604051610066919061048e565b60405180910390f35b61008261007d366004610564565b6102ad565b60405161006691906105b2565b6100a261009d3660046105c1565b6103cb565b604051610066939291906105ef565b60606000424443406040516020016100dc939291909283526020830191909152604082015260600190565b60408051601f19818403018152919052805160209091012090506101066001640100000000610629565b1661010f61044c565b81815261027060015b6102708110156101c9576101326001640100000000610629565b8161013f60026020610629565b8561014b600186610629565b610270811061015c5761015c61063c565b6020020151901c8561016f600186610629565b61027081106101805761018061063c565b60200201516101949118636c078965610652565b61019e9190610669565b16838261027081106101b2576101b261063c565b6020020152806101c18161067c565b915050610118565b5060008667ffffffffffffffff8111156101e5576101e56104d2565b60405190808252806020026020018201604052801561020e578160200160208202803683370190505b50905060005b878110156102a05761022683856103cb565b8484815181106102385761023861063c565b60200260200101818152508196508295505050508682828151811061025f5761025f61063c565b60200260200101516102719190610695565b8282815181106102835761028361063c565b6020908102919091010152806102988161067c565b915050610214565b5093505050505b92915050565b6102b561044c565b60005b6102708110156103c45760006102d360016380000000610629565b846102706102e2856001610669565b6102ec9190610695565b61027081106102fd576102fd61063c565b6020020151166103136001640100000000610629565b61032260016380000000610629565b1916858461027081106103375761033761063c565b6020020151166103479190610669565b9050600181901c610359601483610695565b1561036557639908b0df185b808561027061037661018d87610669565b6103809190610695565b61027081106103915761039161063c565b602002015118858461027081106103aa576103aa61063c565b6020020152508190506103bc8161067c565b9150506102b8565b5090919050565b60006103d561044c565b600061027085106103f0576103e9846102ad565b9350600094505b6000848661027081106104055761040561063c565b6020020151600b81901c63ffffffff1618600781901b639d2c56801618600f81901b63efc600001618601281901c189050610441866001610669565b969495509392505050565b60405180614e000160405280610270906020820280368337509192915050565b6000806040838503121561047f57600080fd5b50508035926020909101359150565b6020808252825182820181905260009190848201906040850190845b818110156104c6578351835292840192918401916001016104aa565b50909695505050505050565b634e487b7160e01b600052604160045260246000fd5b600082601f8301126104f957600080fd5b604051614e0080820182811067ffffffffffffffff8211171561052c57634e487b7160e01b600052604160045260246000fd5b6040528301818582111561053f57600080fd5b845b82811015610559578035825260209182019101610541565b509195945050505050565b6000614e00828403121561057757600080fd5b61058183836104e8565b9392505050565b8060005b6102708110156105ac57815184526020938401939091019060010161058c565b50505050565b614e0081016102a78284610588565b600080614e2083850312156105d557600080fd5b823591506105e684602085016104e8565b90509250929050565b838152614e4081016106046020830185610588565b82614e20830152949350505050565b634e487b7160e01b600052601160045260246000fd5b818103818111156102a7576102a7610613565b634e487b7160e01b600052603260045260246000fd5b80820281158282048414176102a7576102a7610613565b808201808211156102a7576102a7610613565b60006001820161068e5761068e610613565b5060010190565b6000826106b257634e487b7160e01b600052601260045260246000fd5b50069056fea26469706673582212203c4c1823a63bb2ac7c65cfb420f1cc2e2e1e6f67d7a4c2a557bc0e9b2948234964736f6c63430008140033",
  "linkReferences": {},
  "deployedLinkReferences": {}
}