{"src/Main.sol":{"Main":{"abi":[{"inputs":[{"internalType":"address","name":"initialOwner","type":"address"}],"stateMutability":"nonpayable","type":"constructor"},{"inputs":[{"internalType":"address","name":"owner","type":"address"}],"name":"OwnableInvalidOwner","type":"error"},{"inputs":[{"internalType":"address","name":"account","type":"address"}],"name":"OwnableUnauthorizedAccount","type":"error"},{"anonymous":false,"inputs":[{"indexed":true,"internalType":"address","name":"previousOwner","type":"address"},{"indexed":true,"internalType":"address","name":"newOwner","type":"address"}],"name":"OwnershipTransferred","type":"event"},{"inputs":[{"internalType":"string","name":"name","type":"string"},{"internalType":"string","name":"symbol","type":"string"},{"internalType":"string[]","name":"uniqCards","type":"string[]"}],"name":"createCollection","outputs":[],"stateMutability":"nonpayable","type":"function"},{"inputs":[],"name":"getAllCardsFromBlockChain","outputs":[{"internalType":"string[]","name":"","type":"string[]"}],"stateMutability":"view","type":"function"},{"inputs":[],"name":"getAllCollectionNames","outputs":[{"internalType":"string[]","name":"","type":"string[]"}],"stateMutability":"view","type":"function"},{"inputs":[{"internalType":"uint256","name":"id","type":"uint256"}],"name":"getCollectionFromId","outputs":[{"internalType":"contract Collection","name":"","type":"address"}],"stateMutability":"view","type":"function"},{"inputs":[{"internalType":"string","name":"name","type":"string"}],"name":"getCollectionFromName","outputs":[{"internalType":"contract Collection","name":"","type":"address"}],"stateMutability":"view","type":"function"},{"inputs":[{"internalType":"string","name":"name","type":"string"}],"name":"getCollectionIdFromName","outputs":[{"internalType":"uint256","name":"","type":"uint256"}],"stateMutability":"view","type":"function"},{"inputs":[],"name":"getMarketPlace","outputs":[{"internalType":"contract MarketPlace","name":"","type":"address"}],"stateMutability":"view","type":"function"},{"inputs":[],"name":"getNbCollections","outputs":[{"internalType":"uint256","name":"","type":"uint256"}],"stateMutability":"view","type":"function"},{"inputs":[],"name":"nbCollections","outputs":[{"internalType":"uint256","name":"","type":"uint256"}],"stateMutability":"view","type":"function"},{"inputs":[],"name":"owner","outputs":[{"internalType":"address","name":"","type":"address"}],"stateMutability":"view","type":"function"},{"inputs":[],"name":"renounceOwnership","outputs":[],"stateMutability":"nonpayable","type":"function"},{"inputs":[{"internalType":"address","name":"newOwner","type":"address"}],"name":"transferOwnership","outputs":[],"stateMutability":"nonpayable","type":"function"}],"devdoc":{"errors":{"OwnableInvalidOwner(address)":[{"details":"The owner is not a valid owner account. (eg. `address(0)`)"}],"OwnableUnauthorizedAccount(address)":[{"details":"The caller account is not authorized to perform an operation."}]},"kind":"dev","methods":{"owner()":{"details":"Returns the address of the current owner."},"renounceOwnership()":{"details":"Leaves the contract without owner. It will not be possible to call `onlyOwner` functions. Can only be called by the current owner. NOTE: Renouncing ownership will leave the contract without an owner, thereby disabling any functionality that is only available to the owner."},"transferOwnership(address)":{"details":"Transfers ownership of the contract to a new account (`newOwner`). Can only be called by the current owner."}},"version":1},"evm":{"bytecode":{"linkReferences":{},"object":"608060405234801561001057600080fd5b50604051620067c6380380620067c68339810160408190526100319161012e565b806001600160a01b03811661006057604051631e4fbdf760e01b81526000600482015260240160405180910390fd5b610069816100d0565b506000600155604051309061007d90610120565b6001600160a01b039091168152602001604051809103906000f0801580156100a9573d6000803e3d6000fd5b50600480546001600160a01b0319166001600160a01b03929092169190911790555061015e565b600080546001600160a01b038381166001600160a01b0319831681178455604051919092169283917f8be0079c531659141344cd1fd0a4f28419497f9722a3daafe3b4186f6b6457e09190a35050565b6114dd80620052e983390190565b60006020828403121561014057600080fd5b81516001600160a01b038116811461015757600080fd5b9392505050565b61517b806200016e6000396000f3fe60806040523480156200001157600080fd5b5060043610620000c35760003560e01c80638da5cb5b116200007a5780638da5cb5b146200015057806393a1efb7146200016257806395657db01462000179578063ace8116d14620001a5578063e2f82ba614620001af578063f2fde38b14620001c657600080fd5b806356cb508714620000c85780635a2ff1a014620000f25780635cd8387f14620000fc5780635d5d667b146200010557806364d00c45146200011e578063715018a61462000144575b600080fd5b620000df620000d936600462000858565b620001dd565b6040519081526020015b60405180910390f35b620000df60015481565b600154620000df565b6200010f6200020b565b604051620000e99190620008c4565b6004546001600160a01b03165b6040516001600160a01b039091168152602001620000e9565b6200014e62000481565b005b6000546001600160a01b03166200012b565b6200012b6200017336600462000858565b62000499565b6200012b6200018a36600462000942565b6000908152600360205260409020546001600160a01b031690565b6200010f620004e4565b6200014e620001c03660046200095c565b62000608565b6200014e620001d736600462000a30565b62000737565b600060028383604051620001f392919062000a5b565b90815260200160405180910390205490505b92915050565b60606000805b600154811015620002c0576000818152600360205260408120546001600160a01b03169050806001600160a01b03166318160ddd6040518163ffffffff1660e01b8152600401602060405180830381865afa15801562000275573d6000803e3d6000fd5b505050506040513d601f19601f820116820180604052508101906200029b919062000a6b565b620002a7908462000a9b565b9250508080620002b79062000ab1565b91505062000211565b5060008167ffffffffffffffff811115620002df57620002df62000acd565b6040519080825280602002602001820160405280156200031457816020015b6060815260200190600190039081620002fe5790505b5090506000805b60015481101562000478576000818152600360205260408120546001600160a01b0316905b816001600160a01b03166318160ddd6040518163ffffffff1660e01b8152600401602060405180830381865afa1580156200037f573d6000803e3d6000fd5b505050506040513d601f19601f82011682018060405250810190620003a5919062000a6b565b811015620004605760405163c87b56dd60e01b8152600481018290526001600160a01b0383169063c87b56dd90602401600060405180830381865afa158015620003f3573d6000803e3d6000fd5b505050506040513d6000823e601f3d908101601f191682016040526200041d919081019062000ae3565b85856200042a8162000ab1565b9650815181106200043f576200043f62000b9c565b60200260200101819052508080620004579062000ab1565b91505062000340565b505080806200046f9062000ab1565b9150506200031b565b50909392505050565b6200048b6200077f565b620004976000620007ae565b565b6000620004dd60028484604051620004b392919062000a5b565b9081526020016040518091039020546000908152600360205260409020546001600160a01b031690565b9392505050565b6060600060015467ffffffffffffffff81111562000506576200050662000acd565b6040519080825280602002602001820160405280156200053b57816020015b6060815260200190600190039081620005255790505b50905060005b60015481101562000602576000818152600360205260409020546001600160a01b03166001600160a01b03166306fdde036040518163ffffffff1660e01b8152600401600060405180830381865afa158015620005a2573d6000803e3d6000fd5b505050506040513d6000823e601f3d908101601f19168201604052620005cc919081019062000ae3565b828281518110620005e157620005e162000b9c565b60200260200101819052508080620005f99062000ab1565b91505062000541565b50919050565b620006126200077f565b600080546001600160a01b03168787878787876040516200063390620007fe565b62000645979695949392919062000bdb565b604051809103906000f08015801562000662573d6000803e3d6000fd5b509050600154600288886040516200067c92919062000a5b565b9081526040805160209281900383018120939093556001805460009081526003909352912080546001600160a01b0319166001600160a01b0385811691821790925560048054935463d7e362e560e01b8652908501526024840152169063d7e362e590604401600060405180830381600087803b158015620006fd57600080fd5b505af115801562000712573d6000803e3d6000fd5b505060018054925090506000620007298362000ab1565b919050555050505050505050565b620007416200077f565b6001600160a01b0381166200077157604051631e4fbdf760e01b8152600060048201526024015b60405180910390fd5b6200077c81620007ae565b50565b6000546001600160a01b03163314620004975760405163118cdaa760e01b815233600482015260240162000768565b600080546001600160a01b038381166001600160a01b0319831681178455604051919092169283917f8be0079c531659141344cd1fd0a4f28419497f9722a3daafe3b4186f6b6457e09190a35050565b6144868062000cc083390190565b60008083601f8401126200081f57600080fd5b50813567ffffffffffffffff8111156200083857600080fd5b6020830191508360208285010111156200085157600080fd5b9250929050565b600080602083850312156200086c57600080fd5b823567ffffffffffffffff8111156200088457600080fd5b62000892858286016200080c565b90969095509350505050565b60005b83811015620008bb578181015183820152602001620008a1565b50506000910152565b6000602080830181845280855180835260408601915060408160051b870101925083870160005b828110156200093557878503603f190184528151805180875262000915818989018a85016200089e565b601f01601f191695909501860194509285019290850190600101620008eb565b5092979650505050505050565b6000602082840312156200095557600080fd5b5035919050565b600080600080600080606087890312156200097657600080fd5b863567ffffffffffffffff808211156200098f57600080fd5b6200099d8a838b016200080c565b90985096506020890135915080821115620009b757600080fd5b620009c58a838b016200080c565b90965094506040890135915080821115620009df57600080fd5b818901915089601f830112620009f457600080fd5b81358181111562000a0457600080fd5b8a60208260051b850101111562000a1a57600080fd5b6020830194508093505050509295509295509295565b60006020828403121562000a4357600080fd5b81356001600160a01b0381168114620004dd57600080fd5b8183823760009101908152919050565b60006020828403121562000a7e57600080fd5b5051919050565b634e487b7160e01b600052601160045260246000fd5b8082018082111562000205576200020562000a85565b60006001820162000ac65762000ac662000a85565b5060010190565b634e487b7160e01b600052604160045260246000fd5b60006020828403121562000af657600080fd5b815167ffffffffffffffff8082111562000b0f57600080fd5b818401915084601f83011262000b2457600080fd5b81518181111562000b395762000b3962000acd565b604051601f8201601f19908116603f0116810190838211818310171562000b645762000b6462000acd565b8160405282815287602084870101111562000b7e57600080fd5b62000b918360208301602088016200089e565b979650505050505050565b634e487b7160e01b600052603260045260246000fd5b81835281816020850137506000828201602090810191909152601f909101601f19169091010190565b6001600160a01b03881681526080602080830182905260009162000c03908401898b62000bb2565b838103604085015262000c1881888a62000bb2565b84810360608601528581529050818101600586901b820183018760005b8881101562000cac57848303601f190184528135368b9003601e1901811262000c5d57600080fd5b8a01868101903567ffffffffffffffff81111562000c7a57600080fd5b80360382131562000c8a57600080fd5b62000c9785828462000bb2565b95880195945050509085019060010162000c35565b50909d9c5050505050505050505050505056fe60806040523480156200001157600080fd5b50604051620044863803806200448683398101604081905262000034916200032a565b8383836000620000458382620004fa565b506001620000548282620004fa565b5050506001600160a01b0381166200008657604051631e4fbdf760e01b81526000600482015260240160405180910390fd5b620000918162000110565b508051620000a790600d90602084019062000162565b50828230604051620000b990620001bf565b620000c793929190620005f4565b604051809103906000f080158015620000e4573d6000803e3d6000fd5b50600e80546001600160a01b0319166001600160a01b0392909216919091179055506200063692505050565b600b80546001600160a01b038381166001600160a01b0319831681179093556040519116919082907f8be0079c531659141344cd1fd0a4f28419497f9722a3daafe3b4186f6b6457e090600090a35050565b828054828255906000526020600020908101928215620001ad579160200282015b82811115620001ad57825182906200019c9082620004fa565b509160200191906001019062000183565b50620001bb929150620001cd565b5090565b611c1b806200286b83390190565b80821115620001bb576000620001e48282620001ee565b50600101620001cd565b508054620001fc906200046b565b6000825580601f106200020d575050565b601f0160209004906000526020600020908101906200022d919062000230565b50565b5b80821115620001bb576000815560010162000231565b634e487b7160e01b600052604160045260246000fd5b604051601f8201601f191681016001600160401b038111828210171562000288576200028862000247565b604052919050565b60005b83811015620002ad57818101518382015260200162000293565b50506000910152565b600082601f830112620002c857600080fd5b81516001600160401b03811115620002e457620002e462000247565b620002f9601f8201601f19166020016200025d565b8181528460208386010111156200030f57600080fd5b6200032282602083016020870162000290565b949350505050565b600080600080608085870312156200034157600080fd5b84516001600160a01b03811681146200035957600080fd5b602086810151919550906001600160401b03808211156200037957600080fd5b6200038789838a01620002b6565b955060408801519150808211156200039e57600080fd5b620003ac89838a01620002b6565b94506060880151915080821115620003c357600080fd5b818801915088601f830112620003d857600080fd5b815181811115620003ed57620003ed62000247565b8060051b620003fe8582016200025d565b918252838101850191858101908c8411156200041957600080fd5b86860192505b838310156200045a57825185811115620004395760008081fd5b620004498e89838a0101620002b6565b83525091860191908601906200041f565b999c989b5096995050505050505050565b600181811c908216806200048057607f821691505b602082108103620004a157634e487b7160e01b600052602260045260246000fd5b50919050565b601f821115620004f557600081815260208120601f850160051c81016020861015620004d05750805b601f850160051c820191505b81811015620004f157828155600101620004dc565b5050505b505050565b81516001600160401b0381111562000516576200051662000247565b6200052e816200052784546200046b565b84620004a7565b602080601f8311600181146200056657600084156200054d5750858301515b600019600386901b1c1916600185901b178555620004f1565b600085815260208120601f198616915b82811015620005975788860151825594840194600190910190840162000576565b5085821015620005b65787850151600019600388901b60f8161c191681555b5050505050600190811b01905550565b60008151808452620005e081602086016020860162000290565b601f01601f19169290920160200192915050565b606081526000620006096060830186620005c6565b82810360208401526200061d8186620005c6565b91505060018060a01b0383166040830152949350505050565b61222580620006466000396000f3fe608060405234801561001057600080fd5b50600436106101f05760003560e01c806387f369691161010f578063c524812f116100a2578063e675d1d511610071578063e675d1d5146103ea578063e985e9c5146103f2578063f2fde38b14610405578063f47c84c51461041857600080fd5b8063c524812f146103a9578063c87b56dd146103b1578063d204c45e146103c4578063e4319219146103d757600080fd5b8063a22cb465116100de578063a22cb46514610373578063a657ea0814610386578063abcd52d31461038e578063b88d4fde1461039657600080fd5b806387f36969146103345780638da5cb5b1461034757806395d89b4114610358578063a0385e1c1461036057600080fd5b806331c0bec71161018757806370a082311161015657806370a0823114610300578063715018a61461031357806372930dbf1461031b5780637eb8ef731461032357600080fd5b806331c0bec7146102b257806342842e0e146102c75780634f6ccce7146102da5780636352211e146102ed57600080fd5b80630c7c0c0f116101c35780630c7c0c0f1461027257806318160ddd1461027a57806323b872dd1461028c5780632f745c591461029f57600080fd5b806301ffc9a7146101f557806306fdde031461021d578063081812fc14610232578063095ea7b31461025d575b600080fd5b610208610203366004611a56565b610421565b60405190151581526020015b60405180910390f35b610225610432565b6040516102149190611ac3565b610245610240366004611ad6565b6104c4565b6040516001600160a01b039091168152602001610214565b61027061026b366004611b0b565b6104ed565b005b6102706104fc565b6008545b604051908152602001610214565b61027061029a366004611b35565b610609565b61027e6102ad366004611b0b565b61068e565b6102ba6106f3565b6040516102149190611b71565b6102706102d5366004611b35565b610769565b61027e6102e8366004611ad6565b610789565b6102456102fb366004611ad6565b6107e2565b61027e61030e366004611bd3565b6107ed565b610270610835565b610270610849565b600e546001600160a01b0316610245565b61027e610342366004611c9b565b610879565b600b546001600160a01b0316610245565b610225610904565b61027061036e366004611b35565b610913565b610270610381366004611cfd565b610926565b61027e610931565b600d5461027e565b6102706103a4366004611d39565b61099e565b6102706109b5565b6102256103bf366004611ad6565b610ae6565b6102706103d2366004611c9b565b610af1565b6102256103e5366004611ad6565b610b47565b6102ba610bf3565b610208610400366004611db5565b610c9d565b610270610413366004611bd3565b610ccb565b61027e61271081565b600061042c82610d09565b92915050565b60606000805461044190611de8565b80601f016020809104026020016040519081016040528092919081815260200182805461046d90611de8565b80156104ba5780601f1061048f576101008083540402835291602001916104ba565b820191906000526020600020905b81548152906001019060200180831161049d57829003601f168201915b5050505050905090565b60006104cf82610d2e565b506000828152600460205260409020546001600160a01b031661042c565b6104f8828233610d67565b5050565b600e546040805163706fb88f60e01b81529051612710926001600160a01b03169163706fb88f9160048083019260209291908290030181865afa158015610547573d6000803e3d6000fd5b505050506040513d601f19601f8201168201806040525081019061056b9190611e1c565b60ff16600c5461057b9190611e55565b11156105a25760405162461bcd60e51b815260040161059990611e68565b60405180910390fd5b600e546040516340c10f1960e01b8152336004820152600160248201526001600160a01b03909116906340c10f19906044015b600060405180830381600087803b1580156105ef57600080fd5b505af1158015610603573d6000803e3d6000fd5b50505050565b6001600160a01b03821661063357604051633250574960e11b815260006004820152602401610599565b6000610640838333610d74565b9050836001600160a01b0316816001600160a01b031614610603576040516364283d7b60e01b81526001600160a01b0380861660048301526024820184905282166044820152606401610599565b6000610699836107ed565b82106106ca5760405163295f44f760e21b81526001600160a01b038416600482015260248101839052604401610599565b506001600160a01b03919091166000908152600660209081526040808320938352929052205490565b600e54604051633ec78a1360e01b81523360048201526060916001600160a01b031690633ec78a1390602401600060405180830381865afa15801561073c573d6000803e3d6000fd5b505050506040513d6000823e601f3d908101601f191682016040526107649190810190611e94565b905090565b6107848383836040518060200160405280600081525061099e565b505050565b600061079460085490565b82106107bd5760405163295f44f760e21b81526000600482015260248101839052604401610599565b600882815481106107d0576107d0611f93565b90600052602060002001549050919050565b600061042c82610d2e565b60006001600160a01b038216610819576040516322718ad960e21b815260006004820152602401610599565b506001600160a01b031660009081526003602052604090205490565b61083d610d89565b6108476000610db6565b565b600e54604051637e2a635160e01b81523360048201526001600160a01b0390911690637e2a6351906024016105d5565b6000805b610886846107ed565b8110156108cc576108a361089d6103bf868461068e565b84610e08565b156108ba576108b2848261068e565b91505061042c565b806108c481611fa9565b91505061087d565b50816040516020016108de9190611fc2565b60408051601f198184030181529082905262461bcd60e51b825261059991600401611ac3565b60606001805461044190611de8565b61091b610d89565b610784838383610e61565b6104f8338383610f11565b600e546040516370a0823160e01b81523360048201526000916001600160a01b0316906370a0823190602401602060405180830381865afa15801561097a573d6000803e3d6000fd5b505050506040513d601f19601f820116820180604052508101906107649190611ffa565b6109a9848484610609565b61060384848484610fb0565b600e546040805163706fb88f60e01b81529051612710926001600160a01b03169163706fb88f9160048083019260209291908290030181865afa158015610a00573d6000803e3d6000fd5b505050506040513d601f19601f82011682018060405250810190610a249190611e1c565b60ff16600c54610a349190611e55565b1115610a525760405162461bcd60e51b815260040161059990611e68565b600e546040516340c10f1960e01b8152336004820152600160248201526001600160a01b03909116906340c10f1990604401600060405180830381600087803b158015610a9e57600080fd5b505af1158015610ab2573d6000803e3d6000fd5b5050600e54604051637e2a635160e01b81523360048201526001600160a01b039091169250637e2a635191506024016105d5565b606061042c826110d9565b610af9610d89565b612710600c5403610b1c5760405162461bcd60e51b815260040161059990611e68565b600c805460009182610b2d83611fa9565b919050559050610b3d83826111e2565b61078481836111fc565b600d8181548110610b5757600080fd5b906000526020600020016000915090508054610b7290611de8565b80601f0160208091040260200160405190810160405280929190818152602001828054610b9e90611de8565b8015610beb5780601f10610bc057610100808354040283529160200191610beb565b820191906000526020600020905b815481529060010190602001808311610bce57829003601f168201915b505050505081565b60606000610c00336107ed565b67ffffffffffffffff811115610c1857610c18611bee565b604051908082528060200260200182016040528015610c4b57816020015b6060815260200190600190039081610c365790505b50905060005b8151811015610c9757610c676103bf338361068e565b828281518110610c7957610c79611f93565b60200260200101819052508080610c8f90611fa9565b915050610c51565b50919050565b6001600160a01b03918216600090815260056020908152604080832093909416825291909152205460ff1690565b610cd3610d89565b6001600160a01b038116610cfd57604051631e4fbdf760e01b815260006004820152602401610599565b610d0681610db6565b50565b60006001600160e01b03198216632483248360e11b148061042c575061042c8261124c565b6000818152600260205260408120546001600160a01b03168061042c57604051637e27328960e01b815260048101849052602401610599565b6107848383836001611271565b6000610d81848484611377565b949350505050565b600b546001600160a01b031633146108475760405163118cdaa760e01b8152336004820152602401610599565b600b80546001600160a01b038381166001600160a01b0319831681179093556040519116919082907f8be0079c531659141344cd1fd0a4f28419497f9722a3daafe3b4186f6b6457e090600090a35050565b600081604051602001610e1b9190612013565b6040516020818303038152906040528051906020012083604051602001610e429190612013565b6040516020818303038152906040528051906020012014905092915050565b6001600160a01b038216610e8b57604051633250574960e11b815260006004820152602401610599565b6000610e9983836000610d74565b90506001600160a01b038116610ec557604051637e27328960e01b815260048101839052602401610599565b836001600160a01b0316816001600160a01b031614610603576040516364283d7b60e01b81526001600160a01b0380861660048301526024820184905282166044820152606401610599565b6001600160a01b038216610f4357604051630b61174360e31b81526001600160a01b0383166004820152602401610599565b6001600160a01b03838116600081815260056020908152604080832094871680845294825291829020805460ff191686151590811790915591519182527f17307eab39ab6107e8899845ad3d59bd9653f200f220920489ca2b5937696c31910160405180910390a3505050565b6001600160a01b0383163b1561060357604051630a85bd0160e11b81526001600160a01b0384169063150b7a0290610ff290339088908790879060040161202f565b6020604051808303816000875af192505050801561102d575060408051601f3d908101601f1916820190925261102a9181019061206c565b60015b611096573d80801561105b576040519150601f19603f3d011682016040523d82523d6000602084013e611060565b606091505b50805160000361108e57604051633250574960e11b81526001600160a01b0385166004820152602401610599565b805181602001fd5b6001600160e01b03198116630a85bd0160e11b146110d257604051633250574960e11b81526001600160a01b0385166004820152602401610599565b5050505050565b60606110e482610d2e565b506000828152600a6020526040812080546110fe90611de8565b80601f016020809104026020016040519081016040528092919081815260200182805461112a90611de8565b80156111775780601f1061114c57610100808354040283529160200191611177565b820191906000526020600020905b81548152906001019060200180831161115a57829003601f168201915b50505050509050600061119560408051602081019091526000815290565b905080516000036111a7575092915050565b8151156111d95780826040516020016111c1929190612089565b60405160208183030381529060405292505050919050565b610d8184611444565b6104f88282604051806020016040528060008152506114b9565b6000828152600a602052604090206112148282612106565b506040518281527ff8e1a15aba9398e019f0b49df1a4fde98ee17ae345cb5f6b5e2c27f5033e8ce79060200160405180910390a15050565b60006001600160e01b0319821663780e9d6360e01b148061042c575061042c826114d0565b808061128557506001600160a01b03821615155b1561134757600061129584610d2e565b90506001600160a01b038316158015906112c15750826001600160a01b0316816001600160a01b031614155b80156112d457506112d28184610c9d565b155b156112fd5760405163a9fbf51f60e01b81526001600160a01b0384166004820152602401610599565b81156113455783856001600160a01b0316826001600160a01b03167f8c5be1e5ebec7d5bd14f71427d1e84f3dd0314c0f7b2291e5b200ac8c7c3b92560405160405180910390a45b505b5050600090815260046020526040902080546001600160a01b0319166001600160a01b0392909216919091179055565b600080611385858585611520565b90506001600160a01b0381166113e2576113dd84600880546000838152600960205260408120829055600182018355919091527ff3f7a9fe364faab93b216da50a3214154f22a0a2b415b23a84c8169e8b636ee30155565b611405565b846001600160a01b0316816001600160a01b031614611405576114058185611619565b6001600160a01b0385166114215761141c846116aa565b610d81565b846001600160a01b0316816001600160a01b031614610d8157610d818585611759565b606061144f82610d2e565b50600061146760408051602081019091526000815290565b9050600081511161148757604051806020016040528060008152506114b2565b80611491846117a9565b6040516020016114a2929190612089565b6040516020818303038152906040525b9392505050565b6114c3838361183c565b6107846000848484610fb0565b60006001600160e01b031982166380ac58cd60e01b148061150157506001600160e01b03198216635b5e139f60e01b145b8061042c57506301ffc9a760e01b6001600160e01b031983161461042c565b6000828152600260205260408120546001600160a01b039081169083161561154d5761154d8184866118a1565b6001600160a01b0381161561158b5761156a600085600080611271565b6001600160a01b038116600090815260036020526040902080546000190190555b6001600160a01b038516156115ba576001600160a01b0385166000908152600360205260409020805460010190555b60008481526002602052604080822080546001600160a01b0319166001600160a01b0389811691821790925591518793918516917fddf252ad1be2c89b69c2b068fc378daa952ba7f163c4a11628f55a4df523b3ef91a4949350505050565b6000611624836107ed565b600083815260076020526040902054909150808214611677576001600160a01b03841660009081526006602090815260408083208584528252808320548484528184208190558352600790915290208190555b5060009182526007602090815260408084208490556001600160a01b039094168352600681528383209183525290812055565b6008546000906116bc906001906121c6565b600083815260096020526040812054600880549394509092849081106116e4576116e4611f93565b90600052602060002001549050806008838154811061170557611705611f93565b600091825260208083209091019290925582815260099091526040808220849055858252812055600880548061173d5761173d6121d9565b6001900381819060005260206000200160009055905550505050565b60006001611766846107ed565b61177091906121c6565b6001600160a01b039093166000908152600660209081526040808320868452825280832085905593825260079052919091209190915550565b606060006117b683611905565b600101905060008167ffffffffffffffff8111156117d6576117d6611bee565b6040519080825280601f01601f191660200182016040528015611800576020820181803683370190505b5090508181016020015b600019016f181899199a1a9b1b9c1cb0b131b232b360811b600a86061a8153600a850494508461180a57509392505050565b6001600160a01b03821661186657604051633250574960e11b815260006004820152602401610599565b600061187483836000610d74565b90506001600160a01b03811615610784576040516339e3563760e11b815260006004820152602401610599565b6118ac8383836119dd565b610784576001600160a01b0383166118da57604051637e27328960e01b815260048101829052602401610599565b60405163177e802f60e01b81526001600160a01b038316600482015260248101829052604401610599565b60008072184f03e93ff9f4daa797ed6e38ed64bf6a1f0160401b83106119445772184f03e93ff9f4daa797ed6e38ed64bf6a1f0160401b830492506040015b6d04ee2d6d415b85acef81000000008310611970576d04ee2d6d415b85acef8100000000830492506020015b662386f26fc10000831061198e57662386f26fc10000830492506010015b6305f5e10083106119a6576305f5e100830492506008015b61271083106119ba57612710830492506004015b606483106119cc576064830492506002015b600a831061042c5760010192915050565b60006001600160a01b03831615801590610d815750826001600160a01b0316846001600160a01b03161480611a175750611a178484610c9d565b80610d815750506000908152600460205260409020546001600160a01b03908116911614919050565b6001600160e01b031981168114610d0657600080fd5b600060208284031215611a6857600080fd5b81356114b281611a40565b60005b83811015611a8e578181015183820152602001611a76565b50506000910152565b60008151808452611aaf816020860160208601611a73565b601f01601f19169290920160200192915050565b6020815260006114b26020830184611a97565b600060208284031215611ae857600080fd5b5035919050565b80356001600160a01b0381168114611b0657600080fd5b919050565b60008060408385031215611b1e57600080fd5b611b2783611aef565b946020939093013593505050565b600080600060608486031215611b4a57600080fd5b611b5384611aef565b9250611b6160208501611aef565b9150604084013590509250925092565b6000602080830181845280855180835260408601915060408160051b870101925083870160005b82811015611bc657603f19888603018452611bb4858351611a97565b94509285019290850190600101611b98565b5092979650505050505050565b600060208284031215611be557600080fd5b6114b282611aef565b634e487b7160e01b600052604160045260246000fd5b604051601f8201601f1916810167ffffffffffffffff81118282101715611c2d57611c2d611bee565b604052919050565b600067ffffffffffffffff821115611c4f57611c4f611bee565b50601f01601f191660200190565b6000611c70611c6b84611c35565b611c04565b9050828152838383011115611c8457600080fd5b828260208301376000602084830101529392505050565b60008060408385031215611cae57600080fd5b611cb783611aef565b9150602083013567ffffffffffffffff811115611cd357600080fd5b8301601f81018513611ce457600080fd5b611cf385823560208401611c5d565b9150509250929050565b60008060408385031215611d1057600080fd5b611d1983611aef565b915060208301358015158114611d2e57600080fd5b809150509250929050565b60008060008060808587031215611d4f57600080fd5b611d5885611aef565b9350611d6660208601611aef565b925060408501359150606085013567ffffffffffffffff811115611d8957600080fd5b8501601f81018713611d9a57600080fd5b611da987823560208401611c5d565b91505092959194509250565b60008060408385031215611dc857600080fd5b611dd183611aef565b9150611ddf60208401611aef565b90509250929050565b600181811c90821680611dfc57607f821691505b602082108103610c9757634e487b7160e01b600052602260045260246000fd5b600060208284031215611e2e57600080fd5b815160ff811681146114b257600080fd5b634e487b7160e01b600052601160045260246000fd5b8082018082111561042c5761042c611e3f565b60208082526012908201527113585e081d1bdad95b9cc81c995858da195960721b604082015260600190565b60006020808385031215611ea757600080fd5b825167ffffffffffffffff80821115611ebf57600080fd5b818501915085601f830112611ed357600080fd5b815181811115611ee557611ee5611bee565b8060051b611ef4858201611c04565b9182528381018501918581019089841115611f0e57600080fd5b86860192505b83831015611f8657825185811115611f2c5760008081fd5b8601603f81018b13611f3e5760008081fd5b878101516040611f50611c6b83611c35565b8281528d82848601011115611f655760008081fd5b611f74838c8301848701611a73565b85525050509186019190860190611f14565b9998505050505050505050565b634e487b7160e01b600052603260045260246000fd5b600060018201611fbb57611fbb611e3f565b5060010190565b6f021b0b932103737ba1037bbb732b21d160851b815260008251611fed816010850160208701611a73565b9190910160100192915050565b60006020828403121561200c57600080fd5b5051919050565b60008251612025818460208701611a73565b9190910192915050565b6001600160a01b038581168252841660208201526040810183905260806060820181905260009061206290830184611a97565b9695505050505050565b60006020828403121561207e57600080fd5b81516114b281611a40565b6000835161209b818460208801611a73565b8351908301906120af818360208801611a73565b01949350505050565b601f82111561078457600081815260208120601f850160051c810160208610156120df5750805b601f850160051c820191505b818110156120fe578281556001016120eb565b505050505050565b815167ffffffffffffffff81111561212057612120611bee565b6121348161212e8454611de8565b846120b8565b602080601f83116001811461216957600084156121515750858301515b600019600386901b1c1916600185901b1785556120fe565b600085815260208120601f198616915b8281101561219857888601518255948401946001909101908401612179565b50858210156121b65787850151600019600388901b60f8161c191681555b5050505050600190811b01905550565b8181038181111561042c5761042c611e3f565b634e487b7160e01b600052603160045260246000fdfea264697066735822122006f2200756bbec97be10c435d58cb7feede6f6c85baf44d3438eb0fc2ce11c6b64736f6c6343000814003360806040526040516200001290620000cc565b604051809103906000f0801580156200002f573d6000803e3d6000fd5b50600680546001600160a01b0319166001600160a01b03929092169190911790553480156200005d57600080fd5b5060405162001c1b38038062001c1b83398101604081905262000080916200019f565b82826003620000908382620002bb565b5060046200009f8282620002bb565b5050600580546001600160a01b0319166001600160a01b0393909316929092179091555062000387915050565b61070d806200150e83390190565b634e487b7160e01b600052604160045260246000fd5b600082601f8301126200010257600080fd5b81516001600160401b03808211156200011f576200011f620000da565b604051601f8301601f19908116603f011681019082821181831017156200014a576200014a620000da565b816040528381526020925086838588010111156200016757600080fd5b600091505b838210156200018b57858201830151818301840152908201906200016c565b600093810190920192909252949350505050565b600080600060608486031215620001b557600080fd5b83516001600160401b0380821115620001cd57600080fd5b620001db87838801620000f0565b94506020860151915080821115620001f257600080fd5b506200020186828701620000f0565b604086015190935090506001600160a01b03811681146200022157600080fd5b809150509250925092565b600181811c908216806200024157607f821691505b6020821081036200026257634e487b7160e01b600052602260045260246000fd5b50919050565b601f821115620002b657600081815260208120601f850160051c81016020861015620002915750805b601f850160051c820191505b81811015620002b2578281556001016200029d565b5050505b505050565b81516001600160401b03811115620002d757620002d7620000da565b620002ef81620002e884546200022c565b8462000268565b602080601f8311600181146200032757600084156200030e5750858301515b600019600386901b1c1916600185901b178555620002b2565b600085815260208120601f198616915b82811015620003585788860151825594840194600190910190840162000337565b5085821015620003775787850151600019600388901b60f8161c191681555b5050505050600190811b01905550565b61117780620003976000396000f3fe608060405234801561001057600080fd5b50600436106101165760003560e01c80634c549fc8116100a25780637e2a6351116100715780637e2a63511461026057806395d89b4114610273578063a9059cbb1461027b578063d605787b1461028e578063dd62ed3e146102a157600080fd5b80634c549fc814610209578063706fb88f1461021c57806370a082311461022457806379cc67901461024d57600080fd5b806323b872dd116100e957806323b872dd14610199578063313ce567146101ac5780633ec78a13146101c157806340c10f19146101e157806342966c68146101f657600080fd5b806306fdde031461011b578063095ea7b3146101395780630c8138c51461015c57806318160ddd14610187575b600080fd5b6101236102da565b6040516101309190610c6d565b60405180910390f35b61014c610147366004610ca3565b61036c565b6040519015158152602001610130565b60055461016f906001600160a01b031681565b6040516001600160a01b039091168152602001610130565b6002545b604051908152602001610130565b61014c6101a7366004610ccd565b610386565b60125b60405160ff9091168152602001610130565b6101d46101cf366004610d09565b6103aa565b6040516101309190610d7c565b6101f46101ef366004610ca3565b610499565b005b6101f4610204366004610d8f565b6104a7565b610123610217366004610ca3565b6104b4565b6101af600a81565b61018b610232366004610d09565b6001600160a01b031660009081526020819052604090205490565b6101f461025b366004610ca3565b61056d565b6101f461026e366004610d09565b610582565b6101236107e4565b61014c610289366004610ca3565b6107f3565b60065461016f906001600160a01b031681565b61018b6102af366004610da8565b6001600160a01b03918216600090815260016020908152604080832093909416825291909152205490565b6060600380546102e990610ddb565b80601f016020809104026020016040519081016040528092919081815260200182805461031590610ddb565b80156103625780601f1061033757610100808354040283529160200191610362565b820191906000526020600020905b81548152906001019060200180831161034557829003601f168201915b5050505050905090565b60003361037a818585610801565b60019150505b92915050565b600033610394858285610813565b61039f858585610896565b506001949350505050565b6001600160a01b0381166000908152600760209081526040808320805482518185028101850190935280835260609492939192909184015b8282101561048e57838290600052602060002001805461040190610ddb565b80601f016020809104026020016040519081016040528092919081815260200182805461042d90610ddb565b801561047a5780601f1061044f5761010080835404028352916020019161047a565b820191906000526020600020905b81548152906001019060200180831161045d57829003601f168201915b5050505050815260200190600101906103e2565b505050509050919050565b6104a382826108f5565b5050565b6104b1338261092b565b50565b600760205281600052604060002081815481106104d057600080fd5b906000526020600020016000915091505080546104ec90610ddb565b80601f016020809104026020016040519081016040528092919081815260200182805461051890610ddb565b80156105655780601f1061053a57610100808354040283529160200191610565565b820191906000526020600020905b81548152906001019060200180831161054857829003601f168201915b505050505081565b610578823383610813565b6104a3828261092b565b61058d81600161092b565b6006546005546040805163abcd52d360e01b815290516000936001600160a01b039081169363670a5c6693600a93919092169163abcd52d39160048083019260209291908290030181865afa1580156105ea573d6000803e3d6000fd5b505050506040513d601f19601f8201168201806040525081019061060e9190610e15565b6040516001600160e01b031960e085901b16815260ff90921660048301526024820152604401600060405180830381865afa158015610651573d6000803e3d6000fd5b505050506040513d6000823e601f3d908101601f191682016040526106799190810190610e75565b60408051600a808252610160820190925291925060009190816020015b606081526020019060019003908161069657905050905060005b600a81101561077b5760008382815181106106cd576106cd610f1b565b602090810291909101015160055460405163e431921960e01b8152600481018390529192506001600160a01b03169063e431921990602401600060405180830381865afa158015610722573d6000803e3d6000fd5b505050506040513d6000823e601f3d908101601f1916820160405261074a9190810190610f31565b83838151811061075c5761075c610f1b565b602002602001018190525050808061077390610fdb565b9150506106b0565b506001600160a01b038316600090815260076020908152604090912082516107a592840190610b60565b507f249d605acaef50a9eaad1e823a6136bc721966cbe27226c30e23f290ff4a8ce883826040516107d7929190610ff4565b60405180910390a1505050565b6060600480546102e990610ddb565b60003361037a818585610896565b61080e8383836001610961565b505050565b6001600160a01b038381166000908152600160209081526040808320938616835292905220546000198114610890578181101561088157604051637dc7a0d960e11b81526001600160a01b038416600482015260248101829052604481018390526064015b60405180910390fd5b61089084848484036000610961565b50505050565b6001600160a01b0383166108c057604051634b637e8f60e11b815260006004820152602401610878565b6001600160a01b0382166108ea5760405163ec442f0560e01b815260006004820152602401610878565b61080e838383610a36565b6001600160a01b03821661091f5760405163ec442f0560e01b815260006004820152602401610878565b6104a360008383610a36565b6001600160a01b03821661095557604051634b637e8f60e11b815260006004820152602401610878565b6104a382600083610a36565b6001600160a01b03841661098b5760405163e602df0560e01b815260006004820152602401610878565b6001600160a01b0383166109b557604051634a1406b160e11b815260006004820152602401610878565b6001600160a01b038085166000908152600160209081526040808320938716835292905220829055801561089057826001600160a01b0316846001600160a01b03167f8c5be1e5ebec7d5bd14f71427d1e84f3dd0314c0f7b2291e5b200ac8c7c3b92584604051610a2891815260200190565b60405180910390a350505050565b6001600160a01b038316610a61578060026000828254610a569190611020565b90915550610ad39050565b6001600160a01b03831660009081526020819052604090205481811015610ab45760405163391434e360e21b81526001600160a01b03851660048201526024810182905260448101839052606401610878565b6001600160a01b03841660009081526020819052604090209082900390555b6001600160a01b038216610aef57600280548290039055610b0e565b6001600160a01b03821660009081526020819052604090208054820190555b816001600160a01b0316836001600160a01b03167fddf252ad1be2c89b69c2b068fc378daa952ba7f163c4a11628f55a4df523b3ef83604051610b5391815260200190565b60405180910390a3505050565b828054828255906000526020600020908101928215610ba6579160200282015b82811115610ba65782518290610b969082611081565b5091602001919060010190610b80565b50610bb2929150610bb6565b5090565b80821115610bb2576000610bca8282610bd3565b50600101610bb6565b508054610bdf90610ddb565b6000825580601f10610bef575050565b601f0160209004906000526020600020908101906104b191905b80821115610bb25760008155600101610c09565b60005b83811015610c38578181015183820152602001610c20565b50506000910152565b60008151808452610c59816020860160208601610c1d565b601f01601f19169290920160200192915050565b602081526000610c806020830184610c41565b9392505050565b80356001600160a01b0381168114610c9e57600080fd5b919050565b60008060408385031215610cb657600080fd5b610cbf83610c87565b946020939093013593505050565b600080600060608486031215610ce257600080fd5b610ceb84610c87565b9250610cf960208501610c87565b9150604084013590509250925092565b600060208284031215610d1b57600080fd5b610c8082610c87565b600082825180855260208086019550808260051b84010181860160005b84811015610d6f57601f19868403018952610d5d838351610c41565b98840198925090830190600101610d41565b5090979650505050505050565b602081526000610c806020830184610d24565b600060208284031215610da157600080fd5b5035919050565b60008060408385031215610dbb57600080fd5b610dc483610c87565b9150610dd260208401610c87565b90509250929050565b600181811c90821680610def57607f821691505b602082108103610e0f57634e487b7160e01b600052602260045260246000fd5b50919050565b600060208284031215610e2757600080fd5b5051919050565b634e487b7160e01b600052604160045260246000fd5b604051601f8201601f1916810167ffffffffffffffff81118282101715610e6d57610e6d610e2e565b604052919050565b60006020808385031215610e8857600080fd5b825167ffffffffffffffff80821115610ea057600080fd5b818501915085601f830112610eb457600080fd5b815181811115610ec657610ec6610e2e565b8060051b9150610ed7848301610e44565b8181529183018401918481019088841115610ef157600080fd5b938501935b83851015610f0f57845182529385019390850190610ef6565b98975050505050505050565b634e487b7160e01b600052603260045260246000fd5b600060208284031215610f4357600080fd5b815167ffffffffffffffff80821115610f5b57600080fd5b818401915084601f830112610f6f57600080fd5b815181811115610f8157610f81610e2e565b610f94601f8201601f1916602001610e44565b9150808252856020828501011115610fab57600080fd5b610fbc816020840160208601610c1d565b50949350505050565b634e487b7160e01b600052601160045260246000fd5b600060018201610fed57610fed610fc5565b5060010190565b6001600160a01b038316815260406020820181905260009061101890830184610d24565b949350505050565b8082018082111561038057610380610fc5565b601f82111561080e57600081815260208120601f850160051c8101602086101561105a5750805b601f850160051c820191505b8181101561107957828155600101611066565b505050505050565b815167ffffffffffffffff81111561109b5761109b610e2e565b6110af816110a98454610ddb565b84611033565b602080601f8311600181146110e457600084156110cc5750858301515b600019600386901b1c1916600185901b178555611079565b600085815260208120601f198616915b82811015611113578886015182559484019460019091019084016110f4565b50858210156111315787850151600019600388901b60f8161c191681555b5050505050600190811b0190555056fea2646970667358221220cba81bdcf25c027cd9fd48be56825217ad5d2f7e28fbc0a4821374ef4cec316c64736f6c63430008140033608060405234801561001057600080fd5b506106ed806100206000396000f3fe608060405234801561001057600080fd5b50600436106100415760003560e01c8063670a5c6614610046578063e61a237e1461006f578063e988e9511461008f575b600080fd5b61005961005436600461046c565b6100b1565b604051610066919061048e565b60405180910390f35b61008261007d366004610564565b6102ad565b60405161006691906105b2565b6100a261009d3660046105c1565b6103cb565b604051610066939291906105ef565b60606000424443406040516020016100dc939291909283526020830191909152604082015260600190565b60408051601f19818403018152919052805160209091012090506101066001640100000000610629565b1661010f61044c565b81815261027060015b6102708110156101c9576101326001640100000000610629565b8161013f60026020610629565b8561014b600186610629565b610270811061015c5761015c61063c565b6020020151901c8561016f600186610629565b61027081106101805761018061063c565b60200201516101949118636c078965610652565b61019e9190610669565b16838261027081106101b2576101b261063c565b6020020152806101c18161067c565b915050610118565b5060008667ffffffffffffffff8111156101e5576101e56104d2565b60405190808252806020026020018201604052801561020e578160200160208202803683370190505b50905060005b878110156102a05761022683856103cb565b8484815181106102385761023861063c565b60200260200101818152508196508295505050508682828151811061025f5761025f61063c565b60200260200101516102719190610695565b8282815181106102835761028361063c565b6020908102919091010152806102988161067c565b915050610214565b5093505050505b92915050565b6102b561044c565b60005b6102708110156103c45760006102d360016380000000610629565b846102706102e2856001610669565b6102ec9190610695565b61027081106102fd576102fd61063c565b6020020151166103136001640100000000610629565b61032260016380000000610629565b1916858461027081106103375761033761063c565b6020020151166103479190610669565b9050600181901c610359601483610695565b1561036557639908b0df185b808561027061037661018d87610669565b6103809190610695565b61027081106103915761039161063c565b602002015118858461027081106103aa576103aa61063c565b6020020152508190506103bc8161067c565b9150506102b8565b5090919050565b60006103d561044c565b600061027085106103f0576103e9846102ad565b9350600094505b6000848661027081106104055761040561063c565b6020020151600b81901c63ffffffff1618600781901b639d2c56801618600f81901b63efc600001618601281901c189050610441866001610669565b969495509392505050565b60405180614e000160405280610270906020820280368337509192915050565b6000806040838503121561047f57600080fd5b50508035926020909101359150565b6020808252825182820181905260009190848201906040850190845b818110156104c6578351835292840192918401916001016104aa565b50909695505050505050565b634e487b7160e01b600052604160045260246000fd5b600082601f8301126104f957600080fd5b604051614e0080820182811067ffffffffffffffff8211171561052c57634e487b7160e01b600052604160045260246000fd5b6040528301818582111561053f57600080fd5b845b82811015610559578035825260209182019101610541565b509195945050505050565b6000614e00828403121561057757600080fd5b61058183836104e8565b9392505050565b8060005b6102708110156105ac57815184526020938401939091019060010161058c565b50505050565b614e0081016102a78284610588565b600080614e2083850312156105d557600080fd5b823591506105e684602085016104e8565b90509250929050565b838152614e4081016106046020830185610588565b82614e20830152949350505050565b634e487b7160e01b600052601160045260246000fd5b818103818111156102a7576102a7610613565b634e487b7160e01b600052603260045260246000fd5b80820281158282048414176102a7576102a7610613565b808201808211156102a7576102a7610613565b60006001820161068e5761068e610613565b5060010190565b6000826106b257634e487b7160e01b600052601260045260246000fd5b50069056fea26469706673582212203c4c1823a63bb2ac7c65cfb420f1cc2e2e1e6f67d7a4c2a557bc0e9b2948234964736f6c63430008140033a2646970667358221220027fc2ccde7cf2102320ad42c9d71c063516a7ca6ed79134eaab7f0c4e26b30064736f6c6343000814003360806040526000600255600060035534801561001a57600080fd5b506040516114dd3803806114dd833981016040819052610039916100d2565b806001600160a01b03811661006857604051631e4fbdf760e01b81526000600482015260240160405180910390fd5b61007181610082565b505060006002819055600355610102565b600080546001600160a01b038381166001600160a01b0319831681178455604051919092169283917f8be0079c531659141344cd1fd0a4f28419497f9722a3daafe3b4186f6b6457e09190a35050565b6000602082840312156100e457600080fd5b81516001600160a01b03811681146100fb57600080fd5b9392505050565b6113cc806101116000396000f3fe608060405234801561001057600080fd5b506004361061009d5760003560e01c8063715018a611610066578063715018a6146101045780638da5cb5b1461010c578063d7e362e514610127578063f2ab1cc01461013a578063f2fde38b1461014d57600080fd5b80623d10a4146100a2578063135befa8146100be5780633e31d066146100d35780634c633595146100e85780635932c02c146100fb575b600080fd5b6100ab60035481565b6040519081526020015b60405180910390f35b6100d16100cc366004610c2e565b610160565b005b6100db61024b565b6040516100b59190610cca565b6100d16100f6366004610e44565b6105a6565b6100ab60025481565b6100d1610861565b6000546040516001600160a01b0390911681526020016100b5565b6100d1610135366004610eac565b610875565b6100d1610148366004610edc565b6108ab565b6100d161015b366004610f83565b610a43565b60008181526004602052604090206003810154600160a01b900460ff16156101c35760405162461bcd60e51b815260206004820152601160248201527010d85c9908185b1c9958591e481cdbdb19607a1b60448201526064015b60405180910390fd5b60038101546001600160a01b0316331461021f5760405162461bcd60e51b815260206004820152601a60248201527f596f752063616e277420756e53656c6c2074686973206361726400000000000060448201526064016101ba565b6003805490600061022f83610fbd565b9091555050600301805460ff60a01b1916600160a01b17905550565b6060600060035467ffffffffffffffff81111561026a5761026a610fd4565b6040519080825280602002602001820160405280156102a357816020015b610290610afe565b8152602001906001900390816102885790505b5090506000805b60025481101561059e57600081815260046020526040902060030154600160a01b900460ff1661058c5760008181526004602052604090819020815160e081019092528054829082906102fc90610fea565b80601f016020809104026020016040519081016040528092919081815260200182805461032890610fea565b80156103755780601f1061034a57610100808354040283529160200191610375565b820191906000526020600020905b81548152906001019060200180831161035857829003601f168201915b505050505081526020016001820154815260200160028201805480602002602001604051908101604052809291908181526020016000905b828210156104595783829060005260206000200180546103cc90610fea565b80601f01602080910402602001604051908101604052809291908181526020018280546103f890610fea565b80156104455780601f1061041a57610100808354040283529160200191610445565b820191906000526020600020905b81548152906001019060200180831161042857829003601f168201915b5050505050815260200190600101906103ad565b5050509082525060038201546001600160a01b0381166020830152600160a01b900460ff1615156040808301919091528051606080820190925260048401805492909301929091829082906104ad90610fea565b80601f01602080910402602001604051908101604052809291908181526020018280546104d990610fea565b80156105265780601f106104fb57610100808354040283529160200191610526565b820191906000526020600020905b81548152906001019060200180831161050957829003601f168201915b505050918352505060018201546020808301919091526002909201546001600160a01b031660409091015290825260079290920154910152835184908490811061057257610572611024565b602002602001018190525081806105889061103a565b9250505b806105968161103a565b9150506102aa565b509092915050565b6040805160806020601f8601819004028201810190925260608101848152600092829190879087908190850183828082843760009201829052509385525050506020808301869052336040938401528882526004905220600381015491925090600160a01b900460ff16156106515760405162461bcd60e51b815260206004820152601160248201527010d85c9908185b1c9958591e481cdbdb19607a1b60448201526064016101ba565b600181810154600090815260209182526040808220549285015182528082205485820151865192516387f3696960e01b81526001600160a01b0395861695909216939284926387f36969926106aa929091600401611053565b602060405180830381865afa1580156106c7573d6000803e3d6000fd5b505050506040513d601f19601f820116820180604052508101906106eb919061107f565b6003805491925060006106fd83610fbd565b909155505060038401805460ff60a01b198116600160a01b179091556040516387f3696960e01b81526000916001600160a01b03808716926387f369699261074b9216908990600401611098565b602060405180830381865afa158015610768573d6000803e3d6000fd5b505050506040513d601f19601f8201168201806040525081019061078c919061107f565b604080516060808201835285825260208a8101518184015233838501528351918201845284825260018a01549082015260038901546001600160a01b0316818401529151929350917f85b4e44f64686ba0d554898d20668847f103783030e50076baa8c29f7728aeda906108039084908490611133565b60405180910390a1875188906004890190819061082090826111d0565b5060208201516001820155604090910151600290910180546001600160a01b0319166001600160a01b03909216919091179055505050505050505050505050565b610869610a81565b6108736000610aae565b565b61087d610a81565b60009182526001602052604090912080546001600160a01b0319166001600160a01b03909216919091179055565b6040518060e0016040528086868080601f0160208091040260200160405190810160405280939291908181526020018383808284376000920191909152505050908252506020810185905260400161090383856112c1565b815233602080830191909152600060408084018290528051608080820183526060828101858152835282860185905282840185905286019190915260025494018490529281526004909152208151819061095d90826111d0565b506020828101516001830155604083015180516109809260028501920190610b71565b50606082015160038201805460808501511515600160a01b026001600160a81b03199091166001600160a01b039093169290921791909117905560a08201518051600483019081906109d290826111d0565b5060208201516001820155604090910151600290910180546001600160a01b0319166001600160a01b0390921691909117905560c0919091015160079091015560038054906000610a228361103a565b909155505060028054906000610a378361103a565b91905055505050505050565b610a4b610a81565b6001600160a01b038116610a7557604051631e4fbdf760e01b8152600060048201526024016101ba565b610a7e81610aae565b50565b6000546001600160a01b031633146108735760405163118cdaa760e01b81523360048201526024016101ba565b600080546001600160a01b038381166001600160a01b0319831681178455604051919092169283917f8be0079c531659141344cd1fd0a4f28419497f9722a3daafe3b4186f6b6457e09190a35050565b6040518060e0016040528060608152602001600081526020016060815260200160006001600160a01b03168152602001600015158152602001610b646040518060600160405280606081526020016000815260200160006001600160a01b031681525090565b8152602001600081525090565b828054828255906000526020600020908101928215610bb7579160200282015b82811115610bb75782518290610ba790826111d0565b5091602001919060010190610b91565b50610bc3929150610bc7565b5090565b80821115610bc3576000610bdb8282610be4565b50600101610bc7565b508054610bf090610fea565b6000825580601f10610c00575050565b601f016020900490600052602060002090810190610a7e91905b80821115610bc35760008155600101610c1a565b600060208284031215610c4057600080fd5b5035919050565b6000815180845260005b81811015610c6d57602081850181015186830182015201610c51565b506000602082860101526020601f19601f83011685010191505092915050565b6000815160608452610ca26060850182610c47565b602084810151908601526040938401516001600160a01b031693909401929092525090919050565b602080825282518282018190526000919060409081850190600581811b8701840188860187805b85811015610deb57603f198b8503018752825160e08151818752610d1782880182610c47565b838d0151888e01528b8401518882038d8a015280518083529193508d0191508c830190808a1b84018e01875b82811015610d7657601f19868303018452610d5f828651610c47565b91508f850194508f84019350600181019050610d43565b5060609450848601519350610d95858b01856001600160a01b03169052565b60809450848601519350610dac858b018515159052565b60a09450848601519350898103858b0152610dc78185610c8d565b60c0968701519a90960199909952505050978a019750935091880191600101610cf1565b50919a9950505050505050505050565b60008083601f840112610e0d57600080fd5b50813567ffffffffffffffff811115610e2557600080fd5b602083019150836020828501011115610e3d57600080fd5b9250929050565b60008060008060608587031215610e5a57600080fd5b84359350602085013567ffffffffffffffff811115610e7857600080fd5b610e8487828801610dfb565b9598909750949560400135949350505050565b6001600160a01b0381168114610a7e57600080fd5b60008060408385031215610ebf57600080fd5b823591506020830135610ed181610e97565b809150509250929050565b600080600080600060608688031215610ef457600080fd5b853567ffffffffffffffff80821115610f0c57600080fd5b610f1889838a01610dfb565b9097509550602088013594506040880135915080821115610f3857600080fd5b818801915088601f830112610f4c57600080fd5b813581811115610f5b57600080fd5b8960208260051b8501011115610f7057600080fd5b9699959850939650602001949392505050565b600060208284031215610f9557600080fd5b8135610fa081610e97565b9392505050565b634e487b7160e01b600052601160045260246000fd5b600081610fcc57610fcc610fa7565b506000190190565b634e487b7160e01b600052604160045260246000fd5b600181811c90821680610ffe57607f821691505b60208210810361101e57634e487b7160e01b600052602260045260246000fd5b50919050565b634e487b7160e01b600052603260045260246000fd5b60006001820161104c5761104c610fa7565b5060010190565b6001600160a01b038316815260406020820181905260009061107790830184610c47565b949350505050565b60006020828403121561109157600080fd5b5051919050565b60018060a01b038316815260006020604081840152600084546110ba81610fea565b80604087015260606001808416600081146110dc57600181146110f657611124565b60ff1985168984015283151560051b890183019550611124565b896000528660002060005b8581101561111c5781548b8201860152908301908801611101565b8a0184019650505b50939998505050505050505050565b82518152602080840151908201526040808401516001600160a01b03169082015260c08101825160608301526020830151608083015260408301516001600160a01b031660a0830152610fa0565b601f8211156111cb57600081815260208120601f850160051c810160208610156111a85750805b601f850160051c820191505b818110156111c7578281556001016111b4565b5050505b505050565b815167ffffffffffffffff8111156111ea576111ea610fd4565b6111fe816111f88454610fea565b84611181565b602080601f831160018114611233576000841561121b5750858301515b600019600386901b1c1916600185901b1785556111c7565b600085815260208120601f198616915b8281101561126257888601518255948401946001909101908401611243565b50858210156112805787850151600019600388901b60f8161c191681555b5050505050600190811b01905550565b604051601f8201601f1916810167ffffffffffffffff811182821017156112b9576112b9610fd4565b604052919050565b600067ffffffffffffffff808411156112dc576112dc610fd4565b8360051b60206112ed818301611290565b86815291850191818101903684111561130557600080fd5b865b8481101561138a5780358681111561131f5760008081fd5b8801601f36818301126113325760008081fd5b81358881111561134457611344610fd4565b611355818301601f19168801611290565b9150808252368782850101111561136c5760008081fd5b80878401888401376000908201870152845250918301918301611307565b5097965050505050505056fea264697066735822122023166d2d984bcc3820d82d5d781ca55536defbbc234492bd8d4805df828b5e8664736f6c63430008140033","opcodes":"PUSH1 0x80 PUSH1 0x40 MSTORE CALLVALUE DUP1 ISZERO PUSH2 0x10 JUMPI PUSH1 0x0 DUP1 REVERT JUMPDEST POP PUSH1 0x40 MLOAD PUSH3 0x67C6 CODESIZE SUB DUP1 PUSH3 0x67C6 DUP4 CODECOPY DUP2 ADD PUSH1 0x40 DUP2 SWAP1 MSTORE PUSH2 0x31 SWAP2 PUSH2 0x12E JUMP JUMPDEST DUP1 PUSH1 0x1 PUSH1 0x1 PUSH1 0xA0 SHL SUB DUP2 AND PUSH2 0x60 JUMPI PUSH1 0x40 MLOAD PUSH4 0x1E4FBDF7 PUSH1 0xE0 SHL DUP2 MSTORE PUSH1 0x0 PUSH1 0x4 DUP3 ADD MSTORE PUSH1 0x24 ADD PUSH1 0x40 MLOAD DUP1 SWAP2 SUB SWAP1 REVERT JUMPDEST PUSH2 0x69 DUP2 PUSH2 0xD0 JUMP JUMPDEST POP PUSH1 0x0 PUSH1 0x1 SSTORE PUSH1 0x40 MLOAD ADDRESS SWAP1 PUSH2 0x7D SWAP1 PUSH2 0x120 JUMP JUMPDEST PUSH1 0x1 PUSH1 0x1 PUSH1 0xA0 SHL SUB SWAP1 SWAP2 AND DUP2 MSTORE PUSH1 0x20 ADD PUSH1 0x40 MLOAD DUP1 SWAP2 SUB SWAP1 PUSH1 0x0 CREATE DUP1 ISZERO DUP1 ISZERO PUSH2 0xA9 JUMPI RETURNDATASIZE PUSH1 0x0 DUP1 RETURNDATACOPY RETURNDATASIZE PUSH1 0x0 REVERT JUMPDEST POP PUSH1 0x4 DUP1 SLOAD PUSH1 0x1 PUSH1 0x1 PUSH1 0xA0 SHL SUB NOT AND PUSH1 0x1 PUSH1 0x1 PUSH1 0xA0 SHL SUB SWAP3 SWAP1 SWAP3 AND SWAP2 SWAP1 SWAP2 OR SWAP1 SSTORE POP PUSH2 0x15E JUMP JUMPDEST PUSH1 0x0 DUP1 SLOAD PUSH1 0x1 PUSH1 0x1 PUSH1 0xA0 SHL SUB DUP4 DUP2 AND PUSH1 0x1 PUSH1 0x1 PUSH1 0xA0 SHL SUB NOT DUP4 AND DUP2 OR DUP5 SSTORE PUSH1 0x40 MLOAD SWAP2 SWAP1 SWAP3 AND SWAP3 DUP4 SWAP2 PUSH32 0x8BE0079C531659141344CD1FD0A4F28419497F9722A3DAAFE3B4186F6B6457E0 SWAP2 SWAP1 LOG3 POP POP JUMP JUMPDEST PUSH2 0x14DD DUP1 PUSH3 0x52E9 DUP4 CODECOPY ADD SWAP1 JUMP JUMPDEST PUSH1 0x0 PUSH1 0x20 DUP3 DUP5 SUB SLT ISZERO PUSH2 0x140 JUMPI PUSH1 0x0 DUP1 REVERT JUMPDEST DUP2 MLOAD PUSH1 0x1 PUSH1 0x1 PUSH1 0xA0 SHL SUB DUP2 AND DUP2 EQ PUSH2 0x157 JUMPI PUSH1 0x0 DUP1 REVERT JUMPDEST SWAP4 SWAP3 POP POP POP JUMP JUMPDEST PUSH2 0x517B DUP1 PUSH3 0x16E PUSH1 0x0 CODECOPY PUSH1 0x0 RETURN INVALID PUSH1 0x80 PUSH1 0x40 MSTORE CALLVALUE DUP1 ISZERO PUSH3 0x11 JUMPI PUSH1 0x0 DUP1 REVERT JUMPDEST POP PUSH1 0x4 CALLDATASIZE LT PUSH3 0xC3 JUMPI PUSH1 0x0 CALLDATALOAD PUSH1 0xE0 SHR DUP1 PUSH4 0x8DA5CB5B GT PUSH3 0x7A JUMPI DUP1 PUSH4 0x8DA5CB5B EQ PUSH3 0x150 JUMPI DUP1 PUSH4 0x93A1EFB7 EQ PUSH3 0x162 JUMPI DUP1 PUSH4 0x95657DB0 EQ PUSH3 0x179 JUMPI DUP1 PUSH4 0xACE8116D EQ PUSH3 0x1A5 JUMPI DUP1 PUSH4 0xE2F82BA6 EQ PUSH3 0x1AF JUMPI DUP1 PUSH4 0xF2FDE38B EQ PUSH3 0x1C6 JUMPI PUSH1 0x0 DUP1 REVERT JUMPDEST DUP1 PUSH4 0x56CB5087 EQ PUSH3 0xC8 JUMPI DUP1 PUSH4 0x5A2FF1A0 EQ PUSH3 0xF2 JUMPI DUP1 PUSH4 0x5CD8387F EQ PUSH3 0xFC JUMPI DUP1 PUSH4 0x5D5D667B EQ PUSH3 0x105 JUMPI DUP1 PUSH4 0x64D00C45 EQ PUSH3 0x11E JUMPI DUP1 PUSH4 0x715018A6 EQ PUSH3 0x144 JUMPI JUMPDEST PUSH1 0x0 DUP1 REVERT JUMPDEST PUSH3 0xDF PUSH3 0xD9 CALLDATASIZE PUSH1 0x4 PUSH3 0x858 JUMP JUMPDEST PUSH3 0x1DD JUMP JUMPDEST PUSH1 0x40 MLOAD SWAP1 DUP2 MSTORE PUSH1 0x20 ADD JUMPDEST PUSH1 0x40 MLOAD DUP1 SWAP2 SUB SWAP1 RETURN JUMPDEST PUSH3 0xDF PUSH1 0x1 SLOAD DUP2 JUMP JUMPDEST PUSH1 0x1 SLOAD PUSH3 0xDF JUMP JUMPDEST PUSH3 0x10F PUSH3 0x20B JUMP JUMPDEST PUSH1 0x40 MLOAD PUSH3 0xE9 SWAP2 SWAP1 PUSH3 0x8C4 JUMP JUMPDEST PUSH1 0x4 SLOAD PUSH1 0x1 PUSH1 0x1 PUSH1 0xA0 SHL SUB AND JUMPDEST PUSH1 0x40 MLOAD PUSH1 0x1 PUSH1 0x1 PUSH1 0xA0 SHL SUB SWAP1 SWAP2 AND DUP2 MSTORE PUSH1 0x20 ADD PUSH3 0xE9 JUMP JUMPDEST PUSH3 0x14E PUSH3 0x481 JUMP JUMPDEST STOP JUMPDEST PUSH1 0x0 SLOAD PUSH1 0x1 PUSH1 0x1 PUSH1 0xA0 SHL SUB AND PUSH3 0x12B JUMP JUMPDEST PUSH3 0x12B PUSH3 0x173 CALLDATASIZE PUSH1 0x4 PUSH3 0x858 JUMP JUMPDEST PUSH3 0x499 JUMP JUMPDEST PUSH3 0x12B PUSH3 0x18A CALLDATASIZE PUSH1 0x4 PUSH3 0x942 JUMP JUMPDEST PUSH1 0x0 SWAP1 DUP2 MSTORE PUSH1 0x3 PUSH1 0x20 MSTORE PUSH1 0x40 SWAP1 KECCAK256 SLOAD PUSH1 0x1 PUSH1 0x1 PUSH1 0xA0 SHL SUB AND SWAP1 JUMP JUMPDEST PUSH3 0x10F PUSH3 0x4E4 JUMP JUMPDEST PUSH3 0x14E PUSH3 0x1C0 CALLDATASIZE PUSH1 0x4 PUSH3 0x95C JUMP JUMPDEST PUSH3 0x608 JUMP JUMPDEST PUSH3 0x14E PUSH3 0x1D7 CALLDATASIZE PUSH1 0x4 PUSH3 0xA30 JUMP JUMPDEST PUSH3 0x737 JUMP JUMPDEST PUSH1 0x0 PUSH1 0x2 DUP4 DUP4 PUSH1 0x40 MLOAD PUSH3 0x1F3 SWAP3 SWAP2 SWAP1 PUSH3 0xA5B JUMP JUMPDEST SWAP1 DUP2 MSTORE PUSH1 0x20 ADD PUSH1 0x40 MLOAD DUP1 SWAP2 SUB SWAP1 KECCAK256 SLOAD SWAP1 POP JUMPDEST SWAP3 SWAP2 POP POP JUMP JUMPDEST PUSH1 0x60 PUSH1 0x0 DUP1 JUMPDEST PUSH1 0x1 SLOAD DUP2 LT ISZERO PUSH3 0x2C0 JUMPI PUSH1 0x0 DUP2 DUP2 MSTORE PUSH1 0x3 PUSH1 0x20 MSTORE PUSH1 0x40 DUP2 KECCAK256 SLOAD PUSH1 0x1 PUSH1 0x1 PUSH1 0xA0 SHL SUB AND SWAP1 POP DUP1 PUSH1 0x1 PUSH1 0x1 PUSH1 0xA0 SHL SUB AND PUSH4 0x18160DDD PUSH1 0x40 MLOAD DUP2 PUSH4 0xFFFFFFFF AND PUSH1 0xE0 SHL DUP2 MSTORE PUSH1 0x4 ADD PUSH1 0x20 PUSH1 0x40 MLOAD DUP1 DUP4 SUB DUP2 DUP7 GAS STATICCALL ISZERO DUP1 ISZERO PUSH3 0x275 JUMPI RETURNDATASIZE PUSH1 0x0 DUP1 RETURNDATACOPY RETURNDATASIZE PUSH1 0x0 REVERT JUMPDEST POP POP POP POP PUSH1 0x40 MLOAD RETURNDATASIZE PUSH1 0x1F NOT PUSH1 0x1F DUP3 ADD AND DUP3 ADD DUP1 PUSH1 0x40 MSTORE POP DUP2 ADD SWAP1 PUSH3 0x29B SWAP2 SWAP1 PUSH3 0xA6B JUMP JUMPDEST PUSH3 0x2A7 SWAP1 DUP5 PUSH3 0xA9B JUMP JUMPDEST SWAP3 POP POP DUP1 DUP1 PUSH3 0x2B7 SWAP1 PUSH3 0xAB1 JUMP JUMPDEST SWAP2 POP POP PUSH3 0x211 JUMP JUMPDEST POP PUSH1 0x0 DUP2 PUSH8 0xFFFFFFFFFFFFFFFF DUP2 GT ISZERO PUSH3 0x2DF JUMPI PUSH3 0x2DF PUSH3 0xACD JUMP JUMPDEST PUSH1 0x40 MLOAD SWAP1 DUP1 DUP3 MSTORE DUP1 PUSH1 0x20 MUL PUSH1 0x20 ADD DUP3 ADD PUSH1 0x40 MSTORE DUP1 ISZERO PUSH3 0x314 JUMPI DUP2 PUSH1 0x20 ADD JUMPDEST PUSH1 0x60 DUP2 MSTORE PUSH1 0x20 ADD SWAP1 PUSH1 0x1 SWAP1 SUB SWAP1 DUP2 PUSH3 0x2FE JUMPI SWAP1 POP JUMPDEST POP SWAP1 POP PUSH1 0x0 DUP1 JUMPDEST PUSH1 0x1 SLOAD DUP2 LT ISZERO PUSH3 0x478 JUMPI PUSH1 0x0 DUP2 DUP2 MSTORE PUSH1 0x3 PUSH1 0x20 MSTORE PUSH1 0x40 DUP2 KECCAK256 SLOAD PUSH1 0x1 PUSH1 0x1 PUSH1 0xA0 SHL SUB AND SWAP1 JUMPDEST DUP2 PUSH1 0x1 PUSH1 0x1 PUSH1 0xA0 SHL SUB AND PUSH4 0x18160DDD PUSH1 0x40 MLOAD DUP2 PUSH4 0xFFFFFFFF AND PUSH1 0xE0 SHL DUP2 MSTORE PUSH1 0x4 ADD PUSH1 0x20 PUSH1 0x40 MLOAD DUP1 DUP4 SUB DUP2 DUP7 GAS STATICCALL ISZERO DUP1 ISZERO PUSH3 0x37F JUMPI RETURNDATASIZE PUSH1 0x0 DUP1 RETURNDATACOPY RETURNDATASIZE PUSH1 0x0 REVERT JUMPDEST POP POP POP POP PUSH1 0x40 MLOAD RETURNDATASIZE PUSH1 0x1F NOT PUSH1 0x1F DUP3 ADD AND DUP3 ADD DUP1 PUSH1 0x40 MSTORE POP DUP2 ADD SWAP1 PUSH3 0x3A5 SWAP2 SWAP1 PUSH3 0xA6B JUMP JUMPDEST DUP2 LT ISZERO PUSH3 0x460 JUMPI PUSH1 0x40 MLOAD PUSH4 0xC87B56DD PUSH1 0xE0 SHL DUP2 MSTORE PUSH1 0x4 DUP2 ADD DUP3 SWAP1 MSTORE PUSH1 0x1 PUSH1 0x1 PUSH1 0xA0 SHL SUB DUP4 AND SWAP1 PUSH4 0xC87B56DD SWAP1 PUSH1 0x24 ADD PUSH1 0x0 PUSH1 0x40 MLOAD DUP1 DUP4 SUB DUP2 DUP7 GAS STATICCALL ISZERO DUP1 ISZERO PUSH3 0x3F3 JUMPI RETURNDATASIZE PUSH1 0x0 DUP1 RETURNDATACOPY RETURNDATASIZE PUSH1 0x0 REVERT JUMPDEST POP POP POP POP PUSH1 0x40 MLOAD RETURNDATASIZE PUSH1 0x0 DUP3 RETURNDATACOPY PUSH1 0x1F RETURNDATASIZE SWAP1 DUP2 ADD PUSH1 0x1F NOT AND DUP3 ADD PUSH1 0x40 MSTORE PUSH3 0x41D SWAP2 SWAP1 DUP2 ADD SWAP1 PUSH3 0xAE3 JUMP JUMPDEST DUP6 DUP6 PUSH3 0x42A DUP2 PUSH3 0xAB1 JUMP JUMPDEST SWAP7 POP DUP2 MLOAD DUP2 LT PUSH3 0x43F JUMPI PUSH3 0x43F PUSH3 0xB9C JUMP JUMPDEST PUSH1 0x20 MUL PUSH1 0x20 ADD ADD DUP2 SWAP1 MSTORE POP DUP1 DUP1 PUSH3 0x457 SWAP1 PUSH3 0xAB1 JUMP JUMPDEST SWAP2 POP POP PUSH3 0x340 JUMP JUMPDEST POP POP DUP1 DUP1 PUSH3 0x46F SWAP1 PUSH3 0xAB1 JUMP JUMPDEST SWAP2 POP POP PUSH3 0x31B JUMP JUMPDEST POP SWAP1 SWAP4 SWAP3 POP POP POP JUMP JUMPDEST PUSH3 0x48B PUSH3 0x77F JUMP JUMPDEST PUSH3 0x497 PUSH1 0x0 PUSH3 0x7AE JUMP JUMPDEST JUMP JUMPDEST PUSH1 0x0 PUSH3 0x4DD PUSH1 0x2 DUP5 DUP5 PUSH1 0x40 MLOAD PUSH3 0x4B3 SWAP3 SWAP2 SWAP1 PUSH3 0xA5B JUMP JUMPDEST SWAP1 DUP2 MSTORE PUSH1 0x20 ADD PUSH1 0x40 MLOAD DUP1 SWAP2 SUB SWAP1 KECCAK256 SLOAD PUSH1 0x0 SWAP1 DUP2 MSTORE PUSH1 0x3 PUSH1 0x20 MSTORE PUSH1 0x40 SWAP1 KECCAK256 SLOAD PUSH1 0x1 PUSH1 0x1 PUSH1 0xA0 SHL SUB AND SWAP1 JUMP JUMPDEST SWAP4 SWAP3 POP POP POP JUMP JUMPDEST PUSH1 0x60 PUSH1 0x0 PUSH1 0x1 SLOAD PUSH8 0xFFFFFFFFFFFFFFFF DUP2 GT ISZERO PUSH3 0x506 JUMPI PUSH3 0x506 PUSH3 0xACD JUMP JUMPDEST PUSH1 0x40 MLOAD SWAP1 DUP1 DUP3 MSTORE DUP1 PUSH1 0x20 MUL PUSH1 0x20 ADD DUP3 ADD PUSH1 0x40 MSTORE DUP1 ISZERO PUSH3 0x53B JUMPI DUP2 PUSH1 0x20 ADD JUMPDEST PUSH1 0x60 DUP2 MSTORE PUSH1 0x20 ADD SWAP1 PUSH1 0x1 SWAP1 SUB SWAP1 DUP2 PUSH3 0x525 JUMPI SWAP1 POP JUMPDEST POP SWAP1 POP PUSH1 0x0 JUMPDEST PUSH1 0x1 SLOAD DUP2 LT ISZERO PUSH3 0x602 JUMPI PUSH1 0x0 DUP2 DUP2 MSTORE PUSH1 0x3 PUSH1 0x20 MSTORE PUSH1 0x40 SWAP1 KECCAK256 SLOAD PUSH1 0x1 PUSH1 0x1 PUSH1 0xA0 SHL SUB AND PUSH1 0x1 PUSH1 0x1 PUSH1 0xA0 SHL SUB AND PUSH4 0x6FDDE03 PUSH1 0x40 MLOAD DUP2 PUSH4 0xFFFFFFFF AND PUSH1 0xE0 SHL DUP2 MSTORE PUSH1 0x4 ADD PUSH1 0x0 PUSH1 0x40 MLOAD DUP1 DUP4 SUB DUP2 DUP7 GAS STATICCALL ISZERO DUP1 ISZERO PUSH3 0x5A2 JUMPI RETURNDATASIZE PUSH1 0x0 DUP1 RETURNDATACOPY RETURNDATASIZE PUSH1 0x0 REVERT JUMPDEST POP POP POP POP PUSH1 0x40 MLOAD RETURNDATASIZE PUSH1 0x0 DUP3 RETURNDATACOPY PUSH1 0x1F RETURNDATASIZE SWAP1 DUP2 ADD PUSH1 0x1F NOT AND DUP3 ADD PUSH1 0x40 MSTORE PUSH3 0x5CC SWAP2 SWAP1 DUP2 ADD SWAP1 PUSH3 0xAE3 JUMP JUMPDEST DUP3 DUP3 DUP2 MLOAD DUP2 LT PUSH3 0x5E1 JUMPI PUSH3 0x5E1 PUSH3 0xB9C JUMP JUMPDEST PUSH1 0x20 MUL PUSH1 0x20 ADD ADD DUP2 SWAP1 MSTORE POP DUP1 DUP1 PUSH3 0x5F9 SWAP1 PUSH3 0xAB1 JUMP JUMPDEST SWAP2 POP POP PUSH3 0x541 JUMP JUMPDEST POP SWAP2 SWAP1 POP JUMP JUMPDEST PUSH3 0x612 PUSH3 0x77F JUMP JUMPDEST PUSH1 0x0 DUP1 SLOAD PUSH1 0x1 PUSH1 0x1 PUSH1 0xA0 SHL SUB AND DUP8 DUP8 DUP8 DUP8 DUP8 DUP8 PUSH1 0x40 MLOAD PUSH3 0x633 SWAP1 PUSH3 0x7FE JUMP JUMPDEST PUSH3 0x645 SWAP8 SWAP7 SWAP6 SWAP5 SWAP4 SWAP3 SWAP2 SWAP1 PUSH3 0xBDB JUMP JUMPDEST PUSH1 0x40 MLOAD DUP1 SWAP2 SUB SWAP1 PUSH1 0x0 CREATE DUP1 ISZERO DUP1 ISZERO PUSH3 0x662 JUMPI RETURNDATASIZE PUSH1 0x0 DUP1 RETURNDATACOPY RETURNDATASIZE PUSH1 0x0 REVERT JUMPDEST POP SWAP1 POP PUSH1 0x1 SLOAD PUSH1 0x2 DUP9 DUP9 PUSH1 0x40 MLOAD PUSH3 0x67C SWAP3 SWAP2 SWAP1 PUSH3 0xA5B JUMP JUMPDEST SWAP1 DUP2 MSTORE PUSH1 0x40 DUP1 MLOAD PUSH1 0x20 SWAP3 DUP2 SWAP1 SUB DUP4 ADD DUP2 KECCAK256 SWAP4 SWAP1 SWAP4 SSTORE PUSH1 0x1 DUP1 SLOAD PUSH1 0x0 SWAP1 DUP2 MSTORE PUSH1 0x3 SWAP1 SWAP4 MSTORE SWAP2 KECCAK256 DUP1 SLOAD PUSH1 0x1 PUSH1 0x1 PUSH1 0xA0 SHL SUB NOT AND PUSH1 0x1 PUSH1 0x1 PUSH1 0xA0 SHL SUB DUP6 DUP2 AND SWAP2 DUP3 OR SWAP1 SWAP3 SSTORE PUSH1 0x4 DUP1 SLOAD SWAP4 SLOAD PUSH4 0xD7E362E5 PUSH1 0xE0 SHL DUP7 MSTORE SWAP1 DUP6 ADD MSTORE PUSH1 0x24 DUP5 ADD MSTORE AND SWAP1 PUSH4 0xD7E362E5 SWAP1 PUSH1 0x44 ADD PUSH1 0x0 PUSH1 0x40 MLOAD DUP1 DUP4 SUB DUP2 PUSH1 0x0 DUP8 DUP1 EXTCODESIZE ISZERO DUP1 ISZERO PUSH3 0x6FD JUMPI PUSH1 0x0 DUP1 REVERT JUMPDEST POP GAS CALL ISZERO DUP1 ISZERO PUSH3 0x712 JUMPI RETURNDATASIZE PUSH1 0x0 DUP1 RETURNDATACOPY RETURNDATASIZE PUSH1 0x0 REVERT JUMPDEST POP POP PUSH1 0x1 DUP1 SLOAD SWAP3 POP SWAP1 POP PUSH1 0x0 PUSH3 0x729 DUP4 PUSH3 0xAB1 JUMP JUMPDEST SWAP2 SWAP1 POP SSTORE POP POP POP POP POP POP POP POP JUMP JUMPDEST PUSH3 0x741 PUSH3 0x77F JUMP JUMPDEST PUSH1 0x1 PUSH1 0x1 PUSH1 0xA0 SHL SUB DUP2 AND PUSH3 0x771 JUMPI PUSH1 0x40 MLOAD PUSH4 0x1E4FBDF7 PUSH1 0xE0 SHL DUP2 MSTORE PUSH1 0x0 PUSH1 0x4 DUP3 ADD MSTORE PUSH1 0x24 ADD JUMPDEST PUSH1 0x40 MLOAD DUP1 SWAP2 SUB SWAP1 REVERT JUMPDEST PUSH3 0x77C DUP2 PUSH3 0x7AE JUMP JUMPDEST POP JUMP JUMPDEST PUSH1 0x0 SLOAD PUSH1 0x1 PUSH1 0x1 PUSH1 0xA0 SHL SUB AND CALLER EQ PUSH3 0x497 JUMPI PUSH1 0x40 MLOAD PUSH4 0x118CDAA7 PUSH1 0xE0 SHL DUP2 MSTORE CALLER PUSH1 0x4 DUP3 ADD MSTORE PUSH1 0x24 ADD PUSH3 0x768 JUMP JUMPDEST PUSH1 0x0 DUP1 SLOAD PUSH1 0x1 PUSH1 0x1 PUSH1 0xA0 SHL SUB DUP4 DUP2 AND PUSH1 0x1 PUSH1 0x1 PUSH1 0xA0 SHL SUB NOT DUP4 AND DUP2 OR DUP5 SSTORE PUSH1 0x40 MLOAD SWAP2 SWAP1 SWAP3 AND SWAP3 DUP4 SWAP2 PUSH32 0x8BE0079C531659141344CD1FD0A4F28419497F9722A3DAAFE3B4186F6B6457E0 SWAP2 SWAP1 LOG3 POP POP JUMP JUMPDEST PUSH2 0x4486 DUP1 PUSH3 0xCC0 DUP4 CODECOPY ADD SWAP1 JUMP JUMPDEST PUSH1 0x0 DUP1 DUP4 PUSH1 0x1F DUP5 ADD SLT PUSH3 0x81F JUMPI PUSH1 0x0 DUP1 REVERT JUMPDEST POP DUP2 CALLDATALOAD PUSH8 0xFFFFFFFFFFFFFFFF DUP2 GT ISZERO PUSH3 0x838 JUMPI PUSH1 0x0 DUP1 REVERT JUMPDEST PUSH1 0x20 DUP4 ADD SWAP2 POP DUP4 PUSH1 0x20 DUP3 DUP6 ADD ADD GT ISZERO PUSH3 0x851 JUMPI PUSH1 0x0 DUP1 REVERT JUMPDEST SWAP3 POP SWAP3 SWAP1 POP JUMP JUMPDEST PUSH1 0x0 DUP1 PUSH1 0x20 DUP4 DUP6 SUB SLT ISZERO PUSH3 0x86C JUMPI PUSH1 0x0 DUP1 REVERT JUMPDEST DUP3 CALLDATALOAD PUSH8 0xFFFFFFFFFFFFFFFF DUP2 GT ISZERO PUSH3 0x884 JUMPI PUSH1 0x0 DUP1 REVERT JUMPDEST PUSH3 0x892 DUP6 DUP3 DUP7 ADD PUSH3 0x80C JUMP JUMPDEST SWAP1 SWAP7 SWAP1 SWAP6 POP SWAP4 POP POP POP POP JUMP JUMPDEST PUSH1 0x0 JUMPDEST DUP4 DUP2 LT ISZERO PUSH3 0x8BB JUMPI DUP2 DUP2 ADD MLOAD DUP4 DUP3 ADD MSTORE PUSH1 0x20 ADD PUSH3 0x8A1 JUMP JUMPDEST POP POP PUSH1 0x0 SWAP2 ADD MSTORE JUMP JUMPDEST PUSH1 0x0 PUSH1 0x20 DUP1 DUP4 ADD DUP2 DUP5 MSTORE DUP1 DUP6 MLOAD DUP1 DUP4 MSTORE PUSH1 0x40 DUP7 ADD SWAP2 POP PUSH1 0x40 DUP2 PUSH1 0x5 SHL DUP8 ADD ADD SWAP3 POP DUP4 DUP8 ADD PUSH1 0x0 JUMPDEST DUP3 DUP2 LT ISZERO PUSH3 0x935 JUMPI DUP8 DUP6 SUB PUSH1 0x3F NOT ADD DUP5 MSTORE DUP2 MLOAD DUP1 MLOAD DUP1 DUP8 MSTORE PUSH3 0x915 DUP2 DUP10 DUP10 ADD DUP11 DUP6 ADD PUSH3 0x89E JUMP JUMPDEST PUSH1 0x1F ADD PUSH1 0x1F NOT AND SWAP6 SWAP1 SWAP6 ADD DUP7 ADD SWAP5 POP SWAP3 DUP6 ADD SWAP3 SWAP1 DUP6 ADD SWAP1 PUSH1 0x1 ADD PUSH3 0x8EB JUMP JUMPDEST POP SWAP3 SWAP8 SWAP7 POP POP POP POP POP POP POP JUMP JUMPDEST PUSH1 0x0 PUSH1 0x20 DUP3 DUP5 SUB SLT ISZERO PUSH3 0x955 JUMPI PUSH1 0x0 DUP1 REVERT JUMPDEST POP CALLDATALOAD SWAP2 SWAP1 POP JUMP JUMPDEST PUSH1 0x0 DUP1 PUSH1 0x0 DUP1 PUSH1 0x0 DUP1 PUSH1 0x60 DUP8 DUP10 SUB SLT ISZERO PUSH3 0x976 JUMPI PUSH1 0x0 DUP1 REVERT JUMPDEST DUP7 CALLDATALOAD PUSH8 0xFFFFFFFFFFFFFFFF DUP1 DUP3 GT ISZERO PUSH3 0x98F JUMPI PUSH1 0x0 DUP1 REVERT JUMPDEST PUSH3 0x99D DUP11 DUP4 DUP12 ADD PUSH3 0x80C JUMP JUMPDEST SWAP1 SWAP9 POP SWAP7 POP PUSH1 0x20 DUP10 ADD CALLDATALOAD SWAP2 POP DUP1 DUP3 GT ISZERO PUSH3 0x9B7 JUMPI PUSH1 0x0 DUP1 REVERT JUMPDEST PUSH3 0x9C5 DUP11 DUP4 DUP12 ADD PUSH3 0x80C JUMP JUMPDEST SWAP1 SWAP7 POP SWAP5 POP PUSH1 0x40 DUP10 ADD CALLDATALOAD SWAP2 POP DUP1 DUP3 GT ISZERO PUSH3 0x9DF JUMPI PUSH1 0x0 DUP1 REVERT JUMPDEST DUP2 DUP10 ADD SWAP2 POP DUP10 PUSH1 0x1F DUP4 ADD SLT PUSH3 0x9F4 JUMPI PUSH1 0x0 DUP1 REVERT JUMPDEST DUP2 CALLDATALOAD DUP2 DUP2 GT ISZERO PUSH3 0xA04 JUMPI PUSH1 0x0 DUP1 REVERT JUMPDEST DUP11 PUSH1 0x20 DUP3 PUSH1 0x5 SHL DUP6 ADD ADD GT ISZERO PUSH3 0xA1A JUMPI PUSH1 0x0 DUP1 REVERT JUMPDEST PUSH1 0x20 DUP4 ADD SWAP5 POP DUP1 SWAP4 POP POP POP POP SWAP3 SWAP6 POP SWAP3 SWAP6 POP SWAP3 SWAP6 JUMP JUMPDEST PUSH1 0x0 PUSH1 0x20 DUP3 DUP5 SUB SLT ISZERO PUSH3 0xA43 JUMPI PUSH1 0x0 DUP1 REVERT JUMPDEST DUP2 CALLDATALOAD PUSH1 0x1 PUSH1 0x1 PUSH1 0xA0 SHL SUB DUP2 AND DUP2 EQ PUSH3 0x4DD JUMPI PUSH1 0x0 DUP1 REVERT JUMPDEST DUP2 DUP4 DUP3 CALLDATACOPY PUSH1 0x0 SWAP2 ADD SWAP1 DUP2 MSTORE SWAP2 SWAP1 POP JUMP JUMPDEST PUSH1 0x0 PUSH1 0x20 DUP3 DUP5 SUB SLT ISZERO PUSH3 0xA7E JUMPI PUSH1 0x0 DUP1 REVERT JUMPDEST POP MLOAD SWAP2 SWAP1 POP JUMP JUMPDEST PUSH4 0x4E487B71 PUSH1 0xE0 SHL PUSH1 0x0 MSTORE PUSH1 0x11 PUSH1 0x4 MSTORE PUSH1 0x24 PUSH1 0x0 REVERT JUMPDEST DUP1 DUP3 ADD DUP1 DUP3 GT ISZERO PUSH3 0x205 JUMPI PUSH3 0x205 PUSH3 0xA85 JUMP JUMPDEST PUSH1 0x0 PUSH1 0x1 DUP3 ADD PUSH3 0xAC6 JUMPI PUSH3 0xAC6 PUSH3 0xA85 JUMP JUMPDEST POP PUSH1 0x1 ADD SWAP1 JUMP JUMPDEST PUSH4 0x4E487B71 PUSH1 0xE0 SHL PUSH1 0x0 MSTORE PUSH1 0x41 PUSH1 0x4 MSTORE PUSH1 0x24 PUSH1 0x0 REVERT JUMPDEST PUSH1 0x0 PUSH1 0x20 DUP3 DUP5 SUB SLT ISZERO PUSH3 0xAF6 JUMPI PUSH1 0x0 DUP1 REVERT JUMPDEST DUP2 MLOAD PUSH8 0xFFFFFFFFFFFFFFFF DUP1 DUP3 GT ISZERO PUSH3 0xB0F JUMPI PUSH1 0x0 DUP1 REVERT JUMPDEST DUP2 DUP5 ADD SWAP2 POP DUP5 PUSH1 0x1F DUP4 ADD SLT PUSH3 0xB24 JUMPI PUSH1 0x0 DUP1 REVERT JUMPDEST DUP2 MLOAD DUP2 DUP2 GT ISZERO PUSH3 0xB39 JUMPI PUSH3 0xB39 PUSH3 0xACD JUMP JUMPDEST PUSH1 0x40 MLOAD PUSH1 0x1F DUP3 ADD PUSH1 0x1F NOT SWAP1 DUP2 AND PUSH1 0x3F ADD AND DUP2 ADD SWAP1 DUP4 DUP3 GT DUP2 DUP4 LT OR ISZERO PUSH3 0xB64 JUMPI PUSH3 0xB64 PUSH3 0xACD JUMP JUMPDEST DUP2 PUSH1 0x40 MSTORE DUP3 DUP2 MSTORE DUP8 PUSH1 0x20 DUP5 DUP8 ADD ADD GT ISZERO PUSH3 0xB7E JUMPI PUSH1 0x0 DUP1 REVERT JUMPDEST PUSH3 0xB91 DUP4 PUSH1 0x20 DUP4 ADD PUSH1 0x20 DUP9 ADD PUSH3 0x89E JUMP JUMPDEST SWAP8 SWAP7 POP POP POP POP POP POP POP JUMP JUMPDEST PUSH4 0x4E487B71 PUSH1 0xE0 SHL PUSH1 0x0 MSTORE PUSH1 0x32 PUSH1 0x4 MSTORE PUSH1 0x24 PUSH1 0x0 REVERT JUMPDEST DUP2 DUP4 MSTORE DUP2 DUP2 PUSH1 0x20 DUP6 ADD CALLDATACOPY POP PUSH1 0x0 DUP3 DUP3 ADD PUSH1 0x20 SWAP1 DUP2 ADD SWAP2 SWAP1 SWAP2 MSTORE PUSH1 0x1F SWAP1 SWAP2 ADD PUSH1 0x1F NOT AND SWAP1 SWAP2 ADD ADD SWAP1 JUMP JUMPDEST PUSH1 0x1 PUSH1 0x1 PUSH1 0xA0 SHL SUB DUP9 AND DUP2 MSTORE PUSH1 0x80 PUSH1 0x20 DUP1 DUP4 ADD DUP3 SWAP1 MSTORE PUSH1 0x0 SWAP2 PUSH3 0xC03 SWAP1 DUP5 ADD DUP10 DUP12 PUSH3 0xBB2 JUMP JUMPDEST DUP4 DUP2 SUB PUSH1 0x40 DUP6 ADD MSTORE PUSH3 0xC18 DUP2 DUP9 DUP11 PUSH3 0xBB2 JUMP JUMPDEST DUP5 DUP2 SUB PUSH1 0x60 DUP7 ADD MSTORE DUP6 DUP2 MSTORE SWAP1 POP DUP2 DUP2 ADD PUSH1 0x5 DUP7 SWAP1 SHL DUP3 ADD DUP4 ADD DUP8 PUSH1 0x0 JUMPDEST DUP9 DUP2 LT ISZERO PUSH3 0xCAC JUMPI DUP5 DUP4 SUB PUSH1 0x1F NOT ADD DUP5 MSTORE DUP2 CALLDATALOAD CALLDATASIZE DUP12 SWAP1 SUB PUSH1 0x1E NOT ADD DUP2 SLT PUSH3 0xC5D JUMPI PUSH1 0x0 DUP1 REVERT JUMPDEST DUP11 ADD DUP7 DUP2 ADD SWAP1 CALLDATALOAD PUSH8 0xFFFFFFFFFFFFFFFF DUP2 GT ISZERO PUSH3 0xC7A JUMPI PUSH1 0x0 DUP1 REVERT JUMPDEST DUP1 CALLDATASIZE SUB DUP3 SGT ISZERO PUSH3 0xC8A JUMPI PUSH1 0x0 DUP1 REVERT JUMPDEST PUSH3 0xC97 DUP6 DUP3 DUP5 PUSH3 0xBB2 JUMP JUMPDEST SWAP6 DUP9 ADD SWAP6 SWAP5 POP POP POP SWAP1 DUP6 ADD SWAP1 PUSH1 0x1 ADD PUSH3 0xC35 JUMP JUMPDEST POP SWAP1 SWAP14 SWAP13 POP POP POP POP POP POP POP POP POP POP POP POP POP JUMP INVALID PUSH1 0x80 PUSH1 0x40 MSTORE CALLVALUE DUP1 ISZERO PUSH3 0x11 JUMPI PUSH1 0x0 DUP1 REVERT JUMPDEST POP PUSH1 0x40 MLOAD PUSH3 0x4486 CODESIZE SUB DUP1 PUSH3 0x4486 DUP4 CODECOPY DUP2 ADD PUSH1 0x40 DUP2 SWAP1 MSTORE PUSH3 0x34 SWAP2 PUSH3 0x32A JUMP JUMPDEST DUP4 DUP4 DUP4 PUSH1 0x0 PUSH3 0x45 DUP4 DUP3 PUSH3 0x4FA JUMP JUMPDEST POP PUSH1 0x1 PUSH3 0x54 DUP3 DUP3 PUSH3 0x4FA JUMP JUMPDEST POP POP POP PUSH1 0x1 PUSH1 0x1 PUSH1 0xA0 SHL SUB DUP2 AND PUSH3 0x86 JUMPI PUSH1 0x40 MLOAD PUSH4 0x1E4FBDF7 PUSH1 0xE0 SHL DUP2 MSTORE PUSH1 0x0 PUSH1 0x4 DUP3 ADD MSTORE PUSH1 0x24 ADD PUSH1 0x40 MLOAD DUP1 SWAP2 SUB SWAP1 REVERT JUMPDEST PUSH3 0x91 DUP2 PUSH3 0x110 JUMP JUMPDEST POP DUP1 MLOAD PUSH3 0xA7 SWAP1 PUSH1 0xD SWAP1 PUSH1 0x20 DUP5 ADD SWAP1 PUSH3 0x162 JUMP JUMPDEST POP DUP3 DUP3 ADDRESS PUSH1 0x40 MLOAD PUSH3 0xB9 SWAP1 PUSH3 0x1BF JUMP JUMPDEST PUSH3 0xC7 SWAP4 SWAP3 SWAP2 SWAP1 PUSH3 0x5F4 JUMP JUMPDEST PUSH1 0x40 MLOAD DUP1 SWAP2 SUB SWAP1 PUSH1 0x0 CREATE DUP1 ISZERO DUP1 ISZERO PUSH3 0xE4 JUMPI RETURNDATASIZE PUSH1 0x0 DUP1 RETURNDATACOPY RETURNDATASIZE PUSH1 0x0 REVERT JUMPDEST POP PUSH1 0xE DUP1 SLOAD PUSH1 0x1 PUSH1 0x1 PUSH1 0xA0 SHL SUB NOT AND PUSH1 0x1 PUSH1 0x1 PUSH1 0xA0 SHL SUB SWAP3 SWAP1 SWAP3 AND SWAP2 SWAP1 SWAP2 OR SWAP1 SSTORE POP PUSH3 0x636 SWAP3 POP POP POP JUMP JUMPDEST PUSH1 0xB DUP1 SLOAD PUSH1 0x1 PUSH1 0x1 PUSH1 0xA0 SHL SUB DUP4 DUP2 AND PUSH1 0x1 PUSH1 0x1 PUSH1 0xA0 SHL SUB NOT DUP4 AND DUP2 OR SWAP1 SWAP4 SSTORE PUSH1 0x40 MLOAD SWAP2 AND SWAP2 SWAP1 DUP3 SWAP1 PUSH32 0x8BE0079C531659141344CD1FD0A4F28419497F9722A3DAAFE3B4186F6B6457E0 SWAP1 PUSH1 0x0 SWAP1 LOG3 POP POP JUMP JUMPDEST DUP3 DUP1 SLOAD DUP3 DUP3 SSTORE SWAP1 PUSH1 0x0 MSTORE PUSH1 0x20 PUSH1 0x0 KECCAK256 SWAP1 DUP2 ADD SWAP3 DUP3 ISZERO PUSH3 0x1AD JUMPI SWAP2 PUSH1 0x20 MUL DUP3 ADD JUMPDEST DUP3 DUP2 GT ISZERO PUSH3 0x1AD JUMPI DUP3 MLOAD DUP3 SWAP1 PUSH3 0x19C SWAP1 DUP3 PUSH3 0x4FA JUMP JUMPDEST POP SWAP2 PUSH1 0x20 ADD SWAP2 SWAP1 PUSH1 0x1 ADD SWAP1 PUSH3 0x183 JUMP JUMPDEST POP PUSH3 0x1BB SWAP3 SWAP2 POP PUSH3 0x1CD JUMP JUMPDEST POP SWAP1 JUMP JUMPDEST PUSH2 0x1C1B DUP1 PUSH3 0x286B DUP4 CODECOPY ADD SWAP1 JUMP JUMPDEST DUP1 DUP3 GT ISZERO PUSH3 0x1BB JUMPI PUSH1 0x0 PUSH3 0x1E4 DUP3 DUP3 PUSH3 0x1EE JUMP JUMPDEST POP PUSH1 0x1 ADD PUSH3 0x1CD JUMP JUMPDEST POP DUP1 SLOAD PUSH3 0x1FC SWAP1 PUSH3 0x46B JUMP JUMPDEST PUSH1 0x0 DUP3 SSTORE DUP1 PUSH1 0x1F LT PUSH3 0x20D JUMPI POP POP JUMP JUMPDEST PUSH1 0x1F ADD PUSH1 0x20 SWAP1 DIV SWAP1 PUSH1 0x0 MSTORE PUSH1 0x20 PUSH1 0x0 KECCAK256 SWAP1 DUP2 ADD SWAP1 PUSH3 0x22D SWAP2 SWAP1 PUSH3 0x230 JUMP JUMPDEST POP JUMP JUMPDEST JUMPDEST DUP1 DUP3 GT ISZERO PUSH3 0x1BB JUMPI PUSH1 0x0 DUP2 SSTORE PUSH1 0x1 ADD PUSH3 0x231 JUMP JUMPDEST PUSH4 0x4E487B71 PUSH1 0xE0 SHL PUSH1 0x0 MSTORE PUSH1 0x41 PUSH1 0x4 MSTORE PUSH1 0x24 PUSH1 0x0 REVERT JUMPDEST PUSH1 0x40 MLOAD PUSH1 0x1F DUP3 ADD PUSH1 0x1F NOT AND DUP2 ADD PUSH1 0x1 PUSH1 0x1 PUSH1 0x40 SHL SUB DUP2 GT DUP3 DUP3 LT OR ISZERO PUSH3 0x288 JUMPI PUSH3 0x288 PUSH3 0x247 JUMP JUMPDEST PUSH1 0x40 MSTORE SWAP2 SWAP1 POP JUMP JUMPDEST PUSH1 0x0 JUMPDEST DUP4 DUP2 LT ISZERO PUSH3 0x2AD JUMPI DUP2 DUP2 ADD MLOAD DUP4 DUP3 ADD MSTORE PUSH1 0x20 ADD PUSH3 0x293 JUMP JUMPDEST POP POP PUSH1 0x0 SWAP2 ADD MSTORE JUMP JUMPDEST PUSH1 0x0 DUP3 PUSH1 0x1F DUP4 ADD SLT PUSH3 0x2C8 JUMPI PUSH1 0x0 DUP1 REVERT JUMPDEST DUP2 MLOAD PUSH1 0x1 PUSH1 0x1 PUSH1 0x40 SHL SUB DUP2 GT ISZERO PUSH3 0x2E4 JUMPI PUSH3 0x2E4 PUSH3 0x247 JUMP JUMPDEST PUSH3 0x2F9 PUSH1 0x1F DUP3 ADD PUSH1 0x1F NOT AND PUSH1 0x20 ADD PUSH3 0x25D JUMP JUMPDEST DUP2 DUP2 MSTORE DUP5 PUSH1 0x20 DUP4 DUP7 ADD ADD GT ISZERO PUSH3 0x30F JUMPI PUSH1 0x0 DUP1 REVERT JUMPDEST PUSH3 0x322 DUP3 PUSH1 0x20 DUP4 ADD PUSH1 0x20 DUP8 ADD PUSH3 0x290 JUMP JUMPDEST SWAP5 SWAP4 POP POP POP POP JUMP JUMPDEST PUSH1 0x0 DUP1 PUSH1 0x0 DUP1 PUSH1 0x80 DUP6 DUP8 SUB SLT ISZERO PUSH3 0x341 JUMPI PUSH1 0x0 DUP1 REVERT JUMPDEST DUP5 MLOAD PUSH1 0x1 PUSH1 0x1 PUSH1 0xA0 SHL SUB DUP2 AND DUP2 EQ PUSH3 0x359 JUMPI PUSH1 0x0 DUP1 REVERT JUMPDEST PUSH1 0x20 DUP7 DUP2 ADD MLOAD SWAP2 SWAP6 POP SWAP1 PUSH1 0x1 PUSH1 0x1 PUSH1 0x40 SHL SUB DUP1 DUP3 GT ISZERO PUSH3 0x379 JUMPI PUSH1 0x0 DUP1 REVERT JUMPDEST PUSH3 0x387 DUP10 DUP4 DUP11 ADD PUSH3 0x2B6 JUMP JUMPDEST SWAP6 POP PUSH1 0x40 DUP9 ADD MLOAD SWAP2 POP DUP1 DUP3 GT ISZERO PUSH3 0x39E JUMPI PUSH1 0x0 DUP1 REVERT JUMPDEST PUSH3 0x3AC DUP10 DUP4 DUP11 ADD PUSH3 0x2B6 JUMP JUMPDEST SWAP5 POP PUSH1 0x60 DUP9 ADD MLOAD SWAP2 POP DUP1 DUP3 GT ISZERO PUSH3 0x3C3 JUMPI PUSH1 0x0 DUP1 REVERT JUMPDEST DUP2 DUP9 ADD SWAP2 POP DUP9 PUSH1 0x1F DUP4 ADD SLT PUSH3 0x3D8 JUMPI PUSH1 0x0 DUP1 REVERT JUMPDEST DUP2 MLOAD DUP2 DUP2 GT ISZERO PUSH3 0x3ED JUMPI PUSH3 0x3ED PUSH3 0x247 JUMP JUMPDEST DUP1 PUSH1 0x5 SHL PUSH3 0x3FE DUP6 DUP3 ADD PUSH3 0x25D JUMP JUMPDEST SWAP2 DUP3 MSTORE DUP4 DUP2 ADD DUP6 ADD SWAP2 DUP6 DUP2 ADD SWAP1 DUP13 DUP5 GT ISZERO PUSH3 0x419 JUMPI PUSH1 0x0 DUP1 REVERT JUMPDEST DUP7 DUP7 ADD SWAP3 POP JUMPDEST DUP4 DUP4 LT ISZERO PUSH3 0x45A JUMPI DUP3 MLOAD DUP6 DUP2 GT ISZERO PUSH3 0x439 JUMPI PUSH1 0x0 DUP1 DUP2 REVERT JUMPDEST PUSH3 0x449 DUP15 DUP10 DUP4 DUP11 ADD ADD PUSH3 0x2B6 JUMP JUMPDEST DUP4 MSTORE POP SWAP2 DUP7 ADD SWAP2 SWAP1 DUP7 ADD SWAP1 PUSH3 0x41F JUMP JUMPDEST SWAP10 SWAP13 SWAP9 SWAP12 POP SWAP7 SWAP10 POP POP POP POP POP POP POP POP JUMP JUMPDEST PUSH1 0x1 DUP2 DUP2 SHR SWAP1 DUP3 AND DUP1 PUSH3 0x480 JUMPI PUSH1 0x7F DUP3 AND SWAP2 POP JUMPDEST PUSH1 0x20 DUP3 LT DUP2 SUB PUSH3 0x4A1 JUMPI PUSH4 0x4E487B71 PUSH1 0xE0 SHL PUSH1 0x0 MSTORE PUSH1 0x22 PUSH1 0x4 MSTORE PUSH1 0x24 PUSH1 0x0 REVERT JUMPDEST POP SWAP2 SWAP1 POP JUMP JUMPDEST PUSH1 0x1F DUP3 GT ISZERO PUSH3 0x4F5 JUMPI PUSH1 0x0 DUP2 DUP2 MSTORE PUSH1 0x20 DUP2 KECCAK256 PUSH1 0x1F DUP6 ADD PUSH1 0x5 SHR DUP2 ADD PUSH1 0x20 DUP7 LT ISZERO PUSH3 0x4D0 JUMPI POP DUP1 JUMPDEST PUSH1 0x1F DUP6 ADD PUSH1 0x5 SHR DUP3 ADD SWAP2 POP JUMPDEST DUP2 DUP2 LT ISZERO PUSH3 0x4F1 JUMPI DUP3 DUP2 SSTORE PUSH1 0x1 ADD PUSH3 0x4DC JUMP JUMPDEST POP POP POP JUMPDEST POP POP POP JUMP JUMPDEST DUP2 MLOAD PUSH1 0x1 PUSH1 0x1 PUSH1 0x40 SHL SUB DUP2 GT ISZERO PUSH3 0x516 JUMPI PUSH3 0x516 PUSH3 0x247 JUMP JUMPDEST PUSH3 0x52E DUP2 PUSH3 0x527 DUP5 SLOAD PUSH3 0x46B JUMP JUMPDEST DUP5 PUSH3 0x4A7 JUMP JUMPDEST PUSH1 0x20 DUP1 PUSH1 0x1F DUP4 GT PUSH1 0x1 DUP2 EQ PUSH3 0x566 JUMPI PUSH1 0x0 DUP5 ISZERO PUSH3 0x54D JUMPI POP DUP6 DUP4 ADD MLOAD JUMPDEST PUSH1 0x0 NOT PUSH1 0x3 DUP7 SWAP1 SHL SHR NOT AND PUSH1 0x1 DUP6 SWAP1 SHL OR DUP6 SSTORE PUSH3 0x4F1 JUMP JUMPDEST PUSH1 0x0 DUP6 DUP2 MSTORE PUSH1 0x20 DUP2 KECCAK256 PUSH1 0x1F NOT DUP7 AND SWAP2 JUMPDEST DUP3 DUP2 LT ISZERO PUSH3 0x597 JUMPI DUP9 DUP7 ADD MLOAD DUP3 SSTORE SWAP5 DUP5 ADD SWAP5 PUSH1 0x1 SWAP1 SWAP2 ADD SWAP1 DUP5 ADD PUSH3 0x576 JUMP JUMPDEST POP DUP6 DUP3 LT ISZERO PUSH3 0x5B6 JUMPI DUP8 DUP6 ADD MLOAD PUSH1 0x0 NOT PUSH1 0x3 DUP9 SWAP1 SHL PUSH1 0xF8 AND SHR NOT AND DUP2 SSTORE JUMPDEST POP POP POP POP POP PUSH1 0x1 SWAP1 DUP2 SHL ADD SWAP1 SSTORE POP JUMP JUMPDEST PUSH1 0x0 DUP2 MLOAD DUP1 DUP5 MSTORE PUSH3 0x5E0 DUP2 PUSH1 0x20 DUP7 ADD PUSH1 0x20 DUP7 ADD PUSH3 0x290 JUMP JUMPDEST PUSH1 0x1F ADD PUSH1 0x1F NOT AND SWAP3 SWAP1 SWAP3 ADD PUSH1 0x20 ADD SWAP3 SWAP2 POP POP JUMP JUMPDEST PUSH1 0x60 DUP2 MSTORE PUSH1 0x0 PUSH3 0x609 PUSH1 0x60 DUP4 ADD DUP7 PUSH3 0x5C6 JUMP JUMPDEST DUP3 DUP2 SUB PUSH1 0x20 DUP5 ADD MSTORE PUSH3 0x61D DUP2 DUP7 PUSH3 0x5C6 JUMP JUMPDEST SWAP2 POP POP PUSH1 0x1 DUP1 PUSH1 0xA0 SHL SUB DUP4 AND PUSH1 0x40 DUP4 ADD MSTORE SWAP5 SWAP4 POP POP POP POP JUMP JUMPDEST PUSH2 0x2225 DUP1 PUSH3 0x646 PUSH1 0x0 CODECOPY PUSH1 0x0 RETURN INVALID PUSH1 0x80 PUSH1 0x40 MSTORE CALLVALUE DUP1 ISZERO PUSH2 0x10 JUMPI PUSH1 0x0 DUP1 REVERT JUMPDEST POP PUSH1 0x4 CALLDATASIZE LT PUSH2 0x1F0 JUMPI PUSH1 0x0 CALLDATALOAD PUSH1 0xE0 SHR DUP1 PUSH4 0x87F36969 GT PUSH2 0x10F JUMPI DUP1 PUSH4 0xC524812F GT PUSH2 0xA2 JUMPI DUP1 PUSH4 0xE675D1D5 GT PUSH2 0x71 JUMPI DUP1 PUSH4 0xE675D1D5 EQ PUSH2 0x3EA JUMPI DUP1 PUSH4 0xE985E9C5 EQ PUSH2 0x3F2 JUMPI DUP1 PUSH4 0xF2FDE38B EQ PUSH2 0x405 JUMPI DUP1 PUSH4 0xF47C84C5 EQ PUSH2 0x418 JUMPI PUSH1 0x0 DUP1 REVERT JUMPDEST DUP1 PUSH4 0xC524812F EQ PUSH2 0x3A9 JUMPI DUP1 PUSH4 0xC87B56DD EQ PUSH2 0x3B1 JUMPI DUP1 PUSH4 0xD204C45E EQ PUSH2 0x3C4 JUMPI DUP1 PUSH4 0xE4319219 EQ PUSH2 0x3D7 JUMPI PUSH1 0x0 DUP1 REVERT JUMPDEST DUP1 PUSH4 0xA22CB465 GT PUSH2 0xDE JUMPI DUP1 PUSH4 0xA22CB465 EQ PUSH2 0x373 JUMPI DUP1 PUSH4 0xA657EA08 EQ PUSH2 0x386 JUMPI DUP1 PUSH4 0xABCD52D3 EQ PUSH2 0x38E JUMPI DUP1 PUSH4 0xB88D4FDE EQ PUSH2 0x396 JUMPI PUSH1 0x0 DUP1 REVERT JUMPDEST DUP1 PUSH4 0x87F36969 EQ PUSH2 0x334 JUMPI DUP1 PUSH4 0x8DA5CB5B EQ PUSH2 0x347 JUMPI DUP1 PUSH4 0x95D89B41 EQ PUSH2 0x358 JUMPI DUP1 PUSH4 0xA0385E1C EQ PUSH2 0x360 JUMPI PUSH1 0x0 DUP1 REVERT JUMPDEST DUP1 PUSH4 0x31C0BEC7 GT PUSH2 0x187 JUMPI DUP1 PUSH4 0x70A08231 GT PUSH2 0x156 JUMPI DUP1 PUSH4 0x70A08231 EQ PUSH2 0x300 JUMPI DUP1 PUSH4 0x715018A6 EQ PUSH2 0x313 JUMPI DUP1 PUSH4 0x72930DBF EQ PUSH2 0x31B JUMPI DUP1 PUSH4 0x7EB8EF73 EQ PUSH2 0x323 JUMPI PUSH1 0x0 DUP1 REVERT JUMPDEST DUP1 PUSH4 0x31C0BEC7 EQ PUSH2 0x2B2 JUMPI DUP1 PUSH4 0x42842E0E EQ PUSH2 0x2C7 JUMPI DUP1 PUSH4 0x4F6CCCE7 EQ PUSH2 0x2DA JUMPI DUP1 PUSH4 0x6352211E EQ PUSH2 0x2ED JUMPI PUSH1 0x0 DUP1 REVERT JUMPDEST DUP1 PUSH4 0xC7C0C0F GT PUSH2 0x1C3 JUMPI DUP1 PUSH4 0xC7C0C0F EQ PUSH2 0x272 JUMPI DUP1 PUSH4 0x18160DDD EQ PUSH2 0x27A JUMPI DUP1 PUSH4 0x23B872DD EQ PUSH2 0x28C JUMPI DUP1 PUSH4 0x2F745C59 EQ PUSH2 0x29F JUMPI PUSH1 0x0 DUP1 REVERT JUMPDEST DUP1 PUSH4 0x1FFC9A7 EQ PUSH2 0x1F5 JUMPI DUP1 PUSH4 0x6FDDE03 EQ PUSH2 0x21D JUMPI DUP1 PUSH4 0x81812FC EQ PUSH2 0x232 JUMPI DUP1 PUSH4 0x95EA7B3 EQ PUSH2 0x25D JUMPI JUMPDEST PUSH1 0x0 DUP1 REVERT JUMPDEST PUSH2 0x208 PUSH2 0x203 CALLDATASIZE PUSH1 0x4 PUSH2 0x1A56 JUMP JUMPDEST PUSH2 0x421 JUMP JUMPDEST PUSH1 0x40 MLOAD SWAP1 ISZERO ISZERO DUP2 MSTORE PUSH1 0x20 ADD JUMPDEST PUSH1 0x40 MLOAD DUP1 SWAP2 SUB SWAP1 RETURN JUMPDEST PUSH2 0x225 PUSH2 0x432 JUMP JUMPDEST PUSH1 0x40 MLOAD PUSH2 0x214 SWAP2 SWAP1 PUSH2 0x1AC3 JUMP JUMPDEST PUSH2 0x245 PUSH2 0x240 CALLDATASIZE PUSH1 0x4 PUSH2 0x1AD6 JUMP JUMPDEST PUSH2 0x4C4 JUMP JUMPDEST PUSH1 0x40 MLOAD PUSH1 0x1 PUSH1 0x1 PUSH1 0xA0 SHL SUB SWAP1 SWAP2 AND DUP2 MSTORE PUSH1 0x20 ADD PUSH2 0x214 JUMP JUMPDEST PUSH2 0x270 PUSH2 0x26B CALLDATASIZE PUSH1 0x4 PUSH2 0x1B0B JUMP JUMPDEST PUSH2 0x4ED JUMP JUMPDEST STOP JUMPDEST PUSH2 0x270 PUSH2 0x4FC JUMP JUMPDEST PUSH1 0x8 SLOAD JUMPDEST PUSH1 0x40 MLOAD SWAP1 DUP2 MSTORE PUSH1 0x20 ADD PUSH2 0x214 JUMP JUMPDEST PUSH2 0x270 PUSH2 0x29A CALLDATASIZE PUSH1 0x4 PUSH2 0x1B35 JUMP JUMPDEST PUSH2 0x609 JUMP JUMPDEST PUSH2 0x27E PUSH2 0x2AD CALLDATASIZE PUSH1 0x4 PUSH2 0x1B0B JUMP JUMPDEST PUSH2 0x68E JUMP JUMPDEST PUSH2 0x2BA PUSH2 0x6F3 JUMP JUMPDEST PUSH1 0x40 MLOAD PUSH2 0x214 SWAP2 SWAP1 PUSH2 0x1B71 JUMP JUMPDEST PUSH2 0x270 PUSH2 0x2D5 CALLDATASIZE PUSH1 0x4 PUSH2 0x1B35 JUMP JUMPDEST PUSH2 0x769 JUMP JUMPDEST PUSH2 0x27E PUSH2 0x2E8 CALLDATASIZE PUSH1 0x4 PUSH2 0x1AD6 JUMP JUMPDEST PUSH2 0x789 JUMP JUMPDEST PUSH2 0x245 PUSH2 0x2FB CALLDATASIZE PUSH1 0x4 PUSH2 0x1AD6 JUMP JUMPDEST PUSH2 0x7E2 JUMP JUMPDEST PUSH2 0x27E PUSH2 0x30E CALLDATASIZE PUSH1 0x4 PUSH2 0x1BD3 JUMP JUMPDEST PUSH2 0x7ED JUMP JUMPDEST PUSH2 0x270 PUSH2 0x835 JUMP JUMPDEST PUSH2 0x270 PUSH2 0x849 JUMP JUMPDEST PUSH1 0xE SLOAD PUSH1 0x1 PUSH1 0x1 PUSH1 0xA0 SHL SUB AND PUSH2 0x245 JUMP JUMPDEST PUSH2 0x27E PUSH2 0x342 CALLDATASIZE PUSH1 0x4 PUSH2 0x1C9B JUMP JUMPDEST PUSH2 0x879 JUMP JUMPDEST PUSH1 0xB SLOAD PUSH1 0x1 PUSH1 0x1 PUSH1 0xA0 SHL SUB AND PUSH2 0x245 JUMP JUMPDEST PUSH2 0x225 PUSH2 0x904 JUMP JUMPDEST PUSH2 0x270 PUSH2 0x36E CALLDATASIZE PUSH1 0x4 PUSH2 0x1B35 JUMP JUMPDEST PUSH2 0x913 JUMP JUMPDEST PUSH2 0x270 PUSH2 0x381 CALLDATASIZE PUSH1 0x4 PUSH2 0x1CFD JUMP JUMPDEST PUSH2 0x926 JUMP JUMPDEST PUSH2 0x27E PUSH2 0x931 JUMP JUMPDEST PUSH1 0xD SLOAD PUSH2 0x27E JUMP JUMPDEST PUSH2 0x270 PUSH2 0x3A4 CALLDATASIZE PUSH1 0x4 PUSH2 0x1D39 JUMP JUMPDEST PUSH2 0x99E JUMP JUMPDEST PUSH2 0x270 PUSH2 0x9B5 JUMP JUMPDEST PUSH2 0x225 PUSH2 0x3BF CALLDATASIZE PUSH1 0x4 PUSH2 0x1AD6 JUMP JUMPDEST PUSH2 0xAE6 JUMP JUMPDEST PUSH2 0x270 PUSH2 0x3D2 CALLDATASIZE PUSH1 0x4 PUSH2 0x1C9B JUMP JUMPDEST PUSH2 0xAF1 JUMP JUMPDEST PUSH2 0x225 PUSH2 0x3E5 CALLDATASIZE PUSH1 0x4 PUSH2 0x1AD6 JUMP JUMPDEST PUSH2 0xB47 JUMP JUMPDEST PUSH2 0x2BA PUSH2 0xBF3 JUMP JUMPDEST PUSH2 0x208 PUSH2 0x400 CALLDATASIZE PUSH1 0x4 PUSH2 0x1DB5 JUMP JUMPDEST PUSH2 0xC9D JUMP JUMPDEST PUSH2 0x270 PUSH2 0x413 CALLDATASIZE PUSH1 0x4 PUSH2 0x1BD3 JUMP JUMPDEST PUSH2 0xCCB JUMP JUMPDEST PUSH2 0x27E PUSH2 0x2710 DUP2 JUMP JUMPDEST PUSH1 0x0 PUSH2 0x42C DUP3 PUSH2 0xD09 JUMP JUMPDEST SWAP3 SWAP2 POP POP JUMP JUMPDEST PUSH1 0x60 PUSH1 0x0 DUP1 SLOAD PUSH2 0x441 SWAP1 PUSH2 0x1DE8 JUMP JUMPDEST DUP1 PUSH1 0x1F ADD PUSH1 0x20 DUP1 SWAP2 DIV MUL PUSH1 0x20 ADD PUSH1 0x40 MLOAD SWAP1 DUP2 ADD PUSH1 0x40 MSTORE DUP1 SWAP3 SWAP2 SWAP1 DUP2 DUP2 MSTORE PUSH1 0x20 ADD DUP3 DUP1 SLOAD PUSH2 0x46D SWAP1 PUSH2 0x1DE8 JUMP JUMPDEST DUP1 ISZERO PUSH2 0x4BA JUMPI DUP1 PUSH1 0x1F LT PUSH2 0x48F JUMPI PUSH2 0x100 DUP1 DUP4 SLOAD DIV MUL DUP4 MSTORE SWAP2 PUSH1 0x20 ADD SWAP2 PUSH2 0x4BA JUMP JUMPDEST DUP3 ADD SWAP2 SWAP1 PUSH1 0x0 MSTORE PUSH1 0x20 PUSH1 0x0 KECCAK256 SWAP1 JUMPDEST DUP2 SLOAD DUP2 MSTORE SWAP1 PUSH1 0x1 ADD SWAP1 PUSH1 0x20 ADD DUP1 DUP4 GT PUSH2 0x49D JUMPI DUP3 SWAP1 SUB PUSH1 0x1F AND DUP3 ADD SWAP2 JUMPDEST POP POP POP POP POP SWAP1 POP SWAP1 JUMP JUMPDEST PUSH1 0x0 PUSH2 0x4CF DUP3 PUSH2 0xD2E JUMP JUMPDEST POP PUSH1 0x0 DUP3 DUP2 MSTORE PUSH1 0x4 PUSH1 0x20 MSTORE PUSH1 0x40 SWAP1 KECCAK256 SLOAD PUSH1 0x1 PUSH1 0x1 PUSH1 0xA0 SHL SUB AND PUSH2 0x42C JUMP JUMPDEST PUSH2 0x4F8 DUP3 DUP3 CALLER PUSH2 0xD67 JUMP JUMPDEST POP POP JUMP JUMPDEST PUSH1 0xE SLOAD PUSH1 0x40 DUP1 MLOAD PUSH4 0x706FB88F PUSH1 0xE0 SHL DUP2 MSTORE SWAP1 MLOAD PUSH2 0x2710 SWAP3 PUSH1 0x1 PUSH1 0x1 PUSH1 0xA0 SHL SUB AND SWAP2 PUSH4 0x706FB88F SWAP2 PUSH1 0x4 DUP1 DUP4 ADD SWAP3 PUSH1 0x20 SWAP3 SWAP2 SWAP1 DUP3 SWAP1 SUB ADD DUP2 DUP7 GAS STATICCALL ISZERO DUP1 ISZERO PUSH2 0x547 JUMPI RETURNDATASIZE PUSH1 0x0 DUP1 RETURNDATACOPY RETURNDATASIZE PUSH1 0x0 REVERT JUMPDEST POP POP POP POP PUSH1 0x40 MLOAD RETURNDATASIZE PUSH1 0x1F NOT PUSH1 0x1F DUP3 ADD AND DUP3 ADD DUP1 PUSH1 0x40 MSTORE POP DUP2 ADD SWAP1 PUSH2 0x56B SWAP2 SWAP1 PUSH2 0x1E1C JUMP JUMPDEST PUSH1 0xFF AND PUSH1 0xC SLOAD PUSH2 0x57B SWAP2 SWAP1 PUSH2 0x1E55 JUMP JUMPDEST GT ISZERO PUSH2 0x5A2 JUMPI PUSH1 0x40 MLOAD PUSH3 0x461BCD PUSH1 0xE5 SHL DUP2 MSTORE PUSH1 0x4 ADD PUSH2 0x599 SWAP1 PUSH2 0x1E68 JUMP JUMPDEST PUSH1 0x40 MLOAD DUP1 SWAP2 SUB SWAP1 REVERT JUMPDEST PUSH1 0xE SLOAD PUSH1 0x40 MLOAD PUSH4 0x40C10F19 PUSH1 0xE0 SHL DUP2 MSTORE CALLER PUSH1 0x4 DUP3 ADD MSTORE PUSH1 0x1 PUSH1 0x24 DUP3 ADD MSTORE PUSH1 0x1 PUSH1 0x1 PUSH1 0xA0 SHL SUB SWAP1 SWAP2 AND SWAP1 PUSH4 0x40C10F19 SWAP1 PUSH1 0x44 ADD JUMPDEST PUSH1 0x0 PUSH1 0x40 MLOAD DUP1 DUP4 SUB DUP2 PUSH1 0x0 DUP8 DUP1 EXTCODESIZE ISZERO DUP1 ISZERO PUSH2 0x5EF JUMPI PUSH1 0x0 DUP1 REVERT JUMPDEST POP GAS CALL ISZERO DUP1 ISZERO PUSH2 0x603 JUMPI RETURNDATASIZE PUSH1 0x0 DUP1 RETURNDATACOPY RETURNDATASIZE PUSH1 0x0 REVERT JUMPDEST POP POP POP POP JUMP JUMPDEST PUSH1 0x1 PUSH1 0x1 PUSH1 0xA0 SHL SUB DUP3 AND PUSH2 0x633 JUMPI PUSH1 0x40 MLOAD PUSH4 0x32505749 PUSH1 0xE1 SHL DUP2 MSTORE PUSH1 0x0 PUSH1 0x4 DUP3 ADD MSTORE PUSH1 0x24 ADD PUSH2 0x599 JUMP JUMPDEST PUSH1 0x0 PUSH2 0x640 DUP4 DUP4 CALLER PUSH2 0xD74 JUMP JUMPDEST SWAP1 POP DUP4 PUSH1 0x1 PUSH1 0x1 PUSH1 0xA0 SHL SUB AND DUP2 PUSH1 0x1 PUSH1 0x1 PUSH1 0xA0 SHL SUB AND EQ PUSH2 0x603 JUMPI PUSH1 0x40 MLOAD PUSH4 0x64283D7B PUSH1 0xE0 SHL DUP2 MSTORE PUSH1 0x1 PUSH1 0x1 PUSH1 0xA0 SHL SUB DUP1 DUP7 AND PUSH1 0x4 DUP4 ADD MSTORE PUSH1 0x24 DUP3 ADD DUP5 SWAP1 MSTORE DUP3 AND PUSH1 0x44 DUP3 ADD MSTORE PUSH1 0x64 ADD PUSH2 0x599 JUMP JUMPDEST PUSH1 0x0 PUSH2 0x699 DUP4 PUSH2 0x7ED JUMP JUMPDEST DUP3 LT PUSH2 0x6CA JUMPI PUSH1 0x40 MLOAD PUSH4 0x295F44F7 PUSH1 0xE2 SHL DUP2 MSTORE PUSH1 0x1 PUSH1 0x1 PUSH1 0xA0 SHL SUB DUP5 AND PUSH1 0x4 DUP3 ADD MSTORE PUSH1 0x24 DUP2 ADD DUP4 SWAP1 MSTORE PUSH1 0x44 ADD PUSH2 0x599 JUMP JUMPDEST POP PUSH1 0x1 PUSH1 0x1 PUSH1 0xA0 SHL SUB SWAP2 SWAP1 SWAP2 AND PUSH1 0x0 SWAP1 DUP2 MSTORE PUSH1 0x6 PUSH1 0x20 SWAP1 DUP2 MSTORE PUSH1 0x40 DUP1 DUP4 KECCAK256 SWAP4 DUP4 MSTORE SWAP3 SWAP1 MSTORE KECCAK256 SLOAD SWAP1 JUMP JUMPDEST PUSH1 0xE SLOAD PUSH1 0x40 MLOAD PUSH4 0x3EC78A13 PUSH1 0xE0 SHL DUP2 MSTORE CALLER PUSH1 0x4 DUP3 ADD MSTORE PUSH1 0x60 SWAP2 PUSH1 0x1 PUSH1 0x1 PUSH1 0xA0 SHL SUB AND SWAP1 PUSH4 0x3EC78A13 SWAP1 PUSH1 0x24 ADD PUSH1 0x0 PUSH1 0x40 MLOAD DUP1 DUP4 SUB DUP2 DUP7 GAS STATICCALL ISZERO DUP1 ISZERO PUSH2 0x73C JUMPI RETURNDATASIZE PUSH1 0x0 DUP1 RETURNDATACOPY RETURNDATASIZE PUSH1 0x0 REVERT JUMPDEST POP POP POP POP PUSH1 0x40 MLOAD RETURNDATASIZE PUSH1 0x0 DUP3 RETURNDATACOPY PUSH1 0x1F RETURNDATASIZE SWAP1 DUP2 ADD PUSH1 0x1F NOT AND DUP3 ADD PUSH1 0x40 MSTORE PUSH2 0x764 SWAP2 SWAP1 DUP2 ADD SWAP1 PUSH2 0x1E94 JUMP JUMPDEST SWAP1 POP SWAP1 JUMP JUMPDEST PUSH2 0x784 DUP4 DUP4 DUP4 PUSH1 0x40 MLOAD DUP1 PUSH1 0x20 ADD PUSH1 0x40 MSTORE DUP1 PUSH1 0x0 DUP2 MSTORE POP PUSH2 0x99E JUMP JUMPDEST POP POP POP JUMP JUMPDEST PUSH1 0x0 PUSH2 0x794 PUSH1 0x8 SLOAD SWAP1 JUMP JUMPDEST DUP3 LT PUSH2 0x7BD JUMPI PUSH1 0x40 MLOAD PUSH4 0x295F44F7 PUSH1 0xE2 SHL DUP2 MSTORE PUSH1 0x0 PUSH1 0x4 DUP3 ADD MSTORE PUSH1 0x24 DUP2 ADD DUP4 SWAP1 MSTORE PUSH1 0x44 ADD PUSH2 0x599 JUMP JUMPDEST PUSH1 0x8 DUP3 DUP2 SLOAD DUP2 LT PUSH2 0x7D0 JUMPI PUSH2 0x7D0 PUSH2 0x1F93 JUMP JUMPDEST SWAP1 PUSH1 0x0 MSTORE PUSH1 0x20 PUSH1 0x0 KECCAK256 ADD SLOAD SWAP1 POP SWAP2 SWAP1 POP JUMP JUMPDEST PUSH1 0x0 PUSH2 0x42C DUP3 PUSH2 0xD2E JUMP JUMPDEST PUSH1 0x0 PUSH1 0x1 PUSH1 0x1 PUSH1 0xA0 SHL SUB DUP3 AND PUSH2 0x819 JUMPI PUSH1 0x40 MLOAD PUSH4 0x22718AD9 PUSH1 0xE2 SHL DUP2 MSTORE PUSH1 0x0 PUSH1 0x4 DUP3 ADD MSTORE PUSH1 0x24 ADD PUSH2 0x599 JUMP JUMPDEST POP PUSH1 0x1 PUSH1 0x1 PUSH1 0xA0 SHL SUB AND PUSH1 0x0 SWAP1 DUP2 MSTORE PUSH1 0x3 PUSH1 0x20 MSTORE PUSH1 0x40 SWAP1 KECCAK256 SLOAD SWAP1 JUMP JUMPDEST PUSH2 0x83D PUSH2 0xD89 JUMP JUMPDEST PUSH2 0x847 PUSH1 0x0 PUSH2 0xDB6 JUMP JUMPDEST JUMP JUMPDEST PUSH1 0xE SLOAD PUSH1 0x40 MLOAD PUSH4 0x7E2A6351 PUSH1 0xE0 SHL DUP2 MSTORE CALLER PUSH1 0x4 DUP3 ADD MSTORE PUSH1 0x1 PUSH1 0x1 PUSH1 0xA0 SHL SUB SWAP1 SWAP2 AND SWAP1 PUSH4 0x7E2A6351 SWAP1 PUSH1 0x24 ADD PUSH2 0x5D5 JUMP JUMPDEST PUSH1 0x0 DUP1 JUMPDEST PUSH2 0x886 DUP5 PUSH2 0x7ED JUMP JUMPDEST DUP2 LT ISZERO PUSH2 0x8CC JUMPI PUSH2 0x8A3 PUSH2 0x89D PUSH2 0x3BF DUP7 DUP5 PUSH2 0x68E JUMP JUMPDEST DUP5 PUSH2 0xE08 JUMP JUMPDEST ISZERO PUSH2 0x8BA JUMPI PUSH2 0x8B2 DUP5 DUP3 PUSH2 0x68E JUMP JUMPDEST SWAP2 POP POP PUSH2 0x42C JUMP JUMPDEST DUP1 PUSH2 0x8C4 DUP2 PUSH2 0x1FA9 JUMP JUMPDEST SWAP2 POP POP PUSH2 0x87D JUMP JUMPDEST POP DUP2 PUSH1 0x40 MLOAD PUSH1 0x20 ADD PUSH2 0x8DE SWAP2 SWAP1 PUSH2 0x1FC2 JUMP JUMPDEST PUSH1 0x40 DUP1 MLOAD PUSH1 0x1F NOT DUP2 DUP5 SUB ADD DUP2 MSTORE SWAP1 DUP3 SWAP1 MSTORE PUSH3 0x461BCD PUSH1 0xE5 SHL DUP3 MSTORE PUSH2 0x599 SWAP2 PUSH1 0x4 ADD PUSH2 0x1AC3 JUMP JUMPDEST PUSH1 0x60 PUSH1 0x1 DUP1 SLOAD PUSH2 0x441 SWAP1 PUSH2 0x1DE8 JUMP JUMPDEST PUSH2 0x91B PUSH2 0xD89 JUMP JUMPDEST PUSH2 0x784 DUP4 DUP4 DUP4 PUSH2 0xE61 JUMP JUMPDEST PUSH2 0x4F8 CALLER DUP4 DUP4 PUSH2 0xF11 JUMP JUMPDEST PUSH1 0xE SLOAD PUSH1 0x40 MLOAD PUSH4 0x70A08231 PUSH1 0xE0 SHL DUP2 MSTORE CALLER PUSH1 0x4 DUP3 ADD MSTORE PUSH1 0x0 SWAP2 PUSH1 0x1 PUSH1 0x1 PUSH1 0xA0 SHL SUB AND SWAP1 PUSH4 0x70A08231 SWAP1 PUSH1 0x24 ADD PUSH1 0x20 PUSH1 0x40 MLOAD DUP1 DUP4 SUB DUP2 DUP7 GAS STATICCALL ISZERO DUP1 ISZERO PUSH2 0x97A JUMPI RETURNDATASIZE PUSH1 0x0 DUP1 RETURNDATACOPY RETURNDATASIZE PUSH1 0x0 REVERT JUMPDEST POP POP POP POP PUSH1 0x40 MLOAD RETURNDATASIZE PUSH1 0x1F NOT PUSH1 0x1F DUP3 ADD AND DUP3 ADD DUP1 PUSH1 0x40 MSTORE POP DUP2 ADD SWAP1 PUSH2 0x764 SWAP2 SWAP1 PUSH2 0x1FFA JUMP JUMPDEST PUSH2 0x9A9 DUP5 DUP5 DUP5 PUSH2 0x609 JUMP JUMPDEST PUSH2 0x603 DUP5 DUP5 DUP5 DUP5 PUSH2 0xFB0 JUMP JUMPDEST PUSH1 0xE SLOAD PUSH1 0x40 DUP1 MLOAD PUSH4 0x706FB88F PUSH1 0xE0 SHL DUP2 MSTORE SWAP1 MLOAD PUSH2 0x2710 SWAP3 PUSH1 0x1 PUSH1 0x1 PUSH1 0xA0 SHL SUB AND SWAP2 PUSH4 0x706FB88F SWAP2 PUSH1 0x4 DUP1 DUP4 ADD SWAP3 PUSH1 0x20 SWAP3 SWAP2 SWAP1 DUP3 SWAP1 SUB ADD DUP2 DUP7 GAS STATICCALL ISZERO DUP1 ISZERO PUSH2 0xA00 JUMPI RETURNDATASIZE PUSH1 0x0 DUP1 RETURNDATACOPY RETURNDATASIZE PUSH1 0x0 REVERT JUMPDEST POP POP POP POP PUSH1 0x40 MLOAD RETURNDATASIZE PUSH1 0x1F NOT PUSH1 0x1F DUP3 ADD AND DUP3 ADD DUP1 PUSH1 0x40 MSTORE POP DUP2 ADD SWAP1 PUSH2 0xA24 SWAP2 SWAP1 PUSH2 0x1E1C JUMP JUMPDEST PUSH1 0xFF AND PUSH1 0xC SLOAD PUSH2 0xA34 SWAP2 SWAP1 PUSH2 0x1E55 JUMP JUMPDEST GT ISZERO PUSH2 0xA52 JUMPI PUSH1 0x40 MLOAD PUSH3 0x461BCD PUSH1 0xE5 SHL DUP2 MSTORE PUSH1 0x4 ADD PUSH2 0x599 SWAP1 PUSH2 0x1E68 JUMP JUMPDEST PUSH1 0xE SLOAD PUSH1 0x40 MLOAD PUSH4 0x40C10F19 PUSH1 0xE0 SHL DUP2 MSTORE CALLER PUSH1 0x4 DUP3 ADD MSTORE PUSH1 0x1 PUSH1 0x24 DUP3 ADD MSTORE PUSH1 0x1 PUSH1 0x1 PUSH1 0xA0 SHL SUB SWAP1 SWAP2 AND SWAP1 PUSH4 0x40C10F19 SWAP1 PUSH1 0x44 ADD PUSH1 0x0 PUSH1 0x40 MLOAD DUP1 DUP4 SUB DUP2 PUSH1 0x0 DUP8 DUP1 EXTCODESIZE ISZERO DUP1 ISZERO PUSH2 0xA9E JUMPI PUSH1 0x0 DUP1 REVERT JUMPDEST POP GAS CALL ISZERO DUP1 ISZERO PUSH2 0xAB2 JUMPI RETURNDATASIZE PUSH1 0x0 DUP1 RETURNDATACOPY RETURNDATASIZE PUSH1 0x0 REVERT JUMPDEST POP POP PUSH1 0xE SLOAD PUSH1 0x40 MLOAD PUSH4 0x7E2A6351 PUSH1 0xE0 SHL DUP2 MSTORE CALLER PUSH1 0x4 DUP3 ADD MSTORE PUSH1 0x1 PUSH1 0x1 PUSH1 0xA0 SHL SUB SWAP1 SWAP2 AND SWAP3 POP PUSH4 0x7E2A6351 SWAP2 POP PUSH1 0x24 ADD PUSH2 0x5D5 JUMP JUMPDEST PUSH1 0x60 PUSH2 0x42C DUP3 PUSH2 0x10D9 JUMP JUMPDEST PUSH2 0xAF9 PUSH2 0xD89 JUMP JUMPDEST PUSH2 0x2710 PUSH1 0xC SLOAD SUB PUSH2 0xB1C JUMPI PUSH1 0x40 MLOAD PUSH3 0x461BCD PUSH1 0xE5 SHL DUP2 MSTORE PUSH1 0x4 ADD PUSH2 0x599 SWAP1 PUSH2 0x1E68 JUMP JUMPDEST PUSH1 0xC DUP1 SLOAD PUSH1 0x0 SWAP2 DUP3 PUSH2 0xB2D DUP4 PUSH2 0x1FA9 JUMP JUMPDEST SWAP2 SWAP1 POP SSTORE SWAP1 POP PUSH2 0xB3D DUP4 DUP3 PUSH2 0x11E2 JUMP JUMPDEST PUSH2 0x784 DUP2 DUP4 PUSH2 0x11FC JUMP JUMPDEST PUSH1 0xD DUP2 DUP2 SLOAD DUP2 LT PUSH2 0xB57 JUMPI PUSH1 0x0 DUP1 REVERT JUMPDEST SWAP1 PUSH1 0x0 MSTORE PUSH1 0x20 PUSH1 0x0 KECCAK256 ADD PUSH1 0x0 SWAP2 POP SWAP1 POP DUP1 SLOAD PUSH2 0xB72 SWAP1 PUSH2 0x1DE8 JUMP JUMPDEST DUP1 PUSH1 0x1F ADD PUSH1 0x20 DUP1 SWAP2 DIV MUL PUSH1 0x20 ADD PUSH1 0x40 MLOAD SWAP1 DUP2 ADD PUSH1 0x40 MSTORE DUP1 SWAP3 SWAP2 SWAP1 DUP2 DUP2 MSTORE PUSH1 0x20 ADD DUP3 DUP1 SLOAD PUSH2 0xB9E SWAP1 PUSH2 0x1DE8 JUMP JUMPDEST DUP1 ISZERO PUSH2 0xBEB JUMPI DUP1 PUSH1 0x1F LT PUSH2 0xBC0 JUMPI PUSH2 0x100 DUP1 DUP4 SLOAD DIV MUL DUP4 MSTORE SWAP2 PUSH1 0x20 ADD SWAP2 PUSH2 0xBEB JUMP JUMPDEST DUP3 ADD SWAP2 SWAP1 PUSH1 0x0 MSTORE PUSH1 0x20 PUSH1 0x0 KECCAK256 SWAP1 JUMPDEST DUP2 SLOAD DUP2 MSTORE SWAP1 PUSH1 0x1 ADD SWAP1 PUSH1 0x20 ADD DUP1 DUP4 GT PUSH2 0xBCE JUMPI DUP3 SWAP1 SUB PUSH1 0x1F AND DUP3 ADD SWAP2 JUMPDEST POP POP POP POP POP DUP2 JUMP JUMPDEST PUSH1 0x60 PUSH1 0x0 PUSH2 0xC00 CALLER PUSH2 0x7ED JUMP JUMPDEST PUSH8 0xFFFFFFFFFFFFFFFF DUP2 GT ISZERO PUSH2 0xC18 JUMPI PUSH2 0xC18 PUSH2 0x1BEE JUMP JUMPDEST PUSH1 0x40 MLOAD SWAP1 DUP1 DUP3 MSTORE DUP1 PUSH1 0x20 MUL PUSH1 0x20 ADD DUP3 ADD PUSH1 0x40 MSTORE DUP1 ISZERO PUSH2 0xC4B JUMPI DUP2 PUSH1 0x20 ADD JUMPDEST PUSH1 0x60 DUP2 MSTORE PUSH1 0x20 ADD SWAP1 PUSH1 0x1 SWAP1 SUB SWAP1 DUP2 PUSH2 0xC36 JUMPI SWAP1 POP JUMPDEST POP SWAP1 POP PUSH1 0x0 JUMPDEST DUP2 MLOAD DUP2 LT ISZERO PUSH2 0xC97 JUMPI PUSH2 0xC67 PUSH2 0x3BF CALLER DUP4 PUSH2 0x68E JUMP JUMPDEST DUP3 DUP3 DUP2 MLOAD DUP2 LT PUSH2 0xC79 JUMPI PUSH2 0xC79 PUSH2 0x1F93 JUMP JUMPDEST PUSH1 0x20 MUL PUSH1 0x20 ADD ADD DUP2 SWAP1 MSTORE POP DUP1 DUP1 PUSH2 0xC8F SWAP1 PUSH2 0x1FA9 JUMP JUMPDEST SWAP2 POP POP PUSH2 0xC51 JUMP JUMPDEST POP SWAP2 SWAP1 POP JUMP JUMPDEST PUSH1 0x1 PUSH1 0x1 PUSH1 0xA0 SHL SUB SWAP2 DUP3 AND PUSH1 0x0 SWAP1 DUP2 MSTORE PUSH1 0x5 PUSH1 0x20 SWAP1 DUP2 MSTORE PUSH1 0x40 DUP1 DUP4 KECCAK256 SWAP4 SWAP1 SWAP5 AND DUP3 MSTORE SWAP2 SWAP1 SWAP2 MSTORE KECCAK256 SLOAD PUSH1 0xFF AND SWAP1 JUMP JUMPDEST PUSH2 0xCD3 PUSH2 0xD89 JUMP JUMPDEST PUSH1 0x1 PUSH1 0x1 PUSH1 0xA0 SHL SUB DUP2 AND PUSH2 0xCFD JUMPI PUSH1 0x40 MLOAD PUSH4 0x1E4FBDF7 PUSH1 0xE0 SHL DUP2 MSTORE PUSH1 0x0 PUSH1 0x4 DUP3 ADD MSTORE PUSH1 0x24 ADD PUSH2 0x599 JUMP JUMPDEST PUSH2 0xD06 DUP2 PUSH2 0xDB6 JUMP JUMPDEST POP JUMP JUMPDEST PUSH1 0x0 PUSH1 0x1 PUSH1 0x1 PUSH1 0xE0 SHL SUB NOT DUP3 AND PUSH4 0x24832483 PUSH1 0xE1 SHL EQ DUP1 PUSH2 0x42C JUMPI POP PUSH2 0x42C DUP3 PUSH2 0x124C JUMP JUMPDEST PUSH1 0x0 DUP2 DUP2 MSTORE PUSH1 0x2 PUSH1 0x20 MSTORE PUSH1 0x40 DUP2 KECCAK256 SLOAD PUSH1 0x1 PUSH1 0x1 PUSH1 0xA0 SHL SUB AND DUP1 PUSH2 0x42C JUMPI PUSH1 0x40 MLOAD PUSH4 0x7E273289 PUSH1 0xE0 SHL DUP2 MSTORE PUSH1 0x4 DUP2 ADD DUP5 SWAP1 MSTORE PUSH1 0x24 ADD PUSH2 0x599 JUMP JUMPDEST PUSH2 0x784 DUP4 DUP4 DUP4 PUSH1 0x1 PUSH2 0x1271 JUMP JUMPDEST PUSH1 0x0 PUSH2 0xD81 DUP5 DUP5 DUP5 PUSH2 0x1377 JUMP JUMPDEST SWAP5 SWAP4 POP POP POP POP JUMP JUMPDEST PUSH1 0xB SLOAD PUSH1 0x1 PUSH1 0x1 PUSH1 0xA0 SHL SUB AND CALLER EQ PUSH2 0x847 JUMPI PUSH1 0x40 MLOAD PUSH4 0x118CDAA7 PUSH1 0xE0 SHL DUP2 MSTORE CALLER PUSH1 0x4 DUP3 ADD MSTORE PUSH1 0x24 ADD PUSH2 0x599 JUMP JUMPDEST PUSH1 0xB DUP1 SLOAD PUSH1 0x1 PUSH1 0x1 PUSH1 0xA0 SHL SUB DUP4 DUP2 AND PUSH1 0x1 PUSH1 0x1 PUSH1 0xA0 SHL SUB NOT DUP4 AND DUP2 OR SWAP1 SWAP4 SSTORE PUSH1 0x40 MLOAD SWAP2 AND SWAP2 SWAP1 DUP3 SWAP1 PUSH32 0x8BE0079C531659141344CD1FD0A4F28419497F9722A3DAAFE3B4186F6B6457E0 SWAP1 PUSH1 0x0 SWAP1 LOG3 POP POP JUMP JUMPDEST PUSH1 0x0 DUP2 PUSH1 0x40 MLOAD PUSH1 0x20 ADD PUSH2 0xE1B SWAP2 SWAP1 PUSH2 0x2013 JUMP JUMPDEST PUSH1 0x40 MLOAD PUSH1 0x20 DUP2 DUP4 SUB SUB DUP2 MSTORE SWAP1 PUSH1 0x40 MSTORE DUP1 MLOAD SWAP1 PUSH1 0x20 ADD KECCAK256 DUP4 PUSH1 0x40 MLOAD PUSH1 0x20 ADD PUSH2 0xE42 SWAP2 SWAP1 PUSH2 0x2013 JUMP JUMPDEST PUSH1 0x40 MLOAD PUSH1 0x20 DUP2 DUP4 SUB SUB DUP2 MSTORE SWAP1 PUSH1 0x40 MSTORE DUP1 MLOAD SWAP1 PUSH1 0x20 ADD KECCAK256 EQ SWAP1 POP SWAP3 SWAP2 POP POP JUMP JUMPDEST PUSH1 0x1 PUSH1 0x1 PUSH1 0xA0 SHL SUB DUP3 AND PUSH2 0xE8B JUMPI PUSH1 0x40 MLOAD PUSH4 0x32505749 PUSH1 0xE1 SHL DUP2 MSTORE PUSH1 0x0 PUSH1 0x4 DUP3 ADD MSTORE PUSH1 0x24 ADD PUSH2 0x599 JUMP JUMPDEST PUSH1 0x0 PUSH2 0xE99 DUP4 DUP4 PUSH1 0x0 PUSH2 0xD74 JUMP JUMPDEST SWAP1 POP PUSH1 0x1 PUSH1 0x1 PUSH1 0xA0 SHL SUB DUP2 AND PUSH2 0xEC5 JUMPI PUSH1 0x40 MLOAD PUSH4 0x7E273289 PUSH1 0xE0 SHL DUP2 MSTORE PUSH1 0x4 DUP2 ADD DUP4 SWAP1 MSTORE PUSH1 0x24 ADD PUSH2 0x599 JUMP JUMPDEST DUP4 PUSH1 0x1 PUSH1 0x1 PUSH1 0xA0 SHL SUB AND DUP2 PUSH1 0x1 PUSH1 0x1 PUSH1 0xA0 SHL SUB AND EQ PUSH2 0x603 JUMPI PUSH1 0x40 MLOAD PUSH4 0x64283D7B PUSH1 0xE0 SHL DUP2 MSTORE PUSH1 0x1 PUSH1 0x1 PUSH1 0xA0 SHL SUB DUP1 DUP7 AND PUSH1 0x4 DUP4 ADD MSTORE PUSH1 0x24 DUP3 ADD DUP5 SWAP1 MSTORE DUP3 AND PUSH1 0x44 DUP3 ADD MSTORE PUSH1 0x64 ADD PUSH2 0x599 JUMP JUMPDEST PUSH1 0x1 PUSH1 0x1 PUSH1 0xA0 SHL SUB DUP3 AND PUSH2 0xF43 JUMPI PUSH1 0x40 MLOAD PUSH4 0xB611743 PUSH1 0xE3 SHL DUP2 MSTORE PUSH1 0x1 PUSH1 0x1 PUSH1 0xA0 SHL SUB DUP4 AND PUSH1 0x4 DUP3 ADD MSTORE PUSH1 0x24 ADD PUSH2 0x599 JUMP JUMPDEST PUSH1 0x1 PUSH1 0x1 PUSH1 0xA0 SHL SUB DUP4 DUP2 AND PUSH1 0x0 DUP2 DUP2 MSTORE PUSH1 0x5 PUSH1 0x20 SWAP1 DUP2 MSTORE PUSH1 0x40 DUP1 DUP4 KECCAK256 SWAP5 DUP8 AND DUP1 DUP5 MSTORE SWAP5 DUP3 MSTORE SWAP2 DUP3 SWAP1 KECCAK256 DUP1 SLOAD PUSH1 0xFF NOT AND DUP7 ISZERO ISZERO SWAP1 DUP2 OR SWAP1 SWAP2 SSTORE SWAP2 MLOAD SWAP2 DUP3 MSTORE PUSH32 0x17307EAB39AB6107E8899845AD3D59BD9653F200F220920489CA2B5937696C31 SWAP2 ADD PUSH1 0x40 MLOAD DUP1 SWAP2 SUB SWAP1 LOG3 POP POP POP JUMP JUMPDEST PUSH1 0x1 PUSH1 0x1 PUSH1 0xA0 SHL SUB DUP4 AND EXTCODESIZE ISZERO PUSH2 0x603 JUMPI PUSH1 0x40 MLOAD PUSH4 0xA85BD01 PUSH1 0xE1 SHL DUP2 MSTORE PUSH1 0x1 PUSH1 0x1 PUSH1 0xA0 SHL SUB DUP5 AND SWAP1 PUSH4 0x150B7A02 SWAP1 PUSH2 0xFF2 SWAP1 CALLER SWAP1 DUP9 SWAP1 DUP8 SWAP1 DUP8 SWAP1 PUSH1 0x4 ADD PUSH2 0x202F JUMP JUMPDEST PUSH1 0x20 PUSH1 0x40 MLOAD DUP1 DUP4 SUB DUP2 PUSH1 0x0 DUP8 GAS CALL SWAP3 POP POP POP DUP1 ISZERO PUSH2 0x102D JUMPI POP PUSH1 0x40 DUP1 MLOAD PUSH1 0x1F RETURNDATASIZE SWAP1 DUP2 ADD PUSH1 0x1F NOT AND DUP3 ADD SWAP1 SWAP3 MSTORE PUSH2 0x102A SWAP2 DUP2 ADD SWAP1 PUSH2 0x206C JUMP JUMPDEST PUSH1 0x1 JUMPDEST PUSH2 0x1096 JUMPI RETURNDATASIZE DUP1 DUP1 ISZERO PUSH2 0x105B JUMPI PUSH1 0x40 MLOAD SWAP2 POP PUSH1 0x1F NOT PUSH1 0x3F RETURNDATASIZE ADD AND DUP3 ADD PUSH1 0x40 MSTORE RETURNDATASIZE DUP3 MSTORE RETURNDATASIZE PUSH1 0x0 PUSH1 0x20 DUP5 ADD RETURNDATACOPY PUSH2 0x1060 JUMP JUMPDEST PUSH1 0x60 SWAP2 POP JUMPDEST POP DUP1 MLOAD PUSH1 0x0 SUB PUSH2 0x108E JUMPI PUSH1 0x40 MLOAD PUSH4 0x32505749 PUSH1 0xE1 SHL DUP2 MSTORE PUSH1 0x1 PUSH1 0x1 PUSH1 0xA0 SHL SUB DUP6 AND PUSH1 0x4 DUP3 ADD MSTORE PUSH1 0x24 ADD PUSH2 0x599 JUMP JUMPDEST DUP1 MLOAD DUP2 PUSH1 0x20 ADD REVERT JUMPDEST PUSH1 0x1 PUSH1 0x1 PUSH1 0xE0 SHL SUB NOT DUP2 AND PUSH4 0xA85BD01 PUSH1 0xE1 SHL EQ PUSH2 0x10D2 JUMPI PUSH1 0x40 MLOAD PUSH4 0x32505749 PUSH1 0xE1 SHL DUP2 MSTORE PUSH1 0x1 PUSH1 0x1 PUSH1 0xA0 SHL SUB DUP6 AND PUSH1 0x4 DUP3 ADD MSTORE PUSH1 0x24 ADD PUSH2 0x599 JUMP JUMPDEST POP POP POP POP POP JUMP JUMPDEST PUSH1 0x60 PUSH2 0x10E4 DUP3 PUSH2 0xD2E JUMP JUMPDEST POP PUSH1 0x0 DUP3 DUP2 MSTORE PUSH1 0xA PUSH1 0x20 MSTORE PUSH1 0x40 DUP2 KECCAK256 DUP1 SLOAD PUSH2 0x10FE SWAP1 PUSH2 0x1DE8 JUMP JUMPDEST DUP1 PUSH1 0x1F ADD PUSH1 0x20 DUP1 SWAP2 DIV MUL PUSH1 0x20 ADD PUSH1 0x40 MLOAD SWAP1 DUP2 ADD PUSH1 0x40 MSTORE DUP1 SWAP3 SWAP2 SWAP1 DUP2 DUP2 MSTORE PUSH1 0x20 ADD DUP3 DUP1 SLOAD PUSH2 0x112A SWAP1 PUSH2 0x1DE8 JUMP JUMPDEST DUP1 ISZERO PUSH2 0x1177 JUMPI DUP1 PUSH1 0x1F LT PUSH2 0x114C JUMPI PUSH2 0x100 DUP1 DUP4 SLOAD DIV MUL DUP4 MSTORE SWAP2 PUSH1 0x20 ADD SWAP2 PUSH2 0x1177 JUMP JUMPDEST DUP3 ADD SWAP2 SWAP1 PUSH1 0x0 MSTORE PUSH1 0x20 PUSH1 0x0 KECCAK256 SWAP1 JUMPDEST DUP2 SLOAD DUP2 MSTORE SWAP1 PUSH1 0x1 ADD SWAP1 PUSH1 0x20 ADD DUP1 DUP4 GT PUSH2 0x115A JUMPI DUP3 SWAP1 SUB PUSH1 0x1F AND DUP3 ADD SWAP2 JUMPDEST POP POP POP POP POP SWAP1 POP PUSH1 0x0 PUSH2 0x1195 PUSH1 0x40 DUP1 MLOAD PUSH1 0x20 DUP2 ADD SWAP1 SWAP2 MSTORE PUSH1 0x0 DUP2 MSTORE SWAP1 JUMP JUMPDEST SWAP1 POP DUP1 MLOAD PUSH1 0x0 SUB PUSH2 0x11A7 JUMPI POP SWAP3 SWAP2 POP POP JUMP JUMPDEST DUP2 MLOAD ISZERO PUSH2 0x11D9 JUMPI DUP1 DUP3 PUSH1 0x40 MLOAD PUSH1 0x20 ADD PUSH2 0x11C1 SWAP3 SWAP2 SWAP1 PUSH2 0x2089 JUMP JUMPDEST PUSH1 0x40 MLOAD PUSH1 0x20 DUP2 DUP4 SUB SUB DUP2 MSTORE SWAP1 PUSH1 0x40 MSTORE SWAP3 POP POP POP SWAP2 SWAP1 POP JUMP JUMPDEST PUSH2 0xD81 DUP5 PUSH2 0x1444 JUMP JUMPDEST PUSH2 0x4F8 DUP3 DUP3 PUSH1 0x40 MLOAD DUP1 PUSH1 0x20 ADD PUSH1 0x40 MSTORE DUP1 PUSH1 0x0 DUP2 MSTORE POP PUSH2 0x14B9 JUMP JUMPDEST PUSH1 0x0 DUP3 DUP2 MSTORE PUSH1 0xA PUSH1 0x20 MSTORE PUSH1 0x40 SWAP1 KECCAK256 PUSH2 0x1214 DUP3 DUP3 PUSH2 0x2106 JUMP JUMPDEST POP PUSH1 0x40 MLOAD DUP3 DUP2 MSTORE PUSH32 0xF8E1A15ABA9398E019F0B49DF1A4FDE98EE17AE345CB5F6B5E2C27F5033E8CE7 SWAP1 PUSH1 0x20 ADD PUSH1 0x40 MLOAD DUP1 SWAP2 SUB SWAP1 LOG1 POP POP JUMP JUMPDEST PUSH1 0x0 PUSH1 0x1 PUSH1 0x1 PUSH1 0xE0 SHL SUB NOT DUP3 AND PUSH4 0x780E9D63 PUSH1 0xE0 SHL EQ DUP1 PUSH2 0x42C JUMPI POP PUSH2 0x42C DUP3 PUSH2 0x14D0 JUMP JUMPDEST DUP1 DUP1 PUSH2 0x1285 JUMPI POP PUSH1 0x1 PUSH1 0x1 PUSH1 0xA0 SHL SUB DUP3 AND ISZERO ISZERO JUMPDEST ISZERO PUSH2 0x1347 JUMPI PUSH1 0x0 PUSH2 0x1295 DUP5 PUSH2 0xD2E JUMP JUMPDEST SWAP1 POP PUSH1 0x1 PUSH1 0x1 PUSH1 0xA0 SHL SUB DUP4 AND ISZERO DUP1 ISZERO SWAP1 PUSH2 0x12C1 JUMPI POP DUP3 PUSH1 0x1 PUSH1 0x1 PUSH1 0xA0 SHL SUB AND DUP2 PUSH1 0x1 PUSH1 0x1 PUSH1 0xA0 SHL SUB AND EQ ISZERO JUMPDEST DUP1 ISZERO PUSH2 0x12D4 JUMPI POP PUSH2 0x12D2 DUP2 DUP5 PUSH2 0xC9D JUMP JUMPDEST ISZERO JUMPDEST ISZERO PUSH2 0x12FD JUMPI PUSH1 0x40 MLOAD PUSH4 0xA9FBF51F PUSH1 0xE0 SHL DUP2 MSTORE PUSH1 0x1 PUSH1 0x1 PUSH1 0xA0 SHL SUB DUP5 AND PUSH1 0x4 DUP3 ADD MSTORE PUSH1 0x24 ADD PUSH2 0x599 JUMP JUMPDEST DUP2 ISZERO PUSH2 0x1345 JUMPI DUP4 DUP6 PUSH1 0x1 PUSH1 0x1 PUSH1 0xA0 SHL SUB AND DUP3 PUSH1 0x1 PUSH1 0x1 PUSH1 0xA0 SHL SUB AND PUSH32 0x8C5BE1E5EBEC7D5BD14F71427D1E84F3DD0314C0F7B2291E5B200AC8C7C3B925 PUSH1 0x40 MLOAD PUSH1 0x40 MLOAD DUP1 SWAP2 SUB SWAP1 LOG4 JUMPDEST POP JUMPDEST POP POP PUSH1 0x0 SWAP1 DUP2 MSTORE PUSH1 0x4 PUSH1 0x20 MSTORE PUSH1 0x40 SWAP1 KECCAK256 DUP1 SLOAD PUSH1 0x1 PUSH1 0x1 PUSH1 0xA0 SHL SUB NOT AND PUSH1 0x1 PUSH1 0x1 PUSH1 0xA0 SHL SUB SWAP3 SWAP1 SWAP3 AND SWAP2 SWAP1 SWAP2 OR SWAP1 SSTORE JUMP JUMPDEST PUSH1 0x0 DUP1 PUSH2 0x1385 DUP6 DUP6 DUP6 PUSH2 0x1520 JUMP JUMPDEST SWAP1 POP PUSH1 0x1 PUSH1 0x1 PUSH1 0xA0 SHL SUB DUP2 AND PUSH2 0x13E2 JUMPI PUSH2 0x13DD DUP5 PUSH1 0x8 DUP1 SLOAD PUSH1 0x0 DUP4 DUP2 MSTORE PUSH1 0x9 PUSH1 0x20 MSTORE PUSH1 0x40 DUP2 KECCAK256 DUP3 SWAP1 SSTORE PUSH1 0x1 DUP3 ADD DUP4 SSTORE SWAP2 SWAP1 SWAP2 MSTORE PUSH32 0xF3F7A9FE364FAAB93B216DA50A3214154F22A0A2B415B23A84C8169E8B636EE3 ADD SSTORE JUMP JUMPDEST PUSH2 0x1405 JUMP JUMPDEST DUP5 PUSH1 0x1 PUSH1 0x1 PUSH1 0xA0 SHL SUB AND DUP2 PUSH1 0x1 PUSH1 0x1 PUSH1 0xA0 SHL SUB AND EQ PUSH2 0x1405 JUMPI PUSH2 0x1405 DUP2 DUP6 PUSH2 0x1619 JUMP JUMPDEST PUSH1 0x1 PUSH1 0x1 PUSH1 0xA0 SHL SUB DUP6 AND PUSH2 0x1421 JUMPI PUSH2 0x141C DUP5 PUSH2 0x16AA JUMP JUMPDEST PUSH2 0xD81 JUMP JUMPDEST DUP5 PUSH1 0x1 PUSH1 0x1 PUSH1 0xA0 SHL SUB AND DUP2 PUSH1 0x1 PUSH1 0x1 PUSH1 0xA0 SHL SUB AND EQ PUSH2 0xD81 JUMPI PUSH2 0xD81 DUP6 DUP6 PUSH2 0x1759 JUMP JUMPDEST PUSH1 0x60 PUSH2 0x144F DUP3 PUSH2 0xD2E JUMP JUMPDEST POP PUSH1 0x0 PUSH2 0x1467 PUSH1 0x40 DUP1 MLOAD PUSH1 0x20 DUP2 ADD SWAP1 SWAP2 MSTORE PUSH1 0x0 DUP2 MSTORE SWAP1 JUMP JUMPDEST SWAP1 POP PUSH1 0x0 DUP2 MLOAD GT PUSH2 0x1487 JUMPI PUSH1 0x40 MLOAD DUP1 PUSH1 0x20 ADD PUSH1 0x40 MSTORE DUP1 PUSH1 0x0 DUP2 MSTORE POP PUSH2 0x14B2 JUMP JUMPDEST DUP1 PUSH2 0x1491 DUP5 PUSH2 0x17A9 JUMP JUMPDEST PUSH1 0x40 MLOAD PUSH1 0x20 ADD PUSH2 0x14A2 SWAP3 SWAP2 SWAP1 PUSH2 0x2089 JUMP JUMPDEST PUSH1 0x40 MLOAD PUSH1 0x20 DUP2 DUP4 SUB SUB DUP2 MSTORE SWAP1 PUSH1 0x40 MSTORE JUMPDEST SWAP4 SWAP3 POP POP POP JUMP JUMPDEST PUSH2 0x14C3 DUP4 DUP4 PUSH2 0x183C JUMP JUMPDEST PUSH2 0x784 PUSH1 0x0 DUP5 DUP5 DUP5 PUSH2 0xFB0 JUMP JUMPDEST PUSH1 0x0 PUSH1 0x1 PUSH1 0x1 PUSH1 0xE0 SHL SUB NOT DUP3 AND PUSH4 0x80AC58CD PUSH1 0xE0 SHL EQ DUP1 PUSH2 0x1501 JUMPI POP PUSH1 0x1 PUSH1 0x1 PUSH1 0xE0 SHL SUB NOT DUP3 AND PUSH4 0x5B5E139F PUSH1 0xE0 SHL EQ JUMPDEST DUP1 PUSH2 0x42C JUMPI POP PUSH4 0x1FFC9A7 PUSH1 0xE0 SHL PUSH1 0x1 PUSH1 0x1 PUSH1 0xE0 SHL SUB NOT DUP4 AND EQ PUSH2 0x42C JUMP JUMPDEST PUSH1 0x0 DUP3 DUP2 MSTORE PUSH1 0x2 PUSH1 0x20 MSTORE PUSH1 0x40 DUP2 KECCAK256 SLOAD PUSH1 0x1 PUSH1 0x1 PUSH1 0xA0 SHL SUB SWAP1 DUP2 AND SWAP1 DUP4 AND ISZERO PUSH2 0x154D JUMPI PUSH2 0x154D DUP2 DUP5 DUP7 PUSH2 0x18A1 JUMP JUMPDEST PUSH1 0x1 PUSH1 0x1 PUSH1 0xA0 SHL SUB DUP2 AND ISZERO PUSH2 0x158B JUMPI PUSH2 0x156A PUSH1 0x0 DUP6 PUSH1 0x0 DUP1 PUSH2 0x1271 JUMP JUMPDEST PUSH1 0x1 PUSH1 0x1 PUSH1 0xA0 SHL SUB DUP2 AND PUSH1 0x0 SWAP1 DUP2 MSTORE PUSH1 0x3 PUSH1 0x20 MSTORE PUSH1 0x40 SWAP1 KECCAK256 DUP1 SLOAD PUSH1 0x0 NOT ADD SWAP1 SSTORE JUMPDEST PUSH1 0x1 PUSH1 0x1 PUSH1 0xA0 SHL SUB DUP6 AND ISZERO PUSH2 0x15BA JUMPI PUSH1 0x1 PUSH1 0x1 PUSH1 0xA0 SHL SUB DUP6 AND PUSH1 0x0 SWAP1 DUP2 MSTORE PUSH1 0x3 PUSH1 0x20 MSTORE PUSH1 0x40 SWAP1 KECCAK256 DUP1 SLOAD PUSH1 0x1 ADD SWAP1 SSTORE JUMPDEST PUSH1 0x0 DUP5 DUP2 MSTORE PUSH1 0x2 PUSH1 0x20 MSTORE PUSH1 0x40 DUP1 DUP3 KECCAK256 DUP1 SLOAD PUSH1 0x1 PUSH1 0x1 PUSH1 0xA0 SHL SUB NOT AND PUSH1 0x1 PUSH1 0x1 PUSH1 0xA0 SHL SUB DUP10 DUP2 AND SWAP2 DUP3 OR SWAP1 SWAP3 SSTORE SWAP2 MLOAD DUP8 SWAP4 SWAP2 DUP6 AND SWAP2 PUSH32 0xDDF252AD1BE2C89B69C2B068FC378DAA952BA7F163C4A11628F55A4DF523B3EF SWAP2 LOG4 SWAP5 SWAP4 POP POP POP POP JUMP JUMPDEST PUSH1 0x0 PUSH2 0x1624 DUP4 PUSH2 0x7ED JUMP JUMPDEST PUSH1 0x0 DUP4 DUP2 MSTORE PUSH1 0x7 PUSH1 0x20 MSTORE PUSH1 0x40 SWAP1 KECCAK256 SLOAD SWAP1 SWAP2 POP DUP1 DUP3 EQ PUSH2 0x1677 JUMPI PUSH1 0x1 PUSH1 0x1 PUSH1 0xA0 SHL SUB DUP5 AND PUSH1 0x0 SWAP1 DUP2 MSTORE PUSH1 0x6 PUSH1 0x20 SWAP1 DUP2 MSTORE PUSH1 0x40 DUP1 DUP4 KECCAK256 DUP6 DUP5 MSTORE DUP3 MSTORE DUP1 DUP4 KECCAK256 SLOAD DUP5 DUP5 MSTORE DUP2 DUP5 KECCAK256 DUP2 SWAP1 SSTORE DUP4 MSTORE PUSH1 0x7 SWAP1 SWAP2 MSTORE SWAP1 KECCAK256 DUP2 SWAP1 SSTORE JUMPDEST POP PUSH1 0x0 SWAP2 DUP3 MSTORE PUSH1 0x7 PUSH1 0x20 SWAP1 DUP2 MSTORE PUSH1 0x40 DUP1 DUP5 KECCAK256 DUP5 SWAP1 SSTORE PUSH1 0x1 PUSH1 0x1 PUSH1 0xA0 SHL SUB SWAP1 SWAP5 AND DUP4 MSTORE PUSH1 0x6 DUP2 MSTORE DUP4 DUP4 KECCAK256 SWAP2 DUP4 MSTORE MSTORE SWAP1 DUP2 KECCAK256 SSTORE JUMP JUMPDEST PUSH1 0x8 SLOAD PUSH1 0x0 SWAP1 PUSH2 0x16BC SWAP1 PUSH1 0x1 SWAP1 PUSH2 0x21C6 JUMP JUMPDEST PUSH1 0x0 DUP4 DUP2 MSTORE PUSH1 0x9 PUSH1 0x20 MSTORE PUSH1 0x40 DUP2 KECCAK256 SLOAD PUSH1 0x8 DUP1 SLOAD SWAP4 SWAP5 POP SWAP1 SWAP3 DUP5 SWAP1 DUP2 LT PUSH2 0x16E4 JUMPI PUSH2 0x16E4 PUSH2 0x1F93 JUMP JUMPDEST SWAP1 PUSH1 0x0 MSTORE PUSH1 0x20 PUSH1 0x0 KECCAK256 ADD SLOAD SWAP1 POP DUP1 PUSH1 0x8 DUP4 DUP2 SLOAD DUP2 LT PUSH2 0x1705 JUMPI PUSH2 0x1705 PUSH2 0x1F93 JUMP JUMPDEST PUSH1 0x0 SWAP2 DUP3 MSTORE PUSH1 0x20 DUP1 DUP4 KECCAK256 SWAP1 SWAP2 ADD SWAP3 SWAP1 SWAP3 SSTORE DUP3 DUP2 MSTORE PUSH1 0x9 SWAP1 SWAP2 MSTORE PUSH1 0x40 DUP1 DUP3 KECCAK256 DUP5 SWAP1 SSTORE DUP6 DUP3 MSTORE DUP2 KECCAK256 SSTORE PUSH1 0x8 DUP1 SLOAD DUP1 PUSH2 0x173D JUMPI PUSH2 0x173D PUSH2 0x21D9 JUMP JUMPDEST PUSH1 0x1 SWAP1 SUB DUP2 DUP2 SWAP1 PUSH1 0x0 MSTORE PUSH1 0x20 PUSH1 0x0 KECCAK256 ADD PUSH1 0x0 SWAP1 SSTORE SWAP1 SSTORE POP POP POP POP JUMP JUMPDEST PUSH1 0x0 PUSH1 0x1 PUSH2 0x1766 DUP5 PUSH2 0x7ED JUMP JUMPDEST PUSH2 0x1770 SWAP2 SWAP1 PUSH2 0x21C6 JUMP JUMPDEST PUSH1 0x1 PUSH1 0x1 PUSH1 0xA0 SHL SUB SWAP1 SWAP4 AND PUSH1 0x0 SWAP1 DUP2 MSTORE PUSH1 0x6 PUSH1 0x20 SWAP1 DUP2 MSTORE PUSH1 0x40 DUP1 DUP4 KECCAK256 DUP7 DUP5 MSTORE DUP3 MSTORE DUP1 DUP4 KECCAK256 DUP6 SWAP1 SSTORE SWAP4 DUP3 MSTORE PUSH1 0x7 SWAP1 MSTORE SWAP2 SWAP1 SWAP2 KECCAK256 SWAP2 SWAP1 SWAP2 SSTORE POP JUMP JUMPDEST PUSH1 0x60 PUSH1 0x0 PUSH2 0x17B6 DUP4 PUSH2 0x1905 JUMP JUMPDEST PUSH1 0x1 ADD SWAP1 POP PUSH1 0x0 DUP2 PUSH8 0xFFFFFFFFFFFFFFFF DUP2 GT ISZERO PUSH2 0x17D6 JUMPI PUSH2 0x17D6 PUSH2 0x1BEE JUMP JUMPDEST PUSH1 0x40 MLOAD SWAP1 DUP1 DUP3 MSTORE DUP1 PUSH1 0x1F ADD PUSH1 0x1F NOT AND PUSH1 0x20 ADD DUP3 ADD PUSH1 0x40 MSTORE DUP1 ISZERO PUSH2 0x1800 JUMPI PUSH1 0x20 DUP3 ADD DUP2 DUP1 CALLDATASIZE DUP4 CALLDATACOPY ADD SWAP1 POP JUMPDEST POP SWAP1 POP DUP2 DUP2 ADD PUSH1 0x20 ADD JUMPDEST PUSH1 0x0 NOT ADD PUSH16 0x181899199A1A9B1B9C1CB0B131B232B3 PUSH1 0x81 SHL PUSH1 0xA DUP7 MOD BYTE DUP2 MSTORE8 PUSH1 0xA DUP6 DIV SWAP5 POP DUP5 PUSH2 0x180A JUMPI POP SWAP4 SWAP3 POP POP POP JUMP JUMPDEST PUSH1 0x1 PUSH1 0x1 PUSH1 0xA0 SHL SUB DUP3 AND PUSH2 0x1866 JUMPI PUSH1 0x40 MLOAD PUSH4 0x32505749 PUSH1 0xE1 SHL DUP2 MSTORE PUSH1 0x0 PUSH1 0x4 DUP3 ADD MSTORE PUSH1 0x24 ADD PUSH2 0x599 JUMP JUMPDEST PUSH1 0x0 PUSH2 0x1874 DUP4 DUP4 PUSH1 0x0 PUSH2 0xD74 JUMP JUMPDEST SWAP1 POP PUSH1 0x1 PUSH1 0x1 PUSH1 0xA0 SHL SUB DUP2 AND ISZERO PUSH2 0x784 JUMPI PUSH1 0x40 MLOAD PUSH4 0x39E35637 PUSH1 0xE1 SHL DUP2 MSTORE PUSH1 0x0 PUSH1 0x4 DUP3 ADD MSTORE PUSH1 0x24 ADD PUSH2 0x599 JUMP JUMPDEST PUSH2 0x18AC DUP4 DUP4 DUP4 PUSH2 0x19DD JUMP JUMPDEST PUSH2 0x784 JUMPI PUSH1 0x1 PUSH1 0x1 PUSH1 0xA0 SHL SUB DUP4 AND PUSH2 0x18DA JUMPI PUSH1 0x40 MLOAD PUSH4 0x7E273289 PUSH1 0xE0 SHL DUP2 MSTORE PUSH1 0x4 DUP2 ADD DUP3 SWAP1 MSTORE PUSH1 0x24 ADD PUSH2 0x599 JUMP JUMPDEST PUSH1 0x40 MLOAD PUSH4 0x177E802F PUSH1 0xE0 SHL DUP2 MSTORE PUSH1 0x1 PUSH1 0x1 PUSH1 0xA0 SHL SUB DUP4 AND PUSH1 0x4 DUP3 ADD MSTORE PUSH1 0x24 DUP2 ADD DUP3 SWAP1 MSTORE PUSH1 0x44 ADD PUSH2 0x599 JUMP JUMPDEST PUSH1 0x0 DUP1 PUSH19 0x184F03E93FF9F4DAA797ED6E38ED64BF6A1F01 PUSH1 0x40 SHL DUP4 LT PUSH2 0x1944 JUMPI PUSH19 0x184F03E93FF9F4DAA797ED6E38ED64BF6A1F01 PUSH1 0x40 SHL DUP4 DIV SWAP3 POP PUSH1 0x40 ADD JUMPDEST PUSH14 0x4EE2D6D415B85ACEF8100000000 DUP4 LT PUSH2 0x1970 JUMPI PUSH14 0x4EE2D6D415B85ACEF8100000000 DUP4 DIV SWAP3 POP PUSH1 0x20 ADD JUMPDEST PUSH7 0x2386F26FC10000 DUP4 LT PUSH2 0x198E JUMPI PUSH7 0x2386F26FC10000 DUP4 DIV SWAP3 POP PUSH1 0x10 ADD JUMPDEST PUSH4 0x5F5E100 DUP4 LT PUSH2 0x19A6 JUMPI PUSH4 0x5F5E100 DUP4 DIV SWAP3 POP PUSH1 0x8 ADD JUMPDEST PUSH2 0x2710 DUP4 LT PUSH2 0x19BA JUMPI PUSH2 0x2710 DUP4 DIV SWAP3 POP PUSH1 0x4 ADD JUMPDEST PUSH1 0x64 DUP4 LT PUSH2 0x19CC JUMPI PUSH1 0x64 DUP4 DIV SWAP3 POP PUSH1 0x2 ADD JUMPDEST PUSH1 0xA DUP4 LT PUSH2 0x42C JUMPI PUSH1 0x1 ADD SWAP3 SWAP2 POP POP JUMP JUMPDEST PUSH1 0x0 PUSH1 0x1 PUSH1 0x1 PUSH1 0xA0 SHL SUB DUP4 AND ISZERO DUP1 ISZERO SWAP1 PUSH2 0xD81 JUMPI POP DUP3 PUSH1 0x1 PUSH1 0x1 PUSH1 0xA0 SHL SUB AND DUP5 PUSH1 0x1 PUSH1 0x1 PUSH1 0xA0 SHL SUB AND EQ DUP1 PUSH2 0x1A17 JUMPI POP PUSH2 0x1A17 DUP5 DUP5 PUSH2 0xC9D JUMP JUMPDEST DUP1 PUSH2 0xD81 JUMPI POP POP PUSH1 0x0 SWAP1 DUP2 MSTORE PUSH1 0x4 PUSH1 0x20 MSTORE PUSH1 0x40 SWAP1 KECCAK256 SLOAD PUSH1 0x1 PUSH1 0x1 PUSH1 0xA0 SHL SUB SWAP1 DUP2 AND SWAP2 AND EQ SWAP2 SWAP1 POP JUMP JUMPDEST PUSH1 0x1 PUSH1 0x1 PUSH1 0xE0 SHL SUB NOT DUP2 AND DUP2 EQ PUSH2 0xD06 JUMPI PUSH1 0x0 DUP1 REVERT JUMPDEST PUSH1 0x0 PUSH1 0x20 DUP3 DUP5 SUB SLT ISZERO PUSH2 0x1A68 JUMPI PUSH1 0x0 DUP1 REVERT JUMPDEST DUP2 CALLDATALOAD PUSH2 0x14B2 DUP2 PUSH2 0x1A40 JUMP JUMPDEST PUSH1 0x0 JUMPDEST DUP4 DUP2 LT ISZERO PUSH2 0x1A8E JUMPI DUP2 DUP2 ADD MLOAD DUP4 DUP3 ADD MSTORE PUSH1 0x20 ADD PUSH2 0x1A76 JUMP JUMPDEST POP POP PUSH1 0x0 SWAP2 ADD MSTORE JUMP JUMPDEST PUSH1 0x0 DUP2 MLOAD DUP1 DUP5 MSTORE PUSH2 0x1AAF DUP2 PUSH1 0x20 DUP7 ADD PUSH1 0x20 DUP7 ADD PUSH2 0x1A73 JUMP JUMPDEST PUSH1 0x1F ADD PUSH1 0x1F NOT AND SWAP3 SWAP1 SWAP3 ADD PUSH1 0x20 ADD SWAP3 SWAP2 POP POP JUMP JUMPDEST PUSH1 0x20 DUP2 MSTORE PUSH1 0x0 PUSH2 0x14B2 PUSH1 0x20 DUP4 ADD DUP5 PUSH2 0x1A97 JUMP JUMPDEST PUSH1 0x0 PUSH1 0x20 DUP3 DUP5 SUB SLT ISZERO PUSH2 0x1AE8 JUMPI PUSH1 0x0 DUP1 REVERT JUMPDEST POP CALLDATALOAD SWAP2 SWAP1 POP JUMP JUMPDEST DUP1 CALLDATALOAD PUSH1 0x1 PUSH1 0x1 PUSH1 0xA0 SHL SUB DUP2 AND DUP2 EQ PUSH2 0x1B06 JUMPI PUSH1 0x0 DUP1 REVERT JUMPDEST SWAP2 SWAP1 POP JUMP JUMPDEST PUSH1 0x0 DUP1 PUSH1 0x40 DUP4 DUP6 SUB SLT ISZERO PUSH2 0x1B1E JUMPI PUSH1 0x0 DUP1 REVERT JUMPDEST PUSH2 0x1B27 DUP4 PUSH2 0x1AEF JUMP JUMPDEST SWAP5 PUSH1 0x20 SWAP4 SWAP1 SWAP4 ADD CALLDATALOAD SWAP4 POP POP POP JUMP JUMPDEST PUSH1 0x0 DUP1 PUSH1 0x0 PUSH1 0x60 DUP5 DUP7 SUB SLT ISZERO PUSH2 0x1B4A JUMPI PUSH1 0x0 DUP1 REVERT JUMPDEST PUSH2 0x1B53 DUP5 PUSH2 0x1AEF JUMP JUMPDEST SWAP3 POP PUSH2 0x1B61 PUSH1 0x20 DUP6 ADD PUSH2 0x1AEF JUMP JUMPDEST SWAP2 POP PUSH1 0x40 DUP5 ADD CALLDATALOAD SWAP1 POP SWAP3 POP SWAP3 POP SWAP3 JUMP JUMPDEST PUSH1 0x0 PUSH1 0x20 DUP1 DUP4 ADD DUP2 DUP5 MSTORE DUP1 DUP6 MLOAD DUP1 DUP4 MSTORE PUSH1 0x40 DUP7 ADD SWAP2 POP PUSH1 0x40 DUP2 PUSH1 0x5 SHL DUP8 ADD ADD SWAP3 POP DUP4 DUP8 ADD PUSH1 0x0 JUMPDEST DUP3 DUP2 LT ISZERO PUSH2 0x1BC6 JUMPI PUSH1 0x3F NOT DUP9 DUP7 SUB ADD DUP5 MSTORE PUSH2 0x1BB4 DUP6 DUP4 MLOAD PUSH2 0x1A97 JUMP JUMPDEST SWAP5 POP SWAP3 DUP6 ADD SWAP3 SWAP1 DUP6 ADD SWAP1 PUSH1 0x1 ADD PUSH2 0x1B98 JUMP JUMPDEST POP SWAP3 SWAP8 SWAP7 POP POP POP POP POP POP POP JUMP JUMPDEST PUSH1 0x0 PUSH1 0x20 DUP3 DUP5 SUB SLT ISZERO PUSH2 0x1BE5 JUMPI PUSH1 0x0 DUP1 REVERT JUMPDEST PUSH2 0x14B2 DUP3 PUSH2 0x1AEF JUMP JUMPDEST PUSH4 0x4E487B71 PUSH1 0xE0 SHL PUSH1 0x0 MSTORE PUSH1 0x41 PUSH1 0x4 MSTORE PUSH1 0x24 PUSH1 0x0 REVERT JUMPDEST PUSH1 0x40 MLOAD PUSH1 0x1F DUP3 ADD PUSH1 0x1F NOT AND DUP2 ADD PUSH8 0xFFFFFFFFFFFFFFFF DUP2 GT DUP3 DUP3 LT OR ISZERO PUSH2 0x1C2D JUMPI PUSH2 0x1C2D PUSH2 0x1BEE JUMP JUMPDEST PUSH1 0x40 MSTORE SWAP2 SWAP1 POP JUMP JUMPDEST PUSH1 0x0 PUSH8 0xFFFFFFFFFFFFFFFF DUP3 GT ISZERO PUSH2 0x1C4F JUMPI PUSH2 0x1C4F PUSH2 0x1BEE JUMP JUMPDEST POP PUSH1 0x1F ADD PUSH1 0x1F NOT AND PUSH1 0x20 ADD SWAP1 JUMP JUMPDEST PUSH1 0x0 PUSH2 0x1C70 PUSH2 0x1C6B DUP5 PUSH2 0x1C35 JUMP JUMPDEST PUSH2 0x1C04 JUMP JUMPDEST SWAP1 POP DUP3 DUP2 MSTORE DUP4 DUP4 DUP4 ADD GT ISZERO PUSH2 0x1C84 JUMPI PUSH1 0x0 DUP1 REVERT JUMPDEST DUP3 DUP3 PUSH1 0x20 DUP4 ADD CALLDATACOPY PUSH1 0x0 PUSH1 0x20 DUP5 DUP4 ADD ADD MSTORE SWAP4 SWAP3 POP POP POP JUMP JUMPDEST PUSH1 0x0 DUP1 PUSH1 0x40 DUP4 DUP6 SUB SLT ISZERO PUSH2 0x1CAE JUMPI PUSH1 0x0 DUP1 REVERT JUMPDEST PUSH2 0x1CB7 DUP4 PUSH2 0x1AEF JUMP JUMPDEST SWAP2 POP PUSH1 0x20 DUP4 ADD CALLDATALOAD PUSH8 0xFFFFFFFFFFFFFFFF DUP2 GT ISZERO PUSH2 0x1CD3 JUMPI PUSH1 0x0 DUP1 REVERT JUMPDEST DUP4 ADD PUSH1 0x1F DUP2 ADD DUP6 SGT PUSH2 0x1CE4 JUMPI PUSH1 0x0 DUP1 REVERT JUMPDEST PUSH2 0x1CF3 DUP6 DUP3 CALLDATALOAD PUSH1 0x20 DUP5 ADD PUSH2 0x1C5D JUMP JUMPDEST SWAP2 POP POP SWAP3 POP SWAP3 SWAP1 POP JUMP JUMPDEST PUSH1 0x0 DUP1 PUSH1 0x40 DUP4 DUP6 SUB SLT ISZERO PUSH2 0x1D10 JUMPI PUSH1 0x0 DUP1 REVERT JUMPDEST PUSH2 0x1D19 DUP4 PUSH2 0x1AEF JUMP JUMPDEST SWAP2 POP PUSH1 0x20 DUP4 ADD CALLDATALOAD DUP1 ISZERO ISZERO DUP2 EQ PUSH2 0x1D2E JUMPI PUSH1 0x0 DUP1 REVERT JUMPDEST DUP1 SWAP2 POP POP SWAP3 POP SWAP3 SWAP1 POP JUMP JUMPDEST PUSH1 0x0 DUP1 PUSH1 0x0 DUP1 PUSH1 0x80 DUP6 DUP8 SUB SLT ISZERO PUSH2 0x1D4F JUMPI PUSH1 0x0 DUP1 REVERT JUMPDEST PUSH2 0x1D58 DUP6 PUSH2 0x1AEF JUMP JUMPDEST SWAP4 POP PUSH2 0x1D66 PUSH1 0x20 DUP7 ADD PUSH2 0x1AEF JUMP JUMPDEST SWAP3 POP PUSH1 0x40 DUP6 ADD CALLDATALOAD SWAP2 POP PUSH1 0x60 DUP6 ADD CALLDATALOAD PUSH8 0xFFFFFFFFFFFFFFFF DUP2 GT ISZERO PUSH2 0x1D89 JUMPI PUSH1 0x0 DUP1 REVERT JUMPDEST DUP6 ADD PUSH1 0x1F DUP2 ADD DUP8 SGT PUSH2 0x1D9A JUMPI PUSH1 0x0 DUP1 REVERT JUMPDEST PUSH2 0x1DA9 DUP8 DUP3 CALLDATALOAD PUSH1 0x20 DUP5 ADD PUSH2 0x1C5D JUMP JUMPDEST SWAP2 POP POP SWAP3 SWAP6 SWAP2 SWAP5 POP SWAP3 POP JUMP JUMPDEST PUSH1 0x0 DUP1 PUSH1 0x40 DUP4 DUP6 SUB SLT ISZERO PUSH2 0x1DC8 JUMPI PUSH1 0x0 DUP1 REVERT JUMPDEST PUSH2 0x1DD1 DUP4 PUSH2 0x1AEF JUMP JUMPDEST SWAP2 POP PUSH2 0x1DDF PUSH1 0x20 DUP5 ADD PUSH2 0x1AEF JUMP JUMPDEST SWAP1 POP SWAP3 POP SWAP3 SWAP1 POP JUMP JUMPDEST PUSH1 0x1 DUP2 DUP2 SHR SWAP1 DUP3 AND DUP1 PUSH2 0x1DFC JUMPI PUSH1 0x7F DUP3 AND SWAP2 POP JUMPDEST PUSH1 0x20 DUP3 LT DUP2 SUB PUSH2 0xC97 JUMPI PUSH4 0x4E487B71 PUSH1 0xE0 SHL PUSH1 0x0 MSTORE PUSH1 0x22 PUSH1 0x4 MSTORE PUSH1 0x24 PUSH1 0x0 REVERT JUMPDEST PUSH1 0x0 PUSH1 0x20 DUP3 DUP5 SUB SLT ISZERO PUSH2 0x1E2E JUMPI PUSH1 0x0 DUP1 REVERT JUMPDEST DUP2 MLOAD PUSH1 0xFF DUP2 AND DUP2 EQ PUSH2 0x14B2 JUMPI PUSH1 0x0 DUP1 REVERT JUMPDEST PUSH4 0x4E487B71 PUSH1 0xE0 SHL PUSH1 0x0 MSTORE PUSH1 0x11 PUSH1 0x4 MSTORE PUSH1 0x24 PUSH1 0x0 REVERT JUMPDEST DUP1 DUP3 ADD DUP1 DUP3 GT ISZERO PUSH2 0x42C JUMPI PUSH2 0x42C PUSH2 0x1E3F JUMP JUMPDEST PUSH1 0x20 DUP1 DUP3 MSTORE PUSH1 0x12 SWAP1 DUP3 ADD MSTORE PUSH18 0x13585E081D1BDAD95B9CC81C995858DA1959 PUSH1 0x72 SHL PUSH1 0x40 DUP3 ADD MSTORE PUSH1 0x60 ADD SWAP1 JUMP JUMPDEST PUSH1 0x0 PUSH1 0x20 DUP1 DUP4 DUP6 SUB SLT ISZERO PUSH2 0x1EA7 JUMPI PUSH1 0x0 DUP1 REVERT JUMPDEST DUP3 MLOAD PUSH8 0xFFFFFFFFFFFFFFFF DUP1 DUP3 GT ISZERO PUSH2 0x1EBF JUMPI PUSH1 0x0 DUP1 REVERT JUMPDEST DUP2 DUP6 ADD SWAP2 POP DUP6 PUSH1 0x1F DUP4 ADD SLT PUSH2 0x1ED3 JUMPI PUSH1 0x0 DUP1 REVERT JUMPDEST DUP2 MLOAD DUP2 DUP2 GT ISZERO PUSH2 0x1EE5 JUMPI PUSH2 0x1EE5 PUSH2 0x1BEE JUMP JUMPDEST DUP1 PUSH1 0x5 SHL PUSH2 0x1EF4 DUP6 DUP3 ADD PUSH2 0x1C04 JUMP JUMPDEST SWAP2 DUP3 MSTORE DUP4 DUP2 ADD DUP6 ADD SWAP2 DUP6 DUP2 ADD SWAP1 DUP10 DUP5 GT ISZERO PUSH2 0x1F0E JUMPI PUSH1 0x0 DUP1 REVERT JUMPDEST DUP7 DUP7 ADD SWAP3 POP JUMPDEST DUP4 DUP4 LT ISZERO PUSH2 0x1F86 JUMPI DUP3 MLOAD DUP6 DUP2 GT ISZERO PUSH2 0x1F2C JUMPI PUSH1 0x0 DUP1 DUP2 REVERT JUMPDEST DUP7 ADD PUSH1 0x3F DUP2 ADD DUP12 SGT PUSH2 0x1F3E JUMPI PUSH1 0x0 DUP1 DUP2 REVERT JUMPDEST DUP8 DUP2 ADD MLOAD PUSH1 0x40 PUSH2 0x1F50 PUSH2 0x1C6B DUP4 PUSH2 0x1C35 JUMP JUMPDEST DUP3 DUP2 MSTORE DUP14 DUP3 DUP5 DUP7 ADD ADD GT ISZERO PUSH2 0x1F65 JUMPI PUSH1 0x0 DUP1 DUP2 REVERT JUMPDEST PUSH2 0x1F74 DUP4 DUP13 DUP4 ADD DUP5 DUP8 ADD PUSH2 0x1A73 JUMP JUMPDEST DUP6 MSTORE POP POP POP SWAP2 DUP7 ADD SWAP2 SWAP1 DUP7 ADD SWAP1 PUSH2 0x1F14 JUMP JUMPDEST SWAP10 SWAP9 POP POP POP POP POP POP POP POP POP JUMP JUMPDEST PUSH4 0x4E487B71 PUSH1 0xE0 SHL PUSH1 0x0 MSTORE PUSH1 0x32 PUSH1 0x4 MSTORE PUSH1 0x24 PUSH1 0x0 REVERT JUMPDEST PUSH1 0x0 PUSH1 0x1 DUP3 ADD PUSH2 0x1FBB JUMPI PUSH2 0x1FBB PUSH2 0x1E3F JUMP JUMPDEST POP PUSH1 0x1 ADD SWAP1 JUMP JUMPDEST PUSH16 0x21B0B932103737BA1037BBB732B21D1 PUSH1 0x85 SHL DUP2 MSTORE PUSH1 0x0 DUP3 MLOAD PUSH2 0x1FED DUP2 PUSH1 0x10 DUP6 ADD PUSH1 0x20 DUP8 ADD PUSH2 0x1A73 JUMP JUMPDEST SWAP2 SWAP1 SWAP2 ADD PUSH1 0x10 ADD SWAP3 SWAP2 POP POP JUMP JUMPDEST PUSH1 0x0 PUSH1 0x20 DUP3 DUP5 SUB SLT ISZERO PUSH2 0x200C JUMPI PUSH1 0x0 DUP1 REVERT JUMPDEST POP MLOAD SWAP2 SWAP1 POP JUMP JUMPDEST PUSH1 0x0 DUP3 MLOAD PUSH2 0x2025 DUP2 DUP5 PUSH1 0x20 DUP8 ADD PUSH2 0x1A73 JUMP JUMPDEST SWAP2 SWAP1 SWAP2 ADD SWAP3 SWAP2 POP POP JUMP JUMPDEST PUSH1 0x1 PUSH1 0x1 PUSH1 0xA0 SHL SUB DUP6 DUP2 AND DUP3 MSTORE DUP5 AND PUSH1 0x20 DUP3 ADD MSTORE PUSH1 0x40 DUP2 ADD DUP4 SWAP1 MSTORE PUSH1 0x80 PUSH1 0x60 DUP3 ADD DUP2 SWAP1 MSTORE PUSH1 0x0 SWAP1 PUSH2 0x2062 SWAP1 DUP4 ADD DUP5 PUSH2 0x1A97 JUMP JUMPDEST SWAP7 SWAP6 POP POP POP POP POP POP JUMP JUMPDEST PUSH1 0x0 PUSH1 0x20 DUP3 DUP5 SUB SLT ISZERO PUSH2 0x207E JUMPI PUSH1 0x0 DUP1 REVERT JUMPDEST DUP2 MLOAD PUSH2 0x14B2 DUP2 PUSH2 0x1A40 JUMP JUMPDEST PUSH1 0x0 DUP4 MLOAD PUSH2 0x209B DUP2 DUP5 PUSH1 0x20 DUP9 ADD PUSH2 0x1A73 JUMP JUMPDEST DUP4 MLOAD SWAP1 DUP4 ADD SWAP1 PUSH2 0x20AF DUP2 DUP4 PUSH1 0x20 DUP9 ADD PUSH2 0x1A73 JUMP JUMPDEST ADD SWAP5 SWAP4 POP POP POP POP JUMP JUMPDEST PUSH1 0x1F DUP3 GT ISZERO PUSH2 0x784 JUMPI PUSH1 0x0 DUP2 DUP2 MSTORE PUSH1 0x20 DUP2 KECCAK256 PUSH1 0x1F DUP6 ADD PUSH1 0x5 SHR DUP2 ADD PUSH1 0x20 DUP7 LT ISZERO PUSH2 0x20DF JUMPI POP DUP1 JUMPDEST PUSH1 0x1F DUP6 ADD PUSH1 0x5 SHR DUP3 ADD SWAP2 POP JUMPDEST DUP2 DUP2 LT ISZERO PUSH2 0x20FE JUMPI DUP3 DUP2 SSTORE PUSH1 0x1 ADD PUSH2 0x20EB JUMP JUMPDEST POP POP POP POP POP POP JUMP JUMPDEST DUP2 MLOAD PUSH8 0xFFFFFFFFFFFFFFFF DUP2 GT ISZERO PUSH2 0x2120 JUMPI PUSH2 0x2120 PUSH2 0x1BEE JUMP JUMPDEST PUSH2 0x2134 DUP2 PUSH2 0x212E DUP5 SLOAD PUSH2 0x1DE8 JUMP JUMPDEST DUP5 PUSH2 0x20B8 JUMP JUMPDEST PUSH1 0x20 DUP1 PUSH1 0x1F DUP4 GT PUSH1 0x1 DUP2 EQ PUSH2 0x2169 JUMPI PUSH1 0x0 DUP5 ISZERO PUSH2 0x2151 JUMPI POP DUP6 DUP4 ADD MLOAD JUMPDEST PUSH1 0x0 NOT PUSH1 0x3 DUP7 SWAP1 SHL SHR NOT AND PUSH1 0x1 DUP6 SWAP1 SHL OR DUP6 SSTORE PUSH2 0x20FE JUMP JUMPDEST PUSH1 0x0 DUP6 DUP2 MSTORE PUSH1 0x20 DUP2 KECCAK256 PUSH1 0x1F NOT DUP7 AND SWAP2 JUMPDEST DUP3 DUP2 LT ISZERO PUSH2 0x2198 JUMPI DUP9 DUP7 ADD MLOAD DUP3 SSTORE SWAP5 DUP5 ADD SWAP5 PUSH1 0x1 SWAP1 SWAP2 ADD SWAP1 DUP5 ADD PUSH2 0x2179 JUMP JUMPDEST POP DUP6 DUP3 LT ISZERO PUSH2 0x21B6 JUMPI DUP8 DUP6 ADD MLOAD PUSH1 0x0 NOT PUSH1 0x3 DUP9 SWAP1 SHL PUSH1 0xF8 AND SHR NOT AND DUP2 SSTORE JUMPDEST POP POP POP POP POP PUSH1 0x1 SWAP1 DUP2 SHL ADD SWAP1 SSTORE POP JUMP JUMPDEST DUP2 DUP2 SUB DUP2 DUP2 GT ISZERO PUSH2 0x42C JUMPI PUSH2 0x42C PUSH2 0x1E3F JUMP JUMPDEST PUSH4 0x4E487B71 PUSH1 0xE0 SHL PUSH1 0x0 MSTORE PUSH1 0x31 PUSH1 0x4 MSTORE PUSH1 0x24 PUSH1 0x0 REVERT INVALID LOG2 PUSH5 0x6970667358 0x22 SLT KECCAK256 MOD CALLCODE KECCAK256 SMOD JUMP 0xBB 0xEC SWAP8 0xBE LT 0xC4 CALLDATALOAD 0xD5 DUP13 0xB7 INVALID 0xED 0xE6 0xF6 0xC8 JUMPDEST 0xAF PREVRANDAO 0xD3 NUMBER DUP15 0xB0 0xFC 0x2C 0xE1 SHR PUSH12 0x64736F6C6343000814003360 DUP1 PUSH1 0x40 MSTORE PUSH1 0x40 MLOAD PUSH3 0x12 SWAP1 PUSH3 0xCC JUMP JUMPDEST PUSH1 0x40 MLOAD DUP1 SWAP2 SUB SWAP1 PUSH1 0x0 CREATE DUP1 ISZERO DUP1 ISZERO PUSH3 0x2F JUMPI RETURNDATASIZE PUSH1 0x0 DUP1 RETURNDATACOPY RETURNDATASIZE PUSH1 0x0 REVERT JUMPDEST POP PUSH1 0x6 DUP1 SLOAD PUSH1 0x1 PUSH1 0x1 PUSH1 0xA0 SHL SUB NOT AND PUSH1 0x1 PUSH1 0x1 PUSH1 0xA0 SHL SUB SWAP3 SWAP1 SWAP3 AND SWAP2 SWAP1 SWAP2 OR SWAP1 SSTORE CALLVALUE DUP1 ISZERO PUSH3 0x5D JUMPI PUSH1 0x0 DUP1 REVERT JUMPDEST POP PUSH1 0x40 MLOAD PUSH3 0x1C1B CODESIZE SUB DUP1 PUSH3 0x1C1B DUP4 CODECOPY DUP2 ADD PUSH1 0x40 DUP2 SWAP1 MSTORE PUSH3 0x80 SWAP2 PUSH3 0x19F JUMP JUMPDEST DUP3 DUP3 PUSH1 0x3 PUSH3 0x90 DUP4 DUP3 PUSH3 0x2BB JUMP JUMPDEST POP PUSH1 0x4 PUSH3 0x9F DUP3 DUP3 PUSH3 0x2BB JUMP JUMPDEST POP POP PUSH1 0x5 DUP1 SLOAD PUSH1 0x1 PUSH1 0x1 PUSH1 0xA0 SHL SUB NOT AND PUSH1 0x1 PUSH1 0x1 PUSH1 0xA0 SHL SUB SWAP4 SWAP1 SWAP4 AND SWAP3 SWAP1 SWAP3 OR SWAP1 SWAP2 SSTORE POP PUSH3 0x387 SWAP2 POP POP JUMP JUMPDEST PUSH2 0x70D DUP1 PUSH3 0x150E DUP4 CODECOPY ADD SWAP1 JUMP JUMPDEST PUSH4 0x4E487B71 PUSH1 0xE0 SHL PUSH1 0x0 MSTORE PUSH1 0x41 PUSH1 0x4 MSTORE PUSH1 0x24 PUSH1 0x0 REVERT JUMPDEST PUSH1 0x0 DUP3 PUSH1 0x1F DUP4 ADD SLT PUSH3 0x102 JUMPI PUSH1 0x0 DUP1 REVERT JUMPDEST DUP2 MLOAD PUSH1 0x1 PUSH1 0x1 PUSH1 0x40 SHL SUB DUP1 DUP3 GT ISZERO PUSH3 0x11F JUMPI PUSH3 0x11F PUSH3 0xDA JUMP JUMPDEST PUSH1 0x40 MLOAD PUSH1 0x1F DUP4 ADD PUSH1 0x1F NOT SWAP1 DUP2 AND PUSH1 0x3F ADD AND DUP2 ADD SWAP1 DUP3 DUP3 GT DUP2 DUP4 LT OR ISZERO PUSH3 0x14A JUMPI PUSH3 0x14A PUSH3 0xDA JUMP JUMPDEST DUP2 PUSH1 0x40 MSTORE DUP4 DUP2 MSTORE PUSH1 0x20 SWAP3 POP DUP7 DUP4 DUP6 DUP9 ADD ADD GT ISZERO PUSH3 0x167 JUMPI PUSH1 0x0 DUP1 REVERT JUMPDEST PUSH1 0x0 SWAP2 POP JUMPDEST DUP4 DUP3 LT ISZERO PUSH3 0x18B JUMPI DUP6 DUP3 ADD DUP4 ADD MLOAD DUP2 DUP4 ADD DUP5 ADD MSTORE SWAP1 DUP3 ADD SWAP1 PUSH3 0x16C JUMP JUMPDEST PUSH1 0x0 SWAP4 DUP2 ADD SWAP1 SWAP3 ADD SWAP3 SWAP1 SWAP3 MSTORE SWAP5 SWAP4 POP POP POP POP JUMP JUMPDEST PUSH1 0x0 DUP1 PUSH1 0x0 PUSH1 0x60 DUP5 DUP7 SUB SLT ISZERO PUSH3 0x1B5 JUMPI PUSH1 0x0 DUP1 REVERT JUMPDEST DUP4 MLOAD PUSH1 0x1 PUSH1 0x1 PUSH1 0x40 SHL SUB DUP1 DUP3 GT ISZERO PUSH3 0x1CD JUMPI PUSH1 0x0 DUP1 REVERT JUMPDEST PUSH3 0x1DB DUP8 DUP4 DUP9 ADD PUSH3 0xF0 JUMP JUMPDEST SWAP5 POP PUSH1 0x20 DUP7 ADD MLOAD SWAP2 POP DUP1 DUP3 GT ISZERO PUSH3 0x1F2 JUMPI PUSH1 0x0 DUP1 REVERT JUMPDEST POP PUSH3 0x201 DUP7 DUP3 DUP8 ADD PUSH3 0xF0 JUMP JUMPDEST PUSH1 0x40 DUP7 ADD MLOAD SWAP1 SWAP4 POP SWAP1 POP PUSH1 0x1 PUSH1 0x1 PUSH1 0xA0 SHL SUB DUP2 AND DUP2 EQ PUSH3 0x221 JUMPI PUSH1 0x0 DUP1 REVERT JUMPDEST DUP1 SWAP2 POP POP SWAP3 POP SWAP3 POP SWAP3 JUMP JUMPDEST PUSH1 0x1 DUP2 DUP2 SHR SWAP1 DUP3 AND DUP1 PUSH3 0x241 JUMPI PUSH1 0x7F DUP3 AND SWAP2 POP JUMPDEST PUSH1 0x20 DUP3 LT DUP2 SUB PUSH3 0x262 JUMPI PUSH4 0x4E487B71 PUSH1 0xE0 SHL PUSH1 0x0 MSTORE PUSH1 0x22 PUSH1 0x4 MSTORE PUSH1 0x24 PUSH1 0x0 REVERT JUMPDEST POP SWAP2 SWAP1 POP JUMP JUMPDEST PUSH1 0x1F DUP3 GT ISZERO PUSH3 0x2B6 JUMPI PUSH1 0x0 DUP2 DUP2 MSTORE PUSH1 0x20 DUP2 KECCAK256 PUSH1 0x1F DUP6 ADD PUSH1 0x5 SHR DUP2 ADD PUSH1 0x20 DUP7 LT ISZERO PUSH3 0x291 JUMPI POP DUP1 JUMPDEST PUSH1 0x1F DUP6 ADD PUSH1 0x5 SHR DUP3 ADD SWAP2 POP JUMPDEST DUP2 DUP2 LT ISZERO PUSH3 0x2B2 JUMPI DUP3 DUP2 SSTORE PUSH1 0x1 ADD PUSH3 0x29D JUMP JUMPDEST POP POP POP JUMPDEST POP POP POP JUMP JUMPDEST DUP2 MLOAD PUSH1 0x1 PUSH1 0x1 PUSH1 0x40 SHL SUB DUP2 GT ISZERO PUSH3 0x2D7 JUMPI PUSH3 0x2D7 PUSH3 0xDA JUMP JUMPDEST PUSH3 0x2EF DUP2 PUSH3 0x2E8 DUP5 SLOAD PUSH3 0x22C JUMP JUMPDEST DUP5 PUSH3 0x268 JUMP JUMPDEST PUSH1 0x20 DUP1 PUSH1 0x1F DUP4 GT PUSH1 0x1 DUP2 EQ PUSH3 0x327 JUMPI PUSH1 0x0 DUP5 ISZERO PUSH3 0x30E JUMPI POP DUP6 DUP4 ADD MLOAD JUMPDEST PUSH1 0x0 NOT PUSH1 0x3 DUP7 SWAP1 SHL SHR NOT AND PUSH1 0x1 DUP6 SWAP1 SHL OR DUP6 SSTORE PUSH3 0x2B2 JUMP JUMPDEST PUSH1 0x0 DUP6 DUP2 MSTORE PUSH1 0x20 DUP2 KECCAK256 PUSH1 0x1F NOT DUP7 AND SWAP2 JUMPDEST DUP3 DUP2 LT ISZERO PUSH3 0x358 JUMPI DUP9 DUP7 ADD MLOAD DUP3 SSTORE SWAP5 DUP5 ADD SWAP5 PUSH1 0x1 SWAP1 SWAP2 ADD SWAP1 DUP5 ADD PUSH3 0x337 JUMP JUMPDEST POP DUP6 DUP3 LT ISZERO PUSH3 0x377 JUMPI DUP8 DUP6 ADD MLOAD PUSH1 0x0 NOT PUSH1 0x3 DUP9 SWAP1 SHL PUSH1 0xF8 AND SHR NOT AND DUP2 SSTORE JUMPDEST POP POP POP POP POP PUSH1 0x1 SWAP1 DUP2 SHL ADD SWAP1 SSTORE POP JUMP JUMPDEST PUSH2 0x1177 DUP1 PUSH3 0x397 PUSH1 0x0 CODECOPY PUSH1 0x0 RETURN INVALID PUSH1 0x80 PUSH1 0x40 MSTORE CALLVALUE DUP1 ISZERO PUSH2 0x10 JUMPI PUSH1 0x0 DUP1 REVERT JUMPDEST POP PUSH1 0x4 CALLDATASIZE LT PUSH2 0x116 JUMPI PUSH1 0x0 CALLDATALOAD PUSH1 0xE0 SHR DUP1 PUSH4 0x4C549FC8 GT PUSH2 0xA2 JUMPI DUP1 PUSH4 0x7E2A6351 GT PUSH2 0x71 JUMPI DUP1 PUSH4 0x7E2A6351 EQ PUSH2 0x260 JUMPI DUP1 PUSH4 0x95D89B41 EQ PUSH2 0x273 JUMPI DUP1 PUSH4 0xA9059CBB EQ PUSH2 0x27B JUMPI DUP1 PUSH4 0xD605787B EQ PUSH2 0x28E JUMPI DUP1 PUSH4 0xDD62ED3E EQ PUSH2 0x2A1 JUMPI PUSH1 0x0 DUP1 REVERT JUMPDEST DUP1 PUSH4 0x4C549FC8 EQ PUSH2 0x209 JUMPI DUP1 PUSH4 0x706FB88F EQ PUSH2 0x21C JUMPI DUP1 PUSH4 0x70A08231 EQ PUSH2 0x224 JUMPI DUP1 PUSH4 0x79CC6790 EQ PUSH2 0x24D JUMPI PUSH1 0x0 DUP1 REVERT JUMPDEST DUP1 PUSH4 0x23B872DD GT PUSH2 0xE9 JUMPI DUP1 PUSH4 0x23B872DD EQ PUSH2 0x199 JUMPI DUP1 PUSH4 0x313CE567 EQ PUSH2 0x1AC JUMPI DUP1 PUSH4 0x3EC78A13 EQ PUSH2 0x1C1 JUMPI DUP1 PUSH4 0x40C10F19 EQ PUSH2 0x1E1 JUMPI DUP1 PUSH4 0x42966C68 EQ PUSH2 0x1F6 JUMPI PUSH1 0x0 DUP1 REVERT JUMPDEST DUP1 PUSH4 0x6FDDE03 EQ PUSH2 0x11B JUMPI DUP1 PUSH4 0x95EA7B3 EQ PUSH2 0x139 JUMPI DUP1 PUSH4 0xC8138C5 EQ PUSH2 0x15C JUMPI DUP1 PUSH4 0x18160DDD EQ PUSH2 0x187 JUMPI JUMPDEST PUSH1 0x0 DUP1 REVERT JUMPDEST PUSH2 0x123 PUSH2 0x2DA JUMP JUMPDEST PUSH1 0x40 MLOAD PUSH2 0x130 SWAP2 SWAP1 PUSH2 0xC6D JUMP JUMPDEST PUSH1 0x40 MLOAD DUP1 SWAP2 SUB SWAP1 RETURN JUMPDEST PUSH2 0x14C PUSH2 0x147 CALLDATASIZE PUSH1 0x4 PUSH2 0xCA3 JUMP JUMPDEST PUSH2 0x36C JUMP JUMPDEST PUSH1 0x40 MLOAD SWAP1 ISZERO ISZERO DUP2 MSTORE PUSH1 0x20 ADD PUSH2 0x130 JUMP JUMPDEST PUSH1 0x5 SLOAD PUSH2 0x16F SWAP1 PUSH1 0x1 PUSH1 0x1 PUSH1 0xA0 SHL SUB AND DUP2 JUMP JUMPDEST PUSH1 0x40 MLOAD PUSH1 0x1 PUSH1 0x1 PUSH1 0xA0 SHL SUB SWAP1 SWAP2 AND DUP2 MSTORE PUSH1 0x20 ADD PUSH2 0x130 JUMP JUMPDEST PUSH1 0x2 SLOAD JUMPDEST PUSH1 0x40 MLOAD SWAP1 DUP2 MSTORE PUSH1 0x20 ADD PUSH2 0x130 JUMP JUMPDEST PUSH2 0x14C PUSH2 0x1A7 CALLDATASIZE PUSH1 0x4 PUSH2 0xCCD JUMP JUMPDEST PUSH2 0x386 JUMP JUMPDEST PUSH1 0x12 JUMPDEST PUSH1 0x40 MLOAD PUSH1 0xFF SWAP1 SWAP2 AND DUP2 MSTORE PUSH1 0x20 ADD PUSH2 0x130 JUMP JUMPDEST PUSH2 0x1D4 PUSH2 0x1CF CALLDATASIZE PUSH1 0x4 PUSH2 0xD09 JUMP JUMPDEST PUSH2 0x3AA JUMP JUMPDEST PUSH1 0x40 MLOAD PUSH2 0x130 SWAP2 SWAP1 PUSH2 0xD7C JUMP JUMPDEST PUSH2 0x1F4 PUSH2 0x1EF CALLDATASIZE PUSH1 0x4 PUSH2 0xCA3 JUMP JUMPDEST PUSH2 0x499 JUMP JUMPDEST STOP JUMPDEST PUSH2 0x1F4 PUSH2 0x204 CALLDATASIZE PUSH1 0x4 PUSH2 0xD8F JUMP JUMPDEST PUSH2 0x4A7 JUMP JUMPDEST PUSH2 0x123 PUSH2 0x217 CALLDATASIZE PUSH1 0x4 PUSH2 0xCA3 JUMP JUMPDEST PUSH2 0x4B4 JUMP JUMPDEST PUSH2 0x1AF PUSH1 0xA DUP2 JUMP JUMPDEST PUSH2 0x18B PUSH2 0x232 CALLDATASIZE PUSH1 0x4 PUSH2 0xD09 JUMP JUMPDEST PUSH1 0x1 PUSH1 0x1 PUSH1 0xA0 SHL SUB AND PUSH1 0x0 SWAP1 DUP2 MSTORE PUSH1 0x20 DUP2 SWAP1 MSTORE PUSH1 0x40 SWAP1 KECCAK256 SLOAD SWAP1 JUMP JUMPDEST PUSH2 0x1F4 PUSH2 0x25B CALLDATASIZE PUSH1 0x4 PUSH2 0xCA3 JUMP JUMPDEST PUSH2 0x56D JUMP JUMPDEST PUSH2 0x1F4 PUSH2 0x26E CALLDATASIZE PUSH1 0x4 PUSH2 0xD09 JUMP JUMPDEST PUSH2 0x582 JUMP JUMPDEST PUSH2 0x123 PUSH2 0x7E4 JUMP JUMPDEST PUSH2 0x14C PUSH2 0x289 CALLDATASIZE PUSH1 0x4 PUSH2 0xCA3 JUMP JUMPDEST PUSH2 0x7F3 JUMP JUMPDEST PUSH1 0x6 SLOAD PUSH2 0x16F SWAP1 PUSH1 0x1 PUSH1 0x1 PUSH1 0xA0 SHL SUB AND DUP2 JUMP JUMPDEST PUSH2 0x18B PUSH2 0x2AF CALLDATASIZE PUSH1 0x4 PUSH2 0xDA8 JUMP JUMPDEST PUSH1 0x1 PUSH1 0x1 PUSH1 0xA0 SHL SUB SWAP2 DUP3 AND PUSH1 0x0 SWAP1 DUP2 MSTORE PUSH1 0x1 PUSH1 0x20 SWAP1 DUP2 MSTORE PUSH1 0x40 DUP1 DUP4 KECCAK256 SWAP4 SWAP1 SWAP5 AND DUP3 MSTORE SWAP2 SWAP1 SWAP2 MSTORE KECCAK256 SLOAD SWAP1 JUMP JUMPDEST PUSH1 0x60 PUSH1 0x3 DUP1 SLOAD PUSH2 0x2E9 SWAP1 PUSH2 0xDDB JUMP JUMPDEST DUP1 PUSH1 0x1F ADD PUSH1 0x20 DUP1 SWAP2 DIV MUL PUSH1 0x20 ADD PUSH1 0x40 MLOAD SWAP1 DUP2 ADD PUSH1 0x40 MSTORE DUP1 SWAP3 SWAP2 SWAP1 DUP2 DUP2 MSTORE PUSH1 0x20 ADD DUP3 DUP1 SLOAD PUSH2 0x315 SWAP1 PUSH2 0xDDB JUMP JUMPDEST DUP1 ISZERO PUSH2 0x362 JUMPI DUP1 PUSH1 0x1F LT PUSH2 0x337 JUMPI PUSH2 0x100 DUP1 DUP4 SLOAD DIV MUL DUP4 MSTORE SWAP2 PUSH1 0x20 ADD SWAP2 PUSH2 0x362 JUMP JUMPDEST DUP3 ADD SWAP2 SWAP1 PUSH1 0x0 MSTORE PUSH1 0x20 PUSH1 0x0 KECCAK256 SWAP1 JUMPDEST DUP2 SLOAD DUP2 MSTORE SWAP1 PUSH1 0x1 ADD SWAP1 PUSH1 0x20 ADD DUP1 DUP4 GT PUSH2 0x345 JUMPI DUP3 SWAP1 SUB PUSH1 0x1F AND DUP3 ADD SWAP2 JUMPDEST POP POP POP POP POP SWAP1 POP SWAP1 JUMP JUMPDEST PUSH1 0x0 CALLER PUSH2 0x37A DUP2 DUP6 DUP6 PUSH2 0x801 JUMP JUMPDEST PUSH1 0x1 SWAP2 POP POP JUMPDEST SWAP3 SWAP2 POP POP JUMP JUMPDEST PUSH1 0x0 CALLER PUSH2 0x394 DUP6 DUP3 DUP6 PUSH2 0x813 JUMP JUMPDEST PUSH2 0x39F DUP6 DUP6 DUP6 PUSH2 0x896 JUMP JUMPDEST POP PUSH1 0x1 SWAP5 SWAP4 POP POP POP POP JUMP JUMPDEST PUSH1 0x1 PUSH1 0x1 PUSH1 0xA0 SHL SUB DUP2 AND PUSH1 0x0 SWAP1 DUP2 MSTORE PUSH1 0x7 PUSH1 0x20 SWAP1 DUP2 MSTORE PUSH1 0x40 DUP1 DUP4 KECCAK256 DUP1 SLOAD DUP3 MLOAD DUP2 DUP6 MUL DUP2 ADD DUP6 ADD SWAP1 SWAP4 MSTORE DUP1 DUP4 MSTORE PUSH1 0x60 SWAP5 SWAP3 SWAP4 SWAP2 SWAP3 SWAP1 SWAP2 DUP5 ADD JUMPDEST DUP3 DUP3 LT ISZERO PUSH2 0x48E JUMPI DUP4 DUP3 SWAP1 PUSH1 0x0 MSTORE PUSH1 0x20 PUSH1 0x0 KECCAK256 ADD DUP1 SLOAD PUSH2 0x401 SWAP1 PUSH2 0xDDB JUMP JUMPDEST DUP1 PUSH1 0x1F ADD PUSH1 0x20 DUP1 SWAP2 DIV MUL PUSH1 0x20 ADD PUSH1 0x40 MLOAD SWAP1 DUP2 ADD PUSH1 0x40 MSTORE DUP1 SWAP3 SWAP2 SWAP1 DUP2 DUP2 MSTORE PUSH1 0x20 ADD DUP3 DUP1 SLOAD PUSH2 0x42D SWAP1 PUSH2 0xDDB JUMP JUMPDEST DUP1 ISZERO PUSH2 0x47A JUMPI DUP1 PUSH1 0x1F LT PUSH2 0x44F JUMPI PUSH2 0x100 DUP1 DUP4 SLOAD DIV MUL DUP4 MSTORE SWAP2 PUSH1 0x20 ADD SWAP2 PUSH2 0x47A JUMP JUMPDEST DUP3 ADD SWAP2 SWAP1 PUSH1 0x0 MSTORE PUSH1 0x20 PUSH1 0x0 KECCAK256 SWAP1 JUMPDEST DUP2 SLOAD DUP2 MSTORE SWAP1 PUSH1 0x1 ADD SWAP1 PUSH1 0x20 ADD DUP1 DUP4 GT PUSH2 0x45D JUMPI DUP3 SWAP1 SUB PUSH1 0x1F AND DUP3 ADD SWAP2 JUMPDEST POP POP POP POP POP DUP2 MSTORE PUSH1 0x20 ADD SWAP1 PUSH1 0x1 ADD SWAP1 PUSH2 0x3E2 JUMP JUMPDEST POP POP POP POP SWAP1 POP SWAP2 SWAP1 POP JUMP JUMPDEST PUSH2 0x4A3 DUP3 DUP3 PUSH2 0x8F5 JUMP JUMPDEST POP POP JUMP JUMPDEST PUSH2 0x4B1 CALLER DUP3 PUSH2 0x92B JUMP JUMPDEST POP JUMP JUMPDEST PUSH1 0x7 PUSH1 0x20 MSTORE DUP2 PUSH1 0x0 MSTORE PUSH1 0x40 PUSH1 0x0 KECCAK256 DUP2 DUP2 SLOAD DUP2 LT PUSH2 0x4D0 JUMPI PUSH1 0x0 DUP1 REVERT JUMPDEST SWAP1 PUSH1 0x0 MSTORE PUSH1 0x20 PUSH1 0x0 KECCAK256 ADD PUSH1 0x0 SWAP2 POP SWAP2 POP POP DUP1 SLOAD PUSH2 0x4EC SWAP1 PUSH2 0xDDB JUMP JUMPDEST DUP1 PUSH1 0x1F ADD PUSH1 0x20 DUP1 SWAP2 DIV MUL PUSH1 0x20 ADD PUSH1 0x40 MLOAD SWAP1 DUP2 ADD PUSH1 0x40 MSTORE DUP1 SWAP3 SWAP2 SWAP1 DUP2 DUP2 MSTORE PUSH1 0x20 ADD DUP3 DUP1 SLOAD PUSH2 0x518 SWAP1 PUSH2 0xDDB JUMP JUMPDEST DUP1 ISZERO PUSH2 0x565 JUMPI DUP1 PUSH1 0x1F LT PUSH2 0x53A JUMPI PUSH2 0x100 DUP1 DUP4 SLOAD DIV MUL DUP4 MSTORE SWAP2 PUSH1 0x20 ADD SWAP2 PUSH2 0x565 JUMP JUMPDEST DUP3 ADD SWAP2 SWAP1 PUSH1 0x0 MSTORE PUSH1 0x20 PUSH1 0x0 KECCAK256 SWAP1 JUMPDEST DUP2 SLOAD DUP2 MSTORE SWAP1 PUSH1 0x1 ADD SWAP1 PUSH1 0x20 ADD DUP1 DUP4 GT PUSH2 0x548 JUMPI DUP3 SWAP1 SUB PUSH1 0x1F AND DUP3 ADD SWAP2 JUMPDEST POP POP POP POP POP DUP2 JUMP JUMPDEST PUSH2 0x578 DUP3 CALLER DUP4 PUSH2 0x813 JUMP JUMPDEST PUSH2 0x4A3 DUP3 DUP3 PUSH2 0x92B JUMP JUMPDEST PUSH2 0x58D DUP2 PUSH1 0x1 PUSH2 0x92B JUMP JUMPDEST PUSH1 0x6 SLOAD PUSH1 0x5 SLOAD PUSH1 0x40 DUP1 MLOAD PUSH4 0xABCD52D3 PUSH1 0xE0 SHL DUP2 MSTORE SWAP1 MLOAD PUSH1 0x0 SWAP4 PUSH1 0x1 PUSH1 0x1 PUSH1 0xA0 SHL SUB SWAP1 DUP2 AND SWAP4 PUSH4 0x670A5C66 SWAP4 PUSH1 0xA SWAP4 SWAP2 SWAP1 SWAP3 AND SWAP2 PUSH4 0xABCD52D3 SWAP2 PUSH1 0x4 DUP1 DUP4 ADD SWAP3 PUSH1 0x20 SWAP3 SWAP2 SWAP1 DUP3 SWAP1 SUB ADD DUP2 DUP7 GAS STATICCALL ISZERO DUP1 ISZERO PUSH2 0x5EA JUMPI RETURNDATASIZE PUSH1 0x0 DUP1 RETURNDATACOPY RETURNDATASIZE PUSH1 0x0 REVERT JUMPDEST POP POP POP POP PUSH1 0x40 MLOAD RETURNDATASIZE PUSH1 0x1F NOT PUSH1 0x1F DUP3 ADD AND DUP3 ADD DUP1 PUSH1 0x40 MSTORE POP DUP2 ADD SWAP1 PUSH2 0x60E SWAP2 SWAP1 PUSH2 0xE15 JUMP JUMPDEST PUSH1 0x40 MLOAD PUSH1 0x1 PUSH1 0x1 PUSH1 0xE0 SHL SUB NOT PUSH1 0xE0 DUP6 SWAP1 SHL AND DUP2 MSTORE PUSH1 0xFF SWAP1 SWAP3 AND PUSH1 0x4 DUP4 ADD MSTORE PUSH1 0x24 DUP3 ADD MSTORE PUSH1 0x44 ADD PUSH1 0x0 PUSH1 0x40 MLOAD DUP1 DUP4 SUB DUP2 DUP7 GAS STATICCALL ISZERO DUP1 ISZERO PUSH2 0x651 JUMPI RETURNDATASIZE PUSH1 0x0 DUP1 RETURNDATACOPY RETURNDATASIZE PUSH1 0x0 REVERT JUMPDEST POP POP POP POP PUSH1 0x40 MLOAD RETURNDATASIZE PUSH1 0x0 DUP3 RETURNDATACOPY PUSH1 0x1F RETURNDATASIZE SWAP1 DUP2 ADD PUSH1 0x1F NOT AND DUP3 ADD PUSH1 0x40 MSTORE PUSH2 0x679 SWAP2 SWAP1 DUP2 ADD SWAP1 PUSH2 0xE75 JUMP JUMPDEST PUSH1 0x40 DUP1 MLOAD PUSH1 0xA DUP1 DUP3 MSTORE PUSH2 0x160 DUP3 ADD SWAP1 SWAP3 MSTORE SWAP2 SWAP3 POP PUSH1 0x0 SWAP2 SWAP1 DUP2 PUSH1 0x20 ADD JUMPDEST PUSH1 0x60 DUP2 MSTORE PUSH1 0x20 ADD SWAP1 PUSH1 0x1 SWAP1 SUB SWAP1 DUP2 PUSH2 0x696 JUMPI SWAP1 POP POP SWAP1 POP PUSH1 0x0 JUMPDEST PUSH1 0xA DUP2 LT ISZERO PUSH2 0x77B JUMPI PUSH1 0x0 DUP4 DUP3 DUP2 MLOAD DUP2 LT PUSH2 0x6CD JUMPI PUSH2 0x6CD PUSH2 0xF1B JUMP JUMPDEST PUSH1 0x20 SWAP1 DUP2 MUL SWAP2 SWAP1 SWAP2 ADD ADD MLOAD PUSH1 0x5 SLOAD PUSH1 0x40 MLOAD PUSH4 0xE4319219 PUSH1 0xE0 SHL DUP2 MSTORE PUSH1 0x4 DUP2 ADD DUP4 SWAP1 MSTORE SWAP2 SWAP3 POP PUSH1 0x1 PUSH1 0x1 PUSH1 0xA0 SHL SUB AND SWAP1 PUSH4 0xE4319219 SWAP1 PUSH1 0x24 ADD PUSH1 0x0 PUSH1 0x40 MLOAD DUP1 DUP4 SUB DUP2 DUP7 GAS STATICCALL ISZERO DUP1 ISZERO PUSH2 0x722 JUMPI RETURNDATASIZE PUSH1 0x0 DUP1 RETURNDATACOPY RETURNDATASIZE PUSH1 0x0 REVERT JUMPDEST POP POP POP POP PUSH1 0x40 MLOAD RETURNDATASIZE PUSH1 0x0 DUP3 RETURNDATACOPY PUSH1 0x1F RETURNDATASIZE SWAP1 DUP2 ADD PUSH1 0x1F NOT AND DUP3 ADD PUSH1 0x40 MSTORE PUSH2 0x74A SWAP2 SWAP1 DUP2 ADD SWAP1 PUSH2 0xF31 JUMP JUMPDEST DUP4 DUP4 DUP2 MLOAD DUP2 LT PUSH2 0x75C JUMPI PUSH2 0x75C PUSH2 0xF1B JUMP JUMPDEST PUSH1 0x20 MUL PUSH1 0x20 ADD ADD DUP2 SWAP1 MSTORE POP POP DUP1 DUP1 PUSH2 0x773 SWAP1 PUSH2 0xFDB JUMP JUMPDEST SWAP2 POP POP PUSH2 0x6B0 JUMP JUMPDEST POP PUSH1 0x1 PUSH1 0x1 PUSH1 0xA0 SHL SUB DUP4 AND PUSH1 0x0 SWAP1 DUP2 MSTORE PUSH1 0x7 PUSH1 0x20 SWAP1 DUP2 MSTORE PUSH1 0x40 SWAP1 SWAP2 KECCAK256 DUP3 MLOAD PUSH2 0x7A5 SWAP3 DUP5 ADD SWAP1 PUSH2 0xB60 JUMP JUMPDEST POP PUSH32 0x249D605ACAEF50A9EAAD1E823A6136BC721966CBE27226C30E23F290FF4A8CE8 DUP4 DUP3 PUSH1 0x40 MLOAD PUSH2 0x7D7 SWAP3 SWAP2 SWAP1 PUSH2 0xFF4 JUMP JUMPDEST PUSH1 0x40 MLOAD DUP1 SWAP2 SUB SWAP1 LOG1 POP POP POP JUMP JUMPDEST PUSH1 0x60 PUSH1 0x4 DUP1 SLOAD PUSH2 0x2E9 SWAP1 PUSH2 0xDDB JUMP JUMPDEST PUSH1 0x0 CALLER PUSH2 0x37A DUP2 DUP6 DUP6 PUSH2 0x896 JUMP JUMPDEST PUSH2 0x80E DUP4 DUP4 DUP4 PUSH1 0x1 PUSH2 0x961 JUMP JUMPDEST POP POP POP JUMP JUMPDEST PUSH1 0x1 PUSH1 0x1 PUSH1 0xA0 SHL SUB DUP4 DUP2 AND PUSH1 0x0 SWAP1 DUP2 MSTORE PUSH1 0x1 PUSH1 0x20 SWAP1 DUP2 MSTORE PUSH1 0x40 DUP1 DUP4 KECCAK256 SWAP4 DUP7 AND DUP4 MSTORE SWAP3 SWAP1 MSTORE KECCAK256 SLOAD PUSH1 0x0 NOT DUP2 EQ PUSH2 0x890 JUMPI DUP2 DUP2 LT ISZERO PUSH2 0x881 JUMPI PUSH1 0x40 MLOAD PUSH4 0x7DC7A0D9 PUSH1 0xE1 SHL DUP2 MSTORE PUSH1 0x1 PUSH1 0x1 PUSH1 0xA0 SHL SUB DUP5 AND PUSH1 0x4 DUP3 ADD MSTORE PUSH1 0x24 DUP2 ADD DUP3 SWAP1 MSTORE PUSH1 0x44 DUP2 ADD DUP4 SWAP1 MSTORE PUSH1 0x64 ADD JUMPDEST PUSH1 0x40 MLOAD DUP1 SWAP2 SUB SWAP1 REVERT JUMPDEST PUSH2 0x890 DUP5 DUP5 DUP5 DUP5 SUB PUSH1 0x0 PUSH2 0x961 JUMP JUMPDEST POP POP POP POP JUMP JUMPDEST PUSH1 0x1 PUSH1 0x1 PUSH1 0xA0 SHL SUB DUP4 AND PUSH2 0x8C0 JUMPI PUSH1 0x40 MLOAD PUSH4 0x4B637E8F PUSH1 0xE1 SHL DUP2 MSTORE PUSH1 0x0 PUSH1 0x4 DUP3 ADD MSTORE PUSH1 0x24 ADD PUSH2 0x878 JUMP JUMPDEST PUSH1 0x1 PUSH1 0x1 PUSH1 0xA0 SHL SUB DUP3 AND PUSH2 0x8EA JUMPI PUSH1 0x40 MLOAD PUSH4 0xEC442F05 PUSH1 0xE0 SHL DUP2 MSTORE PUSH1 0x0 PUSH1 0x4 DUP3 ADD MSTORE PUSH1 0x24 ADD PUSH2 0x878 JUMP JUMPDEST PUSH2 0x80E DUP4 DUP4 DUP4 PUSH2 0xA36 JUMP JUMPDEST PUSH1 0x1 PUSH1 0x1 PUSH1 0xA0 SHL SUB DUP3 AND PUSH2 0x91F JUMPI PUSH1 0x40 MLOAD PUSH4 0xEC442F05 PUSH1 0xE0 SHL DUP2 MSTORE PUSH1 0x0 PUSH1 0x4 DUP3 ADD MSTORE PUSH1 0x24 ADD PUSH2 0x878 JUMP JUMPDEST PUSH2 0x4A3 PUSH1 0x0 DUP4 DUP4 PUSH2 0xA36 JUMP JUMPDEST PUSH1 0x1 PUSH1 0x1 PUSH1 0xA0 SHL SUB DUP3 AND PUSH2 0x955 JUMPI PUSH1 0x40 MLOAD PUSH4 0x4B637E8F PUSH1 0xE1 SHL DUP2 MSTORE PUSH1 0x0 PUSH1 0x4 DUP3 ADD MSTORE PUSH1 0x24 ADD PUSH2 0x878 JUMP JUMPDEST PUSH2 0x4A3 DUP3 PUSH1 0x0 DUP4 PUSH2 0xA36 JUMP JUMPDEST PUSH1 0x1 PUSH1 0x1 PUSH1 0xA0 SHL SUB DUP5 AND PUSH2 0x98B JUMPI PUSH1 0x40 MLOAD PUSH4 0xE602DF05 PUSH1 0xE0 SHL DUP2 MSTORE PUSH1 0x0 PUSH1 0x4 DUP3 ADD MSTORE PUSH1 0x24 ADD PUSH2 0x878 JUMP JUMPDEST PUSH1 0x1 PUSH1 0x1 PUSH1 0xA0 SHL SUB DUP4 AND PUSH2 0x9B5 JUMPI PUSH1 0x40 MLOAD PUSH4 0x4A1406B1 PUSH1 0xE1 SHL DUP2 MSTORE PUSH1 0x0 PUSH1 0x4 DUP3 ADD MSTORE PUSH1 0x24 ADD PUSH2 0x878 JUMP JUMPDEST PUSH1 0x1 PUSH1 0x1 PUSH1 0xA0 SHL SUB DUP1 DUP6 AND PUSH1 0x0 SWAP1 DUP2 MSTORE PUSH1 0x1 PUSH1 0x20 SWAP1 DUP2 MSTORE PUSH1 0x40 DUP1 DUP4 KECCAK256 SWAP4 DUP8 AND DUP4 MSTORE SWAP3 SWAP1 MSTORE KECCAK256 DUP3 SWAP1 SSTORE DUP1 ISZERO PUSH2 0x890 JUMPI DUP3 PUSH1 0x1 PUSH1 0x1 PUSH1 0xA0 SHL SUB AND DUP5 PUSH1 0x1 PUSH1 0x1 PUSH1 0xA0 SHL SUB AND PUSH32 0x8C5BE1E5EBEC7D5BD14F71427D1E84F3DD0314C0F7B2291E5B200AC8C7C3B925 DUP5 PUSH1 0x40 MLOAD PUSH2 0xA28 SWAP2 DUP2 MSTORE PUSH1 0x20 ADD SWAP1 JUMP JUMPDEST PUSH1 0x40 MLOAD DUP1 SWAP2 SUB SWAP1 LOG3 POP POP POP POP JUMP JUMPDEST PUSH1 0x1 PUSH1 0x1 PUSH1 0xA0 SHL SUB DUP4 AND PUSH2 0xA61 JUMPI DUP1 PUSH1 0x2 PUSH1 0x0 DUP3 DUP3 SLOAD PUSH2 0xA56 SWAP2 SWAP1 PUSH2 0x1020 JUMP JUMPDEST SWAP1 SWAP2 SSTORE POP PUSH2 0xAD3 SWAP1 POP JUMP JUMPDEST PUSH1 0x1 PUSH1 0x1 PUSH1 0xA0 SHL SUB DUP4 AND PUSH1 0x0 SWAP1 DUP2 MSTORE PUSH1 0x20 DUP2 SWAP1 MSTORE PUSH1 0x40 SWAP1 KECCAK256 SLOAD DUP2 DUP2 LT ISZERO PUSH2 0xAB4 JUMPI PUSH1 0x40 MLOAD PUSH4 0x391434E3 PUSH1 0xE2 SHL DUP2 MSTORE PUSH1 0x1 PUSH1 0x1 PUSH1 0xA0 SHL SUB DUP6 AND PUSH1 0x4 DUP3 ADD MSTORE PUSH1 0x24 DUP2 ADD DUP3 SWAP1 MSTORE PUSH1 0x44 DUP2 ADD DUP4 SWAP1 MSTORE PUSH1 0x64 ADD PUSH2 0x878 JUMP JUMPDEST PUSH1 0x1 PUSH1 0x1 PUSH1 0xA0 SHL SUB DUP5 AND PUSH1 0x0 SWAP1 DUP2 MSTORE PUSH1 0x20 DUP2 SWAP1 MSTORE PUSH1 0x40 SWAP1 KECCAK256 SWAP1 DUP3 SWAP1 SUB SWAP1 SSTORE JUMPDEST PUSH1 0x1 PUSH1 0x1 PUSH1 0xA0 SHL SUB DUP3 AND PUSH2 0xAEF JUMPI PUSH1 0x2 DUP1 SLOAD DUP3 SWAP1 SUB SWAP1 SSTORE PUSH2 0xB0E JUMP JUMPDEST PUSH1 0x1 PUSH1 0x1 PUSH1 0xA0 SHL SUB DUP3 AND PUSH1 0x0 SWAP1 DUP2 MSTORE PUSH1 0x20 DUP2 SWAP1 MSTORE PUSH1 0x40 SWAP1 KECCAK256 DUP1 SLOAD DUP3 ADD SWAP1 SSTORE JUMPDEST DUP2 PUSH1 0x1 PUSH1 0x1 PUSH1 0xA0 SHL SUB AND DUP4 PUSH1 0x1 PUSH1 0x1 PUSH1 0xA0 SHL SUB AND PUSH32 0xDDF252AD1BE2C89B69C2B068FC378DAA952BA7F163C4A11628F55A4DF523B3EF DUP4 PUSH1 0x40 MLOAD PUSH2 0xB53 SWAP2 DUP2 MSTORE PUSH1 0x20 ADD SWAP1 JUMP JUMPDEST PUSH1 0x40 MLOAD DUP1 SWAP2 SUB SWAP1 LOG3 POP POP POP JUMP JUMPDEST DUP3 DUP1 SLOAD DUP3 DUP3 SSTORE SWAP1 PUSH1 0x0 MSTORE PUSH1 0x20 PUSH1 0x0 KECCAK256 SWAP1 DUP2 ADD SWAP3 DUP3 ISZERO PUSH2 0xBA6 JUMPI SWAP2 PUSH1 0x20 MUL DUP3 ADD JUMPDEST DUP3 DUP2 GT ISZERO PUSH2 0xBA6 JUMPI DUP3 MLOAD DUP3 SWAP1 PUSH2 0xB96 SWAP1 DUP3 PUSH2 0x1081 JUMP JUMPDEST POP SWAP2 PUSH1 0x20 ADD SWAP2 SWAP1 PUSH1 0x1 ADD SWAP1 PUSH2 0xB80 JUMP JUMPDEST POP PUSH2 0xBB2 SWAP3 SWAP2 POP PUSH2 0xBB6 JUMP JUMPDEST POP SWAP1 JUMP JUMPDEST DUP1 DUP3 GT ISZERO PUSH2 0xBB2 JUMPI PUSH1 0x0 PUSH2 0xBCA DUP3 DUP3 PUSH2 0xBD3 JUMP JUMPDEST POP PUSH1 0x1 ADD PUSH2 0xBB6 JUMP JUMPDEST POP DUP1 SLOAD PUSH2 0xBDF SWAP1 PUSH2 0xDDB JUMP JUMPDEST PUSH1 0x0 DUP3 SSTORE DUP1 PUSH1 0x1F LT PUSH2 0xBEF JUMPI POP POP JUMP JUMPDEST PUSH1 0x1F ADD PUSH1 0x20 SWAP1 DIV SWAP1 PUSH1 0x0 MSTORE PUSH1 0x20 PUSH1 0x0 KECCAK256 SWAP1 DUP2 ADD SWAP1 PUSH2 0x4B1 SWAP2 SWAP1 JUMPDEST DUP1 DUP3 GT ISZERO PUSH2 0xBB2 JUMPI PUSH1 0x0 DUP2 SSTORE PUSH1 0x1 ADD PUSH2 0xC09 JUMP JUMPDEST PUSH1 0x0 JUMPDEST DUP4 DUP2 LT ISZERO PUSH2 0xC38 JUMPI DUP2 DUP2 ADD MLOAD DUP4 DUP3 ADD MSTORE PUSH1 0x20 ADD PUSH2 0xC20 JUMP JUMPDEST POP POP PUSH1 0x0 SWAP2 ADD MSTORE JUMP JUMPDEST PUSH1 0x0 DUP2 MLOAD DUP1 DUP5 MSTORE PUSH2 0xC59 DUP2 PUSH1 0x20 DUP7 ADD PUSH1 0x20 DUP7 ADD PUSH2 0xC1D JUMP JUMPDEST PUSH1 0x1F ADD PUSH1 0x1F NOT AND SWAP3 SWAP1 SWAP3 ADD PUSH1 0x20 ADD SWAP3 SWAP2 POP POP JUMP JUMPDEST PUSH1 0x20 DUP2 MSTORE PUSH1 0x0 PUSH2 0xC80 PUSH1 0x20 DUP4 ADD DUP5 PUSH2 0xC41 JUMP JUMPDEST SWAP4 SWAP3 POP POP POP JUMP JUMPDEST DUP1 CALLDATALOAD PUSH1 0x1 PUSH1 0x1 PUSH1 0xA0 SHL SUB DUP2 AND DUP2 EQ PUSH2 0xC9E JUMPI PUSH1 0x0 DUP1 REVERT JUMPDEST SWAP2 SWAP1 POP JUMP JUMPDEST PUSH1 0x0 DUP1 PUSH1 0x40 DUP4 DUP6 SUB SLT ISZERO PUSH2 0xCB6 JUMPI PUSH1 0x0 DUP1 REVERT JUMPDEST PUSH2 0xCBF DUP4 PUSH2 0xC87 JUMP JUMPDEST SWAP5 PUSH1 0x20 SWAP4 SWAP1 SWAP4 ADD CALLDATALOAD SWAP4 POP POP POP JUMP JUMPDEST PUSH1 0x0 DUP1 PUSH1 0x0 PUSH1 0x60 DUP5 DUP7 SUB SLT ISZERO PUSH2 0xCE2 JUMPI PUSH1 0x0 DUP1 REVERT JUMPDEST PUSH2 0xCEB DUP5 PUSH2 0xC87 JUMP JUMPDEST SWAP3 POP PUSH2 0xCF9 PUSH1 0x20 DUP6 ADD PUSH2 0xC87 JUMP JUMPDEST SWAP2 POP PUSH1 0x40 DUP5 ADD CALLDATALOAD SWAP1 POP SWAP3 POP SWAP3 POP SWAP3 JUMP JUMPDEST PUSH1 0x0 PUSH1 0x20 DUP3 DUP5 SUB SLT ISZERO PUSH2 0xD1B JUMPI PUSH1 0x0 DUP1 REVERT JUMPDEST PUSH2 0xC80 DUP3 PUSH2 0xC87 JUMP JUMPDEST PUSH1 0x0 DUP3 DUP3 MLOAD DUP1 DUP6 MSTORE PUSH1 0x20 DUP1 DUP7 ADD SWAP6 POP DUP1 DUP3 PUSH1 0x5 SHL DUP5 ADD ADD DUP2 DUP7 ADD PUSH1 0x0 JUMPDEST DUP5 DUP2 LT ISZERO PUSH2 0xD6F JUMPI PUSH1 0x1F NOT DUP7 DUP5 SUB ADD DUP10 MSTORE PUSH2 0xD5D DUP4 DUP4 MLOAD PUSH2 0xC41 JUMP JUMPDEST SWAP9 DUP5 ADD SWAP9 SWAP3 POP SWAP1 DUP4 ADD SWAP1 PUSH1 0x1 ADD PUSH2 0xD41 JUMP JUMPDEST POP SWAP1 SWAP8 SWAP7 POP POP POP POP POP POP POP JUMP JUMPDEST PUSH1 0x20 DUP2 MSTORE PUSH1 0x0 PUSH2 0xC80 PUSH1 0x20 DUP4 ADD DUP5 PUSH2 0xD24 JUMP JUMPDEST PUSH1 0x0 PUSH1 0x20 DUP3 DUP5 SUB SLT ISZERO PUSH2 0xDA1 JUMPI PUSH1 0x0 DUP1 REVERT JUMPDEST POP CALLDATALOAD SWAP2 SWAP1 POP JUMP JUMPDEST PUSH1 0x0 DUP1 PUSH1 0x40 DUP4 DUP6 SUB SLT ISZERO PUSH2 0xDBB JUMPI PUSH1 0x0 DUP1 REVERT JUMPDEST PUSH2 0xDC4 DUP4 PUSH2 0xC87 JUMP JUMPDEST SWAP2 POP PUSH2 0xDD2 PUSH1 0x20 DUP5 ADD PUSH2 0xC87 JUMP JUMPDEST SWAP1 POP SWAP3 POP SWAP3 SWAP1 POP JUMP JUMPDEST PUSH1 0x1 DUP2 DUP2 SHR SWAP1 DUP3 AND DUP1 PUSH2 0xDEF JUMPI PUSH1 0x7F DUP3 AND SWAP2 POP JUMPDEST PUSH1 0x20 DUP3 LT DUP2 SUB PUSH2 0xE0F JUMPI PUSH4 0x4E487B71 PUSH1 0xE0 SHL PUSH1 0x0 MSTORE PUSH1 0x22 PUSH1 0x4 MSTORE PUSH1 0x24 PUSH1 0x0 REVERT JUMPDEST POP SWAP2 SWAP1 POP JUMP JUMPDEST PUSH1 0x0 PUSH1 0x20 DUP3 DUP5 SUB SLT ISZERO PUSH2 0xE27 JUMPI PUSH1 0x0 DUP1 REVERT JUMPDEST POP MLOAD SWAP2 SWAP1 POP JUMP JUMPDEST PUSH4 0x4E487B71 PUSH1 0xE0 SHL PUSH1 0x0 MSTORE PUSH1 0x41 PUSH1 0x4 MSTORE PUSH1 0x24 PUSH1 0x0 REVERT JUMPDEST PUSH1 0x40 MLOAD PUSH1 0x1F DUP3 ADD PUSH1 0x1F NOT AND DUP2 ADD PUSH8 0xFFFFFFFFFFFFFFFF DUP2 GT DUP3 DUP3 LT OR ISZERO PUSH2 0xE6D JUMPI PUSH2 0xE6D PUSH2 0xE2E JUMP JUMPDEST PUSH1 0x40 MSTORE SWAP2 SWAP1 POP JUMP JUMPDEST PUSH1 0x0 PUSH1 0x20 DUP1 DUP4 DUP6 SUB SLT ISZERO PUSH2 0xE88 JUMPI PUSH1 0x0 DUP1 REVERT JUMPDEST DUP3 MLOAD PUSH8 0xFFFFFFFFFFFFFFFF DUP1 DUP3 GT ISZERO PUSH2 0xEA0 JUMPI PUSH1 0x0 DUP1 REVERT JUMPDEST DUP2 DUP6 ADD SWAP2 POP DUP6 PUSH1 0x1F DUP4 ADD SLT PUSH2 0xEB4 JUMPI PUSH1 0x0 DUP1 REVERT JUMPDEST DUP2 MLOAD DUP2 DUP2 GT ISZERO PUSH2 0xEC6 JUMPI PUSH2 0xEC6 PUSH2 0xE2E JUMP JUMPDEST DUP1 PUSH1 0x5 SHL SWAP2 POP PUSH2 0xED7 DUP5 DUP4 ADD PUSH2 0xE44 JUMP JUMPDEST DUP2 DUP2 MSTORE SWAP2 DUP4 ADD DUP5 ADD SWAP2 DUP5 DUP2 ADD SWAP1 DUP9 DUP5 GT ISZERO PUSH2 0xEF1 JUMPI PUSH1 0x0 DUP1 REVERT JUMPDEST SWAP4 DUP6 ADD SWAP4 JUMPDEST DUP4 DUP6 LT ISZERO PUSH2 0xF0F JUMPI DUP5 MLOAD DUP3 MSTORE SWAP4 DUP6 ADD SWAP4 SWAP1 DUP6 ADD SWAP1 PUSH2 0xEF6 JUMP JUMPDEST SWAP9 SWAP8 POP POP POP POP POP POP POP POP JUMP JUMPDEST PUSH4 0x4E487B71 PUSH1 0xE0 SHL PUSH1 0x0 MSTORE PUSH1 0x32 PUSH1 0x4 MSTORE PUSH1 0x24 PUSH1 0x0 REVERT JUMPDEST PUSH1 0x0 PUSH1 0x20 DUP3 DUP5 SUB SLT ISZERO PUSH2 0xF43 JUMPI PUSH1 0x0 DUP1 REVERT JUMPDEST DUP2 MLOAD PUSH8 0xFFFFFFFFFFFFFFFF DUP1 DUP3 GT ISZERO PUSH2 0xF5B JUMPI PUSH1 0x0 DUP1 REVERT JUMPDEST DUP2 DUP5 ADD SWAP2 POP DUP5 PUSH1 0x1F DUP4 ADD SLT PUSH2 0xF6F JUMPI PUSH1 0x0 DUP1 REVERT JUMPDEST DUP2 MLOAD DUP2 DUP2 GT ISZERO PUSH2 0xF81 JUMPI PUSH2 0xF81 PUSH2 0xE2E JUMP JUMPDEST PUSH2 0xF94 PUSH1 0x1F DUP3 ADD PUSH1 0x1F NOT AND PUSH1 0x20 ADD PUSH2 0xE44 JUMP JUMPDEST SWAP2 POP DUP1 DUP3 MSTORE DUP6 PUSH1 0x20 DUP3 DUP6 ADD ADD GT ISZERO PUSH2 0xFAB JUMPI PUSH1 0x0 DUP1 REVERT JUMPDEST PUSH2 0xFBC DUP2 PUSH1 0x20 DUP5 ADD PUSH1 0x20 DUP7 ADD PUSH2 0xC1D JUMP JUMPDEST POP SWAP5 SWAP4 POP POP POP POP JUMP JUMPDEST PUSH4 0x4E487B71 PUSH1 0xE0 SHL PUSH1 0x0 MSTORE PUSH1 0x11 PUSH1 0x4 MSTORE PUSH1 0x24 PUSH1 0x0 REVERT JUMPDEST PUSH1 0x0 PUSH1 0x1 DUP3 ADD PUSH2 0xFED JUMPI PUSH2 0xFED PUSH2 0xFC5 JUMP JUMPDEST POP PUSH1 0x1 ADD SWAP1 JUMP JUMPDEST PUSH1 0x1 PUSH1 0x1 PUSH1 0xA0 SHL SUB DUP4 AND DUP2 MSTORE PUSH1 0x40 PUSH1 0x20 DUP3 ADD DUP2 SWAP1 MSTORE PUSH1 0x0 SWAP1 PUSH2 0x1018 SWAP1 DUP4 ADD DUP5 PUSH2 0xD24 JUMP JUMPDEST SWAP5 SWAP4 POP POP POP POP JUMP JUMPDEST DUP1 DUP3 ADD DUP1 DUP3 GT ISZERO PUSH2 0x380 JUMPI PUSH2 0x380 PUSH2 0xFC5 JUMP JUMPDEST PUSH1 0x1F DUP3 GT ISZERO PUSH2 0x80E JUMPI PUSH1 0x0 DUP2 DUP2 MSTORE PUSH1 0x20 DUP2 KECCAK256 PUSH1 0x1F DUP6 ADD PUSH1 0x5 SHR DUP2 ADD PUSH1 0x20 DUP7 LT ISZERO PUSH2 0x105A JUMPI POP DUP1 JUMPDEST PUSH1 0x1F DUP6 ADD PUSH1 0x5 SHR DUP3 ADD SWAP2 POP JUMPDEST DUP2 DUP2 LT ISZERO PUSH2 0x1079 JUMPI DUP3 DUP2 SSTORE PUSH1 0x1 ADD PUSH2 0x1066 JUMP JUMPDEST POP POP POP POP POP POP JUMP JUMPDEST DUP2 MLOAD PUSH8 0xFFFFFFFFFFFFFFFF DUP2 GT ISZERO PUSH2 0x109B JUMPI PUSH2 0x109B PUSH2 0xE2E JUMP JUMPDEST PUSH2 0x10AF DUP2 PUSH2 0x10A9 DUP5 SLOAD PUSH2 0xDDB JUMP JUMPDEST DUP5 PUSH2 0x1033 JUMP JUMPDEST PUSH1 0x20 DUP1 PUSH1 0x1F DUP4 GT PUSH1 0x1 DUP2 EQ PUSH2 0x10E4 JUMPI PUSH1 0x0 DUP5 ISZERO PUSH2 0x10CC JUMPI POP DUP6 DUP4 ADD MLOAD JUMPDEST PUSH1 0x0 NOT PUSH1 0x3 DUP7 SWAP1 SHL SHR NOT AND PUSH1 0x1 DUP6 SWAP1 SHL OR DUP6 SSTORE PUSH2 0x1079 JUMP JUMPDEST PUSH1 0x0 DUP6 DUP2 MSTORE PUSH1 0x20 DUP2 KECCAK256 PUSH1 0x1F NOT DUP7 AND SWAP2 JUMPDEST DUP3 DUP2 LT ISZERO PUSH2 0x1113 JUMPI DUP9 DUP7 ADD MLOAD DUP3 SSTORE SWAP5 DUP5 ADD SWAP5 PUSH1 0x1 SWAP1 SWAP2 ADD SWAP1 DUP5 ADD PUSH2 0x10F4 JUMP JUMPDEST POP DUP6 DUP3 LT ISZERO PUSH2 0x1131 JUMPI DUP8 DUP6 ADD MLOAD PUSH1 0x0 NOT PUSH1 0x3 DUP9 SWAP1 SHL PUSH1 0xF8 AND SHR NOT AND DUP2 SSTORE JUMPDEST POP POP POP POP POP PUSH1 0x1 SWAP1 DUP2 SHL ADD SWAP1 SSTORE POP JUMP INVALID LOG2 PUSH5 0x6970667358 0x22 SLT KECCAK256 0xCB 0xA8 SHL 0xDC CALLCODE 0x5C MUL PUSH29 0xD9FD48BE56825217AD5D2F7E28FBC0A4821374EF4CEC316C64736F6C63 NUMBER STOP ADDMOD EQ STOP CALLER PUSH1 0x80 PUSH1 0x40 MSTORE CALLVALUE DUP1 ISZERO PUSH2 0x10 JUMPI PUSH1 0x0 DUP1 REVERT JUMPDEST POP PUSH2 0x6ED DUP1 PUSH2 0x20 PUSH1 0x0 CODECOPY PUSH1 0x0 RETURN INVALID PUSH1 0x80 PUSH1 0x40 MSTORE CALLVALUE DUP1 ISZERO PUSH2 0x10 JUMPI PUSH1 0x0 DUP1 REVERT JUMPDEST POP PUSH1 0x4 CALLDATASIZE LT PUSH2 0x41 JUMPI PUSH1 0x0 CALLDATALOAD PUSH1 0xE0 SHR DUP1 PUSH4 0x670A5C66 EQ PUSH2 0x46 JUMPI DUP1 PUSH4 0xE61A237E EQ PUSH2 0x6F JUMPI DUP1 PUSH4 0xE988E951 EQ PUSH2 0x8F JUMPI JUMPDEST PUSH1 0x0 DUP1 REVERT JUMPDEST PUSH2 0x59 PUSH2 0x54 CALLDATASIZE PUSH1 0x4 PUSH2 0x46C JUMP JUMPDEST PUSH2 0xB1 JUMP JUMPDEST PUSH1 0x40 MLOAD PUSH2 0x66 SWAP2 SWAP1 PUSH2 0x48E JUMP JUMPDEST PUSH1 0x40 MLOAD DUP1 SWAP2 SUB SWAP1 RETURN JUMPDEST PUSH2 0x82 PUSH2 0x7D CALLDATASIZE PUSH1 0x4 PUSH2 0x564 JUMP JUMPDEST PUSH2 0x2AD JUMP JUMPDEST PUSH1 0x40 MLOAD PUSH2 0x66 SWAP2 SWAP1 PUSH2 0x5B2 JUMP JUMPDEST PUSH2 0xA2 PUSH2 0x9D CALLDATASIZE PUSH1 0x4 PUSH2 0x5C1 JUMP JUMPDEST PUSH2 0x3CB JUMP JUMPDEST PUSH1 0x40 MLOAD PUSH2 0x66 SWAP4 SWAP3 SWAP2 SWAP1 PUSH2 0x5EF JUMP JUMPDEST PUSH1 0x60 PUSH1 0x0 TIMESTAMP PREVRANDAO NUMBER BLOCKHASH PUSH1 0x40 MLOAD PUSH1 0x20 ADD PUSH2 0xDC SWAP4 SWAP3 SWAP2 SWAP1 SWAP3 DUP4 MSTORE PUSH1 0x20 DUP4 ADD SWAP2 SWAP1 SWAP2 MSTORE PUSH1 0x40 DUP3 ADD MSTORE PUSH1 0x60 ADD SWAP1 JUMP JUMPDEST PUSH1 0x40 DUP1 MLOAD PUSH1 0x1F NOT DUP2 DUP5 SUB ADD DUP2 MSTORE SWAP2 SWAP1 MSTORE DUP1 MLOAD PUSH1 0x20 SWAP1 SWAP2 ADD KECCAK256 SWAP1 POP PUSH2 0x106 PUSH1 0x1 PUSH5 0x100000000 PUSH2 0x629 JUMP JUMPDEST AND PUSH2 0x10F PUSH2 0x44C JUMP JUMPDEST DUP2 DUP2 MSTORE PUSH2 0x270 PUSH1 0x1 JUMPDEST PUSH2 0x270 DUP2 LT ISZERO PUSH2 0x1C9 JUMPI PUSH2 0x132 PUSH1 0x1 PUSH5 0x100000000 PUSH2 0x629 JUMP JUMPDEST DUP2 PUSH2 0x13F PUSH1 0x2 PUSH1 0x20 PUSH2 0x629 JUMP JUMPDEST DUP6 PUSH2 0x14B PUSH1 0x1 DUP7 PUSH2 0x629 JUMP JUMPDEST PUSH2 0x270 DUP2 LT PUSH2 0x15C JUMPI PUSH2 0x15C PUSH2 0x63C JUMP JUMPDEST PUSH1 0x20 MUL ADD MLOAD SWAP1 SHR DUP6 PUSH2 0x16F PUSH1 0x1 DUP7 PUSH2 0x629 JUMP JUMPDEST PUSH2 0x270 DUP2 LT PUSH2 0x180 JUMPI PUSH2 0x180 PUSH2 0x63C JUMP JUMPDEST PUSH1 0x20 MUL ADD MLOAD PUSH2 0x194 SWAP2 XOR PUSH4 0x6C078965 PUSH2 0x652 JUMP JUMPDEST PUSH2 0x19E SWAP2 SWAP1 PUSH2 0x669 JUMP JUMPDEST AND DUP4 DUP3 PUSH2 0x270 DUP2 LT PUSH2 0x1B2 JUMPI PUSH2 0x1B2 PUSH2 0x63C JUMP JUMPDEST PUSH1 0x20 MUL ADD MSTORE DUP1 PUSH2 0x1C1 DUP2 PUSH2 0x67C JUMP JUMPDEST SWAP2 POP POP PUSH2 0x118 JUMP JUMPDEST POP PUSH1 0x0 DUP7 PUSH8 0xFFFFFFFFFFFFFFFF DUP2 GT ISZERO PUSH2 0x1E5 JUMPI PUSH2 0x1E5 PUSH2 0x4D2 JUMP JUMPDEST PUSH1 0x40 MLOAD SWAP1 DUP1 DUP3 MSTORE DUP1 PUSH1 0x20 MUL PUSH1 0x20 ADD DUP3 ADD PUSH1 0x40 MSTORE DUP1 ISZERO PUSH2 0x20E JUMPI DUP2 PUSH1 0x20 ADD PUSH1 0x20 DUP3 MUL DUP1 CALLDATASIZE DUP4 CALLDATACOPY ADD SWAP1 POP JUMPDEST POP SWAP1 POP PUSH1 0x0 JUMPDEST DUP8 DUP2 LT ISZERO PUSH2 0x2A0 JUMPI PUSH2 0x226 DUP4 DUP6 PUSH2 0x3CB JUMP JUMPDEST DUP5 DUP5 DUP2 MLOAD DUP2 LT PUSH2 0x238 JUMPI PUSH2 0x238 PUSH2 0x63C JUMP JUMPDEST PUSH1 0x20 MUL PUSH1 0x20 ADD ADD DUP2 DUP2 MSTORE POP DUP2 SWAP7 POP DUP3 SWAP6 POP POP POP POP DUP7 DUP3 DUP3 DUP2 MLOAD DUP2 LT PUSH2 0x25F JUMPI PUSH2 0x25F PUSH2 0x63C JUMP JUMPDEST PUSH1 0x20 MUL PUSH1 0x20 ADD ADD MLOAD PUSH2 0x271 SWAP2 SWAP1 PUSH2 0x695 JUMP JUMPDEST DUP3 DUP3 DUP2 MLOAD DUP2 LT PUSH2 0x283 JUMPI PUSH2 0x283 PUSH2 0x63C JUMP JUMPDEST PUSH1 0x20 SWAP1 DUP2 MUL SWAP2 SWAP1 SWAP2 ADD ADD MSTORE DUP1 PUSH2 0x298 DUP2 PUSH2 0x67C JUMP JUMPDEST SWAP2 POP POP PUSH2 0x214 JUMP JUMPDEST POP SWAP4 POP POP POP POP JUMPDEST SWAP3 SWAP2 POP POP JUMP JUMPDEST PUSH2 0x2B5 PUSH2 0x44C JUMP JUMPDEST PUSH1 0x0 JUMPDEST PUSH2 0x270 DUP2 LT ISZERO PUSH2 0x3C4 JUMPI PUSH1 0x0 PUSH2 0x2D3 PUSH1 0x1 PUSH4 0x80000000 PUSH2 0x629 JUMP JUMPDEST DUP5 PUSH2 0x270 PUSH2 0x2E2 DUP6 PUSH1 0x1 PUSH2 0x669 JUMP JUMPDEST PUSH2 0x2EC SWAP2 SWAP1 PUSH2 0x695 JUMP JUMPDEST PUSH2 0x270 DUP2 LT PUSH2 0x2FD JUMPI PUSH2 0x2FD PUSH2 0x63C JUMP JUMPDEST PUSH1 0x20 MUL ADD MLOAD AND PUSH2 0x313 PUSH1 0x1 PUSH5 0x100000000 PUSH2 0x629 JUMP JUMPDEST PUSH2 0x322 PUSH1 0x1 PUSH4 0x80000000 PUSH2 0x629 JUMP JUMPDEST NOT AND DUP6 DUP5 PUSH2 0x270 DUP2 LT PUSH2 0x337 JUMPI PUSH2 0x337 PUSH2 0x63C JUMP JUMPDEST PUSH1 0x20 MUL ADD MLOAD AND PUSH2 0x347 SWAP2 SWAP1 PUSH2 0x669 JUMP JUMPDEST SWAP1 POP PUSH1 0x1 DUP2 SWAP1 SHR PUSH2 0x359 PUSH1 0x14 DUP4 PUSH2 0x695 JUMP JUMPDEST ISZERO PUSH2 0x365 JUMPI PUSH4 0x9908B0DF XOR JUMPDEST DUP1 DUP6 PUSH2 0x270 PUSH2 0x376 PUSH2 0x18D DUP8 PUSH2 0x669 JUMP JUMPDEST PUSH2 0x380 SWAP2 SWAP1 PUSH2 0x695 JUMP JUMPDEST PUSH2 0x270 DUP2 LT PUSH2 0x391 JUMPI PUSH2 0x391 PUSH2 0x63C JUMP JUMPDEST PUSH1 0x20 MUL ADD MLOAD XOR DUP6 DUP5 PUSH2 0x270 DUP2 LT PUSH2 0x3AA JUMPI PUSH2 0x3AA PUSH2 0x63C JUMP JUMPDEST PUSH1 0x20 MUL ADD MSTORE POP DUP2 SWAP1 POP PUSH2 0x3BC DUP2 PUSH2 0x67C JUMP JUMPDEST SWAP2 POP POP PUSH2 0x2B8 JUMP JUMPDEST POP SWAP1 SWAP2 SWAP1 POP JUMP JUMPDEST PUSH1 0x0 PUSH2 0x3D5 PUSH2 0x44C JUMP JUMPDEST PUSH1 0x0 PUSH2 0x270 DUP6 LT PUSH2 0x3F0 JUMPI PUSH2 0x3E9 DUP5 PUSH2 0x2AD JUMP JUMPDEST SWAP4 POP PUSH1 0x0 SWAP5 POP JUMPDEST PUSH1 0x0 DUP5 DUP7 PUSH2 0x270 DUP2 LT PUSH2 0x405 JUMPI PUSH2 0x405 PUSH2 0x63C JUMP JUMPDEST PUSH1 0x20 MUL ADD MLOAD PUSH1 0xB DUP2 SWAP1 SHR PUSH4 0xFFFFFFFF AND XOR PUSH1 0x7 DUP2 SWAP1 SHL PUSH4 0x9D2C5680 AND XOR PUSH1 0xF DUP2 SWAP1 SHL PUSH4 0xEFC60000 AND XOR PUSH1 0x12 DUP2 SWAP1 SHR XOR SWAP1 POP PUSH2 0x441 DUP7 PUSH1 0x1 PUSH2 0x669 JUMP JUMPDEST SWAP7 SWAP5 SWAP6 POP SWAP4 SWAP3 POP POP POP JUMP JUMPDEST PUSH1 0x40 MLOAD DUP1 PUSH2 0x4E00 ADD PUSH1 0x40 MSTORE DUP1 PUSH2 0x270 SWAP1 PUSH1 0x20 DUP3 MUL DUP1 CALLDATASIZE DUP4 CALLDATACOPY POP SWAP2 SWAP3 SWAP2 POP POP JUMP JUMPDEST PUSH1 0x0 DUP1 PUSH1 0x40 DUP4 DUP6 SUB SLT ISZERO PUSH2 0x47F JUMPI PUSH1 0x0 DUP1 REVERT JUMPDEST POP POP DUP1 CALLDATALOAD SWAP3 PUSH1 0x20 SWAP1 SWAP2 ADD CALLDATALOAD SWAP2 POP JUMP JUMPDEST PUSH1 0x20 DUP1 DUP3 MSTORE DUP3 MLOAD DUP3 DUP3 ADD DUP2 SWAP1 MSTORE PUSH1 0x0 SWAP2 SWAP1 DUP5 DUP3 ADD SWAP1 PUSH1 0x40 DUP6 ADD SWAP1 DUP5 JUMPDEST DUP2 DUP2 LT ISZERO PUSH2 0x4C6 JUMPI DUP4 MLOAD DUP4 MSTORE SWAP3 DUP5 ADD SWAP3 SWAP2 DUP5 ADD SWAP2 PUSH1 0x1 ADD PUSH2 0x4AA JUMP JUMPDEST POP SWAP1 SWAP7 SWAP6 POP POP POP POP POP POP JUMP JUMPDEST PUSH4 0x4E487B71 PUSH1 0xE0 SHL PUSH1 0x0 MSTORE PUSH1 0x41 PUSH1 0x4 MSTORE PUSH1 0x24 PUSH1 0x0 REVERT JUMPDEST PUSH1 0x0 DUP3 PUSH1 0x1F DUP4 ADD SLT PUSH2 0x4F9 JUMPI PUSH1 0x0 DUP1 REVERT JUMPDEST PUSH1 0x40 MLOAD PUSH2 0x4E00 DUP1 DUP3 ADD DUP3 DUP2 LT PUSH8 0xFFFFFFFFFFFFFFFF DUP3 GT OR ISZERO PUSH2 0x52C JUMPI PUSH4 0x4E487B71 PUSH1 0xE0 SHL PUSH1 0x0 MSTORE PUSH1 0x41 PUSH1 0x4 MSTORE PUSH1 0x24 PUSH1 0x0 REVERT JUMPDEST PUSH1 0x40 MSTORE DUP4 ADD DUP2 DUP6 DUP3 GT ISZERO PUSH2 0x53F JUMPI PUSH1 0x0 DUP1 REVERT JUMPDEST DUP5 JUMPDEST DUP3 DUP2 LT ISZERO PUSH2 0x559 JUMPI DUP1 CALLDATALOAD DUP3 MSTORE PUSH1 0x20 SWAP2 DUP3 ADD SWAP2 ADD PUSH2 0x541 JUMP JUMPDEST POP SWAP2 SWAP6 SWAP5 POP POP POP POP POP JUMP JUMPDEST PUSH1 0x0 PUSH2 0x4E00 DUP3 DUP5 SUB SLT ISZERO PUSH2 0x577 JUMPI PUSH1 0x0 DUP1 REVERT JUMPDEST PUSH2 0x581 DUP4 DUP4 PUSH2 0x4E8 JUMP JUMPDEST SWAP4 SWAP3 POP POP POP JUMP JUMPDEST DUP1 PUSH1 0x0 JUMPDEST PUSH2 0x270 DUP2 LT ISZERO PUSH2 0x5AC JUMPI DUP2 MLOAD DUP5 MSTORE PUSH1 0x20 SWAP4 DUP5 ADD SWAP4 SWAP1 SWAP2 ADD SWAP1 PUSH1 0x1 ADD PUSH2 0x58C JUMP JUMPDEST POP POP POP POP JUMP JUMPDEST PUSH2 0x4E00 DUP2 ADD PUSH2 0x2A7 DUP3 DUP5 PUSH2 0x588 JUMP JUMPDEST PUSH1 0x0 DUP1 PUSH2 0x4E20 DUP4 DUP6 SUB SLT ISZERO PUSH2 0x5D5 JUMPI PUSH1 0x0 DUP1 REVERT JUMPDEST DUP3 CALLDATALOAD SWAP2 POP PUSH2 0x5E6 DUP5 PUSH1 0x20 DUP6 ADD PUSH2 0x4E8 JUMP JUMPDEST SWAP1 POP SWAP3 POP SWAP3 SWAP1 POP JUMP JUMPDEST DUP4 DUP2 MSTORE PUSH2 0x4E40 DUP2 ADD PUSH2 0x604 PUSH1 0x20 DUP4 ADD DUP6 PUSH2 0x588 JUMP JUMPDEST DUP3 PUSH2 0x4E20 DUP4 ADD MSTORE SWAP5 SWAP4 POP POP POP POP JUMP JUMPDEST PUSH4 0x4E487B71 PUSH1 0xE0 SHL PUSH1 0x0 MSTORE PUSH1 0x11 PUSH1 0x4 MSTORE PUSH1 0x24 PUSH1 0x0 REVERT JUMPDEST DUP2 DUP2 SUB DUP2 DUP2 GT ISZERO PUSH2 0x2A7 JUMPI PUSH2 0x2A7 PUSH2 0x613 JUMP JUMPDEST PUSH4 0x4E487B71 PUSH1 0xE0 SHL PUSH1 0x0 MSTORE PUSH1 0x32 PUSH1 0x4 MSTORE PUSH1 0x24 PUSH1 0x0 REVERT JUMPDEST DUP1 DUP3 MUL DUP2 ISZERO DUP3 DUP3 DIV DUP5 EQ OR PUSH2 0x2A7 JUMPI PUSH2 0x2A7 PUSH2 0x613 JUMP JUMPDEST DUP1 DUP3 ADD DUP1 DUP3 GT ISZERO PUSH2 0x2A7 JUMPI PUSH2 0x2A7 PUSH2 0x613 JUMP JUMPDEST PUSH1 0x0 PUSH1 0x1 DUP3 ADD PUSH2 0x68E JUMPI PUSH2 0x68E PUSH2 0x613 JUMP JUMPDEST POP PUSH1 0x1 ADD SWAP1 JUMP JUMPDEST PUSH1 0x0 DUP3 PUSH2 0x6B2 JUMPI PUSH4 0x4E487B71 PUSH1 0xE0 SHL PUSH1 0x0 MSTORE PUSH1 0x12 PUSH1 0x4 MSTORE PUSH1 0x24 PUSH1 0x0 REVERT JUMPDEST POP MOD SWAP1 JUMP INVALID LOG2 PUSH5 0x6970667358 0x22 SLT KECCAK256 EXTCODECOPY 0x4C XOR 0x23 0xA6 EXTCODESIZE 0xB2 0xAC PUSH29 0x65CFB420F1CC2E2E1E6F67D7A4C2A557BC0E9B2948234964736F6C6343 STOP ADDMOD EQ STOP CALLER LOG2 PUSH5 0x6970667358 0x22 SLT KECCAK256 MUL PUSH32 0xC2CCDE7CF2102320AD42C9D71C063516A7CA6ED79134EAAB7F0C4E26B3006473 PUSH16 0x6C634300081400336080604052600060 MUL SSTORE PUSH1 0x0 PUSH1 0x3 SSTORE CALLVALUE DUP1 ISZERO PUSH2 0x1A JUMPI PUSH1 0x0 DUP1 REVERT JUMPDEST POP PUSH1 0x40 MLOAD PUSH2 0x14DD CODESIZE SUB DUP1 PUSH2 0x14DD DUP4 CODECOPY DUP2 ADD PUSH1 0x40 DUP2 SWAP1 MSTORE PUSH2 0x39 SWAP2 PUSH2 0xD2 JUMP JUMPDEST DUP1 PUSH1 0x1 PUSH1 0x1 PUSH1 0xA0 SHL SUB DUP2 AND PUSH2 0x68 JUMPI PUSH1 0x40 MLOAD PUSH4 0x1E4FBDF7 PUSH1 0xE0 SHL DUP2 MSTORE PUSH1 0x0 PUSH1 0x4 DUP3 ADD MSTORE PUSH1 0x24 ADD PUSH1 0x40 MLOAD DUP1 SWAP2 SUB SWAP1 REVERT JUMPDEST PUSH2 0x71 DUP2 PUSH2 0x82 JUMP JUMPDEST POP POP PUSH1 0x0 PUSH1 0x2 DUP2 SWAP1 SSTORE PUSH1 0x3 SSTORE PUSH2 0x102 JUMP JUMPDEST PUSH1 0x0 DUP1 SLOAD PUSH1 0x1 PUSH1 0x1 PUSH1 0xA0 SHL SUB DUP4 DUP2 AND PUSH1 0x1 PUSH1 0x1 PUSH1 0xA0 SHL SUB NOT DUP4 AND DUP2 OR DUP5 SSTORE PUSH1 0x40 MLOAD SWAP2 SWAP1 SWAP3 AND SWAP3 DUP4 SWAP2 PUSH32 0x8BE0079C531659141344CD1FD0A4F28419497F9722A3DAAFE3B4186F6B6457E0 SWAP2 SWAP1 LOG3 POP POP JUMP JUMPDEST PUSH1 0x0 PUSH1 0x20 DUP3 DUP5 SUB SLT ISZERO PUSH2 0xE4 JUMPI PUSH1 0x0 DUP1 REVERT JUMPDEST DUP2 MLOAD PUSH1 0x1 PUSH1 0x1 PUSH1 0xA0 SHL SUB DUP2 AND DUP2 EQ PUSH2 0xFB JUMPI PUSH1 0x0 DUP1 REVERT JUMPDEST SWAP4 SWAP3 POP POP POP JUMP JUMPDEST PUSH2 0x13CC DUP1 PUSH2 0x111 PUSH1 0x0 CODECOPY PUSH1 0x0 RETURN INVALID PUSH1 0x80 PUSH1 0x40 MSTORE CALLVALUE DUP1 ISZERO PUSH2 0x10 JUMPI PUSH1 0x0 DUP1 REVERT JUMPDEST POP PUSH1 0x4 CALLDATASIZE LT PUSH2 0x9D JUMPI PUSH1 0x0 CALLDATALOAD PUSH1 0xE0 SHR DUP1 PUSH4 0x715018A6 GT PUSH2 0x66 JUMPI DUP1 PUSH4 0x715018A6 EQ PUSH2 0x104 JUMPI DUP1 PUSH4 0x8DA5CB5B EQ PUSH2 0x10C JUMPI DUP1 PUSH4 0xD7E362E5 EQ PUSH2 0x127 JUMPI DUP1 PUSH4 0xF2AB1CC0 EQ PUSH2 0x13A JUMPI DUP1 PUSH4 0xF2FDE38B EQ PUSH2 0x14D JUMPI PUSH1 0x0 DUP1 REVERT JUMPDEST DUP1 PUSH3 0x3D10A4 EQ PUSH2 0xA2 JUMPI DUP1 PUSH4 0x135BEFA8 EQ PUSH2 0xBE JUMPI DUP1 PUSH4 0x3E31D066 EQ PUSH2 0xD3 JUMPI DUP1 PUSH4 0x4C633595 EQ PUSH2 0xE8 JUMPI DUP1 PUSH4 0x5932C02C EQ PUSH2 0xFB JUMPI JUMPDEST PUSH1 0x0 DUP1 REVERT JUMPDEST PUSH2 0xAB PUSH1 0x3 SLOAD DUP2 JUMP JUMPDEST PUSH1 0x40 MLOAD SWAP1 DUP2 MSTORE PUSH1 0x20 ADD JUMPDEST PUSH1 0x40 MLOAD DUP1 SWAP2 SUB SWAP1 RETURN JUMPDEST PUSH2 0xD1 PUSH2 0xCC CALLDATASIZE PUSH1 0x4 PUSH2 0xC2E JUMP JUMPDEST PUSH2 0x160 JUMP JUMPDEST STOP JUMPDEST PUSH2 0xDB PUSH2 0x24B JUMP JUMPDEST PUSH1 0x40 MLOAD PUSH2 0xB5 SWAP2 SWAP1 PUSH2 0xCCA JUMP JUMPDEST PUSH2 0xD1 PUSH2 0xF6 CALLDATASIZE PUSH1 0x4 PUSH2 0xE44 JUMP JUMPDEST PUSH2 0x5A6 JUMP JUMPDEST PUSH2 0xAB PUSH1 0x2 SLOAD DUP2 JUMP JUMPDEST PUSH2 0xD1 PUSH2 0x861 JUMP JUMPDEST PUSH1 0x0 SLOAD PUSH1 0x40 MLOAD PUSH1 0x1 PUSH1 0x1 PUSH1 0xA0 SHL SUB SWAP1 SWAP2 AND DUP2 MSTORE PUSH1 0x20 ADD PUSH2 0xB5 JUMP JUMPDEST PUSH2 0xD1 PUSH2 0x135 CALLDATASIZE PUSH1 0x4 PUSH2 0xEAC JUMP JUMPDEST PUSH2 0x875 JUMP JUMPDEST PUSH2 0xD1 PUSH2 0x148 CALLDATASIZE PUSH1 0x4 PUSH2 0xEDC JUMP JUMPDEST PUSH2 0x8AB JUMP JUMPDEST PUSH2 0xD1 PUSH2 0x15B CALLDATASIZE PUSH1 0x4 PUSH2 0xF83 JUMP JUMPDEST PUSH2 0xA43 JUMP JUMPDEST PUSH1 0x0 DUP2 DUP2 MSTORE PUSH1 0x4 PUSH1 0x20 MSTORE PUSH1 0x40 SWAP1 KECCAK256 PUSH1 0x3 DUP2 ADD SLOAD PUSH1 0x1 PUSH1 0xA0 SHL SWAP1 DIV PUSH1 0xFF AND ISZERO PUSH2 0x1C3 JUMPI PUSH1 0x40 MLOAD PUSH3 0x461BCD PUSH1 0xE5 SHL DUP2 MSTORE PUSH1 0x20 PUSH1 0x4 DUP3 ADD MSTORE PUSH1 0x11 PUSH1 0x24 DUP3 ADD MSTORE PUSH17 0x10D85C9908185B1C9958591E481CDBDB19 PUSH1 0x7A SHL PUSH1 0x44 DUP3 ADD MSTORE PUSH1 0x64 ADD JUMPDEST PUSH1 0x40 MLOAD DUP1 SWAP2 SUB SWAP1 REVERT JUMPDEST PUSH1 0x3 DUP2 ADD SLOAD PUSH1 0x1 PUSH1 0x1 PUSH1 0xA0 SHL SUB AND CALLER EQ PUSH2 0x21F JUMPI PUSH1 0x40 MLOAD PUSH3 0x461BCD PUSH1 0xE5 SHL DUP2 MSTORE PUSH1 0x20 PUSH1 0x4 DUP3 ADD MSTORE PUSH1 0x1A PUSH1 0x24 DUP3 ADD MSTORE PUSH32 0x596F752063616E277420756E53656C6C20746869732063617264000000000000 PUSH1 0x44 DUP3 ADD MSTORE PUSH1 0x64 ADD PUSH2 0x1BA JUMP JUMPDEST PUSH1 0x3 DUP1 SLOAD SWAP1 PUSH1 0x0 PUSH2 0x22F DUP4 PUSH2 0xFBD JUMP JUMPDEST SWAP1 SWAP2 SSTORE POP POP PUSH1 0x3 ADD DUP1 SLOAD PUSH1 0xFF PUSH1 0xA0 SHL NOT AND PUSH1 0x1 PUSH1 0xA0 SHL OR SWAP1 SSTORE POP JUMP JUMPDEST PUSH1 0x60 PUSH1 0x0 PUSH1 0x3 SLOAD PUSH8 0xFFFFFFFFFFFFFFFF DUP2 GT ISZERO PUSH2 0x26A JUMPI PUSH2 0x26A PUSH2 0xFD4 JUMP JUMPDEST PUSH1 0x40 MLOAD SWAP1 DUP1 DUP3 MSTORE DUP1 PUSH1 0x20 MUL PUSH1 0x20 ADD DUP3 ADD PUSH1 0x40 MSTORE DUP1 ISZERO PUSH2 0x2A3 JUMPI DUP2 PUSH1 0x20 ADD JUMPDEST PUSH2 0x290 PUSH2 0xAFE JUMP JUMPDEST DUP2 MSTORE PUSH1 0x20 ADD SWAP1 PUSH1 0x1 SWAP1 SUB SWAP1 DUP2 PUSH2 0x288 JUMPI SWAP1 POP JUMPDEST POP SWAP1 POP PUSH1 0x0 DUP1 JUMPDEST PUSH1 0x2 SLOAD DUP2 LT ISZERO PUSH2 0x59E JUMPI PUSH1 0x0 DUP2 DUP2 MSTORE PUSH1 0x4 PUSH1 0x20 MSTORE PUSH1 0x40 SWAP1 KECCAK256 PUSH1 0x3 ADD SLOAD PUSH1 0x1 PUSH1 0xA0 SHL SWAP1 DIV PUSH1 0xFF AND PUSH2 0x58C JUMPI PUSH1 0x0 DUP2 DUP2 MSTORE PUSH1 0x4 PUSH1 0x20 MSTORE PUSH1 0x40 SWAP1 DUP2 SWAP1 KECCAK256 DUP2 MLOAD PUSH1 0xE0 DUP2 ADD SWAP1 SWAP3 MSTORE DUP1 SLOAD DUP3 SWAP1 DUP3 SWAP1 PUSH2 0x2FC SWAP1 PUSH2 0xFEA JUMP JUMPDEST DUP1 PUSH1 0x1F ADD PUSH1 0x20 DUP1 SWAP2 DIV MUL PUSH1 0x20 ADD PUSH1 0x40 MLOAD SWAP1 DUP2 ADD PUSH1 0x40 MSTORE DUP1 SWAP3 SWAP2 SWAP1 DUP2 DUP2 MSTORE PUSH1 0x20 ADD DUP3 DUP1 SLOAD PUSH2 0x328 SWAP1 PUSH2 0xFEA JUMP JUMPDEST DUP1 ISZERO PUSH2 0x375 JUMPI DUP1 PUSH1 0x1F LT PUSH2 0x34A JUMPI PUSH2 0x100 DUP1 DUP4 SLOAD DIV MUL DUP4 MSTORE SWAP2 PUSH1 0x20 ADD SWAP2 PUSH2 0x375 JUMP JUMPDEST DUP3 ADD SWAP2 SWAP1 PUSH1 0x0 MSTORE PUSH1 0x20 PUSH1 0x0 KECCAK256 SWAP1 JUMPDEST DUP2 SLOAD DUP2 MSTORE SWAP1 PUSH1 0x1 ADD SWAP1 PUSH1 0x20 ADD DUP1 DUP4 GT PUSH2 0x358 JUMPI DUP3 SWAP1 SUB PUSH1 0x1F AND DUP3 ADD SWAP2 JUMPDEST POP POP POP POP POP DUP2 MSTORE PUSH1 0x20 ADD PUSH1 0x1 DUP3 ADD SLOAD DUP2 MSTORE PUSH1 0x20 ADD PUSH1 0x2 DUP3 ADD DUP1 SLOAD DUP1 PUSH1 0x20 MUL PUSH1 0x20 ADD PUSH1 0x40 MLOAD SWAP1 DUP2 ADD PUSH1 0x40 MSTORE DUP1 SWAP3 SWAP2 SWAP1 DUP2 DUP2 MSTORE PUSH1 0x20 ADD PUSH1 0x0 SWAP1 JUMPDEST DUP3 DUP3 LT ISZERO PUSH2 0x459 JUMPI DUP4 DUP3 SWAP1 PUSH1 0x0 MSTORE PUSH1 0x20 PUSH1 0x0 KECCAK256 ADD DUP1 SLOAD PUSH2 0x3CC SWAP1 PUSH2 0xFEA JUMP JUMPDEST DUP1 PUSH1 0x1F ADD PUSH1 0x20 DUP1 SWAP2 DIV MUL PUSH1 0x20 ADD PUSH1 0x40 MLOAD SWAP1 DUP2 ADD PUSH1 0x40 MSTORE DUP1 SWAP3 SWAP2 SWAP1 DUP2 DUP2 MSTORE PUSH1 0x20 ADD DUP3 DUP1 SLOAD PUSH2 0x3F8 SWAP1 PUSH2 0xFEA JUMP JUMPDEST DUP1 ISZERO PUSH2 0x445 JUMPI DUP1 PUSH1 0x1F LT PUSH2 0x41A JUMPI PUSH2 0x100 DUP1 DUP4 SLOAD DIV MUL DUP4 MSTORE SWAP2 PUSH1 0x20 ADD SWAP2 PUSH2 0x445 JUMP JUMPDEST DUP3 ADD SWAP2 SWAP1 PUSH1 0x0 MSTORE PUSH1 0x20 PUSH1 0x0 KECCAK256 SWAP1 JUMPDEST DUP2 SLOAD DUP2 MSTORE SWAP1 PUSH1 0x1 ADD SWAP1 PUSH1 0x20 ADD DUP1 DUP4 GT PUSH2 0x428 JUMPI DUP3 SWAP1 SUB PUSH1 0x1F AND DUP3 ADD SWAP2 JUMPDEST POP POP POP POP POP DUP2 MSTORE PUSH1 0x20 ADD SWAP1 PUSH1 0x1 ADD SWAP1 PUSH2 0x3AD JUMP JUMPDEST POP POP POP SWAP1 DUP3 MSTORE POP PUSH1 0x3 DUP3 ADD SLOAD PUSH1 0x1 PUSH1 0x1 PUSH1 0xA0 SHL SUB DUP2 AND PUSH1 0x20 DUP4 ADD MSTORE PUSH1 0x1 PUSH1 0xA0 SHL SWAP1 DIV PUSH1 0xFF AND ISZERO ISZERO PUSH1 0x40 DUP1 DUP4 ADD SWAP2 SWAP1 SWAP2 MSTORE DUP1 MLOAD PUSH1 0x60 DUP1 DUP3 ADD SWAP1 SWAP3 MSTORE PUSH1 0x4 DUP5 ADD DUP1 SLOAD SWAP3 SWAP1 SWAP4 ADD SWAP3 SWAP1 SWAP2 DUP3 SWAP1 DUP3 SWAP1 PUSH2 0x4AD SWAP1 PUSH2 0xFEA JUMP JUMPDEST DUP1 PUSH1 0x1F ADD PUSH1 0x20 DUP1 SWAP2 DIV MUL PUSH1 0x20 ADD PUSH1 0x40 MLOAD SWAP1 DUP2 ADD PUSH1 0x40 MSTORE DUP1 SWAP3 SWAP2 SWAP1 DUP2 DUP2 MSTORE PUSH1 0x20 ADD DUP3 DUP1 SLOAD PUSH2 0x4D9 SWAP1 PUSH2 0xFEA JUMP JUMPDEST DUP1 ISZERO PUSH2 0x526 JUMPI DUP1 PUSH1 0x1F LT PUSH2 0x4FB JUMPI PUSH2 0x100 DUP1 DUP4 SLOAD DIV MUL DUP4 MSTORE SWAP2 PUSH1 0x20 ADD SWAP2 PUSH2 0x526 JUMP JUMPDEST DUP3 ADD SWAP2 SWAP1 PUSH1 0x0 MSTORE PUSH1 0x20 PUSH1 0x0 KECCAK256 SWAP1 JUMPDEST DUP2 SLOAD DUP2 MSTORE SWAP1 PUSH1 0x1 ADD SWAP1 PUSH1 0x20 ADD DUP1 DUP4 GT PUSH2 0x509 JUMPI DUP3 SWAP1 SUB PUSH1 0x1F AND DUP3 ADD SWAP2 JUMPDEST POP POP POP SWAP2 DUP4 MSTORE POP POP PUSH1 0x1 DUP3 ADD SLOAD PUSH1 0x20 DUP1 DUP4 ADD SWAP2 SWAP1 SWAP2 MSTORE PUSH1 0x2 SWAP1 SWAP3 ADD SLOAD PUSH1 0x1 PUSH1 0x1 PUSH1 0xA0 SHL SUB AND PUSH1 0x40 SWAP1 SWAP2 ADD MSTORE SWAP1 DUP3 MSTORE PUSH1 0x7 SWAP3 SWAP1 SWAP3 ADD SLOAD SWAP2 ADD MSTORE DUP4 MLOAD DUP5 SWAP1 DUP5 SWAP1 DUP2 LT PUSH2 0x572 JUMPI PUSH2 0x572 PUSH2 0x1024 JUMP JUMPDEST PUSH1 0x20 MUL PUSH1 0x20 ADD ADD DUP2 SWAP1 MSTORE POP DUP2 DUP1 PUSH2 0x588 SWAP1 PUSH2 0x103A JUMP JUMPDEST SWAP3 POP POP JUMPDEST DUP1 PUSH2 0x596 DUP2 PUSH2 0x103A JUMP JUMPDEST SWAP2 POP POP PUSH2 0x2AA JUMP JUMPDEST POP SWAP1 SWAP3 SWAP2 POP POP JUMP JUMPDEST PUSH1 0x40 DUP1 MLOAD PUSH1 0x80 PUSH1 0x20 PUSH1 0x1F DUP7 ADD DUP2 SWAP1 DIV MUL DUP3 ADD DUP2 ADD SWAP1 SWAP3 MSTORE PUSH1 0x60 DUP2 ADD DUP5 DUP2 MSTORE PUSH1 0x0 SWAP3 DUP3 SWAP2 SWAP1 DUP8 SWAP1 DUP8 SWAP1 DUP2 SWAP1 DUP6 ADD DUP4 DUP3 DUP1 DUP3 DUP5 CALLDATACOPY PUSH1 0x0 SWAP3 ADD DUP3 SWAP1 MSTORE POP SWAP4 DUP6 MSTORE POP POP POP PUSH1 0x20 DUP1 DUP4 ADD DUP7 SWAP1 MSTORE CALLER PUSH1 0x40 SWAP4 DUP5 ADD MSTORE DUP9 DUP3 MSTORE PUSH1 0x4 SWAP1 MSTORE KECCAK256 PUSH1 0x3 DUP2 ADD SLOAD SWAP2 SWAP3 POP SWAP1 PUSH1 0x1 PUSH1 0xA0 SHL SWAP1 DIV PUSH1 0xFF AND ISZERO PUSH2 0x651 JUMPI PUSH1 0x40 MLOAD PUSH3 0x461BCD PUSH1 0xE5 SHL DUP2 MSTORE PUSH1 0x20 PUSH1 0x4 DUP3 ADD MSTORE PUSH1 0x11 PUSH1 0x24 DUP3 ADD MSTORE PUSH17 0x10D85C9908185B1C9958591E481CDBDB19 PUSH1 0x7A SHL PUSH1 0x44 DUP3 ADD MSTORE PUSH1 0x64 ADD PUSH2 0x1BA JUMP JUMPDEST PUSH1 0x1 DUP2 DUP2 ADD SLOAD PUSH1 0x0 SWAP1 DUP2 MSTORE PUSH1 0x20 SWAP2 DUP3 MSTORE PUSH1 0x40 DUP1 DUP3 KECCAK256 SLOAD SWAP3 DUP6 ADD MLOAD DUP3 MSTORE DUP1 DUP3 KECCAK256 SLOAD DUP6 DUP3 ADD MLOAD DUP7 MLOAD SWAP3 MLOAD PUSH4 0x87F36969 PUSH1 0xE0 SHL DUP2 MSTORE PUSH1 0x1 PUSH1 0x1 PUSH1 0xA0 SHL SUB SWAP6 DUP7 AND SWAP6 SWAP1 SWAP3 AND SWAP4 SWAP3 DUP5 SWAP3 PUSH4 0x87F36969 SWAP3 PUSH2 0x6AA SWAP3 SWAP1 SWAP2 PUSH1 0x4 ADD PUSH2 0x1053 JUMP JUMPDEST PUSH1 0x20 PUSH1 0x40 MLOAD DUP1 DUP4 SUB DUP2 DUP7 GAS STATICCALL ISZERO DUP1 ISZERO PUSH2 0x6C7 JUMPI RETURNDATASIZE PUSH1 0x0 DUP1 RETURNDATACOPY RETURNDATASIZE PUSH1 0x0 REVERT JUMPDEST POP POP POP POP PUSH1 0x40 MLOAD RETURNDATASIZE PUSH1 0x1F NOT PUSH1 0x1F DUP3 ADD AND DUP3 ADD DUP1 PUSH1 0x40 MSTORE POP DUP2 ADD SWAP1 PUSH2 0x6EB SWAP2 SWAP1 PUSH2 0x107F JUMP JUMPDEST PUSH1 0x3 DUP1 SLOAD SWAP2 SWAP3 POP PUSH1 0x0 PUSH2 0x6FD DUP4 PUSH2 0xFBD JUMP JUMPDEST SWAP1 SWAP2 SSTORE POP POP PUSH1 0x3 DUP5 ADD DUP1 SLOAD PUSH1 0xFF PUSH1 0xA0 SHL NOT DUP2 AND PUSH1 0x1 PUSH1 0xA0 SHL OR SWAP1 SWAP2 SSTORE PUSH1 0x40 MLOAD PUSH4 0x87F36969 PUSH1 0xE0 SHL DUP2 MSTORE PUSH1 0x0 SWAP2 PUSH1 0x1 PUSH1 0x1 PUSH1 0xA0 SHL SUB DUP1 DUP8 AND SWAP3 PUSH4 0x87F36969 SWAP3 PUSH2 0x74B SWAP3 AND SWAP1 DUP10 SWAP1 PUSH1 0x4 ADD PUSH2 0x1098 JUMP JUMPDEST PUSH1 0x20 PUSH1 0x40 MLOAD DUP1 DUP4 SUB DUP2 DUP7 GAS STATICCALL ISZERO DUP1 ISZERO PUSH2 0x768 JUMPI RETURNDATASIZE PUSH1 0x0 DUP1 RETURNDATACOPY RETURNDATASIZE PUSH1 0x0 REVERT JUMPDEST POP POP POP POP PUSH1 0x40 MLOAD RETURNDATASIZE PUSH1 0x1F NOT PUSH1 0x1F DUP3 ADD AND DUP3 ADD DUP1 PUSH1 0x40 MSTORE POP DUP2 ADD SWAP1 PUSH2 0x78C SWAP2 SWAP1 PUSH2 0x107F JUMP JUMPDEST PUSH1 0x40 DUP1 MLOAD PUSH1 0x60 DUP1 DUP3 ADD DUP4 MSTORE DUP6 DUP3 MSTORE PUSH1 0x20 DUP11 DUP2 ADD MLOAD DUP2 DUP5 ADD MSTORE CALLER DUP4 DUP6 ADD MSTORE DUP4 MLOAD SWAP2 DUP3 ADD DUP5 MSTORE DUP5 DUP3 MSTORE PUSH1 0x1 DUP11 ADD SLOAD SWAP1 DUP3 ADD MSTORE PUSH1 0x3 DUP10 ADD SLOAD PUSH1 0x1 PUSH1 0x1 PUSH1 0xA0 SHL SUB AND DUP2 DUP5 ADD MSTORE SWAP2 MLOAD SWAP3 SWAP4 POP SWAP2 PUSH32 0x85B4E44F64686BA0D554898D20668847F103783030E50076BAA8C29F7728AEDA SWAP1 PUSH2 0x803 SWAP1 DUP5 SWAP1 DUP5 SWAP1 PUSH2 0x1133 JUMP JUMPDEST PUSH1 0x40 MLOAD DUP1 SWAP2 SUB SWAP1 LOG1 DUP8 MLOAD DUP9 SWAP1 PUSH1 0x4 DUP10 ADD SWAP1 DUP2 SWAP1 PUSH2 0x820 SWAP1 DUP3 PUSH2 0x11D0 JUMP JUMPDEST POP PUSH1 0x20 DUP3 ADD MLOAD PUSH1 0x1 DUP3 ADD SSTORE PUSH1 0x40 SWAP1 SWAP2 ADD MLOAD PUSH1 0x2 SWAP1 SWAP2 ADD DUP1 SLOAD PUSH1 0x1 PUSH1 0x1 PUSH1 0xA0 SHL SUB NOT AND PUSH1 0x1 PUSH1 0x1 PUSH1 0xA0 SHL SUB SWAP1 SWAP3 AND SWAP2 SWAP1 SWAP2 OR SWAP1 SSTORE POP POP POP POP POP POP POP POP POP POP POP POP JUMP JUMPDEST PUSH2 0x869 PUSH2 0xA81 JUMP JUMPDEST PUSH2 0x873 PUSH1 0x0 PUSH2 0xAAE JUMP JUMPDEST JUMP JUMPDEST PUSH2 0x87D PUSH2 0xA81 JUMP JUMPDEST PUSH1 0x0 SWAP2 DUP3 MSTORE PUSH1 0x1 PUSH1 0x20 MSTORE PUSH1 0x40 SWAP1 SWAP2 KECCAK256 DUP1 SLOAD PUSH1 0x1 PUSH1 0x1 PUSH1 0xA0 SHL SUB NOT AND PUSH1 0x1 PUSH1 0x1 PUSH1 0xA0 SHL SUB SWAP1 SWAP3 AND SWAP2 SWAP1 SWAP2 OR SWAP1 SSTORE JUMP JUMPDEST PUSH1 0x40 MLOAD DUP1 PUSH1 0xE0 ADD PUSH1 0x40 MSTORE DUP1 DUP7 DUP7 DUP1 DUP1 PUSH1 0x1F ADD PUSH1 0x20 DUP1 SWAP2 DIV MUL PUSH1 0x20 ADD PUSH1 0x40 MLOAD SWAP1 DUP2 ADD PUSH1 0x40 MSTORE DUP1 SWAP4 SWAP3 SWAP2 SWAP1 DUP2 DUP2 MSTORE PUSH1 0x20 ADD DUP4 DUP4 DUP1 DUP3 DUP5 CALLDATACOPY PUSH1 0x0 SWAP3 ADD SWAP2 SWAP1 SWAP2 MSTORE POP POP POP SWAP1 DUP3 MSTORE POP PUSH1 0x20 DUP2 ADD DUP6 SWAP1 MSTORE PUSH1 0x40 ADD PUSH2 0x903 DUP4 DUP6 PUSH2 0x12C1 JUMP JUMPDEST DUP2 MSTORE CALLER PUSH1 0x20 DUP1 DUP4 ADD SWAP2 SWAP1 SWAP2 MSTORE PUSH1 0x0 PUSH1 0x40 DUP1 DUP5 ADD DUP3 SWAP1 MSTORE DUP1 MLOAD PUSH1 0x80 DUP1 DUP3 ADD DUP4 MSTORE PUSH1 0x60 DUP3 DUP2 ADD DUP6 DUP2 MSTORE DUP4 MSTORE DUP3 DUP7 ADD DUP6 SWAP1 MSTORE DUP3 DUP5 ADD DUP6 SWAP1 MSTORE DUP7 ADD SWAP2 SWAP1 SWAP2 MSTORE PUSH1 0x2 SLOAD SWAP5 ADD DUP5 SWAP1 MSTORE SWAP3 DUP2 MSTORE PUSH1 0x4 SWAP1 SWAP2 MSTORE KECCAK256 DUP2 MLOAD DUP2 SWAP1 PUSH2 0x95D SWAP1 DUP3 PUSH2 0x11D0 JUMP JUMPDEST POP PUSH1 0x20 DUP3 DUP2 ADD MLOAD PUSH1 0x1 DUP4 ADD SSTORE PUSH1 0x40 DUP4 ADD MLOAD DUP1 MLOAD PUSH2 0x980 SWAP3 PUSH1 0x2 DUP6 ADD SWAP3 ADD SWAP1 PUSH2 0xB71 JUMP JUMPDEST POP PUSH1 0x60 DUP3 ADD MLOAD PUSH1 0x3 DUP3 ADD DUP1 SLOAD PUSH1 0x80 DUP6 ADD MLOAD ISZERO ISZERO PUSH1 0x1 PUSH1 0xA0 SHL MUL PUSH1 0x1 PUSH1 0x1 PUSH1 0xA8 SHL SUB NOT SWAP1 SWAP2 AND PUSH1 0x1 PUSH1 0x1 PUSH1 0xA0 SHL SUB SWAP1 SWAP4 AND SWAP3 SWAP1 SWAP3 OR SWAP2 SWAP1 SWAP2 OR SWAP1 SSTORE PUSH1 0xA0 DUP3 ADD MLOAD DUP1 MLOAD PUSH1 0x4 DUP4 ADD SWAP1 DUP2 SWAP1 PUSH2 0x9D2 SWAP1 DUP3 PUSH2 0x11D0 JUMP JUMPDEST POP PUSH1 0x20 DUP3 ADD MLOAD PUSH1 0x1 DUP3 ADD SSTORE PUSH1 0x40 SWAP1 SWAP2 ADD MLOAD PUSH1 0x2 SWAP1 SWAP2 ADD DUP1 SLOAD PUSH1 0x1 PUSH1 0x1 PUSH1 0xA0 SHL SUB NOT AND PUSH1 0x1 PUSH1 0x1 PUSH1 0xA0 SHL SUB SWAP1 SWAP3 AND SWAP2 SWAP1 SWAP2 OR SWAP1 SSTORE PUSH1 0xC0 SWAP2 SWAP1 SWAP2 ADD MLOAD PUSH1 0x7 SWAP1 SWAP2 ADD SSTORE PUSH1 0x3 DUP1 SLOAD SWAP1 PUSH1 0x0 PUSH2 0xA22 DUP4 PUSH2 0x103A JUMP JUMPDEST SWAP1 SWAP2 SSTORE POP POP PUSH1 0x2 DUP1 SLOAD SWAP1 PUSH1 0x0 PUSH2 0xA37 DUP4 PUSH2 0x103A JUMP JUMPDEST SWAP2 SWAP1 POP SSTORE POP POP POP POP POP POP JUMP JUMPDEST PUSH2 0xA4B PUSH2 0xA81 JUMP JUMPDEST PUSH1 0x1 PUSH1 0x1 PUSH1 0xA0 SHL SUB DUP2 AND PUSH2 0xA75 JUMPI PUSH1 0x40 MLOAD PUSH4 0x1E4FBDF7 PUSH1 0xE0 SHL DUP2 MSTORE PUSH1 0x0 PUSH1 0x4 DUP3 ADD MSTORE PUSH1 0x24 ADD PUSH2 0x1BA JUMP JUMPDEST PUSH2 0xA7E DUP2 PUSH2 0xAAE JUMP JUMPDEST POP JUMP JUMPDEST PUSH1 0x0 SLOAD PUSH1 0x1 PUSH1 0x1 PUSH1 0xA0 SHL SUB AND CALLER EQ PUSH2 0x873 JUMPI PUSH1 0x40 MLOAD PUSH4 0x118CDAA7 PUSH1 0xE0 SHL DUP2 MSTORE CALLER PUSH1 0x4 DUP3 ADD MSTORE PUSH1 0x24 ADD PUSH2 0x1BA JUMP JUMPDEST PUSH1 0x0 DUP1 SLOAD PUSH1 0x1 PUSH1 0x1 PUSH1 0xA0 SHL SUB DUP4 DUP2 AND PUSH1 0x1 PUSH1 0x1 PUSH1 0xA0 SHL SUB NOT DUP4 AND DUP2 OR DUP5 SSTORE PUSH1 0x40 MLOAD SWAP2 SWAP1 SWAP3 AND SWAP3 DUP4 SWAP2 PUSH32 0x8BE0079C531659141344CD1FD0A4F28419497F9722A3DAAFE3B4186F6B6457E0 SWAP2 SWAP1 LOG3 POP POP JUMP JUMPDEST PUSH1 0x40 MLOAD DUP1 PUSH1 0xE0 ADD PUSH1 0x40 MSTORE DUP1 PUSH1 0x60 DUP2 MSTORE PUSH1 0x20 ADD PUSH1 0x0 DUP2 MSTORE PUSH1 0x20 ADD PUSH1 0x60 DUP2 MSTORE PUSH1 0x20 ADD PUSH1 0x0 PUSH1 0x1 PUSH1 0x1 PUSH1 0xA0 SHL SUB AND DUP2 MSTORE PUSH1 0x20 ADD PUSH1 0x0 ISZERO ISZERO DUP2 MSTORE PUSH1 0x20 ADD PUSH2 0xB64 PUSH1 0x40 MLOAD DUP1 PUSH1 0x60 ADD PUSH1 0x40 MSTORE DUP1 PUSH1 0x60 DUP2 MSTORE PUSH1 0x20 ADD PUSH1 0x0 DUP2 MSTORE PUSH1 0x20 ADD PUSH1 0x0 PUSH1 0x1 PUSH1 0x1 PUSH1 0xA0 SHL SUB AND DUP2 MSTORE POP SWAP1 JUMP JUMPDEST DUP2 MSTORE PUSH1 0x20 ADD PUSH1 0x0 DUP2 MSTORE POP SWAP1 JUMP JUMPDEST DUP3 DUP1 SLOAD DUP3 DUP3 SSTORE SWAP1 PUSH1 0x0 MSTORE PUSH1 0x20 PUSH1 0x0 KECCAK256 SWAP1 DUP2 ADD SWAP3 DUP3 ISZERO PUSH2 0xBB7 JUMPI SWAP2 PUSH1 0x20 MUL DUP3 ADD JUMPDEST DUP3 DUP2 GT ISZERO PUSH2 0xBB7 JUMPI DUP3 MLOAD DUP3 SWAP1 PUSH2 0xBA7 SWAP1 DUP3 PUSH2 0x11D0 JUMP JUMPDEST POP SWAP2 PUSH1 0x20 ADD SWAP2 SWAP1 PUSH1 0x1 ADD SWAP1 PUSH2 0xB91 JUMP JUMPDEST POP PUSH2 0xBC3 SWAP3 SWAP2 POP PUSH2 0xBC7 JUMP JUMPDEST POP SWAP1 JUMP JUMPDEST DUP1 DUP3 GT ISZERO PUSH2 0xBC3 JUMPI PUSH1 0x0 PUSH2 0xBDB DUP3 DUP3 PUSH2 0xBE4 JUMP JUMPDEST POP PUSH1 0x1 ADD PUSH2 0xBC7 JUMP JUMPDEST POP DUP1 SLOAD PUSH2 0xBF0 SWAP1 PUSH2 0xFEA JUMP JUMPDEST PUSH1 0x0 DUP3 SSTORE DUP1 PUSH1 0x1F LT PUSH2 0xC00 JUMPI POP POP JUMP JUMPDEST PUSH1 0x1F ADD PUSH1 0x20 SWAP1 DIV SWAP1 PUSH1 0x0 MSTORE PUSH1 0x20 PUSH1 0x0 KECCAK256 SWAP1 DUP2 ADD SWAP1 PUSH2 0xA7E SWAP2 SWAP1 JUMPDEST DUP1 DUP3 GT ISZERO PUSH2 0xBC3 JUMPI PUSH1 0x0 DUP2 SSTORE PUSH1 0x1 ADD PUSH2 0xC1A JUMP JUMPDEST PUSH1 0x0 PUSH1 0x20 DUP3 DUP5 SUB SLT ISZERO PUSH2 0xC40 JUMPI PUSH1 0x0 DUP1 REVERT JUMPDEST POP CALLDATALOAD SWAP2 SWAP1 POP JUMP JUMPDEST PUSH1 0x0 DUP2 MLOAD DUP1 DUP5 MSTORE PUSH1 0x0 JUMPDEST DUP2 DUP2 LT ISZERO PUSH2 0xC6D JUMPI PUSH1 0x20 DUP2 DUP6 ADD DUP2 ADD MLOAD DUP7 DUP4 ADD DUP3 ADD MSTORE ADD PUSH2 0xC51 JUMP JUMPDEST POP PUSH1 0x0 PUSH1 0x20 DUP3 DUP7 ADD ADD MSTORE PUSH1 0x20 PUSH1 0x1F NOT PUSH1 0x1F DUP4 ADD AND DUP6 ADD ADD SWAP2 POP POP SWAP3 SWAP2 POP POP JUMP JUMPDEST PUSH1 0x0 DUP2 MLOAD PUSH1 0x60 DUP5 MSTORE PUSH2 0xCA2 PUSH1 0x60 DUP6 ADD DUP3 PUSH2 0xC47 JUMP JUMPDEST PUSH1 0x20 DUP5 DUP2 ADD MLOAD SWAP1 DUP7 ADD MSTORE PUSH1 0x40 SWAP4 DUP5 ADD MLOAD PUSH1 0x1 PUSH1 0x1 PUSH1 0xA0 SHL SUB AND SWAP4 SWAP1 SWAP5 ADD SWAP3 SWAP1 SWAP3 MSTORE POP SWAP1 SWAP2 SWAP1 POP JUMP JUMPDEST PUSH1 0x20 DUP1 DUP3 MSTORE DUP3 MLOAD DUP3 DUP3 ADD DUP2 SWAP1 MSTORE PUSH1 0x0 SWAP2 SWAP1 PUSH1 0x40 SWAP1 DUP2 DUP6 ADD SWAP1 PUSH1 0x5 DUP2 DUP2 SHL DUP8 ADD DUP5 ADD DUP9 DUP7 ADD DUP8 DUP1 JUMPDEST DUP6 DUP2 LT ISZERO PUSH2 0xDEB JUMPI PUSH1 0x3F NOT DUP12 DUP6 SUB ADD DUP8 MSTORE DUP3 MLOAD PUSH1 0xE0 DUP2 MLOAD DUP2 DUP8 MSTORE PUSH2 0xD17 DUP3 DUP9 ADD DUP3 PUSH2 0xC47 JUMP JUMPDEST DUP4 DUP14 ADD MLOAD DUP9 DUP15 ADD MSTORE DUP12 DUP5 ADD MLOAD DUP9 DUP3 SUB DUP14 DUP11 ADD MSTORE DUP1 MLOAD DUP1 DUP4 MSTORE SWAP2 SWAP4 POP DUP14 ADD SWAP2 POP DUP13 DUP4 ADD SWAP1 DUP1 DUP11 SHL DUP5 ADD DUP15 ADD DUP8 JUMPDEST DUP3 DUP2 LT ISZERO PUSH2 0xD76 JUMPI PUSH1 0x1F NOT DUP7 DUP4 SUB ADD DUP5 MSTORE PUSH2 0xD5F DUP3 DUP7 MLOAD PUSH2 0xC47 JUMP JUMPDEST SWAP2 POP DUP16 DUP6 ADD SWAP5 POP DUP16 DUP5 ADD SWAP4 POP PUSH1 0x1 DUP2 ADD SWAP1 POP PUSH2 0xD43 JUMP JUMPDEST POP PUSH1 0x60 SWAP5 POP DUP5 DUP7 ADD MLOAD SWAP4 POP PUSH2 0xD95 DUP6 DUP12 ADD DUP6 PUSH1 0x1 PUSH1 0x1 PUSH1 0xA0 SHL SUB AND SWAP1 MSTORE JUMP JUMPDEST PUSH1 0x80 SWAP5 POP DUP5 DUP7 ADD MLOAD SWAP4 POP PUSH2 0xDAC DUP6 DUP12 ADD DUP6 ISZERO ISZERO SWAP1 MSTORE JUMP JUMPDEST PUSH1 0xA0 SWAP5 POP DUP5 DUP7 ADD MLOAD SWAP4 POP DUP10 DUP2 SUB DUP6 DUP12 ADD MSTORE PUSH2 0xDC7 DUP2 DUP6 PUSH2 0xC8D JUMP JUMPDEST PUSH1 0xC0 SWAP7 DUP8 ADD MLOAD SWAP11 SWAP1 SWAP7 ADD SWAP10 SWAP1 SWAP10 MSTORE POP POP POP SWAP8 DUP11 ADD SWAP8 POP SWAP4 POP SWAP2 DUP9 ADD SWAP2 PUSH1 0x1 ADD PUSH2 0xCF1 JUMP JUMPDEST POP SWAP2 SWAP11 SWAP10 POP POP POP POP POP POP POP POP POP POP JUMP JUMPDEST PUSH1 0x0 DUP1 DUP4 PUSH1 0x1F DUP5 ADD SLT PUSH2 0xE0D JUMPI PUSH1 0x0 DUP1 REVERT JUMPDEST POP DUP2 CALLDATALOAD PUSH8 0xFFFFFFFFFFFFFFFF DUP2 GT ISZERO PUSH2 0xE25 JUMPI PUSH1 0x0 DUP1 REVERT JUMPDEST PUSH1 0x20 DUP4 ADD SWAP2 POP DUP4 PUSH1 0x20 DUP3 DUP6 ADD ADD GT ISZERO PUSH2 0xE3D JUMPI PUSH1 0x0 DUP1 REVERT JUMPDEST SWAP3 POP SWAP3 SWAP1 POP JUMP JUMPDEST PUSH1 0x0 DUP1 PUSH1 0x0 DUP1 PUSH1 0x60 DUP6 DUP8 SUB SLT ISZERO PUSH2 0xE5A JUMPI PUSH1 0x0 DUP1 REVERT JUMPDEST DUP5 CALLDATALOAD SWAP4 POP PUSH1 0x20 DUP6 ADD CALLDATALOAD PUSH8 0xFFFFFFFFFFFFFFFF DUP2 GT ISZERO PUSH2 0xE78 JUMPI PUSH1 0x0 DUP1 REVERT JUMPDEST PUSH2 0xE84 DUP8 DUP3 DUP9 ADD PUSH2 0xDFB JUMP JUMPDEST SWAP6 SWAP9 SWAP1 SWAP8 POP SWAP5 SWAP6 PUSH1 0x40 ADD CALLDATALOAD SWAP5 SWAP4 POP POP POP POP JUMP JUMPDEST PUSH1 0x1 PUSH1 0x1 PUSH1 0xA0 SHL SUB DUP2 AND DUP2 EQ PUSH2 0xA7E JUMPI PUSH1 0x0 DUP1 REVERT JUMPDEST PUSH1 0x0 DUP1 PUSH1 0x40 DUP4 DUP6 SUB SLT ISZERO PUSH2 0xEBF JUMPI PUSH1 0x0 DUP1 REVERT JUMPDEST DUP3 CALLDATALOAD SWAP2 POP PUSH1 0x20 DUP4 ADD CALLDATALOAD PUSH2 0xED1 DUP2 PUSH2 0xE97 JUMP JUMPDEST DUP1 SWAP2 POP POP SWAP3 POP SWAP3 SWAP1 POP JUMP JUMPDEST PUSH1 0x0 DUP1 PUSH1 0x0 DUP1 PUSH1 0x0 PUSH1 0x60 DUP7 DUP9 SUB SLT ISZERO PUSH2 0xEF4 JUMPI PUSH1 0x0 DUP1 REVERT JUMPDEST DUP6 CALLDATALOAD PUSH8 0xFFFFFFFFFFFFFFFF DUP1 DUP3 GT ISZERO PUSH2 0xF0C JUMPI PUSH1 0x0 DUP1 REVERT JUMPDEST PUSH2 0xF18 DUP10 DUP4 DUP11 ADD PUSH2 0xDFB JUMP JUMPDEST SWAP1 SWAP8 POP SWAP6 POP PUSH1 0x20 DUP9 ADD CALLDATALOAD SWAP5 POP PUSH1 0x40 DUP9 ADD CALLDATALOAD SWAP2 POP DUP1 DUP3 GT ISZERO PUSH2 0xF38 JUMPI PUSH1 0x0 DUP1 REVERT JUMPDEST DUP2 DUP9 ADD SWAP2 POP DUP9 PUSH1 0x1F DUP4 ADD SLT PUSH2 0xF4C JUMPI PUSH1 0x0 DUP1 REVERT JUMPDEST DUP2 CALLDATALOAD DUP2 DUP2 GT ISZERO PUSH2 0xF5B JUMPI PUSH1 0x0 DUP1 REVERT JUMPDEST DUP10 PUSH1 0x20 DUP3 PUSH1 0x5 SHL DUP6 ADD ADD GT ISZERO PUSH2 0xF70 JUMPI PUSH1 0x0 DUP1 REVERT JUMPDEST SWAP7 SWAP10 SWAP6 SWAP9 POP SWAP4 SWAP7 POP PUSH1 0x20 ADD SWAP5 SWAP4 SWAP3 POP POP POP JUMP JUMPDEST PUSH1 0x0 PUSH1 0x20 DUP3 DUP5 SUB SLT ISZERO PUSH2 0xF95 JUMPI PUSH1 0x0 DUP1 REVERT JUMPDEST DUP2 CALLDATALOAD PUSH2 0xFA0 DUP2 PUSH2 0xE97 JUMP JUMPDEST SWAP4 SWAP3 POP POP POP JUMP JUMPDEST PUSH4 0x4E487B71 PUSH1 0xE0 SHL PUSH1 0x0 MSTORE PUSH1 0x11 PUSH1 0x4 MSTORE PUSH1 0x24 PUSH1 0x0 REVERT JUMPDEST PUSH1 0x0 DUP2 PUSH2 0xFCC JUMPI PUSH2 0xFCC PUSH2 0xFA7 JUMP JUMPDEST POP PUSH1 0x0 NOT ADD SWAP1 JUMP JUMPDEST PUSH4 0x4E487B71 PUSH1 0xE0 SHL PUSH1 0x0 MSTORE PUSH1 0x41 PUSH1 0x4 MSTORE PUSH1 0x24 PUSH1 0x0 REVERT JUMPDEST PUSH1 0x1 DUP2 DUP2 SHR SWAP1 DUP3 AND DUP1 PUSH2 0xFFE JUMPI PUSH1 0x7F DUP3 AND SWAP2 POP JUMPDEST PUSH1 0x20 DUP3 LT DUP2 SUB PUSH2 0x101E JUMPI PUSH4 0x4E487B71 PUSH1 0xE0 SHL PUSH1 0x0 MSTORE PUSH1 0x22 PUSH1 0x4 MSTORE PUSH1 0x24 PUSH1 0x0 REVERT JUMPDEST POP SWAP2 SWAP1 POP JUMP JUMPDEST PUSH4 0x4E487B71 PUSH1 0xE0 SHL PUSH1 0x0 MSTORE PUSH1 0x32 PUSH1 0x4 MSTORE PUSH1 0x24 PUSH1 0x0 REVERT JUMPDEST PUSH1 0x0 PUSH1 0x1 DUP3 ADD PUSH2 0x104C JUMPI PUSH2 0x104C PUSH2 0xFA7 JUMP JUMPDEST POP PUSH1 0x1 ADD SWAP1 JUMP JUMPDEST PUSH1 0x1 PUSH1 0x1 PUSH1 0xA0 SHL SUB DUP4 AND DUP2 MSTORE PUSH1 0x40 PUSH1 0x20 DUP3 ADD DUP2 SWAP1 MSTORE PUSH1 0x0 SWAP1 PUSH2 0x1077 SWAP1 DUP4 ADD DUP5 PUSH2 0xC47 JUMP JUMPDEST SWAP5 SWAP4 POP POP POP POP JUMP JUMPDEST PUSH1 0x0 PUSH1 0x20 DUP3 DUP5 SUB SLT ISZERO PUSH2 0x1091 JUMPI PUSH1 0x0 DUP1 REVERT JUMPDEST POP MLOAD SWAP2 SWAP1 POP JUMP JUMPDEST PUSH1 0x1 DUP1 PUSH1 0xA0 SHL SUB DUP4 AND DUP2 MSTORE PUSH1 0x0 PUSH1 0x20 PUSH1 0x40 DUP2 DUP5 ADD MSTORE PUSH1 0x0 DUP5 SLOAD PUSH2 0x10BA DUP2 PUSH2 0xFEA JUMP JUMPDEST DUP1 PUSH1 0x40 DUP8 ADD MSTORE PUSH1 0x60 PUSH1 0x1 DUP1 DUP5 AND PUSH1 0x0 DUP2 EQ PUSH2 0x10DC JUMPI PUSH1 0x1 DUP2 EQ PUSH2 0x10F6 JUMPI PUSH2 0x1124 JUMP JUMPDEST PUSH1 0xFF NOT DUP6 AND DUP10 DUP5 ADD MSTORE DUP4 ISZERO ISZERO PUSH1 0x5 SHL DUP10 ADD DUP4 ADD SWAP6 POP PUSH2 0x1124 JUMP JUMPDEST DUP10 PUSH1 0x0 MSTORE DUP7 PUSH1 0x0 KECCAK256 PUSH1 0x0 JUMPDEST DUP6 DUP2 LT ISZERO PUSH2 0x111C JUMPI DUP2 SLOAD DUP12 DUP3 ADD DUP7 ADD MSTORE SWAP1 DUP4 ADD SWAP1 DUP9 ADD PUSH2 0x1101 JUMP JUMPDEST DUP11 ADD DUP5 ADD SWAP7 POP POP JUMPDEST POP SWAP4 SWAP10 SWAP9 POP POP POP POP POP POP POP POP POP JUMP JUMPDEST DUP3 MLOAD DUP2 MSTORE PUSH1 0x20 DUP1 DUP5 ADD MLOAD SWAP1 DUP3 ADD MSTORE PUSH1 0x40 DUP1 DUP5 ADD MLOAD PUSH1 0x1 PUSH1 0x1 PUSH1 0xA0 SHL SUB AND SWAP1 DUP3 ADD MSTORE PUSH1 0xC0 DUP2 ADD DUP3 MLOAD PUSH1 0x60 DUP4 ADD MSTORE PUSH1 0x20 DUP4 ADD MLOAD PUSH1 0x80 DUP4 ADD MSTORE PUSH1 0x40 DUP4 ADD MLOAD PUSH1 0x1 PUSH1 0x1 PUSH1 0xA0 SHL SUB AND PUSH1 0xA0 DUP4 ADD MSTORE PUSH2 0xFA0 JUMP JUMPDEST PUSH1 0x1F DUP3 GT ISZERO PUSH2 0x11CB JUMPI PUSH1 0x0 DUP2 DUP2 MSTORE PUSH1 0x20 DUP2 KECCAK256 PUSH1 0x1F DUP6 ADD PUSH1 0x5 SHR DUP2 ADD PUSH1 0x20 DUP7 LT ISZERO PUSH2 0x11A8 JUMPI POP DUP1 JUMPDEST PUSH1 0x1F DUP6 ADD PUSH1 0x5 SHR DUP3 ADD SWAP2 POP JUMPDEST DUP2 DUP2 LT ISZERO PUSH2 0x11C7 JUMPI DUP3 DUP2 SSTORE PUSH1 0x1 ADD PUSH2 0x11B4 JUMP JUMPDEST POP POP POP JUMPDEST POP POP POP JUMP JUMPDEST DUP2 MLOAD PUSH8 0xFFFFFFFFFFFFFFFF DUP2 GT ISZERO PUSH2 0x11EA JUMPI PUSH2 0x11EA PUSH2 0xFD4 JUMP JUMPDEST PUSH2 0x11FE DUP2 PUSH2 0x11F8 DUP5 SLOAD PUSH2 0xFEA JUMP JUMPDEST DUP5 PUSH2 0x1181 JUMP JUMPDEST PUSH1 0x20 DUP1 PUSH1 0x1F DUP4 GT PUSH1 0x1 DUP2 EQ PUSH2 0x1233 JUMPI PUSH1 0x0 DUP5 ISZERO PUSH2 0x121B JUMPI POP DUP6 DUP4 ADD MLOAD JUMPDEST PUSH1 0x0 NOT PUSH1 0x3 DUP7 SWAP1 SHL SHR NOT AND PUSH1 0x1 DUP6 SWAP1 SHL OR DUP6 SSTORE PUSH2 0x11C7 JUMP JUMPDEST PUSH1 0x0 DUP6 DUP2 MSTORE PUSH1 0x20 DUP2 KECCAK256 PUSH1 0x1F NOT DUP7 AND SWAP2 JUMPDEST DUP3 DUP2 LT ISZERO PUSH2 0x1262 JUMPI DUP9 DUP7 ADD MLOAD DUP3 SSTORE SWAP5 DUP5 ADD SWAP5 PUSH1 0x1 SWAP1 SWAP2 ADD SWAP1 DUP5 ADD PUSH2 0x1243 JUMP JUMPDEST POP DUP6 DUP3 LT ISZERO PUSH2 0x1280 JUMPI DUP8 DUP6 ADD MLOAD PUSH1 0x0 NOT PUSH1 0x3 DUP9 SWAP1 SHL PUSH1 0xF8 AND SHR NOT AND DUP2 SSTORE JUMPDEST POP POP POP POP POP PUSH1 0x1 SWAP1 DUP2 SHL ADD SWAP1 SSTORE POP JUMP JUMPDEST PUSH1 0x40 MLOAD PUSH1 0x1F DUP3 ADD PUSH1 0x1F NOT AND DUP2 ADD PUSH8 0xFFFFFFFFFFFFFFFF DUP2 GT DUP3 DUP3 LT OR ISZERO PUSH2 0x12B9 JUMPI PUSH2 0x12B9 PUSH2 0xFD4 JUMP JUMPDEST PUSH1 0x40 MSTORE SWAP2 SWAP1 POP JUMP JUMPDEST PUSH1 0x0 PUSH8 0xFFFFFFFFFFFFFFFF DUP1 DUP5 GT ISZERO PUSH2 0x12DC JUMPI PUSH2 0x12DC PUSH2 0xFD4 JUMP JUMPDEST DUP4 PUSH1 0x5 SHL PUSH1 0x20 PUSH2 0x12ED DUP2 DUP4 ADD PUSH2 0x1290 JUMP JUMPDEST DUP7 DUP2 MSTORE SWAP2 DUP6 ADD SWAP2 DUP2 DUP2 ADD SWAP1 CALLDATASIZE DUP5 GT ISZERO PUSH2 0x1305 JUMPI PUSH1 0x0 DUP1 REVERT JUMPDEST DUP7 JUMPDEST DUP5 DUP2 LT ISZERO PUSH2 0x138A JUMPI DUP1 CALLDATALOAD DUP7 DUP2 GT ISZERO PUSH2 0x131F JUMPI PUSH1 0x0 DUP1 DUP2 REVERT JUMPDEST DUP9 ADD PUSH1 0x1F CALLDATASIZE DUP2 DUP4 ADD SLT PUSH2 0x1332 JUMPI PUSH1 0x0 DUP1 DUP2 REVERT JUMPDEST DUP2 CALLDATALOAD DUP9 DUP2 GT ISZERO PUSH2 0x1344 JUMPI PUSH2 0x1344 PUSH2 0xFD4 JUMP JUMPDEST PUSH2 0x1355 DUP2 DUP4 ADD PUSH1 0x1F NOT AND DUP9 ADD PUSH2 0x1290 JUMP JUMPDEST SWAP2 POP DUP1 DUP3 MSTORE CALLDATASIZE DUP8 DUP3 DUP6 ADD ADD GT ISZERO PUSH2 0x136C JUMPI PUSH1 0x0 DUP1 DUP2 REVERT JUMPDEST DUP1 DUP8 DUP5 ADD DUP9 DUP5 ADD CALLDATACOPY PUSH1 0x0 SWAP1 DUP3 ADD DUP8 ADD MSTORE DUP5 MSTORE POP SWAP2 DUP4 ADD SWAP2 DUP4 ADD PUSH2 0x1307 JUMP JUMPDEST POP SWAP8 SWAP7 POP POP POP POP POP POP POP JUMP INVALID LOG2 PUSH5 0x6970667358 0x22 SLT KECCAK256 0x23 AND PUSH14 0x2D984BCC3820D82D5D781CA55536 0xDE 0xFB 0xBC 0x23 PREVRANDAO SWAP3 0xBD DUP14 BASEFEE SDIV 0xDF DUP3 DUP12 0x5E DUP7 PUSH5 0x736F6C6343 STOP ADDMOD EQ STOP CALLER "},"gasEstimates":{"creation":{"codeDepositCost":"4171800","executionCost":"infinite","totalCost":"infinite"},"external":{"createCollection(string,string,string[])":"infinite","getAllCardsFromBlockChain()":"infinite","getAllCollectionNames()":"infinite","getCollectionFromId(uint256)":"2521","getCollectionFromName(string)":"infinite","getCollectionIdFromName(string)":"infinite","getMarketPlace()":"2409","getNbCollections()":"2326","nbCollections()":"2307","owner()":"2331","renounceOwnership()":"infinite","transferOwnership(address)":"28408"}},"methodIdentifiers":{"createCollection(string,string,string[])":"e2f82ba6","getAllCardsFromBlockChain()":"5d5d667b","getAllCollectionNames()":"ace8116d","getCollectionFromId(uint256)":"95657db0","getCollectionFromName(string)":"93a1efb7","getCollectionIdFromName(string)":"56cb5087","getMarketPlace()":"64d00c45","getNbCollections()":"5cd8387f","nbCollections()":"5a2ff1a0","owner()":"8da5cb5b","renounceOwnership()":"715018a6","transferOwnership(address)":"f2fde38b"}},"storageLayout":{"storage":[{"astId":8,"contract":"src/Main.sol:Main","label":"_owner","offset":0,"slot":"0","type":"t_address"},{"astId":4754,"contract":"src/Main.sol:Main","label":"nbCollections","offset":0,"slot":"1","type":"t_uint256"},{"astId":4758,"contract":"src/Main.sol:Main","label":"_nameToId","offset":0,"slot":"2","type":"t_mapping(t_string_memory_ptr,t_uint256)"},{"astId":4763,"contract":"src/Main.sol:Main","label":"_idToCollection","offset":0,"slot":"3","type":"t_mapping(t_uint256,t_contract(Collection)4744)"},{"astId":4766,"contract":"src/Main.sol:Main","label":"_marketPlace","offset":0,"slot":"4","type":"t_contract(MarketPlace)5374"}],"types":{"t_address":{"encoding":"inplace","label":"address","numberOfBytes":"20"},"t_contract(Collection)4744":{"encoding":"inplace","label":"contract Collection","numberOfBytes":"20"},"t_contract(MarketPlace)5374":{"encoding":"inplace","label":"contract MarketPlace","numberOfBytes":"20"},"t_mapping(t_string_memory_ptr,t_uint256)":{"encoding":"mapping","key":"t_string_memory_ptr","label":"mapping(string => uint256)","numberOfBytes":"32","value":"t_uint256"},"t_mapping(t_uint256,t_contract(Collection)4744)":{"encoding":"mapping","key":"t_uint256","label":"mapping(uint256 => contract Collection)","numberOfBytes":"32","value":"t_contract(Collection)4744"},"t_string_memory_ptr":{"encoding":"bytes","label":"string","numberOfBytes":"32"},"t_uint256":{"encoding":"inplace","label":"uint256","numberOfBytes":"32"}}},"userdoc":{"kind":"user","methods":{},"version":1}}}}