{"src/MarketPlace.sol":{"MarketPlace":{"abi":[{"inputs":[{"internalType":"address","name":"owner","type":"address"}],"stateMutability":"nonpayable","type":"constructor"},{"inputs":[{"internalType":"address","name":"owner","type":"address"}],"name":"OwnableInvalidOwner","type":"error"},{"inputs":[{"internalType":"address","name":"account","type":"address"}],"name":"OwnableUnauthorizedAccount","type":"error"},{"anonymous":false,"inputs":[{"components":[{"internalType":"uint256","name":"tokenId","type":"uint256"},{"internalType":"uint256","name":"collectionId","type":"uint256"},{"internalType":"address","name":"owner","type":"address"}],"indexed":false,"internalType":"struct MarketPlace.ValidateTrade","name":"soldCard","type":"tuple"},{"components":[{"internalType":"uint256","name":"tokenId","type":"uint256"},{"internalType":"uint256","name":"collectionId","type":"uint256"},{"internalType":"address","name":"owner","type":"address"}],"indexed":false,"internalType":"struct MarketPlace.ValidateTrade","name":"acceptedTrade","type":"tuple"}],"name":"Exchange","type":"event"},{"anonymous":false,"inputs":[{"indexed":true,"internalType":"address","name":"previousOwner","type":"address"},{"indexed":true,"internalType":"address","name":"newOwner","type":"address"}],"name":"OwnershipTransferred","type":"event"},{"inputs":[{"internalType":"uint256","name":"collectionId","type":"uint256"},{"internalType":"contract Collection","name":"collection","type":"address"}],"name":"addCollection","outputs":[],"stateMutability":"nonpayable","type":"function"},{"inputs":[],"name":"aliveTrades","outputs":[{"internalType":"uint256","name":"","type":"uint256"}],"stateMutability":"view","type":"function"},{"inputs":[{"internalType":"uint256","name":"spotId","type":"uint256"},{"internalType":"string","name":"uri","type":"string"},{"internalType":"uint256","name":"collectionId","type":"uint256"}],"name":"buyCard","outputs":[],"stateMutability":"nonpayable","type":"function"},{"inputs":[],"name":"owner","outputs":[{"internalType":"address","name":"","type":"address"}],"stateMutability":"view","type":"function"},{"inputs":[],"name":"renounceOwnership","outputs":[],"stateMutability":"nonpayable","type":"function"},{"inputs":[],"name":"seeMarketPlace","outputs":[{"components":[{"internalType":"string","name":"id","type":"string"},{"internalType":"uint256","name":"collectionId","type":"uint256"},{"internalType":"string[]","name":"acceptedCurrencies","type":"string[]"},{"internalType":"address","name":"owner","type":"address"},{"internalType":"bool","name":"done","type":"bool"},{"components":[{"internalType":"string","name":"uri","type":"string"},{"internalType":"uint256","name":"collectionId","type":"uint256"},{"internalType":"address","name":"owner","type":"address"}],"internalType":"struct MarketPlace.Trade","name":"acceptedCurrency","type":"tuple"},{"internalType":"uint256","name":"spotId","type":"uint256"}],"internalType":"struct MarketPlace.Card[]","name":"","type":"tuple[]"}],"stateMutability":"view","type":"function"},{"inputs":[{"internalType":"string","name":"uri","type":"string"},{"internalType":"uint256","name":"collectionId","type":"uint256"},{"internalType":"string[]","name":"acceptedCurrency","type":"string[]"}],"name":"sellCard","outputs":[],"stateMutability":"nonpayable","type":"function"},{"inputs":[],"name":"tradesCount","outputs":[{"internalType":"uint256","name":"","type":"uint256"}],"stateMutability":"view","type":"function"},{"inputs":[{"internalType":"address","name":"newOwner","type":"address"}],"name":"transferOwnership","outputs":[],"stateMutability":"nonpayable","type":"function"},{"inputs":[{"internalType":"uint256","name":"spotId","type":"uint256"}],"name":"unSellCard","outputs":[],"stateMutability":"nonpayable","type":"function"}],"devdoc":{"errors":{"OwnableInvalidOwner(address)":[{"details":"The owner is not a valid owner account. (eg. `address(0)`)"}],"OwnableUnauthorizedAccount(address)":[{"details":"The caller account is not authorized to perform an operation."}]},"kind":"dev","methods":{"owner()":{"details":"Returns the address of the current owner."},"renounceOwnership()":{"details":"Leaves the contract without owner. It will not be possible to call `onlyOwner` functions. Can only be called by the current owner. NOTE: Renouncing ownership will leave the contract without an owner, thereby disabling any functionality that is only available to the owner."},"transferOwnership(address)":{"details":"Transfers ownership of the contract to a new account (`newOwner`). Can only be called by the current owner."}},"version":1},"evm":{"bytecode":{"linkReferences":{},"object":"60806040526000600255600060035534801561001a57600080fd5b506040516114dd3803806114dd833981016040819052610039916100d2565b806001600160a01b03811661006857604051631e4fbdf760e01b81526000600482015260240160405180910390fd5b61007181610082565b505060006002819055600355610102565b600080546001600160a01b038381166001600160a01b0319831681178455604051919092169283917f8be0079c531659141344cd1fd0a4f28419497f9722a3daafe3b4186f6b6457e09190a35050565b6000602082840312156100e457600080fd5b81516001600160a01b03811681146100fb57600080fd5b9392505050565b6113cc806101116000396000f3fe608060405234801561001057600080fd5b506004361061009d5760003560e01c8063715018a611610066578063715018a6146101045780638da5cb5b1461010c578063d7e362e514610127578063f2ab1cc01461013a578063f2fde38b1461014d57600080fd5b80623d10a4146100a2578063135befa8146100be5780633e31d066146100d35780634c633595146100e85780635932c02c146100fb575b600080fd5b6100ab60035481565b6040519081526020015b60405180910390f35b6100d16100cc366004610c2e565b610160565b005b6100db61024b565b6040516100b59190610cca565b6100d16100f6366004610e44565b6105a6565b6100ab60025481565b6100d1610861565b6000546040516001600160a01b0390911681526020016100b5565b6100d1610135366004610eac565b610875565b6100d1610148366004610edc565b6108ab565b6100d161015b366004610f83565b610a43565b60008181526004602052604090206003810154600160a01b900460ff16156101c35760405162461bcd60e51b815260206004820152601160248201527010d85c9908185b1c9958591e481cdbdb19607a1b60448201526064015b60405180910390fd5b60038101546001600160a01b0316331461021f5760405162461bcd60e51b815260206004820152601a60248201527f596f752063616e277420756e53656c6c2074686973206361726400000000000060448201526064016101ba565b6003805490600061022f83610fbd565b9091555050600301805460ff60a01b1916600160a01b17905550565b6060600060035467ffffffffffffffff81111561026a5761026a610fd4565b6040519080825280602002602001820160405280156102a357816020015b610290610afe565b8152602001906001900390816102885790505b5090506000805b60025481101561059e57600081815260046020526040902060030154600160a01b900460ff1661058c5760008181526004602052604090819020815160e081019092528054829082906102fc90610fea565b80601f016020809104026020016040519081016040528092919081815260200182805461032890610fea565b80156103755780601f1061034a57610100808354040283529160200191610375565b820191906000526020600020905b81548152906001019060200180831161035857829003601f168201915b505050505081526020016001820154815260200160028201805480602002602001604051908101604052809291908181526020016000905b828210156104595783829060005260206000200180546103cc90610fea565b80601f01602080910402602001604051908101604052809291908181526020018280546103f890610fea565b80156104455780601f1061041a57610100808354040283529160200191610445565b820191906000526020600020905b81548152906001019060200180831161042857829003601f168201915b5050505050815260200190600101906103ad565b5050509082525060038201546001600160a01b0381166020830152600160a01b900460ff1615156040808301919091528051606080820190925260048401805492909301929091829082906104ad90610fea565b80601f01602080910402602001604051908101604052809291908181526020018280546104d990610fea565b80156105265780601f106104fb57610100808354040283529160200191610526565b820191906000526020600020905b81548152906001019060200180831161050957829003601f168201915b505050918352505060018201546020808301919091526002909201546001600160a01b031660409091015290825260079290920154910152835184908490811061057257610572611024565b602002602001018190525081806105889061103a565b9250505b806105968161103a565b9150506102aa565b509092915050565b6040805160806020601f8601819004028201810190925260608101848152600092829190879087908190850183828082843760009201829052509385525050506020808301869052336040938401528882526004905220600381015491925090600160a01b900460ff16156106515760405162461bcd60e51b815260206004820152601160248201527010d85c9908185b1c9958591e481cdbdb19607a1b60448201526064016101ba565b600181810154600090815260209182526040808220549285015182528082205485820151865192516387f3696960e01b81526001600160a01b0395861695909216939284926387f36969926106aa929091600401611053565b602060405180830381865afa1580156106c7573d6000803e3d6000fd5b505050506040513d601f19601f820116820180604052508101906106eb919061107f565b6003805491925060006106fd83610fbd565b909155505060038401805460ff60a01b198116600160a01b179091556040516387f3696960e01b81526000916001600160a01b03808716926387f369699261074b9216908990600401611098565b602060405180830381865afa158015610768573d6000803e3d6000fd5b505050506040513d601f19601f8201168201806040525081019061078c919061107f565b604080516060808201835285825260208a8101518184015233838501528351918201845284825260018a01549082015260038901546001600160a01b0316818401529151929350917f85b4e44f64686ba0d554898d20668847f103783030e50076baa8c29f7728aeda906108039084908490611133565b60405180910390a1875188906004890190819061082090826111d0565b5060208201516001820155604090910151600290910180546001600160a01b0319166001600160a01b03909216919091179055505050505050505050505050565b610869610a81565b6108736000610aae565b565b61087d610a81565b60009182526001602052604090912080546001600160a01b0319166001600160a01b03909216919091179055565b6040518060e0016040528086868080601f0160208091040260200160405190810160405280939291908181526020018383808284376000920191909152505050908252506020810185905260400161090383856112c1565b815233602080830191909152600060408084018290528051608080820183526060828101858152835282860185905282840185905286019190915260025494018490529281526004909152208151819061095d90826111d0565b506020828101516001830155604083015180516109809260028501920190610b71565b50606082015160038201805460808501511515600160a01b026001600160a81b03199091166001600160a01b039093169290921791909117905560a08201518051600483019081906109d290826111d0565b5060208201516001820155604090910151600290910180546001600160a01b0319166001600160a01b0390921691909117905560c0919091015160079091015560038054906000610a228361103a565b909155505060028054906000610a378361103a565b91905055505050505050565b610a4b610a81565b6001600160a01b038116610a7557604051631e4fbdf760e01b8152600060048201526024016101ba565b610a7e81610aae565b50565b6000546001600160a01b031633146108735760405163118cdaa760e01b81523360048201526024016101ba565b600080546001600160a01b038381166001600160a01b0319831681178455604051919092169283917f8be0079c531659141344cd1fd0a4f28419497f9722a3daafe3b4186f6b6457e09190a35050565b6040518060e0016040528060608152602001600081526020016060815260200160006001600160a01b03168152602001600015158152602001610b646040518060600160405280606081526020016000815260200160006001600160a01b031681525090565b8152602001600081525090565b828054828255906000526020600020908101928215610bb7579160200282015b82811115610bb75782518290610ba790826111d0565b5091602001919060010190610b91565b50610bc3929150610bc7565b5090565b80821115610bc3576000610bdb8282610be4565b50600101610bc7565b508054610bf090610fea565b6000825580601f10610c00575050565b601f016020900490600052602060002090810190610a7e91905b80821115610bc35760008155600101610c1a565b600060208284031215610c4057600080fd5b5035919050565b6000815180845260005b81811015610c6d57602081850181015186830182015201610c51565b506000602082860101526020601f19601f83011685010191505092915050565b6000815160608452610ca26060850182610c47565b602084810151908601526040938401516001600160a01b031693909401929092525090919050565b602080825282518282018190526000919060409081850190600581811b8701840188860187805b85811015610deb57603f198b8503018752825160e08151818752610d1782880182610c47565b838d0151888e01528b8401518882038d8a015280518083529193508d0191508c830190808a1b84018e01875b82811015610d7657601f19868303018452610d5f828651610c47565b91508f850194508f84019350600181019050610d43565b5060609450848601519350610d95858b01856001600160a01b03169052565b60809450848601519350610dac858b018515159052565b60a09450848601519350898103858b0152610dc78185610c8d565b60c0968701519a90960199909952505050978a019750935091880191600101610cf1565b50919a9950505050505050505050565b60008083601f840112610e0d57600080fd5b50813567ffffffffffffffff811115610e2557600080fd5b602083019150836020828501011115610e3d57600080fd5b9250929050565b60008060008060608587031215610e5a57600080fd5b84359350602085013567ffffffffffffffff811115610e7857600080fd5b610e8487828801610dfb565b9598909750949560400135949350505050565b6001600160a01b0381168114610a7e57600080fd5b60008060408385031215610ebf57600080fd5b823591506020830135610ed181610e97565b809150509250929050565b600080600080600060608688031215610ef457600080fd5b853567ffffffffffffffff80821115610f0c57600080fd5b610f1889838a01610dfb565b9097509550602088013594506040880135915080821115610f3857600080fd5b818801915088601f830112610f4c57600080fd5b813581811115610f5b57600080fd5b8960208260051b8501011115610f7057600080fd5b9699959850939650602001949392505050565b600060208284031215610f9557600080fd5b8135610fa081610e97565b9392505050565b634e487b7160e01b600052601160045260246000fd5b600081610fcc57610fcc610fa7565b506000190190565b634e487b7160e01b600052604160045260246000fd5b600181811c90821680610ffe57607f821691505b60208210810361101e57634e487b7160e01b600052602260045260246000fd5b50919050565b634e487b7160e01b600052603260045260246000fd5b60006001820161104c5761104c610fa7565b5060010190565b6001600160a01b038316815260406020820181905260009061107790830184610c47565b949350505050565b60006020828403121561109157600080fd5b5051919050565b60018060a01b038316815260006020604081840152600084546110ba81610fea565b80604087015260606001808416600081146110dc57600181146110f657611124565b60ff1985168984015283151560051b890183019550611124565b896000528660002060005b8581101561111c5781548b8201860152908301908801611101565b8a0184019650505b50939998505050505050505050565b82518152602080840151908201526040808401516001600160a01b03169082015260c08101825160608301526020830151608083015260408301516001600160a01b031660a0830152610fa0565b601f8211156111cb57600081815260208120601f850160051c810160208610156111a85750805b601f850160051c820191505b818110156111c7578281556001016111b4565b5050505b505050565b815167ffffffffffffffff8111156111ea576111ea610fd4565b6111fe816111f88454610fea565b84611181565b602080601f831160018114611233576000841561121b5750858301515b600019600386901b1c1916600185901b1785556111c7565b600085815260208120601f198616915b8281101561126257888601518255948401946001909101908401611243565b50858210156112805787850151600019600388901b60f8161c191681555b5050505050600190811b01905550565b604051601f8201601f1916810167ffffffffffffffff811182821017156112b9576112b9610fd4565b604052919050565b600067ffffffffffffffff808411156112dc576112dc610fd4565b8360051b60206112ed818301611290565b86815291850191818101903684111561130557600080fd5b865b8481101561138a5780358681111561131f5760008081fd5b8801601f36818301126113325760008081fd5b81358881111561134457611344610fd4565b611355818301601f19168801611290565b9150808252368782850101111561136c5760008081fd5b80878401888401376000908201870152845250918301918301611307565b5097965050505050505056fea264697066735822122023166d2d984bcc3820d82d5d781ca55536defbbc234492bd8d4805df828b5e8664736f6c63430008140033","opcodes":"PUSH1 0x80 PUSH1 0x40 MSTORE PUSH1 0x0 PUSH1 0x2 SSTORE PUSH1 0x0 PUSH1 0x3 SSTORE CALLVALUE DUP1 ISZERO PUSH2 0x1A JUMPI PUSH1 0x0 DUP1 REVERT JUMPDEST POP PUSH1 0x40 MLOAD PUSH2 0x14DD CODESIZE SUB DUP1 PUSH2 0x14DD DUP4 CODECOPY DUP2 ADD PUSH1 0x40 DUP2 SWAP1 MSTORE PUSH2 0x39 SWAP2 PUSH2 0xD2 JUMP JUMPDEST DUP1 PUSH1 0x1 PUSH1 0x1 PUSH1 0xA0 SHL SUB DUP2 AND PUSH2 0x68 JUMPI PUSH1 0x40 MLOAD PUSH4 0x1E4FBDF7 PUSH1 0xE0 SHL DUP2 MSTORE PUSH1 0x0 PUSH1 0x4 DUP3 ADD MSTORE PUSH1 0x24 ADD PUSH1 0x40 MLOAD DUP1 SWAP2 SUB SWAP1 REVERT JUMPDEST PUSH2 0x71 DUP2 PUSH2 0x82 JUMP JUMPDEST POP POP PUSH1 0x0 PUSH1 0x2 DUP2 SWAP1 SSTORE PUSH1 0x3 SSTORE PUSH2 0x102 JUMP JUMPDEST PUSH1 0x0 DUP1 SLOAD PUSH1 0x1 PUSH1 0x1 PUSH1 0xA0 SHL SUB DUP4 DUP2 AND PUSH1 0x1 PUSH1 0x1 PUSH1 0xA0 SHL SUB NOT DUP4 AND DUP2 OR DUP5 SSTORE PUSH1 0x40 MLOAD SWAP2 SWAP1 SWAP3 AND SWAP3 DUP4 SWAP2 PUSH32 0x8BE0079C531659141344CD1FD0A4F28419497F9722A3DAAFE3B4186F6B6457E0 SWAP2 SWAP1 LOG3 POP POP JUMP JUMPDEST PUSH1 0x0 PUSH1 0x20 DUP3 DUP5 SUB SLT ISZERO PUSH2 0xE4 JUMPI PUSH1 0x0 DUP1 REVERT JUMPDEST DUP2 MLOAD PUSH1 0x1 PUSH1 0x1 PUSH1 0xA0 SHL SUB DUP2 AND DUP2 EQ PUSH2 0xFB JUMPI PUSH1 0x0 DUP1 REVERT JUMPDEST SWAP4 SWAP3 POP POP POP JUMP JUMPDEST PUSH2 0x13CC DUP1 PUSH2 0x111 PUSH1 0x0 CODECOPY PUSH1 0x0 RETURN INVALID PUSH1 0x80 PUSH1 0x40 MSTORE CALLVALUE DUP1 ISZERO PUSH2 0x10 JUMPI PUSH1 0x0 DUP1 REVERT JUMPDEST POP PUSH1 0x4 CALLDATASIZE LT PUSH2 0x9D JUMPI PUSH1 0x0 CALLDATALOAD PUSH1 0xE0 SHR DUP1 PUSH4 0x715018A6 GT PUSH2 0x66 JUMPI DUP1 PUSH4 0x715018A6 EQ PUSH2 0x104 JUMPI DUP1 PUSH4 0x8DA5CB5B EQ PUSH2 0x10C JUMPI DUP1 PUSH4 0xD7E362E5 EQ PUSH2 0x127 JUMPI DUP1 PUSH4 0xF2AB1CC0 EQ PUSH2 0x13A JUMPI DUP1 PUSH4 0xF2FDE38B EQ PUSH2 0x14D JUMPI PUSH1 0x0 DUP1 REVERT JUMPDEST DUP1 PUSH3 0x3D10A4 EQ PUSH2 0xA2 JUMPI DUP1 PUSH4 0x135BEFA8 EQ PUSH2 0xBE JUMPI DUP1 PUSH4 0x3E31D066 EQ PUSH2 0xD3 JUMPI DUP1 PUSH4 0x4C633595 EQ PUSH2 0xE8 JUMPI DUP1 PUSH4 0x5932C02C EQ PUSH2 0xFB JUMPI JUMPDEST PUSH1 0x0 DUP1 REVERT JUMPDEST PUSH2 0xAB PUSH1 0x3 SLOAD DUP2 JUMP JUMPDEST PUSH1 0x40 MLOAD SWAP1 DUP2 MSTORE PUSH1 0x20 ADD JUMPDEST PUSH1 0x40 MLOAD DUP1 SWAP2 SUB SWAP1 RETURN JUMPDEST PUSH2 0xD1 PUSH2 0xCC CALLDATASIZE PUSH1 0x4 PUSH2 0xC2E JUMP JUMPDEST PUSH2 0x160 JUMP JUMPDEST STOP JUMPDEST PUSH2 0xDB PUSH2 0x24B JUMP JUMPDEST PUSH1 0x40 MLOAD PUSH2 0xB5 SWAP2 SWAP1 PUSH2 0xCCA JUMP JUMPDEST PUSH2 0xD1 PUSH2 0xF6 CALLDATASIZE PUSH1 0x4 PUSH2 0xE44 JUMP JUMPDEST PUSH2 0x5A6 JUMP JUMPDEST PUSH2 0xAB PUSH1 0x2 SLOAD DUP2 JUMP JUMPDEST PUSH2 0xD1 PUSH2 0x861 JUMP JUMPDEST PUSH1 0x0 SLOAD PUSH1 0x40 MLOAD PUSH1 0x1 PUSH1 0x1 PUSH1 0xA0 SHL SUB SWAP1 SWAP2 AND DUP2 MSTORE PUSH1 0x20 ADD PUSH2 0xB5 JUMP JUMPDEST PUSH2 0xD1 PUSH2 0x135 CALLDATASIZE PUSH1 0x4 PUSH2 0xEAC JUMP JUMPDEST PUSH2 0x875 JUMP JUMPDEST PUSH2 0xD1 PUSH2 0x148 CALLDATASIZE PUSH1 0x4 PUSH2 0xEDC JUMP JUMPDEST PUSH2 0x8AB JUMP JUMPDEST PUSH2 0xD1 PUSH2 0x15B CALLDATASIZE PUSH1 0x4 PUSH2 0xF83 JUMP JUMPDEST PUSH2 0xA43 JUMP JUMPDEST PUSH1 0x0 DUP2 DUP2 MSTORE PUSH1 0x4 PUSH1 0x20 MSTORE PUSH1 0x40 SWAP1 KECCAK256 PUSH1 0x3 DUP2 ADD SLOAD PUSH1 0x1 PUSH1 0xA0 SHL SWAP1 DIV PUSH1 0xFF AND ISZERO PUSH2 0x1C3 JUMPI PUSH1 0x40 MLOAD PUSH3 0x461BCD PUSH1 0xE5 SHL DUP2 MSTORE PUSH1 0x20 PUSH1 0x4 DUP3 ADD MSTORE PUSH1 0x11 PUSH1 0x24 DUP3 ADD MSTORE PUSH17 0x10D85C9908185B1C9958591E481CDBDB19 PUSH1 0x7A SHL PUSH1 0x44 DUP3 ADD MSTORE PUSH1 0x64 ADD JUMPDEST PUSH1 0x40 MLOAD DUP1 SWAP2 SUB SWAP1 REVERT JUMPDEST PUSH1 0x3 DUP2 ADD SLOAD PUSH1 0x1 PUSH1 0x1 PUSH1 0xA0 SHL SUB AND CALLER EQ PUSH2 0x21F JUMPI PUSH1 0x40 MLOAD PUSH3 0x461BCD PUSH1 0xE5 SHL DUP2 MSTORE PUSH1 0x20 PUSH1 0x4 DUP3 ADD MSTORE PUSH1 0x1A PUSH1 0x24 DUP3 ADD MSTORE PUSH32 0x596F752063616E277420756E53656C6C20746869732063617264000000000000 PUSH1 0x44 DUP3 ADD MSTORE PUSH1 0x64 ADD PUSH2 0x1BA JUMP JUMPDEST PUSH1 0x3 DUP1 SLOAD SWAP1 PUSH1 0x0 PUSH2 0x22F DUP4 PUSH2 0xFBD JUMP JUMPDEST SWAP1 SWAP2 SSTORE POP POP PUSH1 0x3 ADD DUP1 SLOAD PUSH1 0xFF PUSH1 0xA0 SHL NOT AND PUSH1 0x1 PUSH1 0xA0 SHL OR SWAP1 SSTORE POP JUMP JUMPDEST PUSH1 0x60 PUSH1 0x0 PUSH1 0x3 SLOAD PUSH8 0xFFFFFFFFFFFFFFFF DUP2 GT ISZERO PUSH2 0x26A JUMPI PUSH2 0x26A PUSH2 0xFD4 JUMP JUMPDEST PUSH1 0x40 MLOAD SWAP1 DUP1 DUP3 MSTORE DUP1 PUSH1 0x20 MUL PUSH1 0x20 ADD DUP3 ADD PUSH1 0x40 MSTORE DUP1 ISZERO PUSH2 0x2A3 JUMPI DUP2 PUSH1 0x20 ADD JUMPDEST PUSH2 0x290 PUSH2 0xAFE JUMP JUMPDEST DUP2 MSTORE PUSH1 0x20 ADD SWAP1 PUSH1 0x1 SWAP1 SUB SWAP1 DUP2 PUSH2 0x288 JUMPI SWAP1 POP JUMPDEST POP SWAP1 POP PUSH1 0x0 DUP1 JUMPDEST PUSH1 0x2 SLOAD DUP2 LT ISZERO PUSH2 0x59E JUMPI PUSH1 0x0 DUP2 DUP2 MSTORE PUSH1 0x4 PUSH1 0x20 MSTORE PUSH1 0x40 SWAP1 KECCAK256 PUSH1 0x3 ADD SLOAD PUSH1 0x1 PUSH1 0xA0 SHL SWAP1 DIV PUSH1 0xFF AND PUSH2 0x58C JUMPI PUSH1 0x0 DUP2 DUP2 MSTORE PUSH1 0x4 PUSH1 0x20 MSTORE PUSH1 0x40 SWAP1 DUP2 SWAP1 KECCAK256 DUP2 MLOAD PUSH1 0xE0 DUP2 ADD SWAP1 SWAP3 MSTORE DUP1 SLOAD DUP3 SWAP1 DUP3 SWAP1 PUSH2 0x2FC SWAP1 PUSH2 0xFEA JUMP JUMPDEST DUP1 PUSH1 0x1F ADD PUSH1 0x20 DUP1 SWAP2 DIV MUL PUSH1 0x20 ADD PUSH1 0x40 MLOAD SWAP1 DUP2 ADD PUSH1 0x40 MSTORE DUP1 SWAP3 SWAP2 SWAP1 DUP2 DUP2 MSTORE PUSH1 0x20 ADD DUP3 DUP1 SLOAD PUSH2 0x328 SWAP1 PUSH2 0xFEA JUMP JUMPDEST DUP1 ISZERO PUSH2 0x375 JUMPI DUP1 PUSH1 0x1F LT PUSH2 0x34A JUMPI PUSH2 0x100 DUP1 DUP4 SLOAD DIV MUL DUP4 MSTORE SWAP2 PUSH1 0x20 ADD SWAP2 PUSH2 0x375 JUMP JUMPDEST DUP3 ADD SWAP2 SWAP1 PUSH1 0x0 MSTORE PUSH1 0x20 PUSH1 0x0 KECCAK256 SWAP1 JUMPDEST DUP2 SLOAD DUP2 MSTORE SWAP1 PUSH1 0x1 ADD SWAP1 PUSH1 0x20 ADD DUP1 DUP4 GT PUSH2 0x358 JUMPI DUP3 SWAP1 SUB PUSH1 0x1F AND DUP3 ADD SWAP2 JUMPDEST POP POP POP POP POP DUP2 MSTORE PUSH1 0x20 ADD PUSH1 0x1 DUP3 ADD SLOAD DUP2 MSTORE PUSH1 0x20 ADD PUSH1 0x2 DUP3 ADD DUP1 SLOAD DUP1 PUSH1 0x20 MUL PUSH1 0x20 ADD PUSH1 0x40 MLOAD SWAP1 DUP2 ADD PUSH1 0x40 MSTORE DUP1 SWAP3 SWAP2 SWAP1 DUP2 DUP2 MSTORE PUSH1 0x20 ADD PUSH1 0x0 SWAP1 JUMPDEST DUP3 DUP3 LT ISZERO PUSH2 0x459 JUMPI DUP4 DUP3 SWAP1 PUSH1 0x0 MSTORE PUSH1 0x20 PUSH1 0x0 KECCAK256 ADD DUP1 SLOAD PUSH2 0x3CC SWAP1 PUSH2 0xFEA JUMP JUMPDEST DUP1 PUSH1 0x1F ADD PUSH1 0x20 DUP1 SWAP2 DIV MUL PUSH1 0x20 ADD PUSH1 0x40 MLOAD SWAP1 DUP2 ADD PUSH1 0x40 MSTORE DUP1 SWAP3 SWAP2 SWAP1 DUP2 DUP2 MSTORE PUSH1 0x20 ADD DUP3 DUP1 SLOAD PUSH2 0x3F8 SWAP1 PUSH2 0xFEA JUMP JUMPDEST DUP1 ISZERO PUSH2 0x445 JUMPI DUP1 PUSH1 0x1F LT PUSH2 0x41A JUMPI PUSH2 0x100 DUP1 DUP4 SLOAD DIV MUL DUP4 MSTORE SWAP2 PUSH1 0x20 ADD SWAP2 PUSH2 0x445 JUMP JUMPDEST DUP3 ADD SWAP2 SWAP1 PUSH1 0x0 MSTORE PUSH1 0x20 PUSH1 0x0 KECCAK256 SWAP1 JUMPDEST DUP2 SLOAD DUP2 MSTORE SWAP1 PUSH1 0x1 ADD SWAP1 PUSH1 0x20 ADD DUP1 DUP4 GT PUSH2 0x428 JUMPI DUP3 SWAP1 SUB PUSH1 0x1F AND DUP3 ADD SWAP2 JUMPDEST POP POP POP POP POP DUP2 MSTORE PUSH1 0x20 ADD SWAP1 PUSH1 0x1 ADD SWAP1 PUSH2 0x3AD JUMP JUMPDEST POP POP POP SWAP1 DUP3 MSTORE POP PUSH1 0x3 DUP3 ADD SLOAD PUSH1 0x1 PUSH1 0x1 PUSH1 0xA0 SHL SUB DUP2 AND PUSH1 0x20 DUP4 ADD MSTORE PUSH1 0x1 PUSH1 0xA0 SHL SWAP1 DIV PUSH1 0xFF AND ISZERO ISZERO PUSH1 0x40 DUP1 DUP4 ADD SWAP2 SWAP1 SWAP2 MSTORE DUP1 MLOAD PUSH1 0x60 DUP1 DUP3 ADD SWAP1 SWAP3 MSTORE PUSH1 0x4 DUP5 ADD DUP1 SLOAD SWAP3 SWAP1 SWAP4 ADD SWAP3 SWAP1 SWAP2 DUP3 SWAP1 DUP3 SWAP1 PUSH2 0x4AD SWAP1 PUSH2 0xFEA JUMP JUMPDEST DUP1 PUSH1 0x1F ADD PUSH1 0x20 DUP1 SWAP2 DIV MUL PUSH1 0x20 ADD PUSH1 0x40 MLOAD SWAP1 DUP2 ADD PUSH1 0x40 MSTORE DUP1 SWAP3 SWAP2 SWAP1 DUP2 DUP2 MSTORE PUSH1 0x20 ADD DUP3 DUP1 SLOAD PUSH2 0x4D9 SWAP1 PUSH2 0xFEA JUMP JUMPDEST DUP1 ISZERO PUSH2 0x526 JUMPI DUP1 PUSH1 0x1F LT PUSH2 0x4FB JUMPI PUSH2 0x100 DUP1 DUP4 SLOAD DIV MUL DUP4 MSTORE SWAP2 PUSH1 0x20 ADD SWAP2 PUSH2 0x526 JUMP JUMPDEST DUP3 ADD SWAP2 SWAP1 PUSH1 0x0 MSTORE PUSH1 0x20 PUSH1 0x0 KECCAK256 SWAP1 JUMPDEST DUP2 SLOAD DUP2 MSTORE SWAP1 PUSH1 0x1 ADD SWAP1 PUSH1 0x20 ADD DUP1 DUP4 GT PUSH2 0x509 JUMPI DUP3 SWAP1 SUB PUSH1 0x1F AND DUP3 ADD SWAP2 JUMPDEST POP POP POP SWAP2 DUP4 MSTORE POP POP PUSH1 0x1 DUP3 ADD SLOAD PUSH1 0x20 DUP1 DUP4 ADD SWAP2 SWAP1 SWAP2 MSTORE PUSH1 0x2 SWAP1 SWAP3 ADD SLOAD PUSH1 0x1 PUSH1 0x1 PUSH1 0xA0 SHL SUB AND PUSH1 0x40 SWAP1 SWAP2 ADD MSTORE SWAP1 DUP3 MSTORE PUSH1 0x7 SWAP3 SWAP1 SWAP3 ADD SLOAD SWAP2 ADD MSTORE DUP4 MLOAD DUP5 SWAP1 DUP5 SWAP1 DUP2 LT PUSH2 0x572 JUMPI PUSH2 0x572 PUSH2 0x1024 JUMP JUMPDEST PUSH1 0x20 MUL PUSH1 0x20 ADD ADD DUP2 SWAP1 MSTORE POP DUP2 DUP1 PUSH2 0x588 SWAP1 PUSH2 0x103A JUMP JUMPDEST SWAP3 POP POP JUMPDEST DUP1 PUSH2 0x596 DUP2 PUSH2 0x103A JUMP JUMPDEST SWAP2 POP POP PUSH2 0x2AA JUMP JUMPDEST POP SWAP1 SWAP3 SWAP2 POP POP JUMP JUMPDEST PUSH1 0x40 DUP1 MLOAD PUSH1 0x80 PUSH1 0x20 PUSH1 0x1F DUP7 ADD DUP2 SWAP1 DIV MUL DUP3 ADD DUP2 ADD SWAP1 SWAP3 MSTORE PUSH1 0x60 DUP2 ADD DUP5 DUP2 MSTORE PUSH1 0x0 SWAP3 DUP3 SWAP2 SWAP1 DUP8 SWAP1 DUP8 SWAP1 DUP2 SWAP1 DUP6 ADD DUP4 DUP3 DUP1 DUP3 DUP5 CALLDATACOPY PUSH1 0x0 SWAP3 ADD DUP3 SWAP1 MSTORE POP SWAP4 DUP6 MSTORE POP POP POP PUSH1 0x20 DUP1 DUP4 ADD DUP7 SWAP1 MSTORE CALLER PUSH1 0x40 SWAP4 DUP5 ADD MSTORE DUP9 DUP3 MSTORE PUSH1 0x4 SWAP1 MSTORE KECCAK256 PUSH1 0x3 DUP2 ADD SLOAD SWAP2 SWAP3 POP SWAP1 PUSH1 0x1 PUSH1 0xA0 SHL SWAP1 DIV PUSH1 0xFF AND ISZERO PUSH2 0x651 JUMPI PUSH1 0x40 MLOAD PUSH3 0x461BCD PUSH1 0xE5 SHL DUP2 MSTORE PUSH1 0x20 PUSH1 0x4 DUP3 ADD MSTORE PUSH1 0x11 PUSH1 0x24 DUP3 ADD MSTORE PUSH17 0x10D85C9908185B1C9958591E481CDBDB19 PUSH1 0x7A SHL PUSH1 0x44 DUP3 ADD MSTORE PUSH1 0x64 ADD PUSH2 0x1BA JUMP JUMPDEST PUSH1 0x1 DUP2 DUP2 ADD SLOAD PUSH1 0x0 SWAP1 DUP2 MSTORE PUSH1 0x20 SWAP2 DUP3 MSTORE PUSH1 0x40 DUP1 DUP3 KECCAK256 SLOAD SWAP3 DUP6 ADD MLOAD DUP3 MSTORE DUP1 DUP3 KECCAK256 SLOAD DUP6 DUP3 ADD MLOAD DUP7 MLOAD SWAP3 MLOAD PUSH4 0x87F36969 PUSH1 0xE0 SHL DUP2 MSTORE PUSH1 0x1 PUSH1 0x1 PUSH1 0xA0 SHL SUB SWAP6 DUP7 AND SWAP6 SWAP1 SWAP3 AND SWAP4 SWAP3 DUP5 SWAP3 PUSH4 0x87F36969 SWAP3 PUSH2 0x6AA SWAP3 SWAP1 SWAP2 PUSH1 0x4 ADD PUSH2 0x1053 JUMP JUMPDEST PUSH1 0x20 PUSH1 0x40 MLOAD DUP1 DUP4 SUB DUP2 DUP7 GAS STATICCALL ISZERO DUP1 ISZERO PUSH2 0x6C7 JUMPI RETURNDATASIZE PUSH1 0x0 DUP1 RETURNDATACOPY RETURNDATASIZE PUSH1 0x0 REVERT JUMPDEST POP POP POP POP PUSH1 0x40 MLOAD RETURNDATASIZE PUSH1 0x1F NOT PUSH1 0x1F DUP3 ADD AND DUP3 ADD DUP1 PUSH1 0x40 MSTORE POP DUP2 ADD SWAP1 PUSH2 0x6EB SWAP2 SWAP1 PUSH2 0x107F JUMP JUMPDEST PUSH1 0x3 DUP1 SLOAD SWAP2 SWAP3 POP PUSH1 0x0 PUSH2 0x6FD DUP4 PUSH2 0xFBD JUMP JUMPDEST SWAP1 SWAP2 SSTORE POP POP PUSH1 0x3 DUP5 ADD DUP1 SLOAD PUSH1 0xFF PUSH1 0xA0 SHL NOT DUP2 AND PUSH1 0x1 PUSH1 0xA0 SHL OR SWAP1 SWAP2 SSTORE PUSH1 0x40 MLOAD PUSH4 0x87F36969 PUSH1 0xE0 SHL DUP2 MSTORE PUSH1 0x0 SWAP2 PUSH1 0x1 PUSH1 0x1 PUSH1 0xA0 SHL SUB DUP1 DUP8 AND SWAP3 PUSH4 0x87F36969 SWAP3 PUSH2 0x74B SWAP3 AND SWAP1 DUP10 SWAP1 PUSH1 0x4 ADD PUSH2 0x1098 JUMP JUMPDEST PUSH1 0x20 PUSH1 0x40 MLOAD DUP1 DUP4 SUB DUP2 DUP7 GAS STATICCALL ISZERO DUP1 ISZERO PUSH2 0x768 JUMPI RETURNDATASIZE PUSH1 0x0 DUP1 RETURNDATACOPY RETURNDATASIZE PUSH1 0x0 REVERT JUMPDEST POP POP POP POP PUSH1 0x40 MLOAD RETURNDATASIZE PUSH1 0x1F NOT PUSH1 0x1F DUP3 ADD AND DUP3 ADD DUP1 PUSH1 0x40 MSTORE POP DUP2 ADD SWAP1 PUSH2 0x78C SWAP2 SWAP1 PUSH2 0x107F JUMP JUMPDEST PUSH1 0x40 DUP1 MLOAD PUSH1 0x60 DUP1 DUP3 ADD DUP4 MSTORE DUP6 DUP3 MSTORE PUSH1 0x20 DUP11 DUP2 ADD MLOAD DUP2 DUP5 ADD MSTORE CALLER DUP4 DUP6 ADD MSTORE DUP4 MLOAD SWAP2 DUP3 ADD DUP5 MSTORE DUP5 DUP3 MSTORE PUSH1 0x1 DUP11 ADD SLOAD SWAP1 DUP3 ADD MSTORE PUSH1 0x3 DUP10 ADD SLOAD PUSH1 0x1 PUSH1 0x1 PUSH1 0xA0 SHL SUB AND DUP2 DUP5 ADD MSTORE SWAP2 MLOAD SWAP3 SWAP4 POP SWAP2 PUSH32 0x85B4E44F64686BA0D554898D20668847F103783030E50076BAA8C29F7728AEDA SWAP1 PUSH2 0x803 SWAP1 DUP5 SWAP1 DUP5 SWAP1 PUSH2 0x1133 JUMP JUMPDEST PUSH1 0x40 MLOAD DUP1 SWAP2 SUB SWAP1 LOG1 DUP8 MLOAD DUP9 SWAP1 PUSH1 0x4 DUP10 ADD SWAP1 DUP2 SWAP1 PUSH2 0x820 SWAP1 DUP3 PUSH2 0x11D0 JUMP JUMPDEST POP PUSH1 0x20 DUP3 ADD MLOAD PUSH1 0x1 DUP3 ADD SSTORE PUSH1 0x40 SWAP1 SWAP2 ADD MLOAD PUSH1 0x2 SWAP1 SWAP2 ADD DUP1 SLOAD PUSH1 0x1 PUSH1 0x1 PUSH1 0xA0 SHL SUB NOT AND PUSH1 0x1 PUSH1 0x1 PUSH1 0xA0 SHL SUB SWAP1 SWAP3 AND SWAP2 SWAP1 SWAP2 OR SWAP1 SSTORE POP POP POP POP POP POP POP POP POP POP POP POP JUMP JUMPDEST PUSH2 0x869 PUSH2 0xA81 JUMP JUMPDEST PUSH2 0x873 PUSH1 0x0 PUSH2 0xAAE JUMP JUMPDEST JUMP JUMPDEST PUSH2 0x87D PUSH2 0xA81 JUMP JUMPDEST PUSH1 0x0 SWAP2 DUP3 MSTORE PUSH1 0x1 PUSH1 0x20 MSTORE PUSH1 0x40 SWAP1 SWAP2 KECCAK256 DUP1 SLOAD PUSH1 0x1 PUSH1 0x1 PUSH1 0xA0 SHL SUB NOT AND PUSH1 0x1 PUSH1 0x1 PUSH1 0xA0 SHL SUB SWAP1 SWAP3 AND SWAP2 SWAP1 SWAP2 OR SWAP1 SSTORE JUMP JUMPDEST PUSH1 0x40 MLOAD DUP1 PUSH1 0xE0 ADD PUSH1 0x40 MSTORE DUP1 DUP7 DUP7 DUP1 DUP1 PUSH1 0x1F ADD PUSH1 0x20 DUP1 SWAP2 DIV MUL PUSH1 0x20 ADD PUSH1 0x40 MLOAD SWAP1 DUP2 ADD PUSH1 0x40 MSTORE DUP1 SWAP4 SWAP3 SWAP2 SWAP1 DUP2 DUP2 MSTORE PUSH1 0x20 ADD DUP4 DUP4 DUP1 DUP3 DUP5 CALLDATACOPY PUSH1 0x0 SWAP3 ADD SWAP2 SWAP1 SWAP2 MSTORE POP POP POP SWAP1 DUP3 MSTORE POP PUSH1 0x20 DUP2 ADD DUP6 SWAP1 MSTORE PUSH1 0x40 ADD PUSH2 0x903 DUP4 DUP6 PUSH2 0x12C1 JUMP JUMPDEST DUP2 MSTORE CALLER PUSH1 0x20 DUP1 DUP4 ADD SWAP2 SWAP1 SWAP2 MSTORE PUSH1 0x0 PUSH1 0x40 DUP1 DUP5 ADD DUP3 SWAP1 MSTORE DUP1 MLOAD PUSH1 0x80 DUP1 DUP3 ADD DUP4 MSTORE PUSH1 0x60 DUP3 DUP2 ADD DUP6 DUP2 MSTORE DUP4 MSTORE DUP3 DUP7 ADD DUP6 SWAP1 MSTORE DUP3 DUP5 ADD DUP6 SWAP1 MSTORE DUP7 ADD SWAP2 SWAP1 SWAP2 MSTORE PUSH1 0x2 SLOAD SWAP5 ADD DUP5 SWAP1 MSTORE SWAP3 DUP2 MSTORE PUSH1 0x4 SWAP1 SWAP2 MSTORE KECCAK256 DUP2 MLOAD DUP2 SWAP1 PUSH2 0x95D SWAP1 DUP3 PUSH2 0x11D0 JUMP JUMPDEST POP PUSH1 0x20 DUP3 DUP2 ADD MLOAD PUSH1 0x1 DUP4 ADD SSTORE PUSH1 0x40 DUP4 ADD MLOAD DUP1 MLOAD PUSH2 0x980 SWAP3 PUSH1 0x2 DUP6 ADD SWAP3 ADD SWAP1 PUSH2 0xB71 JUMP JUMPDEST POP PUSH1 0x60 DUP3 ADD MLOAD PUSH1 0x3 DUP3 ADD DUP1 SLOAD PUSH1 0x80 DUP6 ADD MLOAD ISZERO ISZERO PUSH1 0x1 PUSH1 0xA0 SHL MUL PUSH1 0x1 PUSH1 0x1 PUSH1 0xA8 SHL SUB NOT SWAP1 SWAP2 AND PUSH1 0x1 PUSH1 0x1 PUSH1 0xA0 SHL SUB SWAP1 SWAP4 AND SWAP3 SWAP1 SWAP3 OR SWAP2 SWAP1 SWAP2 OR SWAP1 SSTORE PUSH1 0xA0 DUP3 ADD MLOAD DUP1 MLOAD PUSH1 0x4 DUP4 ADD SWAP1 DUP2 SWAP1 PUSH2 0x9D2 SWAP1 DUP3 PUSH2 0x11D0 JUMP JUMPDEST POP PUSH1 0x20 DUP3 ADD MLOAD PUSH1 0x1 DUP3 ADD SSTORE PUSH1 0x40 SWAP1 SWAP2 ADD MLOAD PUSH1 0x2 SWAP1 SWAP2 ADD DUP1 SLOAD PUSH1 0x1 PUSH1 0x1 PUSH1 0xA0 SHL SUB NOT AND PUSH1 0x1 PUSH1 0x1 PUSH1 0xA0 SHL SUB SWAP1 SWAP3 AND SWAP2 SWAP1 SWAP2 OR SWAP1 SSTORE PUSH1 0xC0 SWAP2 SWAP1 SWAP2 ADD MLOAD PUSH1 0x7 SWAP1 SWAP2 ADD SSTORE PUSH1 0x3 DUP1 SLOAD SWAP1 PUSH1 0x0 PUSH2 0xA22 DUP4 PUSH2 0x103A JUMP JUMPDEST SWAP1 SWAP2 SSTORE POP POP PUSH1 0x2 DUP1 SLOAD SWAP1 PUSH1 0x0 PUSH2 0xA37 DUP4 PUSH2 0x103A JUMP JUMPDEST SWAP2 SWAP1 POP SSTORE POP POP POP POP POP POP JUMP JUMPDEST PUSH2 0xA4B PUSH2 0xA81 JUMP JUMPDEST PUSH1 0x1 PUSH1 0x1 PUSH1 0xA0 SHL SUB DUP2 AND PUSH2 0xA75 JUMPI PUSH1 0x40 MLOAD PUSH4 0x1E4FBDF7 PUSH1 0xE0 SHL DUP2 MSTORE PUSH1 0x0 PUSH1 0x4 DUP3 ADD MSTORE PUSH1 0x24 ADD PUSH2 0x1BA JUMP JUMPDEST PUSH2 0xA7E DUP2 PUSH2 0xAAE JUMP JUMPDEST POP JUMP JUMPDEST PUSH1 0x0 SLOAD PUSH1 0x1 PUSH1 0x1 PUSH1 0xA0 SHL SUB AND CALLER EQ PUSH2 0x873 JUMPI PUSH1 0x40 MLOAD PUSH4 0x118CDAA7 PUSH1 0xE0 SHL DUP2 MSTORE CALLER PUSH1 0x4 DUP3 ADD MSTORE PUSH1 0x24 ADD PUSH2 0x1BA JUMP JUMPDEST PUSH1 0x0 DUP1 SLOAD PUSH1 0x1 PUSH1 0x1 PUSH1 0xA0 SHL SUB DUP4 DUP2 AND PUSH1 0x1 PUSH1 0x1 PUSH1 0xA0 SHL SUB NOT DUP4 AND DUP2 OR DUP5 SSTORE PUSH1 0x40 MLOAD SWAP2 SWAP1 SWAP3 AND SWAP3 DUP4 SWAP2 PUSH32 0x8BE0079C531659141344CD1FD0A4F28419497F9722A3DAAFE3B4186F6B6457E0 SWAP2 SWAP1 LOG3 POP POP JUMP JUMPDEST PUSH1 0x40 MLOAD DUP1 PUSH1 0xE0 ADD PUSH1 0x40 MSTORE DUP1 PUSH1 0x60 DUP2 MSTORE PUSH1 0x20 ADD PUSH1 0x0 DUP2 MSTORE PUSH1 0x20 ADD PUSH1 0x60 DUP2 MSTORE PUSH1 0x20 ADD PUSH1 0x0 PUSH1 0x1 PUSH1 0x1 PUSH1 0xA0 SHL SUB AND DUP2 MSTORE PUSH1 0x20 ADD PUSH1 0x0 ISZERO ISZERO DUP2 MSTORE PUSH1 0x20 ADD PUSH2 0xB64 PUSH1 0x40 MLOAD DUP1 PUSH1 0x60 ADD PUSH1 0x40 MSTORE DUP1 PUSH1 0x60 DUP2 MSTORE PUSH1 0x20 ADD PUSH1 0x0 DUP2 MSTORE PUSH1 0x20 ADD PUSH1 0x0 PUSH1 0x1 PUSH1 0x1 PUSH1 0xA0 SHL SUB AND DUP2 MSTORE POP SWAP1 JUMP JUMPDEST DUP2 MSTORE PUSH1 0x20 ADD PUSH1 0x0 DUP2 MSTORE POP SWAP1 JUMP JUMPDEST DUP3 DUP1 SLOAD DUP3 DUP3 SSTORE SWAP1 PUSH1 0x0 MSTORE PUSH1 0x20 PUSH1 0x0 KECCAK256 SWAP1 DUP2 ADD SWAP3 DUP3 ISZERO PUSH2 0xBB7 JUMPI SWAP2 PUSH1 0x20 MUL DUP3 ADD JUMPDEST DUP3 DUP2 GT ISZERO PUSH2 0xBB7 JUMPI DUP3 MLOAD DUP3 SWAP1 PUSH2 0xBA7 SWAP1 DUP3 PUSH2 0x11D0 JUMP JUMPDEST POP SWAP2 PUSH1 0x20 ADD SWAP2 SWAP1 PUSH1 0x1 ADD SWAP1 PUSH2 0xB91 JUMP JUMPDEST POP PUSH2 0xBC3 SWAP3 SWAP2 POP PUSH2 0xBC7 JUMP JUMPDEST POP SWAP1 JUMP JUMPDEST DUP1 DUP3 GT ISZERO PUSH2 0xBC3 JUMPI PUSH1 0x0 PUSH2 0xBDB DUP3 DUP3 PUSH2 0xBE4 JUMP JUMPDEST POP PUSH1 0x1 ADD PUSH2 0xBC7 JUMP JUMPDEST POP DUP1 SLOAD PUSH2 0xBF0 SWAP1 PUSH2 0xFEA JUMP JUMPDEST PUSH1 0x0 DUP3 SSTORE DUP1 PUSH1 0x1F LT PUSH2 0xC00 JUMPI POP POP JUMP JUMPDEST PUSH1 0x1F ADD PUSH1 0x20 SWAP1 DIV SWAP1 PUSH1 0x0 MSTORE PUSH1 0x20 PUSH1 0x0 KECCAK256 SWAP1 DUP2 ADD SWAP1 PUSH2 0xA7E SWAP2 SWAP1 JUMPDEST DUP1 DUP3 GT ISZERO PUSH2 0xBC3 JUMPI PUSH1 0x0 DUP2 SSTORE PUSH1 0x1 ADD PUSH2 0xC1A JUMP JUMPDEST PUSH1 0x0 PUSH1 0x20 DUP3 DUP5 SUB SLT ISZERO PUSH2 0xC40 JUMPI PUSH1 0x0 DUP1 REVERT JUMPDEST POP CALLDATALOAD SWAP2 SWAP1 POP JUMP JUMPDEST PUSH1 0x0 DUP2 MLOAD DUP1 DUP5 MSTORE PUSH1 0x0 JUMPDEST DUP2 DUP2 LT ISZERO PUSH2 0xC6D JUMPI PUSH1 0x20 DUP2 DUP6 ADD DUP2 ADD MLOAD DUP7 DUP4 ADD DUP3 ADD MSTORE ADD PUSH2 0xC51 JUMP JUMPDEST POP PUSH1 0x0 PUSH1 0x20 DUP3 DUP7 ADD ADD MSTORE PUSH1 0x20 PUSH1 0x1F NOT PUSH1 0x1F DUP4 ADD AND DUP6 ADD ADD SWAP2 POP POP SWAP3 SWAP2 POP POP JUMP JUMPDEST PUSH1 0x0 DUP2 MLOAD PUSH1 0x60 DUP5 MSTORE PUSH2 0xCA2 PUSH1 0x60 DUP6 ADD DUP3 PUSH2 0xC47 JUMP JUMPDEST PUSH1 0x20 DUP5 DUP2 ADD MLOAD SWAP1 DUP7 ADD MSTORE PUSH1 0x40 SWAP4 DUP5 ADD MLOAD PUSH1 0x1 PUSH1 0x1 PUSH1 0xA0 SHL SUB AND SWAP4 SWAP1 SWAP5 ADD SWAP3 SWAP1 SWAP3 MSTORE POP SWAP1 SWAP2 SWAP1 POP JUMP JUMPDEST PUSH1 0x20 DUP1 DUP3 MSTORE DUP3 MLOAD DUP3 DUP3 ADD DUP2 SWAP1 MSTORE PUSH1 0x0 SWAP2 SWAP1 PUSH1 0x40 SWAP1 DUP2 DUP6 ADD SWAP1 PUSH1 0x5 DUP2 DUP2 SHL DUP8 ADD DUP5 ADD DUP9 DUP7 ADD DUP8 DUP1 JUMPDEST DUP6 DUP2 LT ISZERO PUSH2 0xDEB JUMPI PUSH1 0x3F NOT DUP12 DUP6 SUB ADD DUP8 MSTORE DUP3 MLOAD PUSH1 0xE0 DUP2 MLOAD DUP2 DUP8 MSTORE PUSH2 0xD17 DUP3 DUP9 ADD DUP3 PUSH2 0xC47 JUMP JUMPDEST DUP4 DUP14 ADD MLOAD DUP9 DUP15 ADD MSTORE DUP12 DUP5 ADD MLOAD DUP9 DUP3 SUB DUP14 DUP11 ADD MSTORE DUP1 MLOAD DUP1 DUP4 MSTORE SWAP2 SWAP4 POP DUP14 ADD SWAP2 POP DUP13 DUP4 ADD SWAP1 DUP1 DUP11 SHL DUP5 ADD DUP15 ADD DUP8 JUMPDEST DUP3 DUP2 LT ISZERO PUSH2 0xD76 JUMPI PUSH1 0x1F NOT DUP7 DUP4 SUB ADD DUP5 MSTORE PUSH2 0xD5F DUP3 DUP7 MLOAD PUSH2 0xC47 JUMP JUMPDEST SWAP2 POP DUP16 DUP6 ADD SWAP5 POP DUP16 DUP5 ADD SWAP4 POP PUSH1 0x1 DUP2 ADD SWAP1 POP PUSH2 0xD43 JUMP JUMPDEST POP PUSH1 0x60 SWAP5 POP DUP5 DUP7 ADD MLOAD SWAP4 POP PUSH2 0xD95 DUP6 DUP12 ADD DUP6 PUSH1 0x1 PUSH1 0x1 PUSH1 0xA0 SHL SUB AND SWAP1 MSTORE JUMP JUMPDEST PUSH1 0x80 SWAP5 POP DUP5 DUP7 ADD MLOAD SWAP4 POP PUSH2 0xDAC DUP6 DUP12 ADD DUP6 ISZERO ISZERO SWAP1 MSTORE JUMP JUMPDEST PUSH1 0xA0 SWAP5 POP DUP5 DUP7 ADD MLOAD SWAP4 POP DUP10 DUP2 SUB DUP6 DUP12 ADD MSTORE PUSH2 0xDC7 DUP2 DUP6 PUSH2 0xC8D JUMP JUMPDEST PUSH1 0xC0 SWAP7 DUP8 ADD MLOAD SWAP11 SWAP1 SWAP7 ADD SWAP10 SWAP1 SWAP10 MSTORE POP POP POP SWAP8 DUP11 ADD SWAP8 POP SWAP4 POP SWAP2 DUP9 ADD SWAP2 PUSH1 0x1 ADD PUSH2 0xCF1 JUMP JUMPDEST POP SWAP2 SWAP11 SWAP10 POP POP POP POP POP POP POP POP POP POP JUMP JUMPDEST PUSH1 0x0 DUP1 DUP4 PUSH1 0x1F DUP5 ADD SLT PUSH2 0xE0D JUMPI PUSH1 0x0 DUP1 REVERT JUMPDEST POP DUP2 CALLDATALOAD PUSH8 0xFFFFFFFFFFFFFFFF DUP2 GT ISZERO PUSH2 0xE25 JUMPI PUSH1 0x0 DUP1 REVERT JUMPDEST PUSH1 0x20 DUP4 ADD SWAP2 POP DUP4 PUSH1 0x20 DUP3 DUP6 ADD ADD GT ISZERO PUSH2 0xE3D JUMPI PUSH1 0x0 DUP1 REVERT JUMPDEST SWAP3 POP SWAP3 SWAP1 POP JUMP JUMPDEST PUSH1 0x0 DUP1 PUSH1 0x0 DUP1 PUSH1 0x60 DUP6 DUP8 SUB SLT ISZERO PUSH2 0xE5A JUMPI PUSH1 0x0 DUP1 REVERT JUMPDEST DUP5 CALLDATALOAD SWAP4 POP PUSH1 0x20 DUP6 ADD CALLDATALOAD PUSH8 0xFFFFFFFFFFFFFFFF DUP2 GT ISZERO PUSH2 0xE78 JUMPI PUSH1 0x0 DUP1 REVERT JUMPDEST PUSH2 0xE84 DUP8 DUP3 DUP9 ADD PUSH2 0xDFB JUMP JUMPDEST SWAP6 SWAP9 SWAP1 SWAP8 POP SWAP5 SWAP6 PUSH1 0x40 ADD CALLDATALOAD SWAP5 SWAP4 POP POP POP POP JUMP JUMPDEST PUSH1 0x1 PUSH1 0x1 PUSH1 0xA0 SHL SUB DUP2 AND DUP2 EQ PUSH2 0xA7E JUMPI PUSH1 0x0 DUP1 REVERT JUMPDEST PUSH1 0x0 DUP1 PUSH1 0x40 DUP4 DUP6 SUB SLT ISZERO PUSH2 0xEBF JUMPI PUSH1 0x0 DUP1 REVERT JUMPDEST DUP3 CALLDATALOAD SWAP2 POP PUSH1 0x20 DUP4 ADD CALLDATALOAD PUSH2 0xED1 DUP2 PUSH2 0xE97 JUMP JUMPDEST DUP1 SWAP2 POP POP SWAP3 POP SWAP3 SWAP1 POP JUMP JUMPDEST PUSH1 0x0 DUP1 PUSH1 0x0 DUP1 PUSH1 0x0 PUSH1 0x60 DUP7 DUP9 SUB SLT ISZERO PUSH2 0xEF4 JUMPI PUSH1 0x0 DUP1 REVERT JUMPDEST DUP6 CALLDATALOAD PUSH8 0xFFFFFFFFFFFFFFFF DUP1 DUP3 GT ISZERO PUSH2 0xF0C JUMPI PUSH1 0x0 DUP1 REVERT JUMPDEST PUSH2 0xF18 DUP10 DUP4 DUP11 ADD PUSH2 0xDFB JUMP JUMPDEST SWAP1 SWAP8 POP SWAP6 POP PUSH1 0x20 DUP9 ADD CALLDATALOAD SWAP5 POP PUSH1 0x40 DUP9 ADD CALLDATALOAD SWAP2 POP DUP1 DUP3 GT ISZERO PUSH2 0xF38 JUMPI PUSH1 0x0 DUP1 REVERT JUMPDEST DUP2 DUP9 ADD SWAP2 POP DUP9 PUSH1 0x1F DUP4 ADD SLT PUSH2 0xF4C JUMPI PUSH1 0x0 DUP1 REVERT JUMPDEST DUP2 CALLDATALOAD DUP2 DUP2 GT ISZERO PUSH2 0xF5B JUMPI PUSH1 0x0 DUP1 REVERT JUMPDEST DUP10 PUSH1 0x20 DUP3 PUSH1 0x5 SHL DUP6 ADD ADD GT ISZERO PUSH2 0xF70 JUMPI PUSH1 0x0 DUP1 REVERT JUMPDEST SWAP7 SWAP10 SWAP6 SWAP9 POP SWAP4 SWAP7 POP PUSH1 0x20 ADD SWAP5 SWAP4 SWAP3 POP POP POP JUMP JUMPDEST PUSH1 0x0 PUSH1 0x20 DUP3 DUP5 SUB SLT ISZERO PUSH2 0xF95 JUMPI PUSH1 0x0 DUP1 REVERT JUMPDEST DUP2 CALLDATALOAD PUSH2 0xFA0 DUP2 PUSH2 0xE97 JUMP JUMPDEST SWAP4 SWAP3 POP POP POP JUMP JUMPDEST PUSH4 0x4E487B71 PUSH1 0xE0 SHL PUSH1 0x0 MSTORE PUSH1 0x11 PUSH1 0x4 MSTORE PUSH1 0x24 PUSH1 0x0 REVERT JUMPDEST PUSH1 0x0 DUP2 PUSH2 0xFCC JUMPI PUSH2 0xFCC PUSH2 0xFA7 JUMP JUMPDEST POP PUSH1 0x0 NOT ADD SWAP1 JUMP JUMPDEST PUSH4 0x4E487B71 PUSH1 0xE0 SHL PUSH1 0x0 MSTORE PUSH1 0x41 PUSH1 0x4 MSTORE PUSH1 0x24 PUSH1 0x0 REVERT JUMPDEST PUSH1 0x1 DUP2 DUP2 SHR SWAP1 DUP3 AND DUP1 PUSH2 0xFFE JUMPI PUSH1 0x7F DUP3 AND SWAP2 POP JUMPDEST PUSH1 0x20 DUP3 LT DUP2 SUB PUSH2 0x101E JUMPI PUSH4 0x4E487B71 PUSH1 0xE0 SHL PUSH1 0x0 MSTORE PUSH1 0x22 PUSH1 0x4 MSTORE PUSH1 0x24 PUSH1 0x0 REVERT JUMPDEST POP SWAP2 SWAP1 POP JUMP JUMPDEST PUSH4 0x4E487B71 PUSH1 0xE0 SHL PUSH1 0x0 MSTORE PUSH1 0x32 PUSH1 0x4 MSTORE PUSH1 0x24 PUSH1 0x0 REVERT JUMPDEST PUSH1 0x0 PUSH1 0x1 DUP3 ADD PUSH2 0x104C JUMPI PUSH2 0x104C PUSH2 0xFA7 JUMP JUMPDEST POP PUSH1 0x1 ADD SWAP1 JUMP JUMPDEST PUSH1 0x1 PUSH1 0x1 PUSH1 0xA0 SHL SUB DUP4 AND DUP2 MSTORE PUSH1 0x40 PUSH1 0x20 DUP3 ADD DUP2 SWAP1 MSTORE PUSH1 0x0 SWAP1 PUSH2 0x1077 SWAP1 DUP4 ADD DUP5 PUSH2 0xC47 JUMP JUMPDEST SWAP5 SWAP4 POP POP POP POP JUMP JUMPDEST PUSH1 0x0 PUSH1 0x20 DUP3 DUP5 SUB SLT ISZERO PUSH2 0x1091 JUMPI PUSH1 0x0 DUP1 REVERT JUMPDEST POP MLOAD SWAP2 SWAP1 POP JUMP JUMPDEST PUSH1 0x1 DUP1 PUSH1 0xA0 SHL SUB DUP4 AND DUP2 MSTORE PUSH1 0x0 PUSH1 0x20 PUSH1 0x40 DUP2 DUP5 ADD MSTORE PUSH1 0x0 DUP5 SLOAD PUSH2 0x10BA DUP2 PUSH2 0xFEA JUMP JUMPDEST DUP1 PUSH1 0x40 DUP8 ADD MSTORE PUSH1 0x60 PUSH1 0x1 DUP1 DUP5 AND PUSH1 0x0 DUP2 EQ PUSH2 0x10DC JUMPI PUSH1 0x1 DUP2 EQ PUSH2 0x10F6 JUMPI PUSH2 0x1124 JUMP JUMPDEST PUSH1 0xFF NOT DUP6 AND DUP10 DUP5 ADD MSTORE DUP4 ISZERO ISZERO PUSH1 0x5 SHL DUP10 ADD DUP4 ADD SWAP6 POP PUSH2 0x1124 JUMP JUMPDEST DUP10 PUSH1 0x0 MSTORE DUP7 PUSH1 0x0 KECCAK256 PUSH1 0x0 JUMPDEST DUP6 DUP2 LT ISZERO PUSH2 0x111C JUMPI DUP2 SLOAD DUP12 DUP3 ADD DUP7 ADD MSTORE SWAP1 DUP4 ADD SWAP1 DUP9 ADD PUSH2 0x1101 JUMP JUMPDEST DUP11 ADD DUP5 ADD SWAP7 POP POP JUMPDEST POP SWAP4 SWAP10 SWAP9 POP POP POP POP POP POP POP POP POP JUMP JUMPDEST DUP3 MLOAD DUP2 MSTORE PUSH1 0x20 DUP1 DUP5 ADD MLOAD SWAP1 DUP3 ADD MSTORE PUSH1 0x40 DUP1 DUP5 ADD MLOAD PUSH1 0x1 PUSH1 0x1 PUSH1 0xA0 SHL SUB AND SWAP1 DUP3 ADD MSTORE PUSH1 0xC0 DUP2 ADD DUP3 MLOAD PUSH1 0x60 DUP4 ADD MSTORE PUSH1 0x20 DUP4 ADD MLOAD PUSH1 0x80 DUP4 ADD MSTORE PUSH1 0x40 DUP4 ADD MLOAD PUSH1 0x1 PUSH1 0x1 PUSH1 0xA0 SHL SUB AND PUSH1 0xA0 DUP4 ADD MSTORE PUSH2 0xFA0 JUMP JUMPDEST PUSH1 0x1F DUP3 GT ISZERO PUSH2 0x11CB JUMPI PUSH1 0x0 DUP2 DUP2 MSTORE PUSH1 0x20 DUP2 KECCAK256 PUSH1 0x1F DUP6 ADD PUSH1 0x5 SHR DUP2 ADD PUSH1 0x20 DUP7 LT ISZERO PUSH2 0x11A8 JUMPI POP DUP1 JUMPDEST PUSH1 0x1F DUP6 ADD PUSH1 0x5 SHR DUP3 ADD SWAP2 POP JUMPDEST DUP2 DUP2 LT ISZERO PUSH2 0x11C7 JUMPI DUP3 DUP2 SSTORE PUSH1 0x1 ADD PUSH2 0x11B4 JUMP JUMPDEST POP POP POP JUMPDEST POP POP POP JUMP JUMPDEST DUP2 MLOAD PUSH8 0xFFFFFFFFFFFFFFFF DUP2 GT ISZERO PUSH2 0x11EA JUMPI PUSH2 0x11EA PUSH2 0xFD4 JUMP JUMPDEST PUSH2 0x11FE DUP2 PUSH2 0x11F8 DUP5 SLOAD PUSH2 0xFEA JUMP JUMPDEST DUP5 PUSH2 0x1181 JUMP JUMPDEST PUSH1 0x20 DUP1 PUSH1 0x1F DUP4 GT PUSH1 0x1 DUP2 EQ PUSH2 0x1233 JUMPI PUSH1 0x0 DUP5 ISZERO PUSH2 0x121B JUMPI POP DUP6 DUP4 ADD MLOAD JUMPDEST PUSH1 0x0 NOT PUSH1 0x3 DUP7 SWAP1 SHL SHR NOT AND PUSH1 0x1 DUP6 SWAP1 SHL OR DUP6 SSTORE PUSH2 0x11C7 JUMP JUMPDEST PUSH1 0x0 DUP6 DUP2 MSTORE PUSH1 0x20 DUP2 KECCAK256 PUSH1 0x1F NOT DUP7 AND SWAP2 JUMPDEST DUP3 DUP2 LT ISZERO PUSH2 0x1262 JUMPI DUP9 DUP7 ADD MLOAD DUP3 SSTORE SWAP5 DUP5 ADD SWAP5 PUSH1 0x1 SWAP1 SWAP2 ADD SWAP1 DUP5 ADD PUSH2 0x1243 JUMP JUMPDEST POP DUP6 DUP3 LT ISZERO PUSH2 0x1280 JUMPI DUP8 DUP6 ADD MLOAD PUSH1 0x0 NOT PUSH1 0x3 DUP9 SWAP1 SHL PUSH1 0xF8 AND SHR NOT AND DUP2 SSTORE JUMPDEST POP POP POP POP POP PUSH1 0x1 SWAP1 DUP2 SHL ADD SWAP1 SSTORE POP JUMP JUMPDEST PUSH1 0x40 MLOAD PUSH1 0x1F DUP3 ADD PUSH1 0x1F NOT AND DUP2 ADD PUSH8 0xFFFFFFFFFFFFFFFF DUP2 GT DUP3 DUP3 LT OR ISZERO PUSH2 0x12B9 JUMPI PUSH2 0x12B9 PUSH2 0xFD4 JUMP JUMPDEST PUSH1 0x40 MSTORE SWAP2 SWAP1 POP JUMP JUMPDEST PUSH1 0x0 PUSH8 0xFFFFFFFFFFFFFFFF DUP1 DUP5 GT ISZERO PUSH2 0x12DC JUMPI PUSH2 0x12DC PUSH2 0xFD4 JUMP JUMPDEST DUP4 PUSH1 0x5 SHL PUSH1 0x20 PUSH2 0x12ED DUP2 DUP4 ADD PUSH2 0x1290 JUMP JUMPDEST DUP7 DUP2 MSTORE SWAP2 DUP6 ADD SWAP2 DUP2 DUP2 ADD SWAP1 CALLDATASIZE DUP5 GT ISZERO PUSH2 0x1305 JUMPI PUSH1 0x0 DUP1 REVERT JUMPDEST DUP7 JUMPDEST DUP5 DUP2 LT ISZERO PUSH2 0x138A JUMPI DUP1 CALLDATALOAD DUP7 DUP2 GT ISZERO PUSH2 0x131F JUMPI PUSH1 0x0 DUP1 DUP2 REVERT JUMPDEST DUP9 ADD PUSH1 0x1F CALLDATASIZE DUP2 DUP4 ADD SLT PUSH2 0x1332 JUMPI PUSH1 0x0 DUP1 DUP2 REVERT JUMPDEST DUP2 CALLDATALOAD DUP9 DUP2 GT ISZERO PUSH2 0x1344 JUMPI PUSH2 0x1344 PUSH2 0xFD4 JUMP JUMPDEST PUSH2 0x1355 DUP2 DUP4 ADD PUSH1 0x1F NOT AND DUP9 ADD PUSH2 0x1290 JUMP JUMPDEST SWAP2 POP DUP1 DUP3 MSTORE CALLDATASIZE DUP8 DUP3 DUP6 ADD ADD GT ISZERO PUSH2 0x136C JUMPI PUSH1 0x0 DUP1 DUP2 REVERT JUMPDEST DUP1 DUP8 DUP5 ADD DUP9 DUP5 ADD CALLDATACOPY PUSH1 0x0 SWAP1 DUP3 ADD DUP8 ADD MSTORE DUP5 MSTORE POP SWAP2 DUP4 ADD SWAP2 DUP4 ADD PUSH2 0x1307 JUMP JUMPDEST POP SWAP8 SWAP7 POP POP POP POP POP POP POP JUMP INVALID LOG2 PUSH5 0x6970667358 0x22 SLT KECCAK256 0x23 AND PUSH14 0x2D984BCC3820D82D5D781CA55536 0xDE 0xFB 0xBC 0x23 PREVRANDAO SWAP3 0xBD DUP14 BASEFEE SDIV 0xDF DUP3 DUP12 0x5E DUP7 PUSH5 0x736F6C6343 STOP ADDMOD EQ STOP CALLER "},"gasEstimates":{"creation":{"codeDepositCost":"1013600","executionCost":"infinite","totalCost":"infinite"},"external":{"addCollection(uint256,address)":"26870","aliveTrades()":"2285","buyCard(uint256,string,uint256)":"infinite","owner()":"2323","renounceOwnership()":"infinite","seeMarketPlace()":"infinite","sellCard(string,uint256,string[])":"infinite","tradesCount()":"2373","transferOwnership(address)":"infinite","unSellCard(uint256)":"53132"}},"methodIdentifiers":{"addCollection(uint256,address)":"d7e362e5","aliveTrades()":"003d10a4","buyCard(uint256,string,uint256)":"4c633595","owner()":"8da5cb5b","renounceOwnership()":"715018a6","seeMarketPlace()":"3e31d066","sellCard(string,uint256,string[])":"f2ab1cc0","tradesCount()":"5932c02c","transferOwnership(address)":"f2fde38b","unSellCard(uint256)":"135befa8"}},"storageLayout":{"storage":[{"astId":8,"contract":"src/MarketPlace.sol:MarketPlace","label":"_owner","offset":0,"slot":"0","type":"t_address"},{"astId":5060,"contract":"src/MarketPlace.sol:MarketPlace","label":"_idToCollection","offset":0,"slot":"1","type":"t_mapping(t_uint256,t_contract(Collection)4744)"},{"astId":5102,"contract":"src/MarketPlace.sol:MarketPlace","label":"tradesCount","offset":0,"slot":"2","type":"t_uint256"},{"astId":5105,"contract":"src/MarketPlace.sol:MarketPlace","label":"aliveTrades","offset":0,"slot":"3","type":"t_uint256"},{"astId":5110,"contract":"src/MarketPlace.sol:MarketPlace","label":"spots","offset":0,"slot":"4","type":"t_mapping(t_uint256,t_struct(Card)5085_storage)"}],"types":{"t_address":{"encoding":"inplace","label":"address","numberOfBytes":"20"},"t_array(t_string_storage)dyn_storage":{"base":"t_string_storage","encoding":"dynamic_array","label":"string[]","numberOfBytes":"32"},"t_bool":{"encoding":"inplace","label":"bool","numberOfBytes":"1"},"t_contract(Collection)4744":{"encoding":"inplace","label":"contract Collection","numberOfBytes":"20"},"t_mapping(t_uint256,t_contract(Collection)4744)":{"encoding":"mapping","key":"t_uint256","label":"mapping(uint256 => contract Collection)","numberOfBytes":"32","value":"t_contract(Collection)4744"},"t_mapping(t_uint256,t_struct(Card)5085_storage)":{"encoding":"mapping","key":"t_uint256","label":"mapping(uint256 => struct MarketPlace.Card)","numberOfBytes":"32","value":"t_struct(Card)5085_storage"},"t_string_storage":{"encoding":"bytes","label":"string","numberOfBytes":"32"},"t_struct(Card)5085_storage":{"encoding":"inplace","label":"struct MarketPlace.Card","members":[{"astId":5070,"contract":"src/MarketPlace.sol:MarketPlace","label":"id","offset":0,"slot":"0","type":"t_string_storage"},{"astId":5072,"contract":"src/MarketPlace.sol:MarketPlace","label":"collectionId","offset":0,"slot":"1","type":"t_uint256"},{"astId":5075,"contract":"src/MarketPlace.sol:MarketPlace","label":"acceptedCurrencies","offset":0,"slot":"2","type":"t_array(t_string_storage)dyn_storage"},{"astId":5077,"contract":"src/MarketPlace.sol:MarketPlace","label":"owner","offset":0,"slot":"3","type":"t_address"},{"astId":5079,"contract":"src/MarketPlace.sol:MarketPlace","label":"done","offset":20,"slot":"3","type":"t_bool"},{"astId":5082,"contract":"src/MarketPlace.sol:MarketPlace","label":"acceptedCurrency","offset":0,"slot":"4","type":"t_struct(Trade)5092_storage"},{"astId":5084,"contract":"src/MarketPlace.sol:MarketPlace","label":"spotId","offset":0,"slot":"7","type":"t_uint256"}],"numberOfBytes":"256"},"t_struct(Trade)5092_storage":{"encoding":"inplace","label":"struct MarketPlace.Trade","members":[{"astId":5087,"contract":"src/MarketPlace.sol:MarketPlace","label":"uri","offset":0,"slot":"0","type":"t_string_storage"},{"astId":5089,"contract":"src/MarketPlace.sol:MarketPlace","label":"collectionId","offset":0,"slot":"1","type":"t_uint256"},{"astId":5091,"contract":"src/MarketPlace.sol:MarketPlace","label":"owner","offset":0,"slot":"2","type":"t_address"}],"numberOfBytes":"96"},"t_uint256":{"encoding":"inplace","label":"uint256","numberOfBytes":"32"}}},"userdoc":{"kind":"user","methods":{},"version":1}}}}