{"src/lib/MersenneTwister.sol":{"MersenneTwister":{"abi":[{"inputs":[{"internalType":"uint256","name":"nbVal","type":"uint256"},{"internalType":"uint256","name":"max","type":"uint256"}],"name":"getNRandValues","outputs":[{"internalType":"uint256[]","name":"","type":"uint256[]"}],"stateMutability":"view","type":"function"},{"inputs":[{"internalType":"uint256","name":"index","type":"uint256"},{"internalType":"uint256[624]","name":"MT","type":"uint256[624]"}],"name":"next","outputs":[{"internalType":"uint256","name":"","type":"uint256"},{"internalType":"uint256[624]","name":"","type":"uint256[624]"},{"internalType":"uint256","name":"","type":"uint256"}],"stateMutability":"pure","type":"function"},{"inputs":[{"internalType":"uint256[624]","name":"MT","type":"uint256[624]"}],"name":"twist","outputs":[{"internalType":"uint256[624]","name":"","type":"uint256[624]"}],"stateMutability":"pure","type":"function"}],"devdoc":{"kind":"dev","methods":{},"version":1},"evm":{"bytecode":{"linkReferences":{},"object":"608060405234801561001057600080fd5b506106ed806100206000396000f3fe608060405234801561001057600080fd5b50600436106100415760003560e01c8063670a5c6614610046578063e61a237e1461006f578063e988e9511461008f575b600080fd5b61005961005436600461046c565b6100b1565b604051610066919061048e565b60405180910390f35b61008261007d366004610564565b6102ad565b60405161006691906105b2565b6100a261009d3660046105c1565b6103cb565b604051610066939291906105ef565b60606000424443406040516020016100dc939291909283526020830191909152604082015260600190565b60408051601f19818403018152919052805160209091012090506101066001640100000000610629565b1661010f61044c565b81815261027060015b6102708110156101c9576101326001640100000000610629565b8161013f60026020610629565b8561014b600186610629565b610270811061015c5761015c61063c565b6020020151901c8561016f600186610629565b61027081106101805761018061063c565b60200201516101949118636c078965610652565b61019e9190610669565b16838261027081106101b2576101b261063c565b6020020152806101c18161067c565b915050610118565b5060008667ffffffffffffffff8111156101e5576101e56104d2565b60405190808252806020026020018201604052801561020e578160200160208202803683370190505b50905060005b878110156102a05761022683856103cb565b8484815181106102385761023861063c565b60200260200101818152508196508295505050508682828151811061025f5761025f61063c565b60200260200101516102719190610695565b8282815181106102835761028361063c565b6020908102919091010152806102988161067c565b915050610214565b5093505050505b92915050565b6102b561044c565b60005b6102708110156103c45760006102d360016380000000610629565b846102706102e2856001610669565b6102ec9190610695565b61027081106102fd576102fd61063c565b6020020151166103136001640100000000610629565b61032260016380000000610629565b1916858461027081106103375761033761063c565b6020020151166103479190610669565b9050600181901c610359601483610695565b1561036557639908b0df185b808561027061037661018d87610669565b6103809190610695565b61027081106103915761039161063c565b602002015118858461027081106103aa576103aa61063c565b6020020152508190506103bc8161067c565b9150506102b8565b5090919050565b60006103d561044c565b600061027085106103f0576103e9846102ad565b9350600094505b6000848661027081106104055761040561063c565b6020020151600b81901c63ffffffff1618600781901b639d2c56801618600f81901b63efc600001618601281901c189050610441866001610669565b969495509392505050565b60405180614e000160405280610270906020820280368337509192915050565b6000806040838503121561047f57600080fd5b50508035926020909101359150565b6020808252825182820181905260009190848201906040850190845b818110156104c6578351835292840192918401916001016104aa565b50909695505050505050565b634e487b7160e01b600052604160045260246000fd5b600082601f8301126104f957600080fd5b604051614e0080820182811067ffffffffffffffff8211171561052c57634e487b7160e01b600052604160045260246000fd5b6040528301818582111561053f57600080fd5b845b82811015610559578035825260209182019101610541565b509195945050505050565b6000614e00828403121561057757600080fd5b61058183836104e8565b9392505050565b8060005b6102708110156105ac57815184526020938401939091019060010161058c565b50505050565b614e0081016102a78284610588565b600080614e2083850312156105d557600080fd5b823591506105e684602085016104e8565b90509250929050565b838152614e4081016106046020830185610588565b82614e20830152949350505050565b634e487b7160e01b600052601160045260246000fd5b818103818111156102a7576102a7610613565b634e487b7160e01b600052603260045260246000fd5b80820281158282048414176102a7576102a7610613565b808201808211156102a7576102a7610613565b60006001820161068e5761068e610613565b5060010190565b6000826106b257634e487b7160e01b600052601260045260246000fd5b50069056fea26469706673582212203c4c1823a63bb2ac7c65cfb420f1cc2e2e1e6f67d7a4c2a557bc0e9b2948234964736f6c63430008140033","opcodes":"PUSH1 0x80 PUSH1 0x40 MSTORE CALLVALUE DUP1 ISZERO PUSH2 0x10 JUMPI PUSH1 0x0 DUP1 REVERT JUMPDEST POP PUSH2 0x6ED DUP1 PUSH2 0x20 PUSH1 0x0 CODECOPY PUSH1 0x0 RETURN INVALID PUSH1 0x80 PUSH1 0x40 MSTORE CALLVALUE DUP1 ISZERO PUSH2 0x10 JUMPI PUSH1 0x0 DUP1 REVERT JUMPDEST POP PUSH1 0x4 CALLDATASIZE LT PUSH2 0x41 JUMPI PUSH1 0x0 CALLDATALOAD PUSH1 0xE0 SHR DUP1 PUSH4 0x670A5C66 EQ PUSH2 0x46 JUMPI DUP1 PUSH4 0xE61A237E EQ PUSH2 0x6F JUMPI DUP1 PUSH4 0xE988E951 EQ PUSH2 0x8F JUMPI JUMPDEST PUSH1 0x0 DUP1 REVERT JUMPDEST PUSH2 0x59 PUSH2 0x54 CALLDATASIZE PUSH1 0x4 PUSH2 0x46C JUMP JUMPDEST PUSH2 0xB1 JUMP JUMPDEST PUSH1 0x40 MLOAD PUSH2 0x66 SWAP2 SWAP1 PUSH2 0x48E JUMP JUMPDEST PUSH1 0x40 MLOAD DUP1 SWAP2 SUB SWAP1 RETURN JUMPDEST PUSH2 0x82 PUSH2 0x7D CALLDATASIZE PUSH1 0x4 PUSH2 0x564 JUMP JUMPDEST PUSH2 0x2AD JUMP JUMPDEST PUSH1 0x40 MLOAD PUSH2 0x66 SWAP2 SWAP1 PUSH2 0x5B2 JUMP JUMPDEST PUSH2 0xA2 PUSH2 0x9D CALLDATASIZE PUSH1 0x4 PUSH2 0x5C1 JUMP JUMPDEST PUSH2 0x3CB JUMP JUMPDEST PUSH1 0x40 MLOAD PUSH2 0x66 SWAP4 SWAP3 SWAP2 SWAP1 PUSH2 0x5EF JUMP JUMPDEST PUSH1 0x60 PUSH1 0x0 TIMESTAMP PREVRANDAO NUMBER BLOCKHASH PUSH1 0x40 MLOAD PUSH1 0x20 ADD PUSH2 0xDC SWAP4 SWAP3 SWAP2 SWAP1 SWAP3 DUP4 MSTORE PUSH1 0x20 DUP4 ADD SWAP2 SWAP1 SWAP2 MSTORE PUSH1 0x40 DUP3 ADD MSTORE PUSH1 0x60 ADD SWAP1 JUMP JUMPDEST PUSH1 0x40 DUP1 MLOAD PUSH1 0x1F NOT DUP2 DUP5 SUB ADD DUP2 MSTORE SWAP2 SWAP1 MSTORE DUP1 MLOAD PUSH1 0x20 SWAP1 SWAP2 ADD KECCAK256 SWAP1 POP PUSH2 0x106 PUSH1 0x1 PUSH5 0x100000000 PUSH2 0x629 JUMP JUMPDEST AND PUSH2 0x10F PUSH2 0x44C JUMP JUMPDEST DUP2 DUP2 MSTORE PUSH2 0x270 PUSH1 0x1 JUMPDEST PUSH2 0x270 DUP2 LT ISZERO PUSH2 0x1C9 JUMPI PUSH2 0x132 PUSH1 0x1 PUSH5 0x100000000 PUSH2 0x629 JUMP JUMPDEST DUP2 PUSH2 0x13F PUSH1 0x2 PUSH1 0x20 PUSH2 0x629 JUMP JUMPDEST DUP6 PUSH2 0x14B PUSH1 0x1 DUP7 PUSH2 0x629 JUMP JUMPDEST PUSH2 0x270 DUP2 LT PUSH2 0x15C JUMPI PUSH2 0x15C PUSH2 0x63C JUMP JUMPDEST PUSH1 0x20 MUL ADD MLOAD SWAP1 SHR DUP6 PUSH2 0x16F PUSH1 0x1 DUP7 PUSH2 0x629 JUMP JUMPDEST PUSH2 0x270 DUP2 LT PUSH2 0x180 JUMPI PUSH2 0x180 PUSH2 0x63C JUMP JUMPDEST PUSH1 0x20 MUL ADD MLOAD PUSH2 0x194 SWAP2 XOR PUSH4 0x6C078965 PUSH2 0x652 JUMP JUMPDEST PUSH2 0x19E SWAP2 SWAP1 PUSH2 0x669 JUMP JUMPDEST AND DUP4 DUP3 PUSH2 0x270 DUP2 LT PUSH2 0x1B2 JUMPI PUSH2 0x1B2 PUSH2 0x63C JUMP JUMPDEST PUSH1 0x20 MUL ADD MSTORE DUP1 PUSH2 0x1C1 DUP2 PUSH2 0x67C JUMP JUMPDEST SWAP2 POP POP PUSH2 0x118 JUMP JUMPDEST POP PUSH1 0x0 DUP7 PUSH8 0xFFFFFFFFFFFFFFFF DUP2 GT ISZERO PUSH2 0x1E5 JUMPI PUSH2 0x1E5 PUSH2 0x4D2 JUMP JUMPDEST PUSH1 0x40 MLOAD SWAP1 DUP1 DUP3 MSTORE DUP1 PUSH1 0x20 MUL PUSH1 0x20 ADD DUP3 ADD PUSH1 0x40 MSTORE DUP1 ISZERO PUSH2 0x20E JUMPI DUP2 PUSH1 0x20 ADD PUSH1 0x20 DUP3 MUL DUP1 CALLDATASIZE DUP4 CALLDATACOPY ADD SWAP1 POP JUMPDEST POP SWAP1 POP PUSH1 0x0 JUMPDEST DUP8 DUP2 LT ISZERO PUSH2 0x2A0 JUMPI PUSH2 0x226 DUP4 DUP6 PUSH2 0x3CB JUMP JUMPDEST DUP5 DUP5 DUP2 MLOAD DUP2 LT PUSH2 0x238 JUMPI PUSH2 0x238 PUSH2 0x63C JUMP JUMPDEST PUSH1 0x20 MUL PUSH1 0x20 ADD ADD DUP2 DUP2 MSTORE POP DUP2 SWAP7 POP DUP3 SWAP6 POP POP POP POP DUP7 DUP3 DUP3 DUP2 MLOAD DUP2 LT PUSH2 0x25F JUMPI PUSH2 0x25F PUSH2 0x63C JUMP JUMPDEST PUSH1 0x20 MUL PUSH1 0x20 ADD ADD MLOAD PUSH2 0x271 SWAP2 SWAP1 PUSH2 0x695 JUMP JUMPDEST DUP3 DUP3 DUP2 MLOAD DUP2 LT PUSH2 0x283 JUMPI PUSH2 0x283 PUSH2 0x63C JUMP JUMPDEST PUSH1 0x20 SWAP1 DUP2 MUL SWAP2 SWAP1 SWAP2 ADD ADD MSTORE DUP1 PUSH2 0x298 DUP2 PUSH2 0x67C JUMP JUMPDEST SWAP2 POP POP PUSH2 0x214 JUMP JUMPDEST POP SWAP4 POP POP POP POP JUMPDEST SWAP3 SWAP2 POP POP JUMP JUMPDEST PUSH2 0x2B5 PUSH2 0x44C JUMP JUMPDEST PUSH1 0x0 JUMPDEST PUSH2 0x270 DUP2 LT ISZERO PUSH2 0x3C4 JUMPI PUSH1 0x0 PUSH2 0x2D3 PUSH1 0x1 PUSH4 0x80000000 PUSH2 0x629 JUMP JUMPDEST DUP5 PUSH2 0x270 PUSH2 0x2E2 DUP6 PUSH1 0x1 PUSH2 0x669 JUMP JUMPDEST PUSH2 0x2EC SWAP2 SWAP1 PUSH2 0x695 JUMP JUMPDEST PUSH2 0x270 DUP2 LT PUSH2 0x2FD JUMPI PUSH2 0x2FD PUSH2 0x63C JUMP JUMPDEST PUSH1 0x20 MUL ADD MLOAD AND PUSH2 0x313 PUSH1 0x1 PUSH5 0x100000000 PUSH2 0x629 JUMP JUMPDEST PUSH2 0x322 PUSH1 0x1 PUSH4 0x80000000 PUSH2 0x629 JUMP JUMPDEST NOT AND DUP6 DUP5 PUSH2 0x270 DUP2 LT PUSH2 0x337 JUMPI PUSH2 0x337 PUSH2 0x63C JUMP JUMPDEST PUSH1 0x20 MUL ADD MLOAD AND PUSH2 0x347 SWAP2 SWAP1 PUSH2 0x669 JUMP JUMPDEST SWAP1 POP PUSH1 0x1 DUP2 SWAP1 SHR PUSH2 0x359 PUSH1 0x14 DUP4 PUSH2 0x695 JUMP JUMPDEST ISZERO PUSH2 0x365 JUMPI PUSH4 0x9908B0DF XOR JUMPDEST DUP1 DUP6 PUSH2 0x270 PUSH2 0x376 PUSH2 0x18D DUP8 PUSH2 0x669 JUMP JUMPDEST PUSH2 0x380 SWAP2 SWAP1 PUSH2 0x695 JUMP JUMPDEST PUSH2 0x270 DUP2 LT PUSH2 0x391 JUMPI PUSH2 0x391 PUSH2 0x63C JUMP JUMPDEST PUSH1 0x20 MUL ADD MLOAD XOR DUP6 DUP5 PUSH2 0x270 DUP2 LT PUSH2 0x3AA JUMPI PUSH2 0x3AA PUSH2 0x63C JUMP JUMPDEST PUSH1 0x20 MUL ADD MSTORE POP DUP2 SWAP1 POP PUSH2 0x3BC DUP2 PUSH2 0x67C JUMP JUMPDEST SWAP2 POP POP PUSH2 0x2B8 JUMP JUMPDEST POP SWAP1 SWAP2 SWAP1 POP JUMP JUMPDEST PUSH1 0x0 PUSH2 0x3D5 PUSH2 0x44C JUMP JUMPDEST PUSH1 0x0 PUSH2 0x270 DUP6 LT PUSH2 0x3F0 JUMPI PUSH2 0x3E9 DUP5 PUSH2 0x2AD JUMP JUMPDEST SWAP4 POP PUSH1 0x0 SWAP5 POP JUMPDEST PUSH1 0x0 DUP5 DUP7 PUSH2 0x270 DUP2 LT PUSH2 0x405 JUMPI PUSH2 0x405 PUSH2 0x63C JUMP JUMPDEST PUSH1 0x20 MUL ADD MLOAD PUSH1 0xB DUP2 SWAP1 SHR PUSH4 0xFFFFFFFF AND XOR PUSH1 0x7 DUP2 SWAP1 SHL PUSH4 0x9D2C5680 AND XOR PUSH1 0xF DUP2 SWAP1 SHL PUSH4 0xEFC60000 AND XOR PUSH1 0x12 DUP2 SWAP1 SHR XOR SWAP1 POP PUSH2 0x441 DUP7 PUSH1 0x1 PUSH2 0x669 JUMP JUMPDEST SWAP7 SWAP5 SWAP6 POP SWAP4 SWAP3 POP POP POP JUMP JUMPDEST PUSH1 0x40 MLOAD DUP1 PUSH2 0x4E00 ADD PUSH1 0x40 MSTORE DUP1 PUSH2 0x270 SWAP1 PUSH1 0x20 DUP3 MUL DUP1 CALLDATASIZE DUP4 CALLDATACOPY POP SWAP2 SWAP3 SWAP2 POP POP JUMP JUMPDEST PUSH1 0x0 DUP1 PUSH1 0x40 DUP4 DUP6 SUB SLT ISZERO PUSH2 0x47F JUMPI PUSH1 0x0 DUP1 REVERT JUMPDEST POP POP DUP1 CALLDATALOAD SWAP3 PUSH1 0x20 SWAP1 SWAP2 ADD CALLDATALOAD SWAP2 POP JUMP JUMPDEST PUSH1 0x20 DUP1 DUP3 MSTORE DUP3 MLOAD DUP3 DUP3 ADD DUP2 SWAP1 MSTORE PUSH1 0x0 SWAP2 SWAP1 DUP5 DUP3 ADD SWAP1 PUSH1 0x40 DUP6 ADD SWAP1 DUP5 JUMPDEST DUP2 DUP2 LT ISZERO PUSH2 0x4C6 JUMPI DUP4 MLOAD DUP4 MSTORE SWAP3 DUP5 ADD SWAP3 SWAP2 DUP5 ADD SWAP2 PUSH1 0x1 ADD PUSH2 0x4AA JUMP JUMPDEST POP SWAP1 SWAP7 SWAP6 POP POP POP POP POP POP JUMP JUMPDEST PUSH4 0x4E487B71 PUSH1 0xE0 SHL PUSH1 0x0 MSTORE PUSH1 0x41 PUSH1 0x4 MSTORE PUSH1 0x24 PUSH1 0x0 REVERT JUMPDEST PUSH1 0x0 DUP3 PUSH1 0x1F DUP4 ADD SLT PUSH2 0x4F9 JUMPI PUSH1 0x0 DUP1 REVERT JUMPDEST PUSH1 0x40 MLOAD PUSH2 0x4E00 DUP1 DUP3 ADD DUP3 DUP2 LT PUSH8 0xFFFFFFFFFFFFFFFF DUP3 GT OR ISZERO PUSH2 0x52C JUMPI PUSH4 0x4E487B71 PUSH1 0xE0 SHL PUSH1 0x0 MSTORE PUSH1 0x41 PUSH1 0x4 MSTORE PUSH1 0x24 PUSH1 0x0 REVERT JUMPDEST PUSH1 0x40 MSTORE DUP4 ADD DUP2 DUP6 DUP3 GT ISZERO PUSH2 0x53F JUMPI PUSH1 0x0 DUP1 REVERT JUMPDEST DUP5 JUMPDEST DUP3 DUP2 LT ISZERO PUSH2 0x559 JUMPI DUP1 CALLDATALOAD DUP3 MSTORE PUSH1 0x20 SWAP2 DUP3 ADD SWAP2 ADD PUSH2 0x541 JUMP JUMPDEST POP SWAP2 SWAP6 SWAP5 POP POP POP POP POP JUMP JUMPDEST PUSH1 0x0 PUSH2 0x4E00 DUP3 DUP5 SUB SLT ISZERO PUSH2 0x577 JUMPI PUSH1 0x0 DUP1 REVERT JUMPDEST PUSH2 0x581 DUP4 DUP4 PUSH2 0x4E8 JUMP JUMPDEST SWAP4 SWAP3 POP POP POP JUMP JUMPDEST DUP1 PUSH1 0x0 JUMPDEST PUSH2 0x270 DUP2 LT ISZERO PUSH2 0x5AC JUMPI DUP2 MLOAD DUP5 MSTORE PUSH1 0x20 SWAP4 DUP5 ADD SWAP4 SWAP1 SWAP2 ADD SWAP1 PUSH1 0x1 ADD PUSH2 0x58C JUMP JUMPDEST POP POP POP POP JUMP JUMPDEST PUSH2 0x4E00 DUP2 ADD PUSH2 0x2A7 DUP3 DUP5 PUSH2 0x588 JUMP JUMPDEST PUSH1 0x0 DUP1 PUSH2 0x4E20 DUP4 DUP6 SUB SLT ISZERO PUSH2 0x5D5 JUMPI PUSH1 0x0 DUP1 REVERT JUMPDEST DUP3 CALLDATALOAD SWAP2 POP PUSH2 0x5E6 DUP5 PUSH1 0x20 DUP6 ADD PUSH2 0x4E8 JUMP JUMPDEST SWAP1 POP SWAP3 POP SWAP3 SWAP1 POP JUMP JUMPDEST DUP4 DUP2 MSTORE PUSH2 0x4E40 DUP2 ADD PUSH2 0x604 PUSH1 0x20 DUP4 ADD DUP6 PUSH2 0x588 JUMP JUMPDEST DUP3 PUSH2 0x4E20 DUP4 ADD MSTORE SWAP5 SWAP4 POP POP POP POP JUMP JUMPDEST PUSH4 0x4E487B71 PUSH1 0xE0 SHL PUSH1 0x0 MSTORE PUSH1 0x11 PUSH1 0x4 MSTORE PUSH1 0x24 PUSH1 0x0 REVERT JUMPDEST DUP2 DUP2 SUB DUP2 DUP2 GT ISZERO PUSH2 0x2A7 JUMPI PUSH2 0x2A7 PUSH2 0x613 JUMP JUMPDEST PUSH4 0x4E487B71 PUSH1 0xE0 SHL PUSH1 0x0 MSTORE PUSH1 0x32 PUSH1 0x4 MSTORE PUSH1 0x24 PUSH1 0x0 REVERT JUMPDEST DUP1 DUP3 MUL DUP2 ISZERO DUP3 DUP3 DIV DUP5 EQ OR PUSH2 0x2A7 JUMPI PUSH2 0x2A7 PUSH2 0x613 JUMP JUMPDEST DUP1 DUP3 ADD DUP1 DUP3 GT ISZERO PUSH2 0x2A7 JUMPI PUSH2 0x2A7 PUSH2 0x613 JUMP JUMPDEST PUSH1 0x0 PUSH1 0x1 DUP3 ADD PUSH2 0x68E JUMPI PUSH2 0x68E PUSH2 0x613 JUMP JUMPDEST POP PUSH1 0x1 ADD SWAP1 JUMP JUMPDEST PUSH1 0x0 DUP3 PUSH2 0x6B2 JUMPI PUSH4 0x4E487B71 PUSH1 0xE0 SHL PUSH1 0x0 MSTORE PUSH1 0x12 PUSH1 0x4 MSTORE PUSH1 0x24 PUSH1 0x0 REVERT JUMPDEST POP MOD SWAP1 JUMP INVALID LOG2 PUSH5 0x6970667358 0x22 SLT KECCAK256 EXTCODECOPY 0x4C XOR 0x23 0xA6 EXTCODESIZE 0xB2 0xAC PUSH29 0x65CFB420F1CC2E2E1E6F67D7A4C2A557BC0E9B2948234964736F6C6343 STOP ADDMOD EQ STOP CALLER "},"gasEstimates":{"creation":{"codeDepositCost":"354600","executionCost":"393","totalCost":"354993"},"external":{"getNRandValues(uint256,uint256)":"infinite","next(uint256,uint256[624])":"infinite","twist(uint256[624])":"infinite"}},"methodIdentifiers":{"getNRandValues(uint256,uint256)":"670a5c66","next(uint256,uint256[624])":"e988e951","twist(uint256[624])":"e61a237e"}},"storageLayout":{"storage":[],"types":null},"userdoc":{"kind":"user","methods":{},"version":1}}}}