{
  "_format": "hh-sol-artifact-1",
  "contractName": "MersenneTwister",
  "sourceName": "src/lib/MersenneTwister.sol",
  "abi": [
    {
      "inputs": [
        {
          "internalType": "uint256",
          "name": "nbVal",
          "type": "uint256"
        },
        {
          "internalType": "uint256",
          "name": "max",
          "type": "uint256"
        }
      ],
      "name": "getNRandValues",
      "outputs": [
        {
          "internalType": "uint256[]",
          "name": "",
          "type": "uint256[]"
        }
      ],
      "stateMutability": "view",
      "type": "function"
    },
    {
      "inputs": [
        {
          "internalType": "uint256",
          "name": "index",
          "type": "uint256"
        },
        {
          "internalType": "uint256[624]",
          "name": "MT",
          "type": "uint256[624]"
        }
      ],
      "name": "next",
      "outputs": [
        {
          "internalType": "uint256",
          "name": "",
          "type": "uint256"
        },
        {
          "internalType": "uint256[624]",
          "name": "",
          "type": "uint256[624]"
        },
        {
          "internalType": "uint256",
          "name": "",
          "type": "uint256"
        }
      ],
      "stateMutability": "pure",
      "type": "function"
    },
    {
      "inputs": [
        {
          "internalType": "uint256[624]",
          "name": "MT",
          "type": "uint256[624]"
        }
      ],
      "name": "twist",
      "outputs": [
        {
          "internalType": "uint256[624]",
          "name": "",
          "type": "uint256[624]"
        }
      ],
      "stateMutability": "pure",
      "type": "function"
    }
  ],
  "bytecode": "0x608060405234801561001057600080fd5b506106ed806100206000396000f3fe608060405234801561001057600080fd5b50600436106100415760003560e01c8063670a5c6614610046578063e61a237e1461006f578063e988e9511461008f575b600080fd5b61005961005436600461046c565b6100b1565b604051610066919061048e565b60405180910390f35b61008261007d366004610564565b6102ad565b60405161006691906105b2565b6100a261009d3660046105c1565b6103cb565b604051610066939291906105ef565b60606000424443406040516020016100dc939291909283526020830191909152604082015260600190565b60408051601f19818403018152919052805160209091012090506101066001640100000000610629565b1661010f61044c565b81815261027060015b6102708110156101c9576101326001640100000000610629565b8161013f60026020610629565b8561014b600186610629565b610270811061015c5761015c61063c565b6020020151901c8561016f600186610629565b61027081106101805761018061063c565b60200201516101949118636c078965610652565b61019e9190610669565b16838261027081106101b2576101b261063c565b6020020152806101c18161067c565b915050610118565b5060008667ffffffffffffffff8111156101e5576101e56104d2565b60405190808252806020026020018201604052801561020e578160200160208202803683370190505b50905060005b878110156102a05761022683856103cb565b8484815181106102385761023861063c565b60200260200101818152508196508295505050508682828151811061025f5761025f61063c565b60200260200101516102719190610695565b8282815181106102835761028361063c565b6020908102919091010152806102988161067c565b915050610214565b5093505050505b92915050565b6102b561044c565b60005b6102708110156103c45760006102d360016380000000610629565b846102706102e2856001610669565b6102ec9190610695565b61027081106102fd576102fd61063c565b6020020151166103136001640100000000610629565b61032260016380000000610629565b1916858461027081106103375761033761063c565b6020020151166103479190610669565b9050600181901c610359601483610695565b1561036557639908b0df185b808561027061037661018d87610669565b6103809190610695565b61027081106103915761039161063c565b602002015118858461027081106103aa576103aa61063c565b6020020152508190506103bc8161067c565b9150506102b8565b5090919050565b60006103d561044c565b600061027085106103f0576103e9846102ad565b9350600094505b6000848661027081106104055761040561063c565b6020020151600b81901c63ffffffff1618600781901b639d2c56801618600f81901b63efc600001618601281901c189050610441866001610669565b969495509392505050565b60405180614e000160405280610270906020820280368337509192915050565b6000806040838503121561047f57600080fd5b50508035926020909101359150565b6020808252825182820181905260009190848201906040850190845b818110156104c6578351835292840192918401916001016104aa565b50909695505050505050565b634e487b7160e01b600052604160045260246000fd5b600082601f8301126104f957600080fd5b604051614e0080820182811067ffffffffffffffff8211171561052c57634e487b7160e01b600052604160045260246000fd5b6040528301818582111561053f57600080fd5b845b82811015610559578035825260209182019101610541565b509195945050505050565b6000614e00828403121561057757600080fd5b61058183836104e8565b9392505050565b8060005b6102708110156105ac57815184526020938401939091019060010161058c565b50505050565b614e0081016102a78284610588565b600080614e2083850312156105d557600080fd5b823591506105e684602085016104e8565b90509250929050565b838152614e4081016106046020830185610588565b82614e20830152949350505050565b634e487b7160e01b600052601160045260246000fd5b818103818111156102a7576102a7610613565b634e487b7160e01b600052603260045260246000fd5b80820281158282048414176102a7576102a7610613565b808201808211156102a7576102a7610613565b60006001820161068e5761068e610613565b5060010190565b6000826106b257634e487b7160e01b600052601260045260246000fd5b50069056fea26469706673582212203c4c1823a63bb2ac7c65cfb420f1cc2e2e1e6f67d7a4c2a557bc0e9b2948234964736f6c63430008140033",
  "linkReferences": {},
  "deployedLinkReferences": {}
}